:20000000E83F00202D4A000001CA011001CA011001CA011001CA011001CA011001CA0110FA
:1C00200001CA011001CA011001CA011001CA011001CA011001CA01103FCA011082
:20003C00F8B58C4645688468DCF8007095F85810B8B288401FFA80FE2068B0F1804F14BFBF
:20005C00234B244BDCF80820234832B995F858108E00815905F1720207E095F858108E0024
:20007C00811951F8081C7244521E99605A6021683A0143F6F077103A0831174019609A68CB
:20009C003A439A602368B3F1804F14BF134A144ADCF804C0BCF1000F04BF8059A61D05D0B9
:2000BC00801950F8100C0EEB0C06761E906016605160906807439760A168EE6EE068084340
:2000DC00716809688862586A40F003005862F8BD0005002030040020C86F00001005002087
:0400FC00400400209C
:200100003C000000000000000000000034010000000000000000000001000000000000006D
:1C01200000000000000000000000000001000000000000000800000000000000BA
:20013C00340000000000000000000000680100000000000000000000010000000000000005
:14015C00010000000000000000000000080000000000000086
:2001700030000000000000000000000098010000040000000000000001000000FFFFFFFFA5
:10019000FF00000001000000080000000000000057
:2001A0002C0000000000000000000000C4010000040000000000000001000000FFFFFFFF4D
:0C01C000FFFFFFFF08000000000000002F
:2001CC0034050000E401000099A1011095A70110A5C2011009B2011045B80110000000000B
:0801EC00000000002E000000DD
:2001F400280000000000000000000000140200000000000000000000FFFFFFFF00000000B1
:080214000800000000000000DA
:20021C00300500003002000069C201106DC101101FC2011095BA011000000000000000008E
:04023C00300000008E
:20024000300500005402000075C20110A9B601109DBF011049B601100000000000000000DE
:040260003100000069
:200264002400000000000000000000008002000000000000000000000000000008000000CC
:040284000000000076
:20028800240000000000000000000000A40200000000000000000000000000000800000084
:0402A8000000000052
:2002AC00240000000000000000000000C8020000000000000100000000000000080000003B
:0402CC00000000002E
:2002D000000000001C2A0020040000000000000000000000200000007001000030000000E3
:2002F0001C020000302A00200400000000000000000000000C0000003004000018000000FA
:20031000400200003C2A002004000000000000000000000024000000480400001800000079
:2003300000000000442A002004000000000000000000000010000000A00100002C0000003E
:20035000CC0100004C2A00200400000000000000000000002000000064020000240000007C
:20037000FFFFFFFF6C2A0020040000000000000000000000280000008802000024000000E1
:20039000FFFFFFFF7C2A0020040000000000000000000000580000003C01000034000000BE
:2003B000FFFFFFFF842A0020040000000000000000000000100000006004000018000000D3
:2003D000FFFFFFFF8C2A00200400000000000000000000001C000000AC0200002400000049
:2003F000FFFFFFFF942A002004000000000000000000000038000000F401000028000000BA
:20041000FFFFFFFF9C2A002004000000000000000000000054000000000100003C00000055
:1804300018000000000000000000000040040000080000000000000050
:1804480018000000000000000000000058040000080000000000000020
:18046000180000000000000000000000700400000800000000000000F0
:080478000100000044720000C5
:0404800006F020BBA7
:040484000100000073
:0404880000000C0064
:04048C0000000D005F
:040490003200000036
:040494000200000062
:04049800442D0020CF
:04049C00000200005A
:0404A0000000000058
:0404A40001CA011078
:0404A8000000000050
:0404AC00000000004C
:0404B0000800000040
:0404B4000000200024
:0404B8000C2D0020E7
:0404BC00010000003B
:0404C000542A00209A
:0404C400080000002C
:0404C8000000000030
:0404CC00000000002C
:0404D0000000000028
:0404D4000000000024
:0404D8000000000020
:0404DC00010000001B
:0404E000A42D002027
:0404E400060000000E
:0404E800010000000F
:0404EC00FC2B0020C5
:0404F0000000000008
:0404F4000000000004
:0404F80000020000FE
:0404FC0000000000FC
:02050000704742
:020502002A00CD
:020504000100F4
:020506002500CE
:020508003000C1
:02050A003100BE
:02050C002E00BF
:02050E000100EA
:0105100001E9
:0805140003000000F471000077
:08051C000000000000000000D7
:0405240000000100D2
:0405280000000300CC
:04052C0087C401106F
:04053000380500008A
:040534003805000086
:0405380000000000BF
:04053C00800000003B
:040540008000000037
:0405440000000000B3
:04054800542A002011
:04054C00EF67000055
:040550002000000087
:04055400A071000092
:04055800D07000005F
:04055C000DC30110BA
:040560006B390000F3
:04056400BB3E00009A
:0405680099C801101D
:04056C009BC8011017
:040570000000000087
:04057400D67100003C
:040578004C700000C3
:04057C0064700000A7
:0405800034700000D3
:0205840008006D
:0205860009006A
:02058800010070
:02058A0000006F
:01058C00016D
:040590000000000067
:040594000000000063
:04059800000000005F
:04059C00000000005B
:0405A0004D660000A4
:0405A400014D000005
:0405A800795D000079
:0405AC00F94A000008
:0405B0007D3F00008B
:0405B4006951000089
:0405B8000135000009
:0405BC005D6100007D
:0405C00039400000BE
:0405C40011C8011049
:0405C80021C8011035
:0405CC000800000023
:0405D0002400000003
:0405D400180000000B
:0405D80028000000F7
:0405DC0020000000FB
:0405E0003C000000DB
:0405E4000C00000007
:0405E80034000000DB
:2005EC002DE9F84F054640F29421012441F22D00C4F22231C4F2090040F81D4C086810B939
:20060C0008680028FAD046F2000043F6B477C021C4F20C00C5F2000701603E6857F8040C09
:20062C0046F25622C4F20802800806D257F8080C000C40F0F000107001E07220107041F2A9
:20064C00B820C5F200000068C0F3046006F044F939680B171B185B1C13F10A0FB8BF6FF0ED
:20066C0009034FF0000CF10EB00E03F01F0381F00101C4F2203C80F0010043F4F85301F0DC
:20068C000101138300F00100CCF800103146CCF80800284601F0B4FE814606F08BF900213B
:2006AC00002808BF211C48F20008C4F20C08D8F8000018B9D8F800000028F8D04AF2080A47
:2006CC00C4F20C0ACAF81090C8F8004009B106F077F9284605F08CFC40F2FF32002380B21D
:2006EC002C2100904AF20000C4F20C0003F0CCFC284605F09DFE814606F05CF900210028FF
:20070C0008BF211CD8F8000018B9D8F800000028F8D0CAF81490C8F8004009B106F050F909
:20072C00284605F05BFA814606F044F90021002808BF211CD8F8000018B9D8F80000002815
:20074C00F8D0CAF80C90C8F8004009B106F038F9284605F0F9FB814606F02CF90021002804
:20076C0008BF211CD8F8000018B9D8F800000028F8D0CAF80890C8F8004009B106F020F9E5
:20078C00284602F0FBFE814606F014F90021002808BF211CD8F8000018B9D8F80000002844
:2007AC00F8D0CAF80490C8F8004009B106F008F9284605F00DFE4AF24009C4F20C09400060
:2007CC0040F0200089F80901284605F00DFE40F0100089F80901284605F01AFC834606F0C1
:2007EC00E9F80021002808BF211CD8F8000018B9D8F800000028F8D0CAF820B0C8F80040CC
:20080C0009B106F0DDF8284605F0FAFD400040F0600089F80C01284605F0FEFDC00040F041
:20082C00800089F80101284605F00EFE800040F47C40A9F89C01284604F0C2FF834606F0AA
:20084C00B9F80021002808BF211CD8F8000018B9D8F800000028F8D0CAF800B0C8F80040BB
:20086C0009B106F0ADF8442089F8C5004FF0880E89F8C7E0284605F0FBFE40F03001C6F3FA
:20088C00815089F8C81078B3401E06D0401E26D00420022103F0A7FD30E0204605F07AFAB2
:2008AC0005460420294603F09EFD042005F072FA8542FAD157F80C5C25F07F4004F0C0FD6D
:2008CC0040F2B410C1F200000068036807214FF06022280E98474FF48060C9F8000004208A
:2008EC00032103F080FD09E00420214603F07BFD43F2BD70C0F2860004F0A2FD41F2B82041
:20090C00C5F20000D0F8B4004BF2700242F22C0E46F2000B47F618014FF0000C41F22D0A2D
:20092C00C4F20C02C4F2090E40F2944800F03F0089F8CB0FC4F20C0B1180DEF80000CBF88B
:20094C0000C0C4F2090A4AF81DCCC4F26028C8F80040BDE8F88F70472DE9F84FC64DC74E31
:20096C00D5F8EF1FCC4C7368D5F8F30F8843C5F8F30F002BC5F8FF1F00F011817788012B91
:20098C0000F0D680DFF8FCB2BF4FDFF800A3DFF80093DFF80083022B72D0032B40F06A817C
:2009AC000024B06855F8312C74600028A2F5C062B8BF404211460029B8BF494288422EDA43
:2009CC00111C54BF02206FF00100B26900EB4100032190FBF1F18918B161F36870699842B0
:2009EC000BD0B1F11002B8BF524230691038B8BF40428242B8BF88B209DB98B20090A0485C
:200A0C0030214FF47F42082303F03EFB308A00909B4804214FF4F802122303F035FB584699
:200A2C00046001688908FCD20460012644600E203E6001F035FF50460468EFF3118584F36D
:200A4C00118849460820B0FA80F00A1AD07F431E0128D37704D14246106820F0080010607C
:200A6C0085F31188EFF3118384F311880420B0FA80F0091AC87F421E0128CA7754D14EE00E
:200A8C0055F8310CB0F5C06F17D00327776001F0BDFA45F8397C0027276020688008FCD2DE
:200AAC007748394660220523009103F0EDFA0126266020688008FCD364E000217160584677
:200ACC00016002689208FCD20160012641600E203E6001F0E5FE50460468EFF3118584F31D
:200AEC00118849460820B0FA80F00A1AD07F431E0128D37704D14246106820F008001060DC
:200B0C0085F31188EFF3118384F311880420B0FA80F0091AC87F421E0128CA7704D1424663
:200B2C00106820F00400106083F31188BDE8F88F55F8312C02214BF2F52071605043000AE5
:200B4C0037B95649096821F07F414018400801E0002171806060000CA0600126E6600327C2
:200B6C0045F8397C0027276020688008FCD24448394660220523009103F086FA2660206824
:200B8C008008FCD345F8216C45F8397C0820C5F8FF0FC5F8F30F45F8396CBDE8F88F4048EE
:200BAC000068006801462020884741F61D574FF002080F2045F82D0C00214FF4C0720723AA
:200BCC0045F8297C2E48CDF8008003F05DFA012744F8047C54F8040C8008FBD3308845F897
:200BEC001D7C012821D0032045F8390C4FF00009C4F8009020688008FCD2214849466022A5
:200C0C000523009103F040FA276020688008FCD345F8217C45F8399C0820C5F8FF0FC5F8E0
:200C2C00F30F45F8397C474623E04FF00009C4F80C90032045F8390CC4F800902068800883
:200C4C00FCD20F48CDF8008049466022052303F01BFA276020688008FCD3202045F8210CCD
:200C6C0045F8399C0824C5F8FF4FC5F8F34F45F8397C7760BDE8F88F39400C40202E0020F8
:200C8C0000A00C4034600C4004800C403C720000032A0020382B002038600C4010200940D1
:200CAC00A00100102DE9F04F5FEA0009ADF11C0D00F05581AC480068EFF3118280F3118866
:200CCC00DFF8C8B29BF80400012818BF012003D1022100208BF8041082F31188012800F02A
:200CEC003C8106F001F80390A948046804EB0B0005F0F6FF4FF00008464637460BEB04011D
:200D0C00CDF810800191B0B90C46084605F0E4FF0546A868400808D3E86829690246012036
:200D2C009047C0B2002840F01081284605F0D0FF0546AC42EDD1002F40F00B8105F0C4FFA9
:200D4C000290059789480760012005F023F8012804D1404603F08EFF4FF00108844F386831
:200D6C008068014630468847864819300090D0F8FF0FB9F1000F00F08C80864C0A34E57953
:200D8C0005B10126A5790DB146F0020665790DB146F00406DFF8DC9165782DB1B86A006BE8
:200DAC0049460246C88D904725782DB1B86A006B49460246488D90476F4901200860B86A36
:200DCC008069014646F0200088476C4DDBF80010286840F001002860480813D2684805F0F3
:200DEC0074FD8246BAF1040FF8D0D5F8180220F00300C5F81802B86C406802466048032177
:200E0C00904701E001200490059800F0E9FCB86A0099806BD1F8FF1F8047049858B9B86CC2
:200E2C0040680246564851469047D5F8180240F00300C5F8180238688068014601208847FA
:200E4C00504801688909FCD3B8F1010F02D1012003F010FFB86A4069014630468847B86AFC
:200E6C00406B0146304688470128F8D166782EB1B86AC06A49460246C88D904726782EB1B4
:200E8C00B86AC06A49460246488D90473A49012008603A480168032221F00101016001984E
:200EAC008BF8042005F01CFF0028059818BF01200125C0B9019C204605F00EFF0646B068AA
:200ECC00C00806D3F0683169024604209047C0B230B9304605F0FCFE0646B442EFD102E08C
:200EEC002948006880472148009F0560D7F8FF0F05F066FD019805F0F3FE059FC8B9019C63
:200F0C00204605F0E9FE0646B068000906D3F0683169024608209047C0B230B9304605F03E
:200F2C00D7FE0646B442EFD103E0174800688047022702988BF8045005F0C2FE02F086FF97
:200F4C00039805F0B9FE38460AE00F4800688047022701208BF80400F2E7062000E002207E
:200F6C0007B0BDE8F08FC0463C7200000C40094090010010E86F0000282008600C20084025
:200F8C00004003401410094030720000382B00202C720000F0290020F8B5A0F20135174687
:200FAC000E46022D40F20A81874A8549854B2D1F0F2D04D9143D4AD0AD1E1CD011E0DFE837
:200FCC0015F0B900B400EA00DA00AD00A600FD009E009700100010009000860079006E002D
:200FEC006000272880F2EA80022E40F0E780398804F070F9F8BD012E40F0E0800A469078A9
:20100C00012800F0DB80D1783878D07081B9002800F0D4801078012800F09F80042800F095
:20102C009C80062800F09980052800F09680F8BD3878002840F0C2801078032800F0988064
:20104C00072800F09580052800F09280F8BD012E40F0B4803878012840F0B0801D4605F147
:20106C00F00005F007FC002840F0A880002002F053FD002840F0A2802846CC3005F048FD7C
:20108C00F8BD022E40F09A8038880A28C0F29680B0F5486F00F3928011461E3115E0022E2F
:2010AC0040F08C803888B0F5FA7F80F2878011461C310AE0022E40F08180388806287DDB5C
:2010CC00B0F5486F7ADC11461A310880F8BD022E74D13888062871DBB0F5486F6EDC1731D6
:2010EC00F3E7012E6AD13878022867DA0A310CE0012E63D13878042860DA093105E0012E97
:20110C005CD13878082859DA08310870F8BD012E54D13878042851DAC91DF6E7012E4DD1B2
:20112C00387804284ADC891DEFE7022E46D138881331CAE7012E41D10A46D07801283DD01A
:20114C0091783878907061B9002837D01078012803D0042818BF052830D1012005F034FA88
:20116C00F8BD387850BB1078022818BF052825D105F048FBF8BD1D4605F1890400211F2212
:20118C00204602F003FB39463246204601F0B0FF0020AE710EE01D4605F16A0400211F229A
:2011AC00204602F0F3FA39463246204601F0A0FF01206E713146224603F066F9F8BDC04605
:2011CC002523002024230020242300202DE9F0410446DFF81C82A2780026101C00F0D78014
:2011EC00801E00F0B180401E012840F28780801E52D0401E26D0401E03D0083800F0EA8085
:20120C00EBE0454605F1F00005F082FC6078002840F0E380E0882884208968846089A884C2
:20122C0005F1CC0005F026FB002840F0D6806B6B002B00F0D2801B68288C698CAA8C984798
:20124C00BDE8F081A08804F0B8FD45463146062205F1440002F09AFA2E846E84AE84A079C2
:20126C00687305F1CC0005F053FC05F1F00005F04FFC01264FF6FF702F79E8824FB9A0794D
:20128C00082814BF042005206870304605F09CF9A3E003206870A0E045466778EA7A2FBB68
:2012AC00211D0B6805F1440003608988818006276F706089E882E0892884208A6884608ACE
:2012CC00A884E078012A28730AD11F2003F052FD4FF47A71024605F1CC00514303F0EAFEB5
:2012EC00E0786289211D03F0ADFE78E06078312818BF08201CD1EE70042019E06778002FC5
:20130C0063D14546A98A6878032A13D0EA782F7921B9012A14BF2E71EE7006E0174304D0EC
:20132C0005F1A80003F0C6FE68780728E4D10620687054E0062805D0E87800280CBF0320DD
:20134C000220F5E70720F3E76078651C00283CD14046E77881798FB94178022914D00729D5
:20136C0012D0062902D1017901290DD1A83005F081FA48B9012005F027F905E000F189021B
:20138C00304603F081F828702878F0B925E06078D8B945460220102105F14A0204F084F880
:2013AC000320102105F15A0204F07EF8E41C05F13800A7882168878005F16A020160012040
:2013CC006979687003F060F848B1454608206D1C287004E0A08805F0BDFA012E06D14546E6
:2013EC00286B18B1016809B168788847BDE8F081242300202DE9F041ADF1280D04F03EFCEE
:20140C0005F0D6F8764D41F2883204237549E86005F16C0003F032FA03F00EFF1F20062139
:20142C0003F058FF5021ADF806100020ADF8020001248DF8004080468DF804406A46ADF895
:20144C000A804FF44871ADF808104FF47A70ADF80C0040F205302146FFF79EFD40F2063098
:20146C0002210DF10202FFF797FD4FF442701E2105F14D02FFF790FD40F20730072105F12E
:20148C001C02FFF789FD4FF44470214601AAFFF783FD40F2113002210DF10602FFF77CFD1C
:2014AC0040F21230022102AAFFF776FD40F2133002210DF10A02FFF76FFD4FF44570022155
:2014CC0003AAFFF769FD05F051FA0620A02103F001FF0720A02103F0FDFE0820A02103F02B
:2014EC00F9FE0920A02103F0F5FECDF810808DF8144027468DF816804FF4816004218DF895
:20150C00157004AA8DF8177003F0CAFE4FF48060214605AA03F0C4FE40F2024021460DF1FE
:20152C00150203F0BDFE40F2034021460DF1160203F0B6FE40F2064021460DF1170203F058
:20154C00AFFE05F0ADFAFEF795FF05F0C9F804F0D1FB02268DF8187003258DF819600424B4
:20156C008DF81A5020498DF81B4007A80A680979026006AA01714046394602F029FD384665
:20158C000DF11902014602F023FD39460DF11A02304602F01DFD39460DF11B02284602F0B8
:2015AC0017FD052107AA204602F012FD05F0D4F804F038FE04F08EF905F06CFA05F06DFAB0
:2015CC0003A0414604F0E2FA0AB0BDE8F081C046424C45205065726970686572616C00C070
:2015EC00881F0020516700001E7200002DE9F0411C4615468C4208BF854282BF00230022EA
:20160C00E5E0002C08BF002D0AD100290EBF00286FF000006FF0000100F0E1F8BDE8F08142
:20162C005FF000085FF0000E002C08BF8D429CBF2C1C0025070C47EA01470E0CB44208BFFD
:20164C00BD429EBF5FEA044444EA15445FEA0545070A47EA01670E0AB44208BFBD429EBF9C
:20166C005FEA042444EA15645FEA0525470847EAC1774E08B44208BFBD4200F29380870875
:20168C0047EA81778E08B44208BFBD427CD8C70847EA4177CE08B44208BFBD4266D80709D7
:2016AC0047EA01770E09B44208BFBD4250D8470947EAC1674E09B44208BFBD423AD887091C
:2016CC0047EA81678E09B44208BFBD4224D8C70947EA4167CE09B44208BFBD420DD8E6018E
:2016EC0046EA5566EF01B14208BFB84201D3C01BB14158EB08085EEB0E0EA60146EA956624
:20170C004FEA8517B14208BFB84201D3C01BB14158EB08084EEB0E0E660146EAD5666F01A9
:20172C00B14208BFB84201D3C01BB14158EB08084EEB0E0E260146EA15762F01B14208BFD4
:20174C00B84201D3C01BB14158EB08085EEB0E0EE60046EA5576EF00B14208BFB84201D3D2
:20176C00C01BB14158EB08084EEB0E0EA60046EA9576AF00B14208BFB84201D3C01BB14103
:20178C0058EB08084EEB0E0E660046EAD5766F00B14208BFB84201D3C01BB14158EB08089D
:2017AC005EEB0E0EA14208BFA84201D3401BA14158EB08085EEB0E0EA34208BFAA423EBFC6
:2017CC002D0A45EA0465240A89D3734642461E4617460B46024631463846BDE8F081704747
:2017EC00F8B507460020C4F209000068800880F0C98004F058F842F22421C4F208010A686D
:20180C00002112F0030F18BF0121D20828BF41F00201002F18BF41F0040141F67836C2F2C4
:20182C00000696F90720821A052A04DAB2798A4208BFB28870D041F29C340F28A0F10F0223
:20184C00C5F2000425DB02EB02121712072F88BF0727BC46BCF1060F88BF4FF0060C54F844
:20186C002CE00423254603EB8C03EB58CD08A3EB0E0303F0FF0C24BFC3F30725AC448D0842
:20188C0024BFC3F30745AC444D0805D30CEB136C02E04FF0000C674654F82730CC0803F080
:2018AC00FF0524BFC3F3072425448C0824BFC3F3074425444C0828BF05EB1365A2EB0722B1
:2018CC001FFA8CF3534380330022082B88BF012243F6B473C5F200031C681B684FF4D07CAC
:2018EC0034275219241703F0FF0307FB14C45C434FF6FF73B4FBF2F2934238BF1A1C802879
:20190C0092B2B28005DA10F1800F03DA6FF07F0000E07F20F071B17142F20800C4F209001E
:20192C0001681F2A4FF00000316015D340F2FF13934213D219465208401C93420ED252080F
:20194C00401C93420AD25208401C914206D25208401C9142EFD301E01F22B2800F3A4FF6E0
:20196C0000714FF0350E1209C8F2A401C4F2090E40EAC2000143CEF8FB1F4FF0000CCEF800
:20198C00FFCFF8BD41F67E324FF6FD50082141F2300EC2F20002C0F2A4001170C4F2090E4B
:2019AC00CEF80000F8BD70472DE9F04FADF15C0D03F05CFC0027012804D104F0E4FC02281F
:2019CC0008BF012751490868C0F38150012806D151F80C0C0126010E06FA01F007434C4818
:2019EC004C4E00783068C0F3460603F03FFC012808BF761C484C26603EB1FF2204F1400122
:201A0C003046401E01F8012BFBD1DFF81091D9F800004FF0000800F0FF01FF2918D04D46D2
:201A2C0000F0FF03414601229E426CD902FA03F31F4268D100F0FF00201880F8401055F811
:201A4C00040F43EA0808491C00F0FF03FF2BEBD1092000F0B9FEC4F8049001A800212422BD
:201A6C00082305F025F94FF0010A04F1240001AA8DF81CA0514605F017F9236833B300269A
:201A8C002546B34660350AFA06F0074218D118EA000F04BF06F0FF0141F4C04104D0A01988
:201AAC0090F8400059F820101D4801F025F8F0B24FF0FF3104F0EEFB2368C5F800B001E097
:201ACC0004202860761C2D1D9E42DCD30AA800213022082305F0E4F8002010210AAB114A61
:201AEC00009004F1080005F0D7F80F4951F80D0C20F4F85040F4005041F80D0C5746C1F847
:201B0C00FF7F0A4E376017B0BDE8F08FB43F0050801B00208012084060190020D02C0020D4
:201B2C00007FC767414800000D300940080009401FB5401E3DD0401E39D0801E35A421D07E
:201B4C00401E1AD0401E08D0401E04D0401E14BF201C31A059E032A057E040F21530694623
:201B6C0000F030F904F038FF33A0022104F00EF8684602F051FD032148E0142002F098F934
:201B8C0030A006E03C4804F0C3FF142002F090F92FA0022103F0FAFF2046032103F0F6FF4A
:201BAC002046042103F0F2FF204605212EE02CA02BE04FF4417002A900F004F99DF80940CF
:201BCC008DF801409DF80A308DF802309DF808008DF8000000228DF804209DF80D108DF889
:201BEC0003209DF80C408DF807109DF80B308DF8064068468DF8053004F0FCFD02A802F0AD
:201C0C000BFD012103F0C2FF18A0022103F0BEFF00901FBD00C046C04572726F7200C0460D
:201C2C00436F6E6E6563746564204164766572746973696E6700C046436F6E6E6563746530
:201C4C006400C04654696D6564204F757400C046446973636F6E6E656374656400C046C024
:201C6C004164766572746973696E6700496E697469616C697A656400F41F0020B0B545681D
:201C8C0084684B48297BADF1180D012916D0217C627C484B2F7E0143009143EA02010191F0
:201CAC00454937F0010718BF081CA27C1043029095F859000322FF2811D00DE0677C217CDD
:201CCC003843A37C019041F00041009143F000403A49029095F85900014304220391FF203F
:201CEC004DF82200694605F15C0001F02FFBA866002808BF002058D0287B314951F820008A
:201D0C00012828D02068B0F1804F14BF22220A22217CA86E04F0ACF82068B0F1804F14BF45
:201D2C0021220922617CA86E04F0A2F82068B0F1804F14BF24220C22A17CA86E04F098F8B2
:201D4C0095F85910FF292FD02068B0F1804F14BF23220B2225E02068B0F1804F14BF21220A
:201D6C000922217CA86E04F083F82068B0F1804F14BF22220A22617CA86E04F079F82068EF
:201D8C00B0F1804F14BF24220C22A17CA86E04F06FF82068B0F1804F14BF23220B2295F828
:201DAC005910A86E04F064F8012006B0B0BDC046000480A0004000800004C0A00020008016
:201DCC00B06F00002DE9F04F0C4646498A8BADF13C0D84460992487B0D90CE7800964A8B30
:201DEC000892888C0C900A8B488C079291F80CE00B908E78CA7A088C0692CB8A0A908A7A12
:201E0C0091F804A005924A7AC88B04920A7A91F801800392CA798D8A02928A79CF6A019265
:201E2C004A79E146A9F54079B9F11D0F10D8DFE809F0554F4D4B49474543403D3B39363428
:201E4C00320F312F2D2B2A24211F1D0F1A191816BCF1270F43DA604602F08CFF13E0DDF877
:201E6C0034E0F246D046CDF8148016E00C980B900B980A900A98054620E0443108682060D7
:201E8C008888A0802BE00990099808900898079007980690069B238021E0059804900498AB
:201EAC00039001E03E31E9E7039802900298009006E0019A89310DE06A310BE02846E2E727
:201ECC00009E0BE03831D9E7276008E05A3100E04A311022204601F00BF900E026700FB02D
:201EEC00BDE8F08F242300202DE9F04304466668A5680F46ADF1540D04F0CAFE96F8A4108B
:201F0C002D1D012903D104F0BFFE002075E04FF0010986F8A49004F0B7FE1FB90DA804F022
:201F2C0007FC0DAF4FF00008C6F854803869306178697061387E3076387B30733878307017
:201F4C00786886F87080706078694146092828BF494686F85810687800F036FC204602F008
:201F6C00EDF8E87B86F859002046FFF787FE50B9687800F095FC04F08BFE86F8A48004F0D8
:201F8C0083FE444638E001A841463022082304F087FE0694CDF80080194A297806F11C00F6
:201FAC0001AB04F079FE307878B901A841462422082304F07DFE8DF81C9006F1380041462E
:201FCC0001AA04F071FE0F4800E0B868B06002F0E1F8F066307B012805D1B06E04F0F6FCB1
:201FEC00B06E00B18460084ACDF8008006F190000421234603F0B4FB204615B0BDE8F08391
:20200C001D220000816A0000096A00002DE9F843804604F0CFFC002100B901213A4D2D1F72
:20202C0028680028FCD0DFF8DC90012609F10407FC6A2E6009B104F0C3FC3448C4F30721E5
:20204C0000F10804616004F0B5FC0146002001B93046014628680028FCD03F682E6009B1C0
:20206C0004F0AEFCC7F38441A8F5C060A160B8F5C06F2060B4BF6FF001030223626803EB6A
:20208C004003032093FBF0F00918104602290FDB1E290BDB3F28B9BF521C401C3F22101C71
:2020AC00E2603029B4BF10391F210DE0E0600BE010F13F0FACBF401E6FF03F00E06011F16D
:2020CC00100FACBF10310021216180B24FF47F42082330210090484601F0D6FF00964846CC
:2020EC0004214FF40032112301F0CEFF208A04214FF4F80212230090484601F0C5FFBDE88F
:20210C00F883C04600A00C4004800C40202E00202DE9F04707467C68BE6804F0B9FD08347E
:20212C00E16C002967D004F0AFFD3168486820F0020048603168486A20F003004862656E68
:20214C00F068B168084369680968C1F804053168486920F00100486130684FF00108C0F817
:20216C0020803068B0F1804F14BF40F201104FF48070234909688847384601F0DFFFE06C1D
:20218C00D0F804A004F084FD1E4D8146287850B11AF0704F02D1102002F036FF042002F076
:2021AC0033FF00202870484604F06EFDE16C087C042802D003200874E16CB268F068636E3E
:2021CC004546104305FA00F258680068C2623068B0F1804F14BF0C480C480E680068002552
:2021EC008204A6EB9250401E086038462268E5649047BDE8F08704F047FDBDE8F087C04676
:20220C0078000010811B002008050020380400202DE9F0470646B1680A687468D069083470
:20222C001062400841D2606E40680268CD68D2F80405284206D00B68586A20F0020058629C
:20224C00C2F80455D2F804258868024256D00A68506A20F0010050628868616E4968096842
:20226C00C1F80405E06C00250574E76CD7F804A004F00EFDDFF88880814698F8000050B1AA
:20228C001AF0704F02D1102002F0BEFE042002F0BBFE40460570484604F0F6FC2268E564A7
:2022AC00304639469047BDE8F0870A68506920F001005061E76CF7B9506820F002005060C0
:2022CC00506A20F0030050628B68C868616E496809681843B2F1804FC1F804050CBF4FF4C2
:2022EC00807040F20110074909688847304601F025FFBDE8F0873046FFF70AFFBDE8F087D7
:20230C00811B00207800001038482DE9FC4700680068014620208847354DDFF8D8A04FF05E
:20232C0002080F2000214FF4C072072345F82D0C41F61D5045F8290C5046CDF8008001F040
:20234C00A3FE2D4C012644F8046C54F8040C8008FBD3DFF8A890B9F8000045F81D6C012823
:20236C001FD0032045F8390C0027276020688008FCD23946504660220523009101F084FE6E
:20238C00266020688008FCD345F8216C45F8397C0820C5F8FF0FC5F8F30F45F8396C4646F0
:2023AC0020E00027E760032045F8390C276020688008FCD2CDF80080504639466022052395
:2023CC0001F062FE266020688008FCD3202045F8210C45F8397C0824C5F8FF4FC5F8F34F69
:2023EC0045F8396CC9F80460BDE8FC87A001001039400C4000A00C4038600C40202E0020EE
:20240C0010B50A46002804BF40F6FF70C0F20F0070D041F25030C5F200000068930CC0F3E6
:20242C008361C0F38F2063D242F30724002C28D542F307225342B2F1FF3F4FEA630315DA2A
:20244C00400805D1490806BF0121081C4FF6FF70400804F1010405D1490806BF0121081CCE
:20246C004FF6FF705B1E04F10104E9D1520808D3400805D1490806BF0121081C4FF6FF700C
:20248C00641C002C34DD022C4FEA640204F001031DDB4FF6FF7C400040F00100844507D2E3
:2024AC00480040F001010F2992BF01200F216046400040F00100844507D2480040F0010189
:2024CC000F2992BF01200F216046521EE3D1002B0EDD40004FF6FF7240F00100824207D272
:2024EC00480040F001010F2992BF01200F21101C40EA014010BDFEE72DE9F043ADF1140D2B
:20250C0000F058FD384C4FF0030908274FF6FF780026254603F0A2FE20BB009601A80DF174
:20252C0006016A4603F063F9E0B9BDF80400102814D1208ABDF8061088420FD100980188DA
:20254C00884509D14088C00B08D3042005F12C02014602F0A9FF01E002F0FAF8009808B11B
:20256C0003F0C6FF608A41082CD320F001002379E178608253EA010224D073B9E079237A27
:20258C008DF8080005F13E018DF809300A680DF10A031A608988998001E08DF80890607AB6
:2025AC008DF81000A37A8DF8113002A804F0CCF938B1236B677023B11A6812B119683846CE
:2025CC008847608A810806D320F002006082304601F0A2FA608AC1089CD320F004006082C5
:2025EC0003F066FE96E7C04624230020F8B504F0E1F9314C256805F00C000C2855D0E808BF
:20260C002ED22E480068EFF3118780F311882C4EB068002104F034FB7169B269091A8A4290
:20262C0038BF002187F3118826480068884217D22548264A264D036812682868B3FBF2F283
:20264C002018891A04F018FB2868201804F010FB0120FEF727FB2868201804F005FB25E0CC
:20266C00280922D21B48690939BF016821F00101016841F0010102460160D2F898004FF0FA
:20268C00805440F00300C2F89800D4F8B8018069014620208847D4F8B8010F4C806B2168BD
:2026AC00804701202060206800E030BF04F088F901F0FCF9F8BDC046382B00203C72000008
:2026CC0078010020347200003872000040720000247200008C2108402C2009402DE9F043EA
:2026EC000646ADF11C0D04F0BBFA03F08DF94FF000090546CDF8009004F086F930F001001D
:20270C0002D00098A84202D16FF0040059E070684C4658B1B0F1FF3F05D001A902F0D8FF50
:20272C0030B107464CE04FF0FF3000E02046019004F092FA0199012701EB000800E0019344
:20274C006868019904F084FA00282ED003A802F0F5FDD8B9BDF8100002A902F0D5FD88B9D6
:20276C00B368BDF80800BDF81210059A984748B1BDF81270F781BDF80800B081059B336156
:20278C004F4612E00599684603F0FCF80198641CB0F1FF3FD4D00028D2D004F05DFAB8EB1F
:2027AC00000302D001989842C9D2009905F1080003F03CFA24B1686804F046FA641EFAD144
:2027CC00384607B0BDE8F0832DE9F04105462E480068EFF3118880F311882C4A505D411C29
:2027EC000028515549D12A4CA900675C07F03F003F280C4401D0FFF7E7FF607800F03F0062
:20280C003F2801D0FFF7E0FF668837F07F0019D1F80911D24FF08054D4F8B80140690146B5
:20282C003046884704F5DC742068406B0146304688470128F8D120E0164850F82610012050
:20284C0088471AE04FF08054D4F8B801C069014630468847D4F8B801406A0146304688479B
:20286C00D4F8B801C06A01463046884701210A4A0A48116001688908FCD388F3118828468D
:20288C0003F060FABDE8F0813C720000F0290020E86F0000082A00202820086028200840F9
:2028AC002D492DE9F0410968EFF3118881F311882A4B195C4A1E01291A5449D12849800061
:2028CC0045180E5C6F8836F07F0019D1F00911D24FF08054D4F8B8018069014638468847AE
:2028EC0004F5DC742068406B0146384688470228F8D120E01D4850F82710002088471AE0FC
:20290C004FF08054D4F8B801006A014638468847D4F8B801806A014638468847D4F8B8018D
:20292C00006B01463846884701210E4A0E48116001688908FCD306F03F003F2801D0FFF71F
:20294C00AFFF687800F03F003F2801D0FFF7A8FF88F31188BDE8F0813C720000F0290020C8
:20296C00E86F00002820086028200840082A00202DE9F0432D4D2E68D5F804800446ADF1D0
:20298C00540D04F085F93188012903D104F07CF9002048E00127378004F076F91CB968462B
:2029AC0003F0B2FE6C4603A803F0C2FE60680790237A8DF8243098F8070003A903F0E0FD70
:2029CC000028E5D07060DFF8689020680021C6F828902422B060082386F82C700BA804F00E
:2029EC0067F900240AE0A00039460BAA00EB44104844083004F058F9641CE4B2002CF2D03D
:202A0C008DF8447006F10C0039460BAA04F04CF900F0A6FF0028BBD0D8F800102846112238
:202A2C0001F064FC284615B0BDE8F08300720000AC2C00202DE9F8430C4606462068756830
:202A4C00B768002850D004F023F9696D21B104F01BF90320207447E04FF0010884F8108011
:202A6C006C6504F011F995F8700030B195F859201F49A86E114303F01FF83968486840F03A
:202A8C000200486030462146FDF7D2FA3968486940F001004861676804F0FAF8154C8146DA
:202AAC00207801280AD017F0704F02D1102002F039FB042002F036FB84F80080484604F0BB
:202ACC00E3F8287830B9696805F13804204604F0BFF810B14046BDE8F8833046FFF718FB8C
:202AEC002046002104F0B4F80020BDE8F883C04600000680811B0020F8B50D46EEB229084A
:202B0C0024BF26494D40264BB400195985EA01020240C2F3006C234A00EA05078143FF3206
:202B2C003A4000F4E0270A43B7F5E02F01D1510E15D300F4E0215CEA010710D002F4E027D3
:202B4C00B7F5A02707D0B7F5803704BF22F4003242F4A02203E022F4803242F4C0221A518B
:202B6C00114CC10D04D3A4F18001C5F380528A55000E11D304F08CF8290E03D2012100220E
:202B8C00B14002E00121B1400A46503423688B431A43226004F078F8F8BDC046006000A018
:202BAC0000100840007F077F8020024041F21C3010B5C5F200000468B4F1FF3F08BF002495
:202BCC0003F0D4FD40F2844346F25C01002242F2082E012040F2801CC4F26023C4F20C0120
:202BEC001A60C4F2043E0860C4F2283CCEF80000DCF8000038B140F20010C4F220300068A2
:202C0C002046FDF7EDFC44F20402C4F203021068052142F24803C2F20001C4F2030320F0D0
:202C2C0003000143116019684FF0000EC0F2391E6FF35B414EEA01000421C4F20901186065
:202C4C000868C0F30130012809D10A684FF6FF70CFF6FC40104040F400320A60086010BD95
:202C6C002DE9F0470646346894F82C0092460F4603F00709ADF1380D002846D0A16804F10C
:202C8C000C0003F0E5FF00283FD0A06A0021322200F10808384603F03BFA00280EBF32259C
:202CAC00C01BC5B22021322201A800F06FFD01A839462A4600F01CFA504602F0F3FF4019AB
:202CCC0014281EDA05EB0D015046891D01F041FEA168404603F0BCFF98B13046494600229D
:202CEC0002F0A2F80025304601A94B4600952A4600F0B0F93046294600F079FF404603F002
:202D0C00A3FF04F10C0003F09FFF0EB0BDE8F0872DE9F0410E46294990461C4606AF8C46CD
:202D2C0072680878BB8851783F881278002502EB012242F62321521A29D0521E052A18D92A
:202D4C00921F0CD0263A34D1072F30D8C7F10700984298BF83B2674407F1080121E0B8426B
:202D6C0025DBC01B9842D8BF83B22380DCF804000BE0F06803F00EFD80B2B84217DBC01B11
:202D8C009842D8BF83B22380F06839180AE0082F0DD8C7F10800984298BF83B207EB0C010A
:202DAC000F31238040461A4600F0A2F903E0072501E025800A252846BDE8F0819C26002089
:202DCC0029482DE9F84FD0F80090EFF3118589F31188264CA068012103F052FF4FF0010A0A
:202DEC004FF00008064621686769A4F81CA02068A4F81E80791A321A8A42A6EB07062DD378
:202E0C0085F311884546EF195046394603F018FF761B0546B542F6D9EFF3118B89F31188AE
:202E2C00E08B012804D14046394603F009FF0546B5F1FF3F06D0A169AD1BA94238BF0D1C3B
:202E4C00E91901E0A5697919284603F0F5FEA4F820A0A4F81C805D46276001E0A4F81C80B8
:202E6C0085F31188BDE8F88F3C72000078010020F8B5264C2068EFF3118680F31188244929
:202E8C001D4D0B680420B0FA80F043F00403281A1F3002780B60521C027086F311882068E1
:202EAC00EFF3118380F311880A680820B0FA80F042F008022D1AE87F0A60401CE87783F34B
:202ECC0011880E20FFF780FC0C480068C0F38150032814BF0020012009490A4A0880176881
:202EEC003FB9094C402020600123D36100204860F8BD0120F8BDC046032A0020B43F005058
:202F0C00202E002004800C402C500C403C720000382B0020F0B520480127F84201D001F03D
:202F2C003DFC204D204F214EBD4206D203CD0478A4003459401CA047F6E71D48002800D030
:202F4C008047164D164FBD4202D210CDA047FAE7F0BD03251BE0416808300A1C2A400BD141
:202F6C001A1C2A40AB4305D0046804300C600431043BF9D1131C05D0047801300C70013139
:202F8C00013BF9D1021C2A4001D0A84304300368002BE0D17047C046FFFFFFFF00000000A7
:202FAC0000000000207A0000A87A0000A079000059C501102DE9F84302F04CFE244C0025DF
:202FCC0065704FF6FF70E08202F090F81F4E01232A462070314604F1A80001F04FFC02237A
:202FEC002A4604F1CC00314601F048FC04232A4604F1F000314601F041FC042704F14A0855
:20300C00102240462946A77000F0C0FB04F15A0910224846294600F0B9FB04F12C063560D4
:20302C00E57107202572102160724246A572022002F020FA032010214A4602F01BFA384637
:20304C003246014602F016FABDE8F883D5650000242300202DE9F04708AF97F80080044685
:20306C0091460D46084603F0B3FB21680646886A04680831086A09EBC317B8F1000F00F1D6
:20308C000800814603D0096803F0E2FD60B32EB3DFF858C0691E3846002511F8012F202AAF
:2030AC0012D0071902EB820207F1050E0319A53A052792B2624412F801AB7F1E03F801AB7B
:2030CC00F9D18EF8005005E0021906277F1E02F8015BFBD1761E00F10600DED1B8F1000F66
:2030EC0002D0484603F0B0FDBDE8F087FF6C0000002A4AD05FEA000C8B071CD1830722D1A8
:20310C00102A08D370B4103A78C978C0103AFBD270BC103238D0042A2CD3082A05D30C2AAD
:20312C0024BF08C908C008C908C008C908C092072AD0920F22E00B780370491C401C521E78
:20314C0022D08B07F7D1C30714D18307D8D0121F12D308C903801B0C4380001D121FF8D2CA
:20316C000AE008C903701B0A43701B0A83701B0AC370001D121FF4D2121D05D00B780370BF
:20318C00491C401C521EF9D160467047FEB5FEF731F9234C4FF6FF75002603F06DF800282B
:2031AC0033D1009601A80DF106016A4602F036FB30BBBDF804000127102811D16088BDF865
:2031CC00061088420CD1009801888D4205D14088000905D301F0F8F902E003F084FB074634
:2031EC00009868B167B103F08FF909E0E06802F07FFF071C04D003F0ACF8384603F048F99E
:20320C00E06803F06DFD0028F0D0A088C108C4D320F00400A08003F0DFFB03F0BDF9BCE740
:20322C00881F002070B5054602F01AFC41F65434C2F200046668034602F035FB22699B1B52
:20324C004FF47A715943090C801A48BF404240F6B83249198A4216D3062814DAA268E068BB
:20326C00824210D8216871B1801A44F24022C0F20F024243900C00EB1240814212D908469C
:20328C00C82811D312E043F6AC71C5F200014868400828BF4FF4FA600DD209687D2001F0F4
:2032AC00FF014843C82801D2C82070BDB0F57A6F88BF4FF47A6070BD2DE9FC41844608AFAC
:2032CC00087A3F88800928BF08203BD20878DFF87880FF24022829D14E687578307842F6DB
:2032EC00021600EB0520801B1AD04DF2EF65401B18BFB0F1020011D177B9012B0AD110780C
:20330C00CA681070C968474600258F4214BF02242C1C0EE00D250AE00B2508E00A2506E0C3
:20332C000097604601F060FA054600E00125FF2C07D04046001D006818B1016809B1204649
:20334C0088472846BDE8FC81CC2800202DE9F843204D884606464FF0FF3105F124008146C6
:20336C0003F076FC002000E0401CB8F1000F0DD018F82010FF2909D02A688A4204D905EB7F
:20338C008101096E0029EFD000261CE00024346074600127B4600EE005EB80000B7872689B
:2033AC00066607FA03F0104370600A680A49304602F06CFB641CB8F1000F04D008EB840166
:2033CC000878FF28E8D1484603F03EFC3046BDE8F883C04660190020007FC76738B50420D3
:2033EC0002F0D8FC1A4C022818BF03281FD103200090164800214FF040521C2300F044FE05
:20340C0017480068EFF3118380F3118815480421B1FA81F1401AC17F4A1E0129C27703D17F
:20342C00206820F00400206083F3118838BD094D0A48094A296803686018B2FBF3F103F06D
:20344C001BFC2868201803F013FC38BD00A00C40382B002028720000A086010040720000A8
:20346C003C720000032A002010B51A481A490078086820F0030040F00100086001F0DAFB61
:20348C0002F060F80021154C154821600068C0680146022088471349134A086820F0010074
:2034AC0008601068D4F8EC1FEFF3118480F311880E4B0F481A680421B1FA81F1401A42F0C6
:2034CC000402C17F1A60491CC17784F311884FF0FF3010BD801B002004400340401009405D
:2034EC00A00100108C2108403C720000382B0020032A0020F8B505461E480068EFF311875C
:20350C0080F311881C4C20684FF0805640F080002060D6F88C014068014601208847D6F856
:20352C00B001006A014614208847286906F5C675810C14BF010C04212868406A024601201E
:20354C009047D6F88401006823210246002090472868C069014601208847206820F4C020DE
:20356C0040F480302060206840F00100206087F31188F8BD3C7200000020094080B5071C6B
:20358C0038D041F2783043F6AC72C5F20000C5F2000200685168C0F3035EC0F3034C4908ED
:2035AC0018D211680A051EEB227E05D4BEF1100F04DB4FF00F0E01E04FF0000E09041CEBC0
:2035CC00217C05D4BCF1100F04DB4FF00F0C01E04FF0000C4CEA0E1C00F47F4100F0FF0233
:2035EC00222F41EA0C4142EA010207D300F08040104380BD43F62772C0F27102104680BD23
:20360C00F8B5001D84B214F0030002D0241A241DA4B202F077FE01461948102C4768016095
:20362C00C8BF8768388800221646C30BDD0319D126B984420ADD3A46012617E01388C31892
:20364C009BB29C42138011DC174618469FB1001B80B20428B4BF3C88385344F400443C8035
:20366C003F1D08E080F40040002680B2C71938880028DAD10027084603F010F83846F8BDD8
:20368C00BC2A0020B0B50446A768ADF1280D27BB0C20FFF7B5FF071C16D0684600212422B1
:2036AC00082303F0C5FA002306976A466168ADF810301448059303F0B7FA386038B902F0F0
:2036CC00E2FF384602F032F96FF0030018E0E06878602069B860A7600AE002F013FE054608
:2036EC00386803F0C1FA2069B860284602F0D6FF3868616803F0C0FA386803F0B9FA00201E
:20370C000AB0B0BD856900002DE9F043ADF13C0D03F0EAFADFF86880174C00250646684640
:20372C0000213C22082303F07BFA58F8042F6068A768069023680897694605920F4804931D
:20374C00002203F069FA071C10D002F0DBFD8146384600F0D7FF48B1484602F09FFF241DB5
:20376C006D1CDCD0304603F0A7FA01E001F09EF90FB0BDE8F083C046D86E000051680000B9
:20378C00AC2A0020002213460A46194671B510F0030F0BD0002A82BF00F8011BB2F10102C5
:2037AC0010F0030FF6D1002A08BF71BD11F0FF0141EA0121042A18D341EA0141082A0FD31D
:2037CC000E46102A08D30C460D46B2F10F0312F00F0272C0103BFCD812F0080F18BF42C0C4
:2037EC0012F0040F18BF40F8041B12F0020F18BF20F8021B12F0010F18BF017071BDFEE7EE
:20380C0070B5154686684268B1F1200002F10C0427D0401E21D0401E1CD1906E15492A7830
:20382C00114300F0E1FA90B93068B0F1804F14BF23220B222978E06D02F01AFBE06D94F8F9
:20384C004D1000F099FE287884F84D0010E04FF0FF3070BD6FF0010070BD002084F86400F7
:20386C0070BD21780020012908BF012084F86400002070BD0020008070B50646F088F56831
:20388C000628A5F108052CDAB088062829DA02F039FD154CF28891000C3401EBC2016118E0
:2038AC004968E1B102F0FAFE30792870B0796870307AA870F188880000EBC1002018F1688D
:2038CC004068083002F05EF8F188880000EBC10024186068406803F0B7F9002070BD02F079
:2038EC00DDFE6FF0020070BDE42A002041F2A00108B5C5F20001D1F878020B68020F03F022
:20390C00FF03802B28BF002301F0B0FC4FF0FF3188B1401E05D0401E1FD1F2B90A3358B22C
:20392C0008BD101C02D0801E02D016E00A2008BD143358B208BD1046401E0DD0801E04D04A
:20394C00001F04D0401E04D007E0142008BD152008BD163358B208BD0A21084608BDFEE721
:20396C00154830B5016815480A79164CADF1140D024300928A794D1D10434979019010484D
:20398C0008430290FF206946039004F10800FFF7DDFC206068B10D480B490068B1FBF0F0DB
:2039AC0003F036F920682978012201F0A9FE012000E0002005B030BD047200000000C0807C
:2039CC00000080803C2E0020A08601004072000010B50446607816280DD020797E2804D063
:2039EC007F280DD121890EA001E0217A0FA0052202F00AFC04E06088082101F081FF30B14D
:203A0C00217904F1080002F01BFC012010BD012000F04EFA094810300460002010BDC046CB
:203A2C004D54552053697A653A00C04646432056696F6C617465643A00C046C0881F0020E1
:203A4C0038B50079184CA0B902F05CFC2178002904BF6FF00704051C13D0491EC9B2217087
:203A6C0029B902F01BFE606801F094FB18E0054613E002F047FC05462078FF2805D16FF05B
:203A8C000604284602F00AFE0BE0401CC0B20128207002D1606801F098FB284602F0FEFDBC
:203AAC000024204638BDC0465C2E002045F2280080B5C4F2090007686FB343F6AC70C5F2DB
:203ACC000000826802EA5201C90E24D24168890821D20021C4F20901D1F800C000681CF0D9
:203AEC00050F4FEA104000F0F00000F5E0700CD1B84210D2100F38BF4CF0010CD00E38BF0B
:203B0C004CF0040CC1F800C080BDB84284BF2CF0050CC1F800C080BDFEB5194C0546208C68
:203B2C00218B81420CDC618B814209DBA08B618C884205D1E08BA18C884208BF18271DD082
:203B4C00052001F017F9278B638BADF80270A28BADF80430E18BADF806200646ADF8081036
:203B6C00E08AADF80000684602F0FAFE071C05D1A57304F1F000314601F09CFA3846FEBD65
:203B8C00242300202DE9F041054615F8017B90460E461CE0B8F1000F05F101050BD0FF2CB7
:203BAC0009D8022015F8011B401E41EA0424F9D101E0042C02D315F8011B00E0394630466E
:203BCC002246FFF7E3FDA61901E006F8010B15F8010B8742F9D115F8014B002CE9D115F8F9
:203BEC00010B2C7800022418D4D1BDE8F0812DE9F843064635685FEA010805D0A96805F1A8
:203C0C000C0003F025F818B3A86A0468B8F1000F00F10800814603D0A96803F019F898B18A
:203C2C0000273046394602F011F930462146802200F086FB7F1C8034082FF2DBB8F1000F65
:203C4C0006D0484603F000F805F10C0002F0FCFFBDE8F883F0B50E4615460746ADF11C0D92
:203C6C0003A902F0B5F9059018B300210091BDF80C10FF240DF112030246019129460294F4
:203C8C0000F01BF8041C0FD16889ADF81000700804D3384604A902F08FFB03E0384604A96B
:203CAC0002F0E4FE041C05D004A81B2102F0C8FA00E01524204607B0F0BDB0B5087A04AF16
:203CCC00400928BF08202AD23F88002F18BF0B2025D1087802281FD14D686C782F7800209C
:203CEC004FF6F17507EB04277F1B012F0ED9FF1E0CD07F1E1CBF011C0A200FD105241C80E2
:203D0C00C9680B68136009791171B0BD01241C80C96809781170B0BD002101201980B0BD66
:203D2C002DE9F84F061C28D01548017800244FF6FF7A81461FE0A00036F800B03518DA4598
:203D4C0015D0AF789FB102F04BF85FEA00080ED0780804D3584601214246FFF77BFFA87868
:203D6C00800804D3288802214246FFF773FF99F80010641CE4B2A142DDDCBDE8F88FC04690
:203D8C002423002010B5012002F004F8012829D04AF20000342101220023C4F20C0000F031
:203DAC00B5FD002808BF00201DD08020C1F200000068804701F054FE41F6543344F240222E
:203DCC00C2F20003C0F20F029C681968D860041BA1EB91016243120C8A4224BF1A60012056
:203DEC0001D21960012010BD2DE9F041071C0E4604D0144C2068F5B2A84202D80220BDE8D1
:203E0C00F08104F124004FF0FF31804602F020FF04EB85046034206860B979680120A8402F
:203E2C0027603246084308497860384601F02EFE002400E00124404602F006FF2046BDE8B7
:203E4C00F081C04660190020007FC76798B541F23403C4F2090318680004070C26D001F0A2
:203E6C0022FD41F67832C2F2000292F90710814205DD10F1800FB8BF6FF07F00D0719188FA
:203E8C00B94212D81468D3F8D40F001B801C1F2888BF1F207F1A4008C7404FF6FF70C91905
:203EAC00884238BF011C918098BD978098BD704710B5164C216999B1002808BF09A005D027
:203ECC0001F10800097902F0BBF90BA02178052202F09AF9206902F017FB00202061207006
:203EEC0010BDC0465273702073656E742C2072657472793A00C046C0527370207265747240
:203F0C0079206661696C65643A00C046881F002038B502F0BDFE154C0546A01D008840B90C
:203F2C00FEF7A6FF0446102000F060F9012C0DD017E0FFF727FF60B10020E080FEF798FFDE
:203F4C000446102000F052F9012C0AD1FEF7DCF907E030340521204602F08EFE204602F021
:203F6C0087FE284602F090FE38BDC046382B0020F8B5054605F128020CCA0846002102F0F5
:203F8C003BFB05F1300292E8C00036184FEA164447EB01073804044301F062FD211AB1F1B2
:203FAC00004F08D8011B091DC90F05D1001DA04288BF041C00E0041D04480068426A2146A8
:203FCC0001209047383585E8C000F8BD8C010010154B10B3401E1BD0401E14D0401E0AD00B
:203FEC00401E1FD105291DD1116818460C300160137903717047012914D111781846C170F9
:20400C008068FFF78DBE01290CD11846801C07E0012907D11846401C02E0012902D118468A
:20402C00117801707047C046CC2800201549096821280ADC212819D00C380FD00D380FD032
:20404C00001F0FD0C01E0FD01AE0253810D0401F10D0401E10D0401E10D011E0086870478F
:20406C004868704788687047C86870470869704748697047C8697047086A7047486A704735
:20408C0000207047F00100202DE9F041984600EB41001646B8F1100F06AF00F5007404D3C2
:2040AC00A8F1100800F50174360C3D8802F082FC05FA08F545EA06450021002808BF0121BA
:2040CC0048F20002C4F20C02106810B910680028FAD025600120106009B102F071FCBDE855
:2040EC00F0810000B0B5044602F0BAFD00F00AFB054602F007F90146A2880F48002324307A
:20410C0030F80C7F5FB902804560A381A2688260686820610024084602F0C0FA09E0974260
:20412C0008BF6FF00204F6D05B1C062BE8D300F0BDFC2046B0BDC046C02A00207FB5866870
:20414C0031684568486820F0020048603168486920F00F00486130680321016202A802F0D6
:20416C0053FD0B4800680468286900906869074B0190297E03EB81010A6A297B306853F8D5
:20418C0021300399A04700907FBDC046B06F0000C4010010F0B5144C241F65686879ADF1E5
:2041AC00340DFEF711FB02F073FD26680746307890B901A800213022082302F071FD069442
:2041CC0000200090074A297901AB301D02F064FD0120307001F07CFF384602F055FD20468F
:2041EC000DB0F0BD6F6A0000DC710000F8B507461248134C0668301902F072FD0025A41976
:20420C00B8B9204602F068FD0646B068074205D0F268316938469047C0B230B9304602F0D6
:20422C0057FD0646B442F0D103E003480068804702252846F8BDC046307200002C7200002E
:20424C00382B00202DE9FC410446A16860686E460025086002F027FC46F8040F002808BFCB
:20426C006FF0030012D06D1CF4D0094E002701ADB846CDF8008055F8040B16F8011B054A5D
:20428C00A36801F06DFA7F1CF3D04046BDE8FC811F7100007D560000B0B5044602F0B4FBF6
:2042AC0030F0010008BF6FF004041BD002F0D8FC054602F027F80C4A062132F80C7F6FB144
:2042CC00A388BB4208D1526812680021954208BF0121A160002403E0491EEED14FF0FF341C
:2042EC0002F0DCF92046B0BDE42A00202DE9F0478A460646114C71688F1D206835680979F8
:20430C0091460022804601F0FBF939780022404601F0F6F930464A46514601F0D7FC2D1D09
:20432C00296889680A68D1684909FCD220B120683978012201F0E4F9BDE8F0873C2E002083
:20434C002DE9F0478A460646114C71688F1D20683568097991460122804601F0D1F9397833
:20436C000022404601F0CCF930464A46514601F0ADFC2D1D296889680A68D1684909FCD205
:20438C0020B120683978012201F0BAF9BDE8F0873C2E0020DCB5044602F062FC01F034FB4F
:2043AC00064602F031FB30F0010014BF002E6FF0040017D0606858B1B0F1FF3F05D06946E7
:2043CC0001F086F930B107460BE04FF0FF3000E0002000907068009902F03AFC002700B9D1
:2043EC0001273846DCBD70B504464AF200060D466008ADF1080DC4F20C0607D3A8B2002136
:20440C00009001220B463046FFF73EFEA00807D3A8B200900021022201233046FFF734FE71
:20442C00E00807D3A8B2009000210C2202233046FFF72AFE02B070BDF8B5124C267CA57813
:20444C00182001F0F5FD071C19D00421002202F0ABF9304601F0D6FC38727D720020B87230
:20446C0004F14A06FE6004F15A033B6104F12C027A6101F0EDFD024A394600F089FDF8BDD0
:20448C00D76A0000242300202DE9F04104461148103090F8008016460D46102001F0C8FDA1
:2044AC00071C12D00421072202F07EF9404601F0A9FC38727C72BD72FE6001F0C9FD044AEE
:2044CC00394600F065FDBDE8F0810420BDE8F081016B000024230020B0B5054602F0C0FB7F
:2044EC00044602F091FA30F0010008BF6FF0040416D001F007FF01460A48002230F80C7F4F
:20450C004FB143681B689C4204BFAA80002404D0521C062AF2D36FF00404084602F0BEF8DE
:20452C002046B0BDE42A0020F8B5044602F098FB00F0E8F8071C19D001F0E4FE84460D4824
:20454C000021243030F80C6F6EB94FF6F87202804760A180002585607868A060604602F095
:20456C009DF82846F8BD491C0629EBD300F09EFAF8BDC046C02A002010B50C46F0B1416877
:20458C000122A240114219D0914341600C480022231800EB84010A6603F140010978FF29EA
:2045AC001ABF406850F8211044F020410548FEF7A3FA20464FF0FF3101F06CFE10BDC0467E
:2045CC0060190020007FC76738B5124C2069C0B121780830491C217000F00CFB0546162DF8
:2045EC000AD0042D08D020694088002101F088F92846FFF75DFC38BD217802A0052201F0E3
:20460C0003FE38BD5273702073656E642072657472793A00881F0020114990B50446112226
:20462C00ADF1140D6846FEF763FD0E48A41D302106270170821C7821417014F8011D09117A
:20464C001DF80110237802F8011B03F00F011DF801107F1E02F8011BEFD105B090BDC046D3
:20466C00B4710000681B002038B544688568E06E01F04DFAA06E01F08AFD2968486820F083
:20468C000200486004F11C0002F0BAFA6879FEF707F9207818B904F1380002F0ADFA04F1B3
:2046AC00900001F021FE02F0F3FA002184F8A41002F0EAFA38BD000010B5114CF03C60782D
:2046CC0006281CD1208B062819DBB0F5486F16DA608B062813DBB0F5486F10DAA08BB0F57D
:2046EC00FA7F0CDAE08B0A2809DBB0F5486F06DA0120FFF711FA04F1CC0002F009FA10BDED
:20470C00142400202DE9F843804601F0FBFD0F4C03250026814654F80C7F5FB93046C4F8A4
:20472C0000800146A6600A4602F062FA606018B900F0BCF9474501D1264601E06D1EEAD1DB
:20474C00484601F0ABFF3046BDE8F883C02A002010B50178A23902D02E391AD010BD4179C1
:20476C00132918D100890C4C01280AD12046F038817B022905D1F03002F0CAF901F010FEC4
:20478C0010BD052000F0F6FA0146204600F092FC10BDFCF71BFD10BD14240020F8B506461A
:2047AC000F4D104F7388002417E0A00000EBC400321851689068D26852B9AF420BD00A783F
:2047CC0055F822200346491C08461946904701E0FEF78EFC7388641CA4B2A342E5DCF8BD80
:2047EC00A0790000AC790000F8B506AF3F880D460646E7B9022B18D15078147804EB00248A
:20480C0034F001000FD1E9680968304602F002F8844208BF00200BD0E9680968304622463B
:20482C0001F0C8F9F8BD8020F8BD0D20F8BD0B20F8BD000008B50D480D4B006890FAA0F002
:20484C00B0FA80F1012000FA01F21A60094A1060094802688A4207D900EB8100006E18B1DC
:20486C0002680AB1C9B2904708BDC046E0200240E020026080E200E060190020F0B50D4673
:20488C0014461F460646ADF1240D002124220823684602F0CDF900200590ADF81000084880
:2048AC004FF47A71A2B26B4600680697B1FBF0F080B229464243304602F096F909B0F0BDA5
:2048CC00407200002DE9F04104461E4690460D46142001F0ADFB071C13D03246032101F09C
:2048EC0063FF3C81002038744046FD6001F08AFA787401F0ADFB044A394600F049FBBDE83E
:20490C00F0810420BDE8F0817963000070B51E460C181546102E02D3103EA41C2D0C02F0B0
:20492C0049F80021002808BF012148F20002C4F20C02106810B910680028FAD02488012080
:20494C00106009B102F03CF805EA0400304180B270BDD0B50746202400260A20ADF1200D07
:20496C00ADF10103B7FBF0F24243BA1AB7FBF0F7303203F8012F27B1641E06F10106F1D15C
:20498C005B1C761C13F80109761E01F8010BF9D1002008B00870D0BD0E48B0B5057CC48A23
:2049AC000E2001F045FB071C11D004210A2201F0FBFE284601F026FA38727C811320387349
:2049CC0001F046FB044A394600F0E2FAB0BD0420B0BDC04624230020FB6A00000A460F4988
:2049EC00F8B5CF788D784E780C78002398B1401E10D0401E0DD0401E0AD0401E18BF0223F1
:204A0C000AD108460C30016811600079107103E03D462E46344614701846F8BDCC28002052
:204A2C000C4885460C4885446F4607208743BD460A486F4607600A48002803D07946491DA5
:204A4C008E460047FEF766FA01F0CAFD02F0C8F8FEE7C046E83F002000040000742E002078
:204A6C00456A00002DE9F04104460E48057890460E46102001F0DCFA071C10D03246042156
:204A8C0001F092FE284601F0BDF93872FC6001F0DFFA3946424600F07BFABDE8F0810420FE
:204AAC00BDE8F0813423002000BF704708B5FFF7FBFFFEE738B50546094800688047094C48
:204ACC00201D006810B1014628468847206800B18047054800688047FFF7E8FF38BDC0468C
:204AEC00642E00206C2E0020682E002038B50F4C2C34A4F12C01086820F00100086054F8E9
:204B0C002C1C4FF0805541F0800144F82C1C01202060D5F88C11226849688847D5F8B00164
:204B2C00006A014614208847206838BD0020094098B504462420FEF763FD071C14D0002177
:204B4C002422082302F0B4F82079012804BF01203876A0683946002202F04AF8E06038464B
:204B6C0000F0E4FEE06810B96FF0030098BD002098BDD0B504463C20FEF742FD071C14D0B4
:204B8C0000213C22082302F04BF8207AB86160893862E068386160683946002202F03CF884
:204BAC000646384600F0C2FE16B96FF00300D0BD0020D0BD00B500213C220823ADF13C0DBE
:204BCC00684602F02DF8094800F5B27107914FF40271089103210691054900236A4600F5E3
:204BEC008A7001F0F9FF0FB000BDC0462423002005250000F8B506460C48006844880579B4
:204C0C00102001F015FA071C0DD00221152201F094FE3C81BD72FE6001F01AFA044A39465F
:204C2C0000F0B6F9F8BD0420F8BDC046981F00202B69000010B54FF08054D4F890018168AC
:204C4C000120884741F21401C4F209010868800902D208688009FCD3D4F8A0010168402085
:204C6C00884704F5D07420688168402088471128F9D110BD012810B515D1012001F08AF844
:204C8C00012812D001F058FB094C0120E0803034204601F0E9FF0521204601F0EDFF204671
:204CAC0001F0E6FF01E000F04DFC002010BDC046382B00200C4810B50068EFF3118480F317
:204CCC0011880B48C088012809D10848342101220023FFF71BFE002808BF002000D0012097
:204CEC0084F3118810BDC0463C72000000A00C40382B0020B0B504460D48026840680F463D
:204D0C0000211200401841EB020104F128020CCAFCF76CFC05460B4647B104F1280003C801
:204D2C002A4601F069FC303484E803002846B0BD082009402DE9F0410446984616460D4664
:204D4C000E2001F075F9071C10D0812038700123FB70BC803D817E81A7F80C8001F078F959
:204D6C00069A394600F014F9BDE8F0810420BDE8F08100003EB505460020ADF804000A208A
:204D8C0001F056F9041C0DD00421312201F00CFD258101F05DF901A90223044A0091214656
:204DAC0000F014F9BDF804003EBDC046E36A0000F8B5044616460D46142001F039F9071CC3
:204DCC000FD00421022201F0B8FDBC60BD811020B8733E6101F03CF9034A394600F0D8F8F3
:204DEC00F8BD0420F8BDC0460F69000070B50446606810F07F4F18BF6FF0020011D101F08B
:204E0C0081FA084D0646287828B1686800F0C2F9606800F0DAF960686860304601F03EFCBA
:204E2C00002070BD5C2E0020F8B500680E46816A0C6800F10801086A151C00F108000746C4
:204E4C0003D0096801F004FF58B1002104EBC6148020401E04F8011BFBD115B1384601F004
:204E6C00F3FEF8BD014638B50A480C4B50F8212009481C6810400122084302FA01F525422E
:204E8C0018BF40F480008A40196D0A4218BF40F4000038BD00100840007F077F80200240A0
:204EAC00F8B50746BD68686800F1540490F8590001F05AFB61790646384600F0FDFD0648AB
:204ECC0000EA0601884205D12168042008742846FDF71EF9F8BDC0460000068000B500217C
:204EEC003C220823ADF13C0D684601F099FE084800F1E00107914FF42F7108910121069111
:204F0C00044900236A46903001F066FE0FB000BD881F00209931000008B538B1801E0FD11F
:204F2C0002206946FFF75AFD06A004E000206946FFF754FD05A09DF80010042201F064F9E9
:204F4C0008BDC0464368617220333A004368617220313A00B0B504460D46102001F068F8E3
:204F6C00071C10D02146062201F0E7FC0020388115247C81054AFA6001F06AF839462A46C5
:204F8C0000F006F8B0BD0420B0BDC046C01F00201CB51446CA78012A02D18A880A4B1A80A8
:204FAC0000F048FD30B9002000906946204601F01BF918B101F08AF9044603E0009844783F
:204FCC0001F08AFA20461CBD502E002038B51C46154600F02FFDB0B9002000906946284677
:204FEC0001F002F978B90099487848B90846C1798C4205D10146049889682246FEF778F861
:20500C00009801F069FA38BD0C4910B50968EFF3118481F311880A49B0FA80F2891ACA7F39
:20502C00531E012ACB7703D1034A11688143116084F3118810BDC046382B00203C720000A3
:20504C00032A0020F8B5044616460D46142000F0EFFF071C0ED00121142201F06EFC3C72DD
:20506C00FD603E820420B87400F0F2FF024A3946FFF78EFFF8BDC0461D69000010B5044638
:20508C000B4802680023D90750080143D007801A4FF47A729941FCF7A9FA002908BFB0F107
:2050AC00004F28BF6FF000406060002010BDC0464072000038B50D46044601F02FFD10B142
:2050CC00204601F0D1FD084800684FF47A71B1FBF0F080B205FB00F1204601F0CDFD204683
:2050EC0001F0C6FD38BDC046407200001CB500208DF80400082000F09BFF041C0CD00121F9
:20510C00122201F01AFC00F0A3FF01A90123044A00912146FFF75AFF9DF804001CBDC046DB
:20512C00396900000C4938B50968EFF3118581F31188074B07491A68B0FA80F4091B1043D0
:20514C00CA7F1860521CCA7785F3118838BDC046382B0020032A00203C72000010B50C4632
:20516C0000F07EFC211AB1F1004F08D8011B091DC90F05D1001DA04288BF041C00E0041D56
:20518C0003480068406A214602460120904710BD8C01001038B50546012411E0C0F11F0077
:2051AC0004FA00F1052881EA050504DB401FC0B2FDF776FB04E004FA00F0C0B2FFF724FFE0
:2051CC00B5FA85F02028E9D138BD38B50546012411E0C0F11F0004FA00F1052881EA0505F9
:2051EC0004DB401FC0B2FDF7EFFA04E004FA00F0C0B2FFF797FFB5FA85F02028E9D138BD2B
:20520C0098B50446A06858B1B0F1FF3F05D0694600F05EFA30B107460BE04FF0FF3000E0C8
:20522C00002000906068009901F012FD002700B90127384698BD00001FB50B4C04F1100046
:20524C0004F10801FEF782F86060684601F05CFAFDF78EFB206020B100F0D8F8206801F019
:20526C0001FB00901FBDC046902C002041F21830C5F2000001684BF69A10C1F30F31884294
:20528C0008BF00200BD02430884208BF012006D04BF6203088420CBF02204FF0FF307047F7
:2052AC00F8B5044616460D46102000F0C1FE071C0CD00421362201F077FA3C817D81FE6066
:2052CC0000F0C6FE024A3946FFF762FEF8BDC046CB6A000070B505460E460C2000F0A8FE77
:2052EC00041C0CD00421302201F05EFA2581668100F0AEFE034A2146FFF74AFE70BD04207A
:20530C0070BDC046EF6A0000024680B5062A0CDA094F900000EBC20007F13002175A131807
:20532C001FB14FF6F870B84202D14FF0FF3080BD18880880002080BDC02A002010B50446CE
:20534C0001F08EFC00F060FB002808BF6FF004000DD0083000F079FAA06038B110F8081C9C
:20536C00A18010F8070CE080002010BD022010BD10B5044600212C220823ADF1300D684677
:20538C0001F054FBE0200890A168606800236A4601F01EFC002818BF002001D1FFF786FB12
:2053AC000CB010BD10B5044600212C220823ADF1300D684601F03AFBE068A168089060684F
:2053CC0000236A4601F004FC002818BF002001D1FFF76CFB0CB010BD10B5044600F092FF96
:2053EC00094B0022014633F80C0F30B1A04208BF94B203D0521C062AF5D3FF24084601F033
:20540C004DF9204610BDC046E42A0020B0B50168083191F8240090B1086A476804680968E0
:20542C000830054601F014FC48B12FB100213846401E04F8011BFBD1284601F005FCB0BD55
:20544C00010446F244020B0CC4F20C02C0F3074142F8083C012042F8041C40F68401C4F27D
:20546C008C311060086810B908680028FAD0002010607047F8B5044616460D46102000F04B
:20548C00D7FD071C0CD00521012201F08DF93C727D72FE6000F0DCFD024A3946FFF778FD73
:2054AC00F8BDC0460D6B0000F8B5044616460D46102000F0BDFD071C0CD00521022201F0F3
:2054CC0073F93C727D72FE6000F0C2FD024A3946FFF75EFDF8BDC046136B000038B505461D
:2054EC000C2000F0A5FD041C0DD02946002201F024FA4FF0FF30A06000F0AAFD034A21468C
:20550C00FFF746FD38BD042038BDC0468558000070B506460A48163805780A2000F088FD28
:20552C00041C0CD03146102201F007FA284600F069FC207200F08CFD214600F07BFA70BD01
:20554C00A01F002008B503200021FEF74CFF012000F020FC20B18020C1F20000006880479F
:20556C0000F07EFA41F65433C2F20003586000F09AF9186108BDF8B5044616460D460C20F7
:20558C0000F056FD071C0DD02A46042101F00CF93C810520B87200F05BFD39463246FFF7F0
:2055AC00F7FCF8BD0420F8BDF8B5044616460D46102000F03DFD071C0DD02A46042101F0D8
:2055CC00F3F8BC600020F86000F042FD39463246FFF7DEFCF8BD0420F8BD1078802811D1AA
:2055EC00508840F27F6181420CD190883F21B1EBA02F07D1C0F3C211042903D100F07F0064
:20560C00834201D000207047012070471078802811D1508840F27F6181420CD190883F2125
:20562C00B1EBA02F07D1C0F3C211032903D100F07F00834201D00020704701207047107859
:20564C00802811D1508840F27F6181420CD190883F21B1EBA02F07D1C0F3C211052903D1E7
:20566C0000F07F00834201D0002070470120704710B5401E0C460DD0401E09D0801E05D06E
:20568C00001F01D0FFF712FA052004E0002002E0042000E00220226821469047002010BD26
:2056AC0038B5094CE8210020218040F68412A4F86C0A04F1E8010A80044D6961FDF7A0FFDE
:2056CC00A8616C6138BDC04620050020AC2A00200A4A10B512680C464FF47A710023A1FBE0
:2056EC000001FBF783FF002908BFB0F1004F2EBF6FF002002060002010BDC04640720000D6
:20570C0080B517460246084803688B420AD900EB8100006E824205D1002207B1012203487C
:20572C00D038425480BDC04660190020D020024010B501F0C9FA01F0D7FA032001F044FA24
:20574C0006481030006830B1034C204601F01CF8204601F016F810BD8D670000A4010020C1
:20576C0098B517460A46011C14BF002F032009D0064C8A600448CF6022680B61801801F0D2
:20578C001FFA002098BDC046382B00202C720000094838B50068EFF3118580F31188074CCB
:2057AC00A41D2088012803D1FEF7ECFA0020208085F3118838BDC0463C720000382B00209F
:2057CC0020280FD341F29830C5F2000000684FF2000CC0F23F0C01038A0D0CEA0100910507
:2057EC000843704748F20000C4F23F0070477FB50646082014460D46ADF800000920ADF8ED
:20580C000200684600F0B1FBBDF804103180BDF8061029800299216000907FBD7FB50646DA
:20582C00082014460D46ADF800000920ADF80200684600F09AFBBDF804103180BDF806109A
:20584C0029800299216000907FBD98B5044600F059FD2168002908BF002709D00F4657F8B1
:20586C000C2C2260002347F80C3CFF2401F8024C00F014FF384698BD1078911D802810D1B9
:20588C00508840F27F6383420BD19088032818BF042806D1097831F0100014BF1129012072
:2058AC0000D00020704745F2280041F20C31C4F20900C5F20001826891F900100068A0F56E
:2058CC0040704143091142F31000401A803000127047000010B50C2000F0AAFB041C0BD0D5
:2058EC000121042201F029F804480C30A06000F0AFFB214600F09EF810BDC046A01F002081
:20590C0038B5054608480E3800780C4600F07AFAC2B204482946234600904FF61840FFF7C4
:20592C0009FA38BD996A0000981F002010B5044600F0E8FC074934F8042C6FF3DF3224F86B
:20594C00042C4A680860241F944238BF4C6000F0A5FE10BDBC2A00200EB50820ADF800003F
:20596C000420ADF802000648007880000190684600F0FBFA002814BF002002980EBDC04660
:20598C002423002038B50C46054600F0BBFC002144F80C1C296811B92C6006E0114651F871
:2059AC000C2C002AFAD141F80C4C00F077FE38BD10B5044660680C3080B2FDF721FE50B16A
:2059CC00A18800230181FF22036000F10C0182721846A16010BD6FF0030010BD38B50546E4
:2059EC00FFF7ACFC041C0DD1A8886946FFF78CFC28B1A86800F064FD6FF0050038BDBDF85A
:205A0C000000A880204638BD38B5054600F07AFC074C0322014654F80C0F18B1A84202D0AE
:205A2C00521EF8D10024084600F038FE204638BDC02A002000B5ADF1140DADF80400039173
:205A4C000822ADF80020ADF802201020ADF8060002208DF80800684600F087FA05B000BD69
:205A6C0038B500F0A7FF0021002808BF012142F20800C4F20900046845685FEA010E01D028
:205A8C0000F09EFF200440EA154038BD38B5094B1C6802F0FF05AC420AD902F0FF0403EB66
:205AAC0084031B6E984203D108461146FDF724F838BDC046601900200A46094910B50B68F9
:205ACC0002F0FF04A3420AD902F0FF0301EB8301096E884203D14FF4E021FFF7D7FF10BDA7
:205AEC006019002010B50C46ADF1180D02900821ADF8001019216846ADF802104FF0FF31A9
:205B0C00019100F032FA0499216006B010BD70B505684468287870B1607900F07BFF0128BF
:205B2C0006D1206800264660281D01F069F82E706079FCF7B5FE70BD70B515460C4606462F
:205B4C0000F024FA011C03D1284600F0ADFC70BD8D60304601F030F814B1204601F074F802
:205B6C0070BD80B5107802AF80280DD1508840F27F61814208D19088834205D13878917905
:205B8C00884208BF012000D0002080BD70B5084C064620680D4648B100F05CFE20682A463F
:205BAC00314600F0D5FC206800F05CFE70BDC046902C002070B515460E46044600F0AEF80C
:205BCC0048B94FF6FF70314600F0A8F8002808BF112002D004808570002070BD70B141F2F1
:205BEC007430C5F2000001684FF6FC4CC0F2FC0C01F07C420CEA0100104370470020C6F602
:205C0C0088007047084A0021032002F1140343F80C1F401E9960FAD144320620401E22F8FD
:205C2C000C1BFBD100F07CBCAC2A002098B50F46044600F067FB57B13A4600E00A4652F807
:205C4C000C1C0029FAD1216842F80C1C276000F025FD98BD0EB50820ADF800000120ADF8ED
:205C6C000200684600F081F90349BDF804000882029888620EBDC046242300200EB50820C8
:205C8C00ADF800000120ADF80200684600F06DF90349BDF804004880029888600EBDC04667
:205CAC00881F0020002808BF01200ED0002802D400210A2206E040420121FAE7491C90FB7D
:205CCC00F2F0C9B20028F9DC0846704710B50024ADF1180D0191036803941B1D02941868CB
:205CEC000092694600F0B8FE012808BF0124204606B010BD10B5FFF72FFE064CA06038B190
:205D0C0000F056F9044A204611211430FFF750F810BDC046CC28002094710000034608464D
:205D2C000749097849B1021F084632F8041F8B4208BF101C02D0401EF7D100207047C0463B
:205D4C002423002010B50E284FF0010403D00649085C28B105E0204600F01CF8012800D0EA
:205D6C000024204610BDC046F029002008B5283090E80C0005A003C8FBF738FC002908BF62
:205D8C00B0F1FF3F88BF4FF0FF3008BD00000000907E000001464AF200000429C4F20C001E
:205DAC0005D134214FF0C0421D23FEF7AFBD34214FF080521C23FEF7A9BD38B505460A2068
:205DCC0000F036F9041C09D00121152200F0B5FD258100F03DF92146FFF72CFE38BD00005C
:205DEC00074910B5112201F11400C468CB1CA34204D0521E00F11000F7D1002010BDC04651
:205E0C00CC2800200EB5ADF806005021ADF8001068460021ADF8021000F0A7F8002814BFBE
:205E2C00FF209DF808000EBD0EB50820ADF800002020ADF802001020ADF80400684600F0E1
:205E4C0094F8002814BF002002980EBD1CB5074B1C880A4669460C809B788B700B78D2185D
:205E6C000A700322FEF742FA1CBDC046FC6C0000074B10B51C688C4208D903EB81031B6EBA
:205E8C00984203D10846114600F004FA10BDC0466019002038B50D46044600F0E9F80246A6
:205EAC000448016822B1148095704068FFF744FE38BDC046901F0020074808B51030006857
:205ECC0028B1034800F060FC024800F05AFC08BD3D6100001D660000A4010020074810B5F7
:205EEC001030006830B1044C204600F04DFC204600F047FC10BDC04663090000A401002081
:205F0C00074808B500F054FEFFF7D6FF00F04CFE00F046FE00F040FE00F03AFE08BDC046CD
:205F2C003D57000010B50648064900684C684068014601208847A06901466069884710BDAF
:205F4C008C010010E401002050B141F27030C5F200000068020400F47C01100C084370470B
:205F6C0047F28A60C0F26800704710B50446208800F09EF838B1816811B12046884710BD4E
:205F8C006FF0010010BD4FF0FF3010BD0EB50820ADF800000420ADF802000C2001906846C7
:205FAC00FFF7E3FF002814BF002002980EBD000001460648007840B14FF6FF73091F00227E
:205FCC0021F8043F401E8A70FAD17047242300201CB5064A14683CB1024600911B23012056
:205FEC004FF6FF71A0471CBD00201CBD542E002060B141F25031C5F2000108680968C0F374
:20600C00870001F0030140EA01207047D820704720280BD341F29830C5F200000068C10C3A
:20602C0001F44071C0F3845008437047002070470EB501900821ADF8001068460221ADF8A6
:20604C000210FFF792FF002814BF002002980EBD0EB50820ADF800001A20ADF802006846FC
:20606C00FFF783FF002814BFFF20BDF804000EBD0EB50820ADF800000420ADF80200019012
:20608C006846FFF772FF002814BF002002980EBD08B54288292A28BF6FF0010004D203491C
:2060AC000C3151F82210884708BDC046E46E000008B5FFF791F9FF2808BF002004D0034BC3
:2060CC00810001EBC001581808BDC046F02A00200548006801680022CA62044A01688A6004
:2060EC000068012141607047DC7100000004002010B5044600F0F4FD002818BF002006D15B
:20610C00204600F041FD846800F0CEF9204610BD034610461A4648B1521ECBB212F8011FFA
:20612C008B4208BF101C02D0401EF7D10020704710B5064C206900F023FD0146A06800B90C
:20614C00E160A068401CA06010BDC046A40100200648026840680021120040184FEA104082
:20616C0041EB0201090408437047C0460820094010B50446E088FFF72FF9FF2808BF4FF09C
:20618C00FF3003D0E0802046FDF776FB10BD10B5044607E090FAA0F0B0FA80F0C1B22046F6
:2061AC00FEF7EAF960680028F4D110BD08B5FBF7FBFBFFF727FDFDF7A7FAFEF7FBFCFEF744
:2061CC008DFE00F0D9FC002008BD1078802809D1508840F27F61814204D19088834208BF4E
:2061EC00012000D00020704738B50D460446FFF71BFE002818BF6FF0040003D12046294627
:20620C00FFF770FC38BD000010B50C4601460448006818B113462246FCF722FD10BDC0469A
:20622C00902C00200449487820B90448001F086300F070BC7047C04624230020A01F00209B
:20624C0010B504460448001D03681BB10A4601202146984710BDC046542E00200EB508206C
:20626C00ADF800000A20ADF802004FF0FF3001906846FFF77AFE0EBD0EB50820ADF8000026
:20628C000A20ADF802004FF0FF3001906846FFF76CFE0EBD002948BF0021044A02EB80003D
:2062AC00026861F3050202607047C046001008400548E2380078401E03D0401E03D100F064
:2062CC006FB8FEF7F9B970471424002050B110F1040F08BF042006D010F1030F0CBF0220FF
:2062EC000120704700207047054910B50968EFF3118481F3118800F03BFC84F3118810BDD7
:20630C003C72000010B500F0EFFC80B260F30F0400F0BEFC80B260F31F44204610BD1CB5F5
:20632C00044660686946FFF7D3F920B9009860602046FDF7A7F91CBD08B503200121FEF7D3
:20634C0052F8FFF78DFB41F65C31C2F20001086008BD01460888401E04D0401E05D1887886
:20636C00FEF7DABD8878FBF7E3BB704710B51D23FFF74CF9012420B91B23FFF747F900B9D3
:20638C000024204610BD41F29420C5F200000068C0F302400228C8BF4FF0FF3070470000C9
:2063AC000448401C0078062818BF072801D1FEF7F3BA70472423002038B50C460546FFF76B
:2063CC0047FEC2B21B2321462846FEF77BFA38BD222807D341F28C30C5F200000068C0F3A1
:2063EC000070704701207047222807D341F28C30C5F200000068C0F340707047012070476E
:20640C00202807D341F29830C5F200000068C0F30150704700207047222807D341F28C308F
:20642C00C5F200000068C0F3C06070470020704738B141F27C30C5F200000068C0F30D0029
:20644C00704740F2FF307047222807D341F28C30C5F200000068C0F3455070470020704759
:20646C0008B5406810F07F4F18BF6FF0020002D1FEF790FE002008BD08B5406810F07F4F37
:20648C0018BF6FF0020002D1FEF79FFE002008BD0EB501900821ADF8001068460521ADF8C3
:2064AC000210FFF762FD0EBD0EB501900821ADF8001068460521ADF80210FFF756FD0EBDCD
:2064CC000EB501900821ADF8001068460321ADF80210FFF74AFD0EBD0EB501900821ADF8CB
:2064EC00001068460321ADF80210FFF73EFD0EBD0EB501900821ADF8001068460321ADF852
:20650C000210FFF732FD0EBD0EB501900821ADF8001068460321ADF80210FFF726FD0EBDCE
:20652C0004480821A0F844100149C164FFF7B8B89D600000AC2A002010B50446A088FDF7FB
:20654C005FF80028A06014BF00206FF0030010BD08B5036893F82C302BB101230093134693
:20656C000022FCF777FD08BD08B5FEF77BFC01460248484040F0004008BDC04600600020C4
:20658C0010B5044C830003EBC003E058C268E018904710BD2071000008B502206946FEF794
:2065AC001DFA20B9032001216A46FDF711FD08BD10B5044C00212C34204600F0D5FA204602
:2065CC0010BDC046881F0020044B03F112010A8810430880986A00F037BBC0462423002001
:2065EC000449B1F1FF3F07BF0020011C0868091DFFF7DCBDFFFFFFFF30B502FB01F403FB69
:20660C0000444FF00005E2FB00542146284630BD04498868401E886003D10869C96800F00A
:20662C009FBA7047A4010020012814BF002040F2FF700249086000207047C04600000460C8
:20664C0004480268406800211200401841EB02017047C04608200940034804490068814225
:20666C0001D0FDF7CCB8704798CA01107047282038B141F28C30C5F200000068C0F3C140F1
:20668C0070470020704708B50820ADF800000C20ADF802006846FFF768FC08BD08B50090E9
:2066AC00BDF8020000F0F0FABDF8000000F004FB08BD08B5406820B1006800F0D5FA002057
:2066CC0008BD6FF0020008BD10B50446FFF706FC032000F079FA204600F082FA10BD000097
:2066EC000248034A1321FEF763BBC046402700208071000038B50546FEF7DCFA002400B15A
:20670C00012400202C7138BD4FF0FF3101600249416000210172704740420F004068002135
:20672C0080F8A410014801707047C046811B0020034938B53CC93CC01EC980E81E0038BD52
:20674C0044710000034B191D0A8810430880986800F07ABA881F002003480249001D016088
