:0400000500012001D5
:020000040000FA
:10000000B84400203998000001CA011001CA01104B
:1000100001CA011001CA011001CA011001CA011070
:1000200001CA011001CA011001CA011001CA011060
:0C00300001CA011001CA01103FCA0110F2
:100100003C0000000000000000000000340100007E
:1001100000000000000000000100000000000000DE
:1001200000000000000000000000000001000000CE
:100130000000000008000000000000003400000083
:100140000000000000000000680100000000000046
:10015000000000000100000000000000010000009D
:100160000000000000000000080000000000000087
:1001700030000000000000000000000098010000B6
:10018000040000000000000001000000FFFFFFFF6E
:10019000FF00000001000000080000000000000057
:1001A0002C0000000000000000000000C40100005E
:1001B000040000000000000001000000FFFFFFFF3E
:1001C000FFFFFFFF080000000000000034050000F2
:1001D000E401000099A1011095A70110A5C201102A
:1001E00009B2011045B80110000000000000000035
:1001F00030000000280000000000000000000000A7
:10020000140200000000000000000000FFFFFFFFDC
:1002100000000000080000000000000030050000A1
:100220003002000069C201106DC101101FC201102F
:1002300095BA01100000000000000000320000002C
:10024000300500005402000075C20110A9B601106B
:100250009DBF011049B60110000000000000000021
:100260003400000024000000000000000000000036
:1002700080020000000000000000000000000000FC
:100280000800000000000000240000000000000042
:1002900000000000A40200000000000000000000B8
:1002A0000000000008000000000000002400000022
:1002B0000000000000000000C80200000000000074
:1002C0000100000000000000080000000000000025
:1002D000000000003040002004000000000000008A
:1002E000000000002000000070010000300000004D
:1002F0001C02000038400020040000000000000044
:10030000000000000C000000300400001800000095
:1003100040020000404000200400000000000000F7
:100320000000000024000000480400001800000045
:100330000000000048400020040000000000000011
:100340000000000010000000A00100002C000000D0
:10035000CC0100005040002004000000000000001C
:1003600000000000200000006402000024000000E3
:10037000FFFFFFFF584000200400000000000000C5
:100380000000000028000000880200002400000097
:10039000FFFFFFFF6040002004000000000000009D
:1003A00000000000580000003C0100003400000084
:1003B000FFFFFFFF68400020040000000000000075
:1003C00000000000100000006004000018000000A1
:1003D000FFFFFFFF7040002004000000000000004D
:1003E000000000001C000000AC020000240000001F
:1003F000FFFFFFFF78400020040000000000000025
:100400000000000038000000F40100002800000097
:10041000FFFFFFFF804000200400000000000000FC
:100420000000000054000000000100003C0000003B
:100430001800000000000000000000004004000060
:10044000080000000000000018000000000000008C
:100450000000000058040000080000000000000038
:100460001800000000000000000000007004000000
:100470000800000000000000010000009898000043
:100484000100000000000C0000000D00320000001C
:1004940002000000D83E002000020000000000001E
:1004A40001CA011000000000000000000800000064
:1004B40000002000A03E002001000000F83F0020C2
:1004C4000800000000000000000000000000000020
:1004D400000000000000000001000000083F0020B0
:1004E40006000000010000005C3D00200000000048
:0C04F400000000000002000000000000FA
:0F0502002A000100250032003400300001000102
:1005140004000000649800000000000000000000D7
:10052400000001000000030087C40110380500002A
:10053400380500000000000080000000800000007A
:1005440000000000F83F00203F6F00002000000082
:1005540050980000009600000DC30110D155000012
:10056400D355000099C801109BC801100000000079
:10057400CE3C0000549500006C9500003C950000B2
:090584000800090001000000015B
:10059000000000000000000000000000000000005B
:1005A00065540000C954000045530000F354000096
:1005B000AD53000061530000F153000035550000B9
:1005C000BD6E0000C3700000C7700000080000008E
:1005D0002400000018000000280000002000000097
:1005E0003C0000000C00000034000000DFF800F0C8
:1005F000D5C20110DFF800F0D9C20110E0B5082122
:10060000ADF800100190042100F00FF808B10020AF
:100610000EBD02980EBD00B583B00821ADF80010E4
:100620000190052100F001F807BDADF8021000A807
:10063000DFF8B01C0968084710B5DFF8AC4C0020A3
:10064000207004F1100001F0AAF8A06004F11C0071
:1006500001F0A5F8E060DFF8944C2088C0B201F00A
:1006600039FA2088C0B201F032FA0FF2480215219F
:10067000002001F044FA4FF0FF3001F03DFA4FF056
:10068000FF3001F007FA01F0F9FEBDE8104000204C
:1006900038B5DFF8244D00202070A06940B105680E
:1006A000FFF7B9FF2800FAD1A16900200860A06116
:1006B00031BD0000534E500000000000000000005B
:1006C0000000000000000000000000001CB504460F
:1006D00020791E2813D16088C1B2000A01EB0020E6
:1006E000ADF80500022360788DF8040001AA0DF131
:1006F000050000908921552002F03CF916E07F2882
:1007000014D161888DF8001000A96288120A04F1E2
:1007100008004A7000AB02888A7004220088000A30
:100720008DF803000021202002F07BF9217904F1EB
:10073000080001F0D3FB13BD012800D0704710B5AD
:10074000DFF8744C6078122882B002D0182807D0E5
:1007500013BDA06998B100F04BFEA088FFF798FF89
:10076000A06960B141790091038AC2884169C0687B
:1007700000F064FDA06900210171406908E0607823
:10078000A389628821690090A06800F057FD206964
:1007900001F0ADFB13BDF8B5DFF8204CDFF8205CAD
:1007A000DFF8447B20E07069A8B170680222294616
:1007B00002F09EFD28B170680222214602F098FDE9
:1007C00030B970694068B0F5801FA8BFFFF723FFFC
:1007D0007069FFF720FF7068B0F5801FA8BFFFF7B2
:1007E0001AFF3046FFF717FFB86801F003F806005C
:1007F000D9D101207870F1BDBFB504460F4603A9D9
:1008000040F20E3002F0FCFEDFF8AC5B28780028E6
:100810005DD000202870207880B168788DF80400C1
:1008200001A9A8684089ADF8060020788DF8080075
:10083000A88801F01EFA0020286148E06888B842C4
:100840003ED368780A2802D00C2817D038E0A88850
:1008500000233A460B2101F032FB0290B0B100F0C8
:1008600039F8A88801A901F00AFA00282FD000F071
:1008700046F8012100F0C2F80B211DE0A8880023F2
:100880003A460D2101F01BFB029018B900F02AF83E
:10089000872118E000F01EF8A88801A901F0F5F9F9
:1008A000A8B187218DF80010002200A900AB4A7082
:1008B000887000F01EF80D2101A801F00FFB06E082
:1008C00000F010F88421817000AB00F012F80020D5
:1008D00004B0B0BDADF80470D4F8071002983A46E1
:1008E00003F0F6B987208DF80000002100A84170C0
:1008F0007047032200214FF4004002F092B8872095
:100900008DF80000002100A800AB41700322704761
:1009100000BF30B5DFF8A04A2178002983B06BD042
:10092000017881B161788DF80010A1684989ADF82E
:10093000021000A900788DF80400A08801F099F950
:1009400000F062F858E0A188B0F80100884206D0B3
:100950008820FFF7D5FF842100F050F84CE0607844
:10096000122802D0182806D033E000202070084654
:1009700001F091F92DE0A56935B300E0054628792D
:1009800010B928680028F9D12879002804BF286800
:10099000002809D12070084601F083F9206901F090
:1009A000A6FA00F031F814E0182000902B8AEA88AB
:1009B0006969E86800F042FC00202871686901F06C
:1009C00096FA0120207004E000202070084601F013
:1009D00068F9A06841680A78497802EB012189B278
:1009E00042F60212914205D1C0680068217D8170F3
:1009F000A18801800020206100203EBD81704FF45D
:100A00000040002102F00DB800202061A0883FE6E0
:100A10002DE9F843804689461546872605B12E7094
:100A20000DF1010140F21A3002F0EAFD9DF80100DB
:100A300020B9DFF8B4787878012804D10DB1862088
:100A40002870862039E00120787000F01DF904003C
:100A500032D000F0F5F80220207098F8000001284C
:100A600002D002282BD02DE0DFF8540900F065F801
:100A700008202082FFF7C2FD606198B300AA4946B2
:100A800008F1010003F06DFC60B362699DF800108D
:100A90001170616948606069E06001F0CBF8B8806E
:100AA00022463878401C38700021B86800F07EFE7D
:100AB00068B1002605B12E703046BDE8F283DFF83C
:100AC000FC08D3E70DB1842028708420F5E7606925
:100AD0004068B0F5801FA8BFFFF79DFD606908B1B1
:100AE000FFF799FD00F077F8E6E711B581B000F067
:100AF000CBF804001DD000F0A3F802202070DFF82E
:100B0000780B00F01AF801202082FFF777FD606172
:100B100068B1E06001A861690278DFF8600B0A70D3
:100B2000224600F018F830B96069FFF774FD00F054
:100B300052F8002016BD012016BD60600120207211
:100B40000020608170479DF8000038707C603E7224
:100B50003A46DFF8280B8068002100F027BE18B560
:100B60000FB481B000F090F804002FD000F068F8C6
:100B700002202070DFF8080BFFF7DFFF062020823D
:100B8000FFF73CFD6061F8B1E06001A960690A7897
:100B9000027002A9421C0B78137003A9821C0B7807
:100BA00013704B78537004A9021D0B78137008A9B9
:100BB0000A7800F8052F4A7842702246FFF7C9FFED
:100BC00030B96069FFF727FD00F005F8002000E06C
:100BD000012006B010BD20461DE52DE9F0418046FC
:100BE0000C4615461E4600F04FF8070023D000F0D3
:100BF00027F8022038703C82DFF8880A786008F015
:100C000003003872002078812046FFF7F7FC7861F6
:100C100078B1F8602A467869314603F059F8DFF870
:100C20005C0A80683A46FFF797FF30B97869FFF7AA
:100C3000F2FC00F04CF8002000E00120BDE8F0815B
:100C4000182103F00BBEF8B514461D4601F003064B
:100C500000F01AF8070013D0FFF7F2FF00AA2146B0
:100C6000284603F07EFB040008D0FFF76CFF48B96C
:100C7000B4F5801FA4BF2046FFF7CDFC00F027F895
:100C80000020F2BD0120F2BD1820B7E4F8B500F055
:100C900003060C461546FFF7F7FF070013D0FFF7D2
:100CA000CFFF00AA2946204603F05BFB040008D0D2
:100CB000FFF749FF48B9B4F5801FA4BF2046FFF7EE
:100CC000AAFC00F004F80020F2BD0120F2BD384675
:100CD000A1E438B50546FFF7D7FF040037D0FFF78A
:100CE000AFFF02202070DFF8A009606005F003006C
:100CF00040F00100207200206081DFF890592878D0
:100D00008000001D2082208AFFF778FC6061E0B13E
:100D1000011D016000216069E0606069001D07E05D
:100D2000FF2220F8212000EB810300229A70491C49
:100D30002A789142F4DBDFF8440980682246FFF705
:100D40000BFF30B96069FFF766FCFFF744FF002036
:100D500032BD012032BD10B582B0044600F0CAF9A0
:100D60009DF80000002802BFDFF810094078012834
:100D700002D086202070002016BD70B582B00546D6
:100D800087200E4614468DF8000024B10020A4F8F8
:100D900001008720207000A8FFF7DDFF40B9FFF7B2
:100DA000FAFC14B19DF8000020709DF8000076BD9B
:100DB000B5F80100C0B2FFF798FE10B9FFF7EBFCE1
:100DC0000BE02978A888AB1D3246FFF73CFF30B90D
:100DD000FFF7E1FC0CB187202070872076BDDFF89B
:100DE0009C080178891C01705CB18288C9B289189D
:100DF000491ECAB201F47F418918A4F801100021EC
:100E0000217000218170002076BD2DE9F04F87B060
:100E100080460D460024872070219A4600278DF8D1
:100E2000040018EA010F93460AF101098AF80070DC
:100E300040F0A38001A8FFF78EFF00284CD0DFF818
:100E40003C68B07810EA080F18BF862040F0AE80EA
:100E50005FEAC8701FD528788DF8080002226878EC
:100E6000A97800EB0120ADF809000DF10B01E8783D
:100E70008DF80B00052728798DF80C009DF80800E7
:100E8000FFF704FF002827D000F093F8A9F800101E
:100E9000401C012430705FEA887025D5785D8DF89C
:100EA0000800781CC0B24219415D527801EB022162
:100EB000ADF80910871CFFB2102279190DF10B0053
:100EC00002F006FF9DF8080010220DF10B01FFF75C
:100ED000DDFE10370028FFB258D000F06AF829F87C
:100EE0001410401C641C30705FEA48700BD5785DAC
:100EF000FFF7EFFE7F1C0028FFB247D000F061F83B
:100F000040F00400B0705FEA087026D57819417986
:100F1000827901EB022189B2009103798178C2784C
:100F200001EB02224178007892B2FFF718FE68B315
:100F30003078401C3070C0B2B1884018401EC1B239
:100F400000F47F404018E4B229F81400FF1DB07887
:100F500040F00800FFB2641CB0705FEA08601FD563
:100F6000781941788278037901EB0221C27802EB8B
:100F7000032289B292B2914203D2FFF70CFC842083
:100F800014E0431D0078FFF728FE20B9FFF703FCAB
:100F90009DF804000AE000F014F840F08000B07002
:100FA000E4B2ABF800408AF80080002007B0BDE84A
:100FB000F08F3078B1884118CAB201F47F418918A6
:100FC00070473078401C3070C0B2B1884018401E65
:100FD000C1B200F47F404018E4B229F81400641C48
:100FE000B07870472DE9F04782B0044600250CB96F
:100FF000842072E0A4F80150A4F8035087202070E8
:1010000000F078F89DF80000002802BFDFF86C6659
:101010007078012802D0862020705EE01020FFF753
:10102000EDFA070063D030780001FFF7E7FA5FEAD6
:1010300000085AD030788000FFF7E0FA5FEA000934
:1010400001D140464FE0C7F80080C7F80890B0884B
:10105000B881317839710818401EF88113E0B088E2
:10106000281829F8250009EB8501BAF810004880F6
:101070001022514608EB051002F02AFE50466D1C66
:10108000FFF7C9FAADB2B06800F0B4FB5FEA000A3E
:10109000E5D1F0683A46FFF75FFD00B3B088C1B212
:1010A000020A01EB0221A4F801100FF2E853317893
:1010B0000818401EC2B200F47F408018A4F8030054
:1010C000102200207070404600F0E7FC207008B14C
:1010D000FFF761FB002030702078BDE8F6874046BE
:1010E000FFF799FA4846FFF796FAFFF7F0FDFFF78A
:1010F00052FBF1E700A940F21A3002F081BAF8B5CC
:10110000DFF878750446F8680D461646FFF76EFA64
:1011100001E0FFF76FFAF96888421FD081688A8979
:10112000944224BFCA89A242F3D308688A68097925
:10113000A0B1002310E000EB0317B7F80AC0A445E4
:1011400004BFFF682F6032F82370A74203D102EB7F
:1011500083077F8837805B1C8B42ECDB0020F2BD6D
:1011600030B583B00C46002101911546008800AAD5
:1011700001A9FFF7C4FF38B90198C4F80300BDF80E
:101180000000288000203EBD88203EBD7CB504467E
:10119000002001900D461646208800AA01A9FFF7FD
:1011A000AEFF98B9BDF8000008B9862076BDA84208
:1011B00001D2842076BDD4F8021001982A4602F0AC
:1011C00087FD2088A6F80100002076BD882076BD26
:1011D000FEB50A9C0A2C18BF0C2C05460F462AD1D6
:1011E000754E307838BB01A940F20E3002F008FA93
:1011F00078897470C2B201A9000A02EB002048800D
:10120000B58008230898C2B2000A02EB002088804B
:1012100016240998C1B2020A01EB0221ADF80A10A6
:101220007080012101A83170009000228721552093
:1012300001F0A0FB00E011242046FEBD2DE9FE4395
:1012400004460D0060680178407890461F4601EB27
:10125000002945D00720FFF7D1F9060040D03146DC
:1012600040F20E3002F0CCF96089B0701FFA89F2BA
:101270006089000AF07042F602110A988A4218D179
:101280004D4901220A700D61A1F8028048708F81DA
:101290008C603271701D2A78027007236A78427060
:1012A00000222878087500968B21552001F062FBFA
:1012B00011E052280CBF0020012030717771380AEC
:1012C000B0710295CDF80480009607230022882192
:1012D000552001F072FB3046BDE8FE43FFF79BB995
:1012E000BDE8F78318400020A4370020E03C002030
:1012F0002DE9F84F0A9C8246994609EB0400B0F5A7
:10130000007F8B469046C8BF182052DC2A4E3078AA
:10131000012808BF0E204CD00B9DB769122D06D0B6
:10132000162D31D0182D08D0522D22D01CE05FB1DF
:1013300000F05EF8B088FFF7ABF9B76927B100F0AD
:101340004FF8386000F03EF801203070C6F8108089
:10135000A6F802907570B481C6F808B0A6F804A08B
:101360000121022001F0DAFA522D0CBF00201620D4
:101370001FE0009523464A4641465846FFF75EFF68
:10138000404600F0B4FDEFE71FB100F029F83860E7
:1013900002E0FFF779FCB06110B100F013F8E3E769
:1013A000FFF7ADFA8721FFF729FBB088FFF770F947
:1013B0001320BDE8F28F00004438002024660000AE
:1013C0002066000000210160C0F814800121017135
:1013D000A0F806900482C0F80CB0A0F808A07047EE
:1013E00000E0074638680028FBD11820FFF706B94F
:1013F00087208DF80000002100A800AB4170032277
:101400008E2181704FF40040002101F00ABB10B51D
:1014100014460278012A02D0022A06D00BE0821C70
:101420004078C9B200F06BFB06E0821C4078C9B27C
:1014300001F02CF800E089202070207810BD000019
:1014400010B50C4600211180C4F80210417861707B
:10145000017821700178012902D0022923D044E0CB
:101460004078082811D8DFE800F005070D090B0DBA
:101470000D0D0D00152006E0022004E0062002E01C
:10148000082000E00120108002E01188842081B350
:101490001088FFF7B3F8C4F8020020B30146607863
:1014A00000F038FB1BE0407828B1401E062806D922
:1014B000C01F02D006E0082002E0072000E015204F
:1014C000108002E01188842099B11088FFF796F807
:1014D0000100C4F8021006D0607801F071F802280B
:1014E00007D1842010BD872010BD00218920C4F8B9
:1014F000021010BD2DE9FE4F054688466879002789
:10150000032108421CBF00F00300032800F0B18053
:101510005A48C068FFF76AF842F6030901E0FFF78E
:1015200069F85649C968884263D081686B888A899E
:10153000934224BFCA899A42F1D30A6891F804C041
:10154000002101E007B371466145E8DA4C1C02EB6B
:1015500001115FFA84FE4C899C42F4D1A1F10C0484
:1015600021680E78497806EB012189B2494501D0FE
:10157000832071E0A4686979247811EA241F01D1DD
:10158000902069E0744601E0641CE4B26445DADA54
:1015900002EB0416D6F804A09AF800B09AF801A05D
:1015A0000BEB0A2A1FFA8AFA42F6021BDA451CD113
:1015B000F4682468002600E0761CDFF8D0A09AF8D2
:1015C00000A0F6B256450CD234F826B0B5F800A00B
:1015D000D345F1D104EB8607BC780C4203D0012738
:1015E000B1E7002FAFD18F2036E0CA45AAD19120B4
:1015F00032E00FB988202FE0288800AB4FF6FF7249
:101600001B2100F05CFC029008B9872024E0688868
:10161000BDF80010ADF804004145B4BFBDF800208E
:101620004246ADF806204145B4BFBDF80020424611
:101630000298A91D02F04CFB6879C1070ED52A79E2
:10164000288801A900F0E7FA5FEA000803D01B210F
:1016500001A800F043FC4046BDE8FE8F800708D596
:101660000B4803882A792888DBB201A900F0FAFA2E
:10167000EAE78420F0E700002C660000A437002091
:10168000406600003466000038660000F83900202B
:10169000E03C0020D1110000F11200000000000029
:1016A000DFF800F041AC0110DFF800F085C1011057
:1016B000DFF800F025C20110DFF800F0C1C2011010
:1016C000DFF800F0E3BF0110DFF800F013C10110F4
:1016D000DFF800F0B5C10110DFF800F0A9C101107A
:1016E000DFF800F079B50110DFF800F0F5B801106F
:1016F00000B583B00821ADF8001001900521ADF8C8
:10170000021000A843490968884707BDF0B589B0B1
:1017100004460D4616461F4608232422002100A831
:10172000FFF7C2FF0F983C490968069000AB4FF4E1
:101730007A70B0FBF1F101FB07F0059001FB06F2B6
:101740000E98ADF8100029462046FFF7C9FF204645
:1017500009B0F0BD38B504460D4603F014F910B1D8
:101760002046FFF7A5FF00F013F800FB05F1204627
:10177000FFF7A2FF2046BDE83240FFF7A1BF80B5CA
:1017800003F001F900B10120C0B202BDFFF790BF24
:10179000214909684FF47A70B0FBF1F0704710B539
:1017A00004460021FFF7A0FF204610BD70B584B0AD
:1017B00004460820ADF800000D460420ADF80200F4
:1017C0000C20144909680190164600A8884758B9AA
:1017D000029949B18E602046FFF77AFF15B128467D
:1017E000FFF75EFF012003E03046FFF781FF002096
:1017F00004B070BD10B50446FFF766FF38B9204647
:10180000FFF76AFF8468FFF773FF204610BD0020D2
:1018100010BD00001840002094980000E0B5082199
:10182000ADF800100190022100F00FF808B100207F
:101830000EBD02980EBD00B583B00821ADF80010B2
:101840000190032100F001F807BDADF8021000A8D7
:10185000DFF87013096808471FB5ADF80610ADF83A
:1018600004000824DFF85C138DF808200393ADF81A
:101870000040ADF8024000A80968884704B010BDD8
:1018800030B585B0144608220291ADF80020192227
:10189000DFF8301309680190ADF802201D4600A85A
:1018A000884714B1BDF80C10218015B1BDF80E1099
:1018B0002980089A0499116005B030BD00B583B045
:1018C0000820ADF800001A2000F014F810B9BDF897
:1018D00004000EBDFF200EBDE0B5ADF80000ADF870
:1018E0000610002000F006F810B99DF808000EBDA3
:1018F000FF200EBDDFF8CC120968ADF8020000A889
:10190000084750B110F1040F01D10420704710F1C5
:10191000030F01D10220704701207047812303701B
:1019200042EAC111002341F47C41C37081807047B9
:101930008223037081800023C370827170473EB59B
:1019400004460820ADF800000D462020ADF8020046
:101950001020DFF870120968ADF8040000A888476D
:1019600020B9029810B16FF004003EBD009500232D
:10197000002221464FF0FF30FFF782FF3EBD10B539
:101980001446CA78012A82B003D18A88DFF87435F8
:101990001A8000F010F858B9009000A92046FFF70F
:1019A000CEFF28B900984478FFF745FF204616BDC2
:1019B000FFF7A7FF16BD0B46022210214CE738B5F2
:1019C0001C461546FFF7F7FFB8B9009000A9284656
:1019D000FFF7B5FF88B900984578002D04BFC0799E
:1019E000A04205D1009881680498224602F070F95F
:1019F0000098FFF720FF284632BDFFF782FF32BD77
:101A0000F8B500F09CFA00F012FA07000DD032464B
:101A10002946FFF78DFF00F09BF93872FFF74EFF64
:101A20003B4601B0BDE8F0402FE0F1BD102201219E
:101A3000E6E73C81BD72FE6040E72DE9F04100F031
:101A4000B8F907000FD0142200F022F83C72FD60B4
:101A50003E8287F81280FFF731FF3946BDE8F0413A
:101A6000DFF8A4248BE72FE038B500F040F805003C
:101A700001D0152200E031BD00F00AF82C81FFF7FB
:101A80001DFF2B4601B0BDE8304002221021E3E6E5
:101A900001214DE7002204217FE02DE9F04100F013
:101AA00088F9070010D002220421FFF741FFBC6033
:101AB000BD81BE73C7F81080FFF700FF3946BDE84F
:101AC000F041DFF848245AE70420BDE8F0811022F5
:101AD000022195E738B500F00AF8050006D0122279
:101AE00000F008F800F034F92872C8E731BD044668
:101AF0000A2093E602211BE7002203214DE000B5F6
:101B000083B00FF26103019306230093032300F0D7
:101B10005BF80EBD80B50FF251020092052303223F
:101B200000F064F802BD1078802802BF508840F2AF
:101B30007F61884208D19088984202BF91790098CD
:101B4000814201D1012070470020704710B582B05A
:101B5000062402E010B582B005240094FFF7E3FFED
:101B600016BD00000323F1E70323F3E71078802874
:101B700002BF508840F27F6188420CD190880328D0
:101B800018BF042807D1907900281CBF10281128FD
:101B900001D10120704700207047F8B500F0ADFA80
:101BA00007000CD032462946FFF7C2FEBC60FFF7A3
:101BB00085FE3946BDE8F840DFF85423DFE604200F
:101BC000F2BD0000184000202DE9F04100F07CF843
:101BD00007000AD0069A4146FFF7AAFE3C817D81A4
:101BE000FFF729FF079A00F0E3BA6DE72DE9F0410E
:101BF00000F06AF807000AD042463146FFF798FE27
:101C00003C81FD60FFF75AFE069A00F0D1BA5BE70F
:101C10004246032182E670B582B000F090F9FFF7EA
:101C20004DFE1B210091C3B232462946204600F0EA
:101C30002CF976BD1CB50020ADF8040000F012F9B7
:101C400004000CD0062200F0E4FBFFF737FE01A9E8
:101C5000009102230FF2C1322146FFF7B0FEBDF81A
:101C6000040016BD10B582B01D24009400F00DF9DB
:101C700016BD0A4601460FF2F533012017E00A4669
:101C800001460FF2ED330B2011E00A4601460FF238
:101C9000E5330D200BE001460FF2DD330022132067
:101CA00005E001460FF2D53300221920FFE72DE9A8
:101CB000F04100F009F8070005D022460221FFF7A5
:101CC0002DFE00F070BAFFE604460D461646984613
:101CD0001020FFF7A3BD2DE9F04180460D461646C2
:101CE0001F461820FFF79AFD040014D0002200F0D0
:101CF0005DF800F009FB20726572A672E760069835
:101D0000206107986061FFF7D9FD2146BDE8F041E9
:101D10000FF2A12233E6D7E60FF29D231122002114
:101D200011E1F8B500F0ABF807000FD00A2200F07F
:101D30003DF800F00DF838727D813E73FFF7BEFD6F
:101D40003946BDE8F8400FF2752218E60420F2BDCE
:101D500021465020FFF7C0BD0FF26523062203E1A4
:101D60002DE9F04180460D4616461F461020FFF72C
:101D700055FD040010D0072200F018F800F0C4FA56
:101D800020726572A672E760FFF798FD2146BDE8F4
:101D9000F0410FF23122F2E596E60FF22D230822F0
:101DA0000021E1E00FF225231022B7E00421FFF724
:101DB000B5BD04460D46164698461420FFF72EBDC5
:101DC00070B500F014F806000BD03022FFF7EEFFDC
:101DD00000F009F83146BDE870400FF2F512FFF748
:101DE000CEBD042070BD34817581FFF767BD044608
:101DF0000D460C20FFF712BD30B583B0044600201D
:101E0000ADF8040000F013F805000DD03122FFF703
:101E1000CDFF2C81FFF752FD01A9009102230FF2A3
:101E2000B5122946FFF7CBFDBDF804003EBD0A20E0
:101E3000FFF7F4BC1CB500208DF8040000F012F888
:101E400004000CD01222FFF723FEFFF737FD01A993
:101E5000009101230FF281122146FFF7B0FD9DF89A
:101E6000040016BD0820FFF7D9BC04460D461646EF
:101E70001020FFF7D3BC04460C20FFF7CFBC04466C
:101E80000D4616460E20FFF7C9BC2DE9F041FFF7BD
:101E900090FF070011D0069AFFF7BBFE3C813E740D
:101EA000FD6000F031FA7874FFF708FD3946BDE8AF
:101EB000F0410FF26912FFF762BDFFF705BE38B5BA
:101EC0001446144A15682A0006D0009302460B46B1
:101ED00021460120A84732BD002032BD0E4A1368BA
:101EE0001A0003D00A4601460120184770470A49E4
:101EF0000B68190003D001460022032018477047E1
:101F00000000000090400020812000008720000099
:101F10006D1B0000AC380020B03800202DE9F041E6
:101F200000F00DF898460C20FFF778FC070004D06D
:101F300000F016F83C81BD7237E1FFF7C5BD0446DD
:101F40000D46164670472DE9F041FFF7BDFE07002C
:101F500004D000F005F8BC60FD6026E1FFF7B4BDD9
:101F600032460421FFF7DABC2DE9F041FFF7ACFE61
:101F7000070006D0FFF7F4FFFFF7EAFE3872FD60B6
:101F800013E1FFF7A1BD1078802802BF508840F20E
:101F90007F6188420CD190884FF680710140B1F585
:101FA0007E4F04BF00F07F00984201D101207047AE
:101FB000002070470023E6E71123E4E70A23E2E765
:101FC0000623E0E70723DEE70823DCE71023DAE750
:101FD0003023D8E73123D6E780B5122300930123BD
:101FE000FFF7A1FD02BD00001078802802BF5088D5
:101FF00040F27F6188420DD190884FF68071014098
:102000004FF68052914204BF00F07F00984201D108
:1020100001207047002070470623FDE170B5FFF7EF
:102020008EFF1D23FFF7E0FF30B9324629462046D8
:10203000BDE870401B23D7E7012070BD10788028D1
:1020400002BF508840F27F6188420CD190884FF6E1
:1020500080710140B1F57D4F04BF00F07F009842D0
:1020600001D1012070470020704700000123E5E7FF
:102070000B23E3E70D23E1E71323DFE71923DDE774
:1020800080B51423AAE780B5022300930423A7E7B1
:1020900000F071F802BD00F058F802BD0FF23911DE
:1020A00041F209003BE080B50FF2351100F0BDF8B8
:1020B00041F20540EFE780B50FF22D1200F0DDF898
:1020C00042F21700E4E7F8B500F017F8070012D065
:1020D000812038703C720120F8707D7242F21E003F
:1020E000B880BE72FFF7EAFB3946BDE8F8400FF250
:1020F0000112FFF744BC0420F2BD04460D4616460B
:102100000C20FFF78BBB80B50FF2ED0100F08DF8CE
:1021100042F21D00BFE70FF2E90142F21F0070B565
:1021200004460D46FFF79EFE06000CD0812030705D
:10213000B4800120F070FFF7C1FB2A463146BDE8AC
:102140007040FFF71CBC042070BD2DE9F041FFF783
:10215000F6FE98460E20FFF761FB070009D000F05D
:102160001CF83D817E81A7F80C80FFF7A7FB069A3B
:102170001EE0FFF7A9BC2DE9F041FFF71AFE0700AA
:1021800009D000F00AF8BD60FE60C7F81080FFF7C4
:1021900095FB069A0CE0FFF797BC81203870012070
:1021A000F870BC8070473D81FE60FFF787FB4246B8
:1021B0003946BDE8F041FFF7E2BB1078802802BF46
:1021C000508840F27F61884204BF9088984201D1D4
:1021D000012070470020704741F20903EDE700003D
:1021E00041F20543E9E7000042F21703E5E700008A
:1021F00042F21E03E1E7000042F21D03DDE70000AA
:1022000042F21F03D9E780B50FF22D1100F00DF84F
:102210004FF6014006E080B50FF2251100F005F8F9
:102220004FF60240FFF791FF02BD009100230146E7
:102230000022704780B50FF2111200F01EF84FF621
:102240000540FFE7FFF797FF02BD80B50FF20111D0
:10225000FFF7EBFF4FF60740E4E780B50FF2F90117
:10226000FFF7E3FF4FF61A40DCE780B50FF2F1020B
:1022700000F003F84FF60840D4E7009200230A4626
:10228000014670470FF2E1014FF6094047E780B57C
:102290000FF2DD01FFF7C9FF4FF60A40C2E70FF268
:1022A000D9014FF60B403AE780B50FF2D501FFF7A1
:1022B000BCFF4FF60C40C5E780B50FF2CD01FFF72C
:1022C000B4FF4FF60D40ADE70FF2C5014FF60E40DB
:1022D00025E780B50FF2C101FFF7A7FF4FF61140C8
:1022E000A0E780B50FF2B901FFF79FFF4FF613404B
:1022F00098E780B50FF2B102FFF7BFFF4FF6144029
:1023000090E73C817D81BE8141465020FFF7E4BAD1
:1023100080B50FF29D01FFF788FF4FF61D4081E762
:1023200080B50FF29503009313460A4601464FF617
:10233000204087E7000000004FF601433DE7000022
:102340004FF6024339E700004FF6054335E700003A
:102350004FF6074331E700004FF61A432DE7000020
:102360004FF6084329E700004FF6094325E7000030
:102370004FF60A4321E700004FF60B431DE700002C
:102380004FF60C4319E700004FF60D4315E7000028
:102390004FF60E4311E700004FF611430DE7000022
:1023A0004FF6134309E700004FF6144305E700001A
:1023B0004FF61D4301E700004FF62043FDE6F8B558
:1023C000FFF753FD07000DD0012200F022F83C7208
:1023D0007D72FFF730FB3946BDE8F8400FF2690225
:1023E000FFF7CDBA0420F2BDF8B5FFF73EFD0700B8
:1023F0000DD0022200F00DF83C727D72FFF71BFB3E
:102400003946BDE8F8400FF24502FFF7B8BA04209C
:10241000F2BD0521FFF782BA1078802802BF5088EC
:1024200040F27F6188420DD190884FF68071014063
:102430004FF68062914204BF00F07F00984201D1C4
:1024400001207047002070470123E5E70223E3E7FE
:1024500038B5FFF710FD05000CD00422FFF7D9FFB7
:10246000AC60FFF72BFA2946BDE838400FF20902AD
:10247000FFF785BA042032BD0423CDE70FF26023B5
:10248000944810221321FFF708BB00002DE9F04308
:102490000024082885B00E4691468F4F00F28A80AE
:1024A000DFE800F0050C1824303C48537D00082E6E
:1024B00076D13246494607F1080076E0152E77DAE4
:1024C000152107F1100003F085F83246494607F15F
:1024D00010006AE0152E6BDA152107F1280003F0D1
:1024E00079F83246494607F128005EE0152E5FDA9A
:1024F000152107F1400003F06DF83246494607F117
:10250000400052E0152E53DA152107F1580003F070
:1025100061F83246494607F1580046E0152E47DA81
:10252000152107F1700003F055F83246494607F1CE
:1025300070003AE0152E3BDA88371521384603F053
:1025400049F83246494638462FE00820ADF80800E1
:102550000420ADF80A00039602A8DFF88081D8F8BD
:1025600000108847C8B9049DBDB1786807F1A00183
:1025700088420AD00821ADF8001001900521ADF87D
:10258000021000A8D8F8001088473246494628466D
:1025900001F09EFB7D603E700DE013240BE0072EE2
:1025A00006D13246494607F1B00001F091FB02E046
:1025B000182400E00224204605B0BDE8F0830000A6
:1025C00010B5024600240846082A434923D8DFE80C
:1025D00002F005080B0E1114171A1D00082208310D
:1025E00016E01422103113E01422283110E01422D6
:1025F00040310DE0142258310AE01422703107E016
:102600001422883104E00A78496801E00722B031D9
:1026100001F05EFB00E00224204610BD2DE9FE49DA
:1026200090464A680A9C107852780B9D00EB022075
:102630001F46002680B242F62322274B801A04EB65
:10264000030C07D0401E052810D9801F1ED0263845
:1026500029D03AE0092C28D2C4F10800854228BFCD
:10266000C4F108053D800CF1080129E0D1F80CB057
:10267000584602F0B3FF80B2A04216DB011B8D4228
:10268000A8BF051B3D8004EB0B0119E0187801463B
:10269000A1420AD3001B8542A8BF0D1B3D8058688C
:1026A0003A8821180DE0082C01D307260FE0C4F169
:1026B0000700854228BFC4F107053D800CF1B00139
:1026C0003A88404601F004FB01E03E800A2630468D
:1026D000BDE8FE89C8380020143B002018400020C7
:1026E0001D2600000000000000000000DFF800F0E0
:1026F000D9C10110DFF800F025B10110E0B50821C3
:10270000ADF800100190042100F00FF808B100208E
:102710000EBD02980EBD00B583B00821ADF80010C3
:102720000190052100F001F807BDADF8021000A8E6
:10273000DFF880160968084700B58FB008233C22EF
:10274000002100A8FFF7D2FFDFF86C0600F150016E
:102750000791002340F2EE21089100AA0121069181
:102760000FF20901FFF7C6FF0FB000BD2DE9F041E0
:10277000DFF8484684B004F10801002003F05AF85D
:1027800040F25A2020814FF0FF3540F21220608144
:10279000E560256104F1080003F064F800F0AAF890
:1027A0000120DFF810663168ADF8020000A8884704
:1027B000BDF804000FF28511A0870298206415204F
:1027C00003F0CFF808B103F0C9F9A08FC0B2FFF74A
:1027D0002DF904F15800FEF7E2FF606403F012FAED
:1027E000FDF72AFF002020700090024600230121FF
:1027F000552000F0BFF800F07DF80A20ADF8020087
:10280000019500A8316888470028F4D100F072F8DB
:102810000920ADF8020000A831688847BDF806100D
:10282000029F48BBBDF80400102804BFA08F81425E
:1028300011D1387891280BD0922805D0B02804BF48
:102840003846FDF743FF06E0384600F061F802E045
:10285000384600F056F87FB100F04CF80320ADF890
:102860000200019700A83168884705E0787803F0F6
:10287000EAFA3846FFF74FFF606CFEF725FF0028A5
:10288000B9D1606CFEF7B6FF0700F5D038780128A3
:10289000ECD002282AD01028EBD1D7F8048098F881
:1028A0000330980911281AD203281EBF04EB8001B7
:1028B000896C002913D0002200E0521C04F1040CA2
:1028C000D2B210F80CC0624509D231F832C063456B
:1028D000F3D101EBC20140464968884702E0404617
:1028E00000F02BF9404603F073F8C2E77878FDF763
:1028F00023FFBEE70820ADF8000070470146012025
:102900000CE041780E2914BFFF2900F034B970475C
:1029100041780E2908BF00F02EB9704738B504463B
:102920000D460820FFF7EAFE38B10470457000F04C
:102930001BF8BDE83840FEF739BF31BD10B504467D
:102940000820FFF7DBFE50B110210170002141701B
:10295000446000F009F8BDE81040FEF727BF2046AC
:10296000BDE8104003F034B80246DFF85034196C6B
:10297000586C70472DE9F0478246884614469946C0
:10298000002504B1012505EB0907B8B203F013F8DF
:10299000060010D0378086F802A086F8038015B1B3
:1029A0007168207808704A4670680899281801F004
:1029B0008FF9304631E0BDE8F0872DE9F0479246C7
:1029C0000026BAF1000F80461D4618BF0126099C5B
:1029D00070192018894680B202F0EDFF07001AD066
:1029E00060193018388087F8028087F803901EB18C
:1029F00079689AF8000008702A46786808993018B3
:102A000001F066F978680A99AB192246181801F0A6
:102A10005FF9384601E0BDE8F087BDE8F04702F015
:102A200084BF2DE9F8430446DFF8940300880025AD
:102A3000044288461646994635D1B8F1000F0AD0AF
:102A4000F01C80B2FFF75AFE070019D098F800007A
:102A5000B870012505E0B01C80B2FFF74FFE0700FB
:102A60000ED03C70200A78702EB1E81932464946E3
:102A7000801C01F02DF97019831C00979BB209E0AE
:102A80000220FFF73BFE07000DD03D7080207870DC
:102A900000970223002205215520FFF76BFF3846DF
:102AA000BDE8F24337E6BDE8F183E0B501A803F0E5
:102AB000DDFB01A8009006230022102109E000B5EB
:102AC00083B001A803F0DCFB01A8009004230022DE
:102AD00006215520FFF74EFF07BD00B585B001A8C0
:102AE00003F0EBFB0DF1050000900C2301AA03217C
:102AF00086E2E0B5406800F088FA01A9BDF8080058
:102B0000ADF8040002A803F004FC01A80090022321
:102B1000002202217520DDE71CB544680088811E73
:102B200089B2204603F0F9FB16288DF8040003D083
:102B30000094022300F05CF913BD00B583B08178E6
:102B40008DF8041001A9C2784A7086228A708078B4
:102B50004009012807D100200090024600230721E8
:102B60007520FFF707FF01AB032200214FF400405F
:102B7000FFF757FF07BD30B587B083218DF80410EC
:102B800041F2090482888D49131B23D04FF47F74CE
:102B90001B1B33D040F612441B1B00F0D9809B1F37
:102BA000012B46D99B1E5AD04DF6E2341B1B012B3C
:102BB00004D91B1F00F0B6809B1E072B40F29A80A1
:102BC0000A3BFBD0DB1E60D09B1FF7D09B1F00F0A1
:102BD000D280ECE0092200F00FF902BF4A88848815
:102BE000A24212D100F012F90978002905D18DF81E
:102BF0000410062200F0ECF80823D4E0052200F0CF
:102C0000EDF802BF4C888588AC4240F0C98000F0E6
:102C1000D9F8F2D1491C0BD000218DF804100523FE
:102C20008168497891700021D1708068C0781071F6
:102C3000B9E08DF808208288120A8DF809200A78F8
:102C4000012A02BF4A8883889A4204D100220A706E
:102C50008068007800E08C2000F096FAA3E01F2244
:102C600000F0BCF802BF4C888588AC4261D100F00E
:102C7000A9F8F3D1491C07D000218DF804100423D2
:102C8000806840789070D1708DE014228DF8082013
:102C900002AA83881B0A53700B78012B02BF4B8852
:102CA0008488A34222D100230B70816889788DF833
:102CB0000410002915D18168C9789170816809795B
:102CC000D170137181688979517193718168097A22
:102CD0008DF80F1013728068807A937250720B23F4
:102CE00061E08068C078907003235CE08C208DF8F0
:102CF00004005CE08DF806208288120A8DF8072017
:102D00000A78012A02BF4A8883889A4204D10022A5
:102D10000A708068807800E08C2000F035FA0DF1B0
:102D2000060041E0052200F067F802BF4A88848867
:102D3000A24235D100F06AF88978002933D18DF8A4
:102D4000041011228068811C00F044F813232AE04B
:102D5000172200F051F802BF4A888488A2421FD18E
:102D600000F054F80978F1B98DF80410102200F041
:102D70002FF8122317E0202200F03EF802BF4A8805
:102D80008488A2420CD100F041F8897859B98DF8B5
:102D900004100C228068C11C00F01CF80E2302E015
:102DA0008C208DF8040002A8009000F021F807B0F4
:102DB00030BD000018400020242D0020A43C00203D
:102DC000BC38002000240C7081680C78002C7047FF
:102DD0008068411C0DF10A0000F07ABF8DF80820D0
:102DE00002AA8488240A547002230C78012C7047AC
:102DF00001AA04215520BDE58DF808200223828810
:102E0000120A8DF809200A78012A704700220A70F8
:102E10008168704700B585B000218DF800104168C9
:102E200009788DF8041000F05DFAADF8051000F097
:102E300053FAADF807104068407B8DF811009DF8FB
:102E40000400012808BF84200DD00DF1010140F2DB
:102E50001A3000F0D5FB9DF8010002281CBF0328A2
:102E6000072803D18A208DF800000AE09DF80000B1
:102E700020B901A803F053F88DF800009DF8000078
:102E800028B10023002200A90820FFF7CAFD05B0E1
:102E900000BD80B500208DF8000000A940F21A3076
:102EA00000F0AEFB9DF8000002281CBF0328072895
:102EB0000AD08B208DF80100002300220DF10101C2
:102EC0001020FFF7AEFD01BD03F0A6F801BD00B56F
:102ED000416885B009788DF808104168491CCDF823
:102EE00009100088411E202904DAC9B202A803F0A3
:102EF000A8F800E0842000F09DF84321552080E0F0
:102F000000B5416885B000F056F841688A78C97804
:102F100002EB0121ADF80A1041680A79497902EB08
:102F20000121ADF80C1041688A79C97902EB0121C1
:102F3000ADF80E104068017A407A00F0B3F802A8AC
:102F400003F0D6F800F020F9BDF808008DF806006F
:102F500001AABDF80800000A8DF8070045210DF10F
:102F60000600009055204CE080B5406803F012F94F
:102F700068B1FF208DF800008DF8010000AB8420BF
:102F80008DF80200032200210220FFF74AFD01BD57
:102F9000E0B5416800F00FF840688178C07801EB37
:102FA0000020ADF80A0002A803F00DF900F042F885
:102FB000482175208EE50A78497802EB0121ADF8A9
:102FC0000810704700B5406885B000F01EF802A8F0
:102FD00003F004F98DF804000423BDF80800BDF8DF
:102FE00008108DF80C00090A03A801AA4170BDF869
:102FF0000A108170080A8DF80F00492103A800907B
:103000007520FFF7B7FC05B000BD0178407801EBF3
:103010000020ADF80800704700B583B00188406813
:10302000491E0022C9B2FDF7F3FC00F003F881212C
:1030300075204FE58DF8040000230020009001AAC0
:10304000704700B585B002A8FDF7CCFF8DF80400ED
:1030500004230DF10900009001AA8421D0E700B5F6
:10306000406887B00178407800F01CF803AA05A9F1
:1030700004A8FEF775F88DF814000223BDF81000BF
:10308000ADF8150005AADDF8170002908521BDF8FE
:103090000C0001900DF1150000907520FFF78DFCDC
:1030A00007B000BD01EB0020ADF81000704700B57F
:1030B000416885B0FFF77FFF01AA4168891CCDF800
:1030C0000A100088811E89B202A8FEF75FF88DF809
:1030D000040000F0C3F8862192E7E0B5018840685B
:1030E000891E02AA89B2FEF792F9FFF7A3FF8C218D
:1030F0007520EFE430B5456885B00DF1060203A9EF
:103100002846FEF79DF98DF80400BDF80600801CE6
:1031100080B2FFF7F3FA04001CBFDDF80E000028B0
:1031200018D02878207068786070BDF80620DDF827
:103130000E10A01C00F0CCFDBDF806000094831C0E
:103140009BB201AA8D2100F054F8DDF80E00FFF7C4
:10315000E2FA14E0872000F017F828788DF80800CC
:1031600001AA68788DF809008D2102A8009000F06E
:1031700040F8DDF80E0008B1FFF7CDFA14B1204693
:10318000FFF7C9FA05B030BD8DF80400022370477F
:1031900010B504468AB0606800788DF80C0060684D
:1031A0004178807801EB0020ADF80D006068C078B0
:1031B0008DF80F00606801794079FFF773FF208870
:1031C000821F6068811D0DF1120000F081FD2088D2
:1031D000811F02AAC9B203A8FDF7CFFDFFF7D4FFF4
:1031E0000DF10900009001AA822100F002F80AB056
:1031F00010BD7520FFF7BEBB00B54068411C87B00D
:10320000007802AB0DF10602FDF7FFFD8DF804001A
:1032100001AA02A800908321BDF806004000431CCB
:103220009BB2FFF7E6FF07B000BD1CB54468B0F9DC
:103230000000811F09B22046FEF75CF98DF80400FA
:1032400010B96079C00708D52088ADF8050000F0F6
:1032500005F889215520FFF78DFB13BD02230DF1E1
:103260000500009001AA704780B500F009F8FDF74D
:1032700050FB01BD80B500F003F8FDF749FB01BD2F
:10328000416809788DF8001040684178807801EB3A
:103290000020ADF8010000A87047E0B5416809784A
:1032A0008DF8001000F01EF8ADF8011000F014F8D1
:1032B000ADF8031041684A79897902EB0121ADF834
:1032C00005104168C91DCDF807100088C11F89B2DB
:1032D00000A8FDF791FA07BD4168CA78097902EBA9
:1032E0000121704741684A78897802EB01217047D3
:1032F0000300002013F0030F09D0521E22BF13F861
:10330000010B11F801CBB0EB0C00F3D07047121F8A
:1033100022BF53F8040B51F804CB6045F7D0121DBF
:103320000AD200BA9CFA8CFCB0EB0C0038BF6FF0EC
:10333000000088BF01207047521E22BF13F8010B06
:1033400011F801CBB0EB0C00F6D0521C08BF1046B0
:10335000704750F8041B61B150F8042BD30744BFE9
:10336000A9F101039A180023091F42F8043BFAD17E
:10337000EFE770472DE9F84CDFF844790C4600265A
:1033800040F2013B92467B78398A97F804C097F85F
:1033900003E0B0EB0B0540F67B4232D06D1E37D018
:1033A0006D1E3DD0AD1E41D06D1E00F07D806D1EA6
:1033B00000F080806D1E00F08D806D1E00F09D80FD
:1033C0006D1E00F0A2806D1E00F0A7806D1E00F043
:1033D000AD806D1E00F0B280ED1E00F0B7806D1E56
:1033E00000F0BC806D1E00F0C1806D1E00F0C68034
:1033F0006D1E00F0CB806D1F00F0D380AD1E2ED06F
:10340000E7E0102C05D11022514607F1A4008AE014
:10341000102C40F0DC801022514607F1B40082E00D
:10342000042C6BD1DAF80000F862DDE0012C65D1E4
:10343000BCF1010F36D09AF80000F870BEF1000F11
:1034400006D00028F1D1022B1BD0052BEDD118E0BE
:103450000028EAD0012B21D0042B1DD11EE0012C25
:103460004CD1BEF1010F1DD09AF800003871BCF1AB
:10347000000F0AD0002807D1032B1CBF072B052BF8
:1034800002D1C8B2FEF789FCAEE00028FCD0012BC7
:103490001CBF042B062B01D0052B02D1012000F00C
:1034A00008FCA1E012269FE0022C27D1BAF8000008
:1034B000B88299E0202C0EDA07F1CC061F213046A5
:1034C00001F0CCF900F097F8388A7C713346224637
:1034D00001210EE0202C7ADA07F1EC061F2130469C
:1034E00001F0BCF900F087F8388ABC7133462246F7
:1034F0000021C0B2FEF734FC73E0012C67D19AF8CA
:103500000000052863DAF8716EE0012C5FD19AF8AB
:10351000000004285BDA387266E0062C57D10622D8
:10352000514607F5867000F0D3FB5DE0012C4ED1CB
:103530009AF8000008284ADA787255E0012C46D142
:103540009AF80000042842DAB8724DE0012C3ED10E
:103550009AF8000002283ADAF87245E000F047F8DD
:1035600035D1811F914232D238833DE000F03FF8DF
:103570002DD1811F91422AD2788335E000F037F8AF
:1035800025D1B0F5FA7F22DAB8832DE000F02FF8CC
:103590001DD1A0F10A0140F67742914217D2F8837B
:1035A00022E0012C04BF9AF8000001280FD107F196
:1035B0008000FEF7E4F840B900F020FB060013D1CC
:1035C00007F15C00FEF7E2F80EE016260CE0182684
:1035D0000AE0272807DA022C05D1BAF80010FEF716
:1035E000EFFB064600E002263046BDE8F28CBAF852
:1035F0000000022C704722465146304600F068BB5E
:1036000038B500244FF440730D46C21ADFF8B016E7
:1036100036D0521E36D0521E37D0521E38D0521ECF
:1036200039D0521E3AD0521E3CD0521E3CD0521EAF
:103630003DD0521E3ED0521E3ED0521E3ED0521E93
:1036400040D0521E40D0521E40D0921E40D0521E3A
:1036500040D0521E40D0521E40D0521E40D0521E6A
:1036600040D0521E45D0521E45D0521E45D0921E0B
:1036700047D0521E14D0521E41D0521E43D045E0B6
:10368000887841E01022A4312FE01022B4312CE0E0
:10369000C86A286041E00622C43126E0C87833E0D9
:1036A000087931E0888A35E04A79CC311DE08A79A1
:1036B000EC311AE0C87927E0087A25E0062201F506
:1036C000867112E0487A1FE0887A1DE0C88A21E0FE
:1036D000C87A1FE0088B1DE0488B1BE0888B19E03F
:1036E000C88B17E0062201F58A71284600F0F0FA2F
:1036F00013E0088C0EE0488C0CE0888C0AE0087B14
:1037000002E0487800E0487B287006E0272803DACA
:10371000FEF772FB288000E00224204632BD1CB573
:10372000DFF89C45617889B900B1206304F12C0071
:10373000019004F1B400009004F1A403208AA17860
:103740000022C0B2FEF7C7FA002016BD112016BD38
:1037500010B1DFF86C1548637047DFF864054178F5
:10376000062918BF072905D1C18A008A1322C0B2D1
:10377000FEF7D7BA1220704700B58FB008233C225D
:10378000002100A8FEF7B2FFDFF8380500F1500174
:10379000079100234FF4DC71089100AA03210691E0
:1037A0000FF2CD01FEF7A6FF0FB000BD70B584B0DB
:1037B00000F015F90120DFF81015DFF8044509685D
:1037C0000FF20955ADF8020000A88847BDF80400C3
:1037D00020820298A062002060704FF6FF70E082A5
:1037E000FEF728FB207000230120019029460020CD
:1037F0000090024604F13800FDF788FF022000F037
:1038000030F804F15C00FDF781FF042000F029F896
:1038100004F18000FDF77AFF0420A07004F1A402F7
:1038200000200146034605462BC204F1B4050646B6
:103830004BC5E062E0712072A17207206072103AFD
:1038400010210220FEF7BBFD103D2A461021032067
:10385000FEF7B5FD042104F12C020846FEF7AFFD8A
:103860007FBD019029460020009003460246704724
:10387000FEB5FFF79BFFDFF84854DFF84C4405F135
:10388000800700F0ACF80A20ADF802004FF0FF30DE
:10389000019000A82168884700284BD100F09FF8CC
:1038A0000920ADF8020000A821688847BDF806107D
:1038B000029E00283ED1BDF80400102804BF288ACB
:1038C00081422DD130884FF6FF71884209D170882E
:1038D000400425D505F12C0204210420FEF784FDC7
:1038E0001EE03078A22805D0D02804BF304600F072
:1038F0007AF815E07079132812D13089012804BFB5
:10390000A87B022805D13846FDF740FFFFF725FFC9
:1039100006E00520FEF770FA01463846FDF71AFF6B
:1039200046B100F05CF80320ADF80200019600A853
:1039300021688847688AC10730D54FF6FE71084074
:103940006882E9782879014328D018B103208DF8DE
:1039500000000CE0E8798DF800000622287A8DF846
:10396000010005F586710DF1020000F0B1F9687AE9
:103970008DF8080000A9A87A8DF80900288AC0B23D
:10398000FEF7EAF900281FBF08206870286B00289E
:1039900004D0016808001CBF08208847688A810796
:1039A00006D54FF6FD7108406882002000F026F928
:1039B000688A41070AD54FF6FB7108406882A87BE8
:1039C000012804D0022808BFFFF7C7FE59E700907E
:1039D000EB8BAA8B698B288B00F044F951E7082008
:1039E000ADF800007047F8B50546B54CA878010061
:1039F00004F58A7704F1800612D002283BD0032810
:103A000018BF04285BD0052800F08180062800F04C
:103A1000AB80072800F0CD800F2800F0E980F1BDD1
:103A20006878D8B904F1A40210210220FEF7DCFC6A
:103A300004F1B40210210320FEF7D6FC0622E91C93
:103A400004F1C40000F044F90120607004F1CC03DB
:103A5000208A62790121C0B2FEF782F908B10820FC
:103A60006070206B30B10168080003D06078BDE859
:103A7000F4400847F1BD6878E8B9E87848B1208A91
:103A8000A27904F1EC030021C0B2FEF769F9687075
:103A900011E06078022818BF07280CD0062802D150
:103AA0002079012807D104F13800FDF768FE10B92C
:103AB000012000F0FEF868780028DBD0CFE76978B5
:103AC0000029CCD103280AD16078062808BF072036
:103AD000C6D0E07800280CBF03200220C0E7A18AEE
:103AE000E078002907D0227910430AD004F1380089
:103AF000FDF730FE05E0012807BF0020E070002040
:103B000020716078072814BF04200620A8E7687891
:103B100020BB0622291D384600F0DAF86889E082C9
:103B200006206070E8892084288A6084688AA084DE
:103B3000E8782073E07A012809D11F20FEF75CF9AC
:103B40004FF47A71414304F15C00FDF703FE6A898A
:103B5000E8780423291DFDF770FF82E73128B0D1F2
:103B60000020E07004207BE7A888FDF77DFF062198
:103B7000384600F073FE002020846084A084A87979
:103B8000607304F15C00FDF701FE3046FDF7FEFDB9
:103B90004FF6FF70E082207908B1032060E7A87932
:103BA00008280CBF052004206070012000F081F877
:103BB00057E73046FDF7EAFD687800280AD1E88823
:103BC0002084288960846889A08404F15C00FDF762
:103BD000D6FD00287FF44EAF636B002B3FF44AAF55
:103BE0001B68A28C618C208C01B0BDE8F0401847A6
:103BF000A888BDE8F4400521FEF7D4B8FEB5304DE5
:103C0000298B0446288C884224BF698B814207D3C4
:103C1000688CA98B884202BFA88CE98B88421ED091
:103C20000520FEF7E9F80646E88AADF80000288B83
:103C3000ADF80200688BADF80400A88BADF8060063
:103C4000E88BADF8080000A8FEF766F8070007D17A
:103C5000AC73314605F18000FDF77CFD00E01827CC
:103C60003846FEBD70B5164C6578062D01D014207F
:103C700070BD40F67A45861FAE423CBF8E1FAE42F5
:103C800015D2B2F5FA7F12DAA3F10A0540F67646AC
:103C9000B5420CD220836183A283E3830498FFF7AB
:103CA000ADFF04F15C00FDF771FD002070BD182030
:103CB00070BD03494A8A10434882886AFDF7F0BC08
:103CC000F83900206430002018400020F1E700009F
:103CD00062B38B0708D0521E11F8013B00F8013B7C
:103CE00000F024808B07F6D1830740F0208000BFCE
:103CF000103A07D330B4B1E83810103AA0E83810C1
:103D0000F9D230BC530724BFB1E80810A0E808106E
:103D100044BF51F8043B40F8043BD20724BF31F8BC
:103D2000022B20F8022B44BF0B7803707047083A2F
:103D300007D3B1E80810083A40F8043B40F804CB38
:103D4000F7D25307E4E7000030B5012200231C5CE2
:103D50005D5C95EA040F01D0002203E05B1CDBB23E
:103D60000B2BF4DB104630BD0022022940F05A81B3
:103D70000178407801EB002080B241F60201401A40
:103D800000F0AC80401E00F0AC80401E00F0AC8023
:103D9000401E00F0AC80401E00F0AC80401E00F0E1
:103DA000AC80401E00F0AC80401E00F0AC80401E95
:103DB00000F0AC80401E00F0AC80801E00F0AC80B3
:103DC000401E00F0AC80401E00F0AC80401E00F0B1
:103DD000AC80401E00F0AC80401E00F0AC80401E65
:103DE00000F0AC80401E13D0801E00F0AA8041F28B
:103DF000F001401A00F0C9804FF48071401A00F0C1
:103E0000A680401E00F0A680113800F0A680401E5B
:103E100000F0C780C01E00F0AC80401E00F0AC80F7
:103E2000401E00F0AC80C01E00F0AC80401E00F0D0
:103E3000C4800F3800F0DC80401E00F0C480401EBB
:103E400000F0BE80401E00F08B80401E00F0AC8071
:103E5000401E00F0AF80401E00F09A80401E00F02F
:103E60009A80401E00F09A80103800F0A080401E1A
:103E700000F0AC80401E00F0AC80401E00F0AC8032
:103E8000401E00F0AC80401E00F0AC80401E00F0F0
:103E9000AC80801E67D0401E68D0401E00F0AB8012
:103EA000801E00F0AB80801F00F0AB80401E00F051
:103EB000AB804DF29451401A46D0401E00F0A780CE
:103EC000401E00F0A780401E00F0A780401E00F0BA
:103ED000A780401E08BF0FF68012A3E00FF6A402D1
:103EE000A0E00FF69C029DE00FF69C029AE00FF610
:103EF0003C1297E00FF6381294E00FF6381291E07A
:103F00000FF690028EE00FF6A0028BE0DFF8B824E7
:103F100088E00FF6241285E00FF6A40282E00FF687
:103F20001C127FE00FF6A8027CE00FF6A80279E0F1
:103F30000FF60C1276E00FF6AC0273E00FF6C80233
:103F400070E00FF6DC026DE00FF6F8026AE00FF6A3
:103F50003C0267E00FF6380264E00FF63C0261E0D5
:103F60000FF638025EE00FF638025BE00FF634021F
:103F700058E00FF6380255E00FF6340252E00FF623
:103F800034024FE00FF630024CE00FF6300249E009
:103F90000FF6300246E00FF6300243E00FF62C0237
:103FA00040E00FF670023DE00FF62C023AE00FF60B
:103FB000300237E00FF6240234E00FF62C0231E035
:103FC0000FF628022EE00FF628022BE00FF624024F
:103FD00028E00FF6240225E00FF6200222E00FF67B
:103FE00020021FE00FF61C021CE00FF6200219E071
:103FF0000FF61C0216E00FF6200213E00FF61C026B
:1040000010E00FF620020DE00FF61C020AE00FF69A
:10401000380207E00FF6340204E00FF6340201E044
:104020000FF630021046704770B50025022906468B
:10403000144602D1307871780AE0102948D100F096
:104040008CF918B900F085F9002841D0307B717BDC
:1040500000EB012080B24FF6CB61401A21D0401E08
:104060002BD0401E2CD0401E1ED0401E1FD0401E04
:1040700020D0401E27D0401E0DD0401E0ED0401E26
:1040800006D04FF48E71401A1FD10FF2B8751CE0A4
:104090000FF25C6519E00FF2983516E00FF2E0358B
:1040A00013E00FF2EC3510E00FF2F4350DE00FF2F3
:1040B00000450AE00FF2084507E00FF2144504E05E
:1040C0000FF21C4501E00FF228450DB102202070CF
:1040D000284670BD70B5002402290646154640F0FA
:1040E0009A803078717800EB012080B2012800F0CE
:1040F000B180052800F0B180082800F0B1800D28BB
:1041000000F0B1800E2800F0B1800F2800F0B180DF
:10411000102800F0B180112800F0B180122800F0C2
:10412000B780132800F0B780142800F0B780192852
:1041300000F0B7801A2800F0B7801C2800F0B78084
:104140001D2800F0B7801E2800F0B7801F2800F05F
:10415000B780202800F0B780212800F0B7802228FF
:1041600000F0B780232800F0B780242803D025284A
:1041700000F0B580262800F0B580282800F0B58032
:10418000292800F0B5802F2800F0B580302800F0F5
:10419000B580322800F0B880332800F0B880342889
:1041A00000F0B880352800F0B880362800F0B880DC
:1041B000372800F0B8804C282AD04E2841D04F280C
:1041C00042D0502843D0512800F0B080522859D016
:1041D00053285AD0542800F094804FF6F171884249
:1041E00000F0A7804FF6F271884200F0A5804FF6EC
:1041F000F371884200F0A3804FF6F471884200F01A
:10420000A1804FF6F571884208BF0FF214249BE09D
:104210000FF20C5498E0102912D100F09EF810B95A
:1042200000F097F810B1307B717B5CE70FF2A015BE
:10423000102229463046FFF75BF8002800D12C46B3
:1042400085E00FF2EC447FE00FF2F4447CE00FF2E3
:10425000005479E00FF2A82476E00FF2B42473E062
:104260000FF2FC1470E00FF2B8246DE00FF2C024DE
:104270006AE00FF2CC2467E00FF2D42464E00FF27E
:10428000E02461E00FF2E8245EE00FF2F4245BE04A
:104290000FF2FC2458E00FF2B81455E00FF200348E
:1042A00052E00FF20C344FE00FF214344CE00FF2F6
:1042B000203449E00FF2283446E00FF2343443E072
:1042C0000FF23C3440E00FF248343DE00FF250343E
:1042D0003AE00FF25C3437E00FF2344434E00FF28E
:1042E000601431E00FF258342EE00FF264342BE00A
:1042F0000FF26C3428E00FF2781425E00FF27034DE
:1043000022E00FF27C341FE00FF284341CE00FF245
:10431000903419E00FF2983416E00FF2A43413E051
:104320000FF2AC3410E00FF2B8340DE00FF2D034DD
:104330000AE00FF2AC0407E00FF2B40404E00FF25D
:10434000C00401E00FF2C8040CB110202870204610
:1043500070BD31460FF21840F6E431460FF20040CE
:10436000F2E4FEB517460D4604463D7002F0DEF855
:10437000060004D129462046FFF7F6FC06462EB972
:104380003A4629462046FFF74FFE06462EB93A46E2
:1043900029462046FFF79EFE06469EB90820ADF846
:1043A0000000042009490968ADF80200019500A841
:1043B000884738B9029F2FB12A4621463846FFF771
:1043C00087FC3E463046FEBDE897000018400020BE
:1043D0009A9396D7BD6AD9B51646D281FEF046DCCF
:1043E000FB349B5F8000008000100000F1FF0000A4
:1043F000FB349B5F8000008000100000F2FF000093
:10440000FB349B5F8000008000100000F3FF000081
:10441000FB349B5F8000008000100000F4FF000070
:10442000FB349B5F8000008000100000F5FF00005F
:10443000D2FE0000000000000000000000000000AC
:10444000915276BB2600008000100000250000007D
:10445000915276BB2600008000100000130000007F
:10446000915276BB2600008000100000080000007A
:10447000915276BB26000080001000002F00000043
:10448000D3FE00000000000000000000000000005B
:10449000CBFE000000000000000000000000000053
:1044A000CEFE000000000000000000000000000040
:1044B000CFFE00000000000000000000000000002F
:1044C000D0FE00000000000000000000000000001E
:1044D000CCFE000000000000000000000000000012
:1044E000CDFE000000000000000000000000000001
:1044F000D1FE0000000000000000000000000000ED
:10450000915276BB260000800010000001000000E0
:10451000915276BB260000800010000005000000CC
:10452000915276BB26000080001000000D000000B4
:10453000915276BB26000080001000000E000000A3
:10454000915276BB26000080001000000F00000092
:10455000915276BB26000080001000001000000081
:10456000915276BB26000080001000001100000070
:10457000915276BB2600008000100000520000001F
:10458000915276BB2600008000100000530000000E
:10459000915276BB2600008000100000120000003F
:1045A000915276BB2600008000100000140000002D
:1045B000915276BB26000080001000001900000018
:1045C000915276BB26000080001000001A00000007
:1045D000915276BB26000080001000001C000000F5
:1045E000915276BB26000080001000001D000000E4
:1045F000915276BB26000080001000001E000000D3
:10460000915276BB26000080001000001F000000C1
:10461000915276BB260000800010000020000000B0
:10462000915276BB2600008000100000210000009F
:10463000915276BB2600008000100000220000008E
:10464000915276BB2600008000100000240000007C
:10465000915276BB26000080001000002800000068
:10466000915276BB26000080001000002900000057
:10467000915276BB26000080001000003000000040
:10468000915276BB2600008000100000540000000C
:10469000915276BB2600008000100000320000001E
:1046A000915276BB2600008000100000330000000D
:1046B000915276BB260000800010000034000000FC
:1046C000915276BB260000800010000035000000EB
:1046D000915276BB260000800010000036000000DA
:1046E000915276BB260000800010000037000000C9
:1046F000D4FE0000000000000000000000000000E8
:10470000915276BB2600008000100000510000008E
:10471000915276BB260000800010000023000000AC
:10472000915276BB26000080001000004C00000073
:10473000915276BB26000080001000004E00000061
:10474000915276BB26000080001000004F00000050
:10475000915276BB2600008000100000500000003F
:10476000FB349B5F80000080001000000000000010
:10477000915276BB2600008000100000000000006F
:10478000031800000218000004180000062A0000A8
:10479000072A000008180000182A0000342A000028
:1047A000512A0000522A0000091800001C2A0000AB
:1047B0001D2A00001E2A0000212A000006290000F0
:1047C0000D180000372A0000382A0000392A00009E
:1047D0000F18000010180000352A0000362A0000CB
:1047E000492A000012180000222A0000332A000083
:1047F000322A00004A2A00004B2A00004C2A0000FE
:104800004D2A00004E2A0000131800004F2A000015
:10481000312A000014180000532A0000552A000015
:10482000161800005B2A00005C2A00000518000032
:1048300006180000071800000B1800000E180000F2
:1048400011180000F0FF0000F1FF0000F2FF00006F
:10485000F3FF0000F4FF0000F5FF0000002201F06C
:1048600005BF0000DFF800F0F5C00110DFF800F030
:1048700049BA0110DFF800F0D5C00110DFF800F0F0
:1048800095C00110DFF800F00DA80110DFF800F06E
:10489000BDBE0110DFF800F02DBF0110DFF800F001
:1048A000E1B50110DFF800F021C10110DFF800F0E0
:1048B000F1C50110DFF8D400007D704738B5DFF88E
:1048C000D400DFF8CC500068EFF3118480F3118836
:1048D000A8680021FFF7D2FF6969081AA969814217
:1048E00038BF002084F3118832BD00002DE9F0416B
:1048F000DFF8A000DFF898400768EFF3118887F32E
:104900001188A0680121FFF7B9FF0121A1830021CF
:10491000E183656921682268461B801A691A88420A
:1049200004D20020A08388F311882AE088F311883C
:10493000002005E04519361A29460120FFF7A2FF9D
:104940008642F7D2EFF3118887F31188E18B0129B2
:1049500003D129460020FFF795FFA16910F1010F4F
:1049600008BF084603D0801B814238BF0846411962
:10497000FFF78CFF012020840020A083256088F3AE
:104980001188BDE8F081808A70470000A4010020F2
:10499000780100209098000001F098BE80B50023B7
:1049A00001223421DFF8EC0902F04EF900B10120B8
:1049B000C0B202BDDFF8C01A0A68002812BF42F078
:1049C0000100500840000860704700007047FEE793
:1049D00010B582B0042002F06BF9022818BF03283A
:1049E0000DD1032000901C234FF040520021DFF82E
:1049F000A40902F006F9BDE81640042066E0DFF8DD
:104A00009C19DFF89C0A09680C18DFF89419DFF884
:104A1000940A0968B0FBF1F12046FCF74DFE2046F0
:104A2000BDE81640FCF74CBE80B5DFF87809007889
:104A3000DFF8740901688908890041F0010101600B
:104A400002F043F902F0CDF9DFF898190020086070
:104A50000220DFF894190968C9688847DFF8580A06
:104A6000016849084900016000F01BFA042000F0C9
:104A700013F900F0B4BC00000022012904D1012880
:104A800007D1DFF8680903E0012802D1DFF8300A16
:104A9000026810467047DFF8080A00797047000086
:104AA00002F028B910B5DFF844160968EFF3118455
:104AB00081F31188DFF8E819C9880120012908BFAE
:104AC000FFF76CFF84F3118810BD000030B5DFF8EC
:104AD0001C16DFF8A8390A68EFF3118182F31188F8
:104AE000B0FA80F2C2F11F02D25CB0FA80F4C4F1D5
:104AF0001F04551EE55405D1DFF8A429136823EAE5
:104B00000000106081F3118830BD00002DE9F041F4
:104B100000F053F8EFF3118481F31188DFF888195E
:104B2000425C531E435444D1DFF88019DFF880897A
:104B300001EB80052E786F88300618D5D8F8001064
:104B4000096A38468847D8F80010896A3846884785
:104B5000D8F80010096B38468847DFF8581901204B
:104B60000860DFF8580900688007FAD514E070067D
:104B700006D5DFF8B41951F82710002088470BE05C
:104B8000D8F80010896938468847D8F80010496B72
:104B9000384688470228F8D106F03F003F2818BF62
:104BA000FFF7B4FF687800F03F003F2818BFFFF719
:104BB000ADFF84F31188BDE8F081DFF83015096896
:104BC000704710B508B1140001D1032010BD8160F9
:104BD000C26003610146DFF8EC28DFF85009126873
:104BE0001018FFF757FE002010BD0000F8B504466E
:104BF000DFF8F804DFF8B0180068EFF3118580F3F0
:104C00001188625C531C6354002A3ED1DFF89C1863
:104C100001EB8407387800F03F003F2818BFFFF70A
:104C2000E5FF787800F03F003F2818BFFFF7DEFF70
:104C30007E883878DFF87878010613D53968C96935
:104C4000304688473968496A304688473968C96AB2
:104C50003046884700F038F8DFF8600800688007C1
:104C6000FAD512E0400606D5DFF8BC1851F8261038
:104C70000120884709E03968496930468847396822
:104C8000496B304688470128F9D185F311882046C1
:104C9000BDE8F24002F002BADFF850140A68EFF300
:104CA000118182F31188DFF8F8271368034313603A
:104CB000B0FA80F0C0F11F00DFF8C027835C5B1CF6
:104CC000835481F311887047DFF8E81701200860EA
:104CD000704700002DE9F04F4FF000080021012837
:104CE00083B0C1468A4618BF022412D1DFF8FC0304
:104CF000DFF838780268EFF3118082F311883A798F
:104D0000012A06BF02223A71012180F3118809B1FC
:104D10000624BDE0FFF7A6FD0090012000F0E6F8B4
:104D2000040002D001203871AFE0FFF7A3FDDFF8E7
:104D300028180190C1F80090012001F0B9FF012866
:104D400004D1002002F08AF94FF00108DFF8E047B3
:104D5000DFF85457216889680020884700F0A1F8DF
:104D6000687C08B14FF00109287C08B149F00209BC
:104D7000E87B08B149F00409E87ADFF8306718B138
:104D8000A16AF08D096B8847A87A18B1A16A708D65
:104D9000096B8847FFF798FF49F02000A16A8969ED
:104DA00088470120FFF706FE3878C00748BF4FF05C
:104DB000010A12D4DFF8980702F09CF98346BBF190
:104DC000040FF7D000F067F8800880000860032126
:104DD000A26CDFF87C0752689047002002F092F93D
:104DE00000F05FF8A06A806B8047BAF1000F0AD12B
:104DF000A26CDFF85C0752685946904700F04BF808
:104E000040F0030008600120216889688847DFF8C6
:104E1000440700688006FAD5B8F1000F1CBF0120D6
:104E200002F01CF9A16A496948468847A16A496BA2
:104E3000484688470128F9D1E87A18B1A16AF08D6F
:104E4000C96A8847A87A18B1A16A708DC96A88476B
:104E5000FFF73AFF0020FFF7ADFD03203871042073
:104E600000F044F8DFF8F0160120086000F019F8AF
:104E700002F056FA082000F039F804460120387193
:104E80000198FFF70BFD02F0D6F90098FFF7EEFC52
:104E90002046BDE8FE8FDFF8D006DFF8CC160068AC
:104EA0007047DFF8C80600687047000038B58F48C3
:104EB000DFF878560068EFF3118480F31188E888F2
:104EC000012803D101F06AFF0020E88084F31188F3
:104ED00031BD000010B5FFF770FEEFF3118481F3D0
:104EE0001188FFF7DFFC84F3118810BD38B500F09E
:104EF0002AF80818FCF7E8FB002540B9204600F026
:104F000008F820B1DFF868060068804702252846C7
:104F100032BD70B500F017F80D182846FBF766FB98
:104F20000646B068204206D03169F26820469047B4
:104F3000C0B2012806D03046FBF75CFB0646AE4205
:104F4000EFD1002070BDDFF87C1509680446DFF85A
:104F5000DC05704730BF704770B502F0DDF9DFF84F
:104F600040552E6806F00C000C284BD0700727D453
:104F7000FFF7A4FC044600210120FFF77DFDA042BD
:104F80001ED2DFF8140400684519DFF8140406681F
:104F9000DFF8E0050068B0FBF6F0211A2846FCF7C0
:104FA0008BFB2846FCF78CFB4FF47A70B0FBF6F2D3
:104FB00000210120FFF78EFE2846FCF779FB23E055
:104FC00030071FD4DFF8F004DFF8E444DFF87C5545
:104FD000F10601685ABF4908490041F0010101602A
:104FE000DFF88405016841F0030101602020216899
:104FF0008969884728682068806B8047012028607D
:10500000286801E0FFF7A6FF02F08AF9BDE87040CA
:1050100002F03CB910B50C1802F07EF9401E804138
:10502000C00FDFF860150A68002AFCD0246801224E
:105030000A6008B102F074F9204610BD80B5042062
:10504000FFF72AFE0820FFF727FE0E20FFF7CEFD10
:10505000DFF82405DFF824150068C0F38150032829
:105060000CBF012000200880DFF8140502680AB197
:10507000012002BDDFF8103540221A600122C26112
:105080000020486002BDDFF8601310B50968DFF842
:10509000FC4482B00968202088470F202060072345
:1050A00041F61D5060604FF4C0720220009000F085
:1050B000C9F8DFF8DC040121016001688907FCD52B
:1050C00001212161DFF8B4442188012907D10021A1
:1050D00001610220202100F091F8012004E001216B
:1050E000002000F08BF80220606013BD9098000053
:1050F0002DE9F041DFF89C04DFF8804482B00168BC
:1051000042688A43426001616068002804BFBDE8CC
:10511000F341FFF7B8BF0128DFF87C141AD1022051
:10512000606008684BF2F52148436188000A11B1BC
:105130000021618006E0DFF864140968090210EBC1
:1051400011204008DFF858140860000C4860012066
:1051500088600CE002280FD10868B0F5C06F02D15A
:105160000020606045E00321616000F06FF80121DC
:10517000BDE8FC41002041E003283DD100206060F3
:105180000868A0F5C065A06800F0B2F80646284699
:1051900000F0AEF886422CDAA669284600F0ACF89A
:1051A0008019A061E56860697A4E85420ED0A769D2
:1051B000A7F1100000F09CF880462069103800F03C
:1051C00097F8804502DABFB200970BE0ADB20095C8
:1051D00008234FF47F423021304601F012FD206950
:1051E00080B2009012234FF4F8020421304601F0FF
:1051F00008FDBDE8F3418AE0BDE8F38170B50D46D6
:10520000DFF8A04382B0032121600021DFF898631A
:10521000316031688907FCD480B200900523602298
:1052200000F010F80120306030688007FCD5A561DF
:10523000002020600821DFF85003C16001600120D8
:10524000206073BD0021534801F0DBBC70B50646F9
:10525000504C82B030212046FFF7DCFEDFF81C53B3
:10526000C0F30720E86004212046FFF7D3FEC0F317
:1052700084402861A6F5C060A8602E6900F03CF863
:105280008019A861A969E868022909DA401E6FF04F
:105290003F039842B8BF184610310BD5002109E0F2
:1052A0001E2908DB401C4028A8BF3F2010392029B8
:1052B000A8BF1F21A9616861082380B200904FF444
:1052C0007F42302100F011F80120009011234FF4AB
:1052D000003200F009F8A86980B2009012234FF460
:1052E000F80200F001F873BD0421204601F089BCEA
:1052F000002848BF4042704700284CBF6FF00101B2
:10530000022101EB4000032190FBF1F0704780B5D2
:10531000DFF87C020021016001688907FCD40021CC
:10532000016041600120DFF8581208600E20FFF78D
:10533000EDFB0820FFF7CAFBBDE802400420FFF7A1
:10534000C5BB000010B504460020D4E90A2347F687
:10535000906101F0E9FF012928BF4FF0FF3010BD37
:1053600010B50C4602F058F8011D201AB0F1004F9C
:1053700005D8081BB0F1004F38BF8C4200D20C4654
:10538000DFF82C221268526A2146BDE81040012045
:105390001047000000A00C407498000078980000AE
:1053A00094980000C1380020044003402DE9F041EA
:1053B00080460A46D8E90A01D8E90C45A0FB0267F5
:1053C00001FB0277A6196F41340C002244EA074121
:1053D0004046FFF7C5FFC8E90E67BDE8F0814FF012
:1053E000FF3002BD40100940A00100108498000069
:1053F000F8B50546DFF8BC01DFF8BC610068DFF8EE
:10540000BC71EFF3118480F31188306840F08000A4
:1054100030600120B96849688847F96A096A142030
:1054200088472869BA68526AB0F5802F34BF0421D2
:10543000010C012090473A68126823210020904710
:10544000B968C96901208847306820F4E02040F439
:1054500080303060306840F00100306084F31188A3
:10546000F1BD0000DFF85801036840680022002108
:1054700010185941704700000C200840F800002027
:10548000DFF82C11DFF8240110B509684468496879
:10549000012088476069A169BDE810400847000005
:1054A000CC3B0020A08601006038002084950000DD
:1054B000B8010010282008608C21084028200840EE
:1054C000889800007C980000F8B504460D46FFF768
:1054D000C9FFD4E90A6732463B4601F025FF3DB1DA
:1054E000A6FB002306FB013307FB0033C4E90C23B2
:1054F000F2BD38B5DFF8C040DFF8C850206840087A
:1055000040002060206840F0800020600120E062C0
:10551000E06A2968496801208847696A096A142095
:105520008847E06A31BD00001C400020CC3B0020D1
:105530009001001080B500F004F8000C40EA014032
:1055400002BDDFF8840000688CE700002C200940D1
:1055500000400340141009400C40094009B9DFF82D
:105560006C10FFF7A3B90000242208402C2009404A
:10557000809800008C980000B43F0050DC3F002071
:1055800004800C4000800C402C500C400C400C401F
:1055900034600C4028500C4008400C40102009405A
:1055A0003C600C4000400C4038600C40E40100209E
:1055B0008C01001090980000002009408401001028
:1055C000082009408C010010EC010020A00100001F
:1055D000FEE77047002201F035BF000000F1010333
:1055E000810704D010F8011B89B18107FAD1026844
:1055F000B2F10131914311F0803F04BF50F8042F04
:10560000F6E710F8011B11B110F8011BFBE7C01AF7
:1056100070470000DFF800F019AE0110DFF800F06D
:10562000CDA00110DFF800F021B90110E0B500F0C5
:1056300010F8042100F012F808B100200EBD029805
:105640000EBD00B583B000F004F8052100F006F8A7
:1056500007BD0821ADF8001001907047ADF80210A9
:1056600000A8DFF8A41409680847F0B58BB008203B
:10567000ADF814000020ADF816003820ADF8180081
:105680000020DFF88444DFF884542168079005A8DF
:105690008847BDF82000A8840998A86484E095F89C
:1056A0002600800609D495F9000030B9686BFCF734
:1056B0000BF810B9686B00F08CF9E88C4FF6EF71BD
:1056C0000840E8840820ADF808000920ADF80A0079
:1056D00002A8216888470100049813D1BDF80C1076
:1056E000002205EBC2031E79B14200F09C8000F05D
:1056F00049F9F6DBFFF7ADFF0321ADF8021000A872
:105700002168884795F82600800626D595F900007F
:10571000012822DA01F0BEFE0646286C01F0F8FEF0
:105720000746304601F0C1FE4FB12878401C287072
:10573000384600F02BF910B13846FFF782FFE88CAD
:105740004FF6DF710840E884286CFBF7BDFF20B9F5
:10575000E88C40F0200000F069F895F8260000077A
:1057600022D595F90000F8B901F094FE0646A86B21
:1057700001F0CEFE0746304601F097FE37B13846BD
:1057800000F004F910B13846FFF75BFFE88C4FF6E4
:10579000F7710840E884A86BFBF796FF20B9E88C06
:1057A00040F0080000F042F8A86C4FF0FF31FFF71E
:1057B00035FF0028F8D001F06DFE2A8D6B8DE98C45
:1057C0001A431143E98400212985698501F06DFEA2
:1057D000E88C010603D54FF67F710840E88495F800
:1057E0002600400609D5686CFFF72BFF002068648F
:1057F0004FF6BF71E88C0840E88495F82600C00693
:105800007FF560AF01F0D2FE00287FF456AFE86B61
:10581000FBF75AFF00287FF442AF285600283FF5D7
:105820003EAFE86B47E7996888476BE7E884A86C68
:10583000FBF736BF10B50C0012D020460FF2D8216E
:105840003422FEF755FA1034204601F00DFF0020F7
:105850006075A0750120207060700020E07510BD9B
:10586000082010BD30B5A94C054660780028ABB0C3
:1058700054D10120607025B91EA90020FFF7DAFF7E
:105880001EAD0020E08460640021FFF7CBFE606362
:1058900000F047F8A06300F044F8206400F041F8FD
:1058A000E06305F110016888ADF800002422686803
:1058B0000190A8680290287B8DF80C00687B8DF819
:1058C0000D0004A8FEF714FA0FF28020D0E900239F
:1058D000CDE90D2300A801F03EFE20218C48FFF702
:1058E00079FE2021201DFEF7B9FF08233C2200216C
:1058F0000FA8FCF7FBFE2888FFF798FE206368B12D
:1059000016900022288817900FA902201590814830
:10591000FFF780FEE06208B1002000E007202BB016
:1059200030BD00210846FFF77DBE38B502467748F6
:105930009578C18C002441F010036D09816C012D14
:1059400004D00BD3032D01D003D307E0C384C06B75
:1059500001E0C384406B01F0B3FD00E00424204665
:1059600032BD30B500226A4B03EBC204656825B92D
:1059700003F832006160002030BD00F003F8F3DB73
:10598000012030BD521CD2B2042A704738B581784C
:105990005F4B01F01F04002213F83250AC4205D1D6
:1059A00003EBC20149688847002032BDFFF7EAFFD8
:1059B000F2DB022032BD10B5044604F1080080B2CB
:1059C000FFF734FE18B1048000F10801416010BDFA
:1059D00037E6B0B501F09CFD04002AD02088001DF8
:1059E00080B2FFF723FE05000DD0208828702088A4
:1059F000000A6870A078A870E078E8702288616872
:105A0000281DFEF765F9414F7D6475B12088011DA1
:105A100089B2284601F0EFFDA0784009012818BF9F
:105A2000032802D13878401E38702046BDE8B040C7
:105A300007E6B0BD70B5002882B00C46334D3DD0AE
:105A4000E878401CE870012100A801F0BDFD9DF838
:105A50000060012100A801F0B7FD9DF8000006EBF1
:105A6000002080B2FFF7A7FF060027D00121B01C5D
:105A700001F0AAFD0121F01C01F0A6FD318870683B
:105A800001F0A2FDB278A96C288D5209012A04D038
:105A900011D3032A01D006D30DE040F02000288561
:105AA0003246286C04E040F0080028853246A86B96
:105AB00001F006FD02E03046FFF7C3FD002C1CBFDD
:105AC000686C002808D0A878401CA870288D40F089
:105AD00040002885FFF7ABFEE86BFBF7F5FD18B13A
:105AE000686BFBF7F1FD28B9288D40F01000288580
:105AF000FFF79DFE73BD30B90449886C18B1802250
:105B00004A85FBF7CDBD704718400020D82C0020F7
:105B1000CC3700206B56000000041202FFFFFFFF8D
:105B2000FFFFFFFF00000000000000000000000079
:105B30000000000000000000000000000000000065
:105B4000000000000000000000000000F75A000004
:105B5000355A0000DFF800F055C0011081B0012077
:105B6000009000980028FCD101B0704738B5194C5E
:105B700019481A4D01F02CFE636A1B6801220121AD
:105B800028469847626A5268012128469047636A0E
:105B90001B680122114628469847626A5268012113
