:040000050000F00106
:020000040000FA
:10000000E8430020116C000001CA011001CA011070
:1000100001CA011001CA011001CA011001CA011070
:1000200001CA011001CA011001CA011001CA011060
:0C00300001CA011001CA01103FCA0110F2
:100100003C0000000000000000000000340100007E
:1001100000000000000000000100000000000000DE
:1001200000000000000000000000000001000000CE
:100130000000000008000000000000003400000083
:100140000000000000000000680100000000000046
:10015000000000000100000000000000010000009D
:100160000000000000000000080000000000000087
:1001700030000000000000000000000098010000B6
:10018000040000000000000001000000FFFFFFFF6E
:10019000FF00000001000000080000000000000057
:1001A0002C0000000000000000000000C40100005E
:1001B000040000000000000001000000FFFFFFFF3E
:1001C000FFFFFFFF080000000000000034050000F2
:1001D000E401000099A1011095A70110A5C201102A
:1001E00009B2011045B80110000000000000000035
:1001F0002E000000280000000000000000000000A9
:10020000140200000000000000000000FFFFFFFFDC
:1002100000000000080000000000000030050000A1
:100220003002000069C201106DC101101FC201102F
:1002300095BA01100000000000000000300000002E
:10024000300500005402000075C20110A9B601106B
:100250009DBF011049B60110000000000000000021
:100260003100000024000000000000000000000039
:1002700080020000000000000000000000000000FC
:100280000800000000000000240000000000000042
:1002900000000000A40200000000000000000000B8
:1002A0000000000008000000000000002400000022
:1002B0000000000000000000C80200000000000074
:1002C0000100000000000000080000000000000025
:1002D000000000007C0D0020040000000000000071
:1002E000000000002000000070010000300000004D
:1002F0001C020000840D002004000000000000002B
:10030000000000000C000000300400001800000095
:10031000400200008C0D00200400000000000000DE
:100320000000000024000000480400001800000045
:1003300000000000940D00200400000000000000F8
:100340000000000010000000A00100002C000000D0
:10035000CC0100009C0D0020040000000000000003
:1003600000000000200000006402000024000000E3
:10037000FFFFFFFFA40D00200400000000000000AC
:100380000000000028000000880200002400000097
:10039000FFFFFFFFAC0D0020040000000000000084
:1003A00000000000580000003C0100003400000084
:1003B000FFFFFFFFB40D002004000000000000005C
:1003C00000000000100000006004000018000000A1
:1003D000FFFFFFFFBC0D0020040000000000000034
:1003E000000000001C000000AC020000240000001F
:1003F000FFFFFFFFC40D002004000000000000000C
:100400000000000038000000F40100002800000097
:10041000FFFFFFFFCC0D00200400000000000000E3
:100420000000000054000000000100003C0000003B
:100430001800000000000000000000004004000060
:10044000080000000000000018000000000000008C
:100450000000000058040000080000000000000038
:100460001800000000000000000000007004000000
:10047000080000000000000001000000946C000073
:100484000100000000000C0000000D00320000001C
:1004940002000000E80B0020000200000000000041
:1004A40001CA011000000000000000000800000064
:1004B40000002000B00B002001000000E00C002030
:1004C4000800000000000000000000000000000020
:1004D400000000000000000001000000180C0020D3
:1004E4000600000001000000A00A00200000000037
:0C04F400000000000002000000000000FA
:0F0502002A0001002500300031002E0001000109
:1005140004000000506C0000000000000000000017
:10052400000001000000030087C40110380500002A
:10053400380500000000000080000000800000007A
:1005440000000000E00C00206B1C000020000000F4
:10055400286C0000F06900000DC30110D5130000E1
:10056400D713000099C801109BC8011000000000B7
:1005740042210000BC680000D4680000A4680000A8
:090584000800090001000000015B
:10059000000000000000000000000000000000005B
:1005A0007D120000D512000061110000FF12000052
:1005B000C51100007D110000FD1100004113000075
:1005C000E91B0000EF1D0000F31D00000800000003
:1005D0002400000018000000280000002000000097
:1005E0003C0000000C00000034000000DFF800F0C8
:1005F000F5C00110DFF800F049BA0110DFF800F093
:1006000025C20110DFF800F0C1C20110DFF800F0D0
:10061000E3BF0110DFF800F013C10110DFF800F0B4
:10062000D5C00110DFF800F095C00110DFF800F030
:100630000DA80110DFF800F0BDBE0110DFF800F0DA
:100640002DBF0110DFF800F0E1B50110DFF800F078
:1006500021C10110DFF800F0D5C20110DFF800F071
:10066000D9C20110DFF800F0F1C50110DFF8D400A5
:10067000007D704738B5DFF8D400DFF8CC50006853
:10068000EFF3118480F31188A8680021FFF7CAFFF7
:100690006969081AA969814238BF002084F311886A
:1006A00032BD00002DE9F041DFF8A000DFF89840EE
:1006B0000768EFF3118887F31188A0680121FFF71D
:1006C000B1FF0121A1830021E183656921682268CE
:1006D000461B801A691A884204D20020A08388F33E
:1006E00011882AE088F31188002005E04519361AA0
:1006F00029460120FFF79AFF8642F7D2EFF31188CF
:1007000087F31188E18B012903D129460020FFF7E7
:100710008DFFA16910F1010F08BF084603D0801BAF
:10072000814238BF08464119FFF784FF0120208429
:100730000020A083256088F31188BDE8F081808ABD
:1007400070470000A4010020780100208C6C00009C
:10075000DFF80410096870478C6C000000F03CBEA4
:1007600080B5002301223421DFF8E80901F0F2F816
:1007700000B10120C0B202BDDFF8F41A0A680028F7
:1007800012BF42F0010050084000086070470000AE
:100790007047FEE710B582B0042001F01FF902286F
:1007A00018BF03280DD1032000901C234FF04052A6
:1007B0000021DFF8A00901F0AAF8BDE816400420E6
:1007C0006AE0DFF89419DFF8B00A09680C18DFF85E
:1007D0008C19DFF8E40A0968B0FBF1F12046FFF755
:1007E00011FF2046BDE81640FFF710BF80B5DFF8C7
:1007F000C0090078DFF8BC0901688908890041F068
:100800000101016001F0F7F801F081F9DFF8A819A2
:10081000002008600220DFF8A4190968C968884729
:10082000DFF8980A016849084900016000F01BFAE6
:10083000042000F013F900F0DEBC0000DFF8501ACD
:10084000405C70470022012904D1012807D1DFF85C
:10085000700903E0012802D1DFF8700A026810462F
:100860007047DFF8140A00797047000001F0D8B82B
:1008700010B5DFF800160968EFF3118481F31188D1
:10088000DFF8F419C9880120012908BFFFF768FFC4
:1008900084F3118810BD000030B5DFF8D815DFF8FB
:1008A000D4390A68EFF3118182F31188B0FA80F22B
:1008B000C2F11F02D25CB0FA80F4C4F11F04551ECD
:1008C000E55405D1DFF8B029136823EA0000106071
:1008D00081F3118830BD00002DE9F041FFF738FFAA
:1008E000EFF3118481F31188DFF8A419425C531EE1
:1008F000435444D1DFF89C19DFF8C48901EB80052B
:100900002E786F88300618D5D8F80010096A384656
:100910008847D8F80010896A38468847D8F8001008
:10092000096B38468847DFF89C1901200860DFF81A
:10093000980900688007FAD514E0700606D5DFF83C
:10094000F81951F82710002088470BE0D8F800105C
:10095000896938468847D8F80010496B3846884777
:100960000228F8D106F03F003F2818BFFFF7B4FF78
:10097000687800F03F003F2818BFFFF7ADFF84F311
:100980001188BDE8F08110B508B1140001D1032031
:1009900010BD8160C26003610146DFF83429DFF8D1
:1009A000940912681018FFF749FE002010BD0000DE
:1009B000F8B50446DFF8BC04DFF8D4180068EFF39C
:1009C000118580F31188625C531C6354002A3ED168
:1009D000DFF8C01801EB8407387800F03F003F28AB
:1009E00018BFFFF7E5FF787800F03F003F2818BFF9
:1009F000FFF7DEFF7E883878DFF8C478010613D56C
:100A00003968C969304688473968496A3046884735
:100A10003968C96A3046884700F038F8DFF8A80816
:100A200000688007FAD512E0400606D5DFF80819FD
:100A300051F826100120884709E039684969304695
:100A400088473968496B304688470128F9D185F3D2
:100A500011882046BDE8F24001F0B6B9DFF8141461
:100A60000A68EFF3118182F31188DFF80C2813680C
:100A700003431360B0FA80F0C0F11F00DFF8F427E1
:100A8000835C5B1C835481F311887047DFF8341852
:100A900001200860704700002DE9F04F4FF000087A
:100AA0000021012883B0C1468A4618BF022412D112
:100AB000DFF8C003DFF87C780268EFF3118082F37F
:100AC00011883A79012A06BF02223A71012180F386
:100AD000118809B10624BDE0FFF788FD00900120D0
:100AE00000F0E6F8040002D001203871AFE0FFF713
:100AF00095FDDFF868180190C1F80090012000F022
:100B00006DFF012804D1002001F03EF94FF00108EB
:100B1000DFF82848DFF8785721688968002088477F
:100B200000F0A1F8687C08B14FF00109287C08B1F9
:100B300049F00209E87B08B149F00409E87ADFF8D6
:100B4000546718B1A16AF08D096B8847A87A18B16B
:100B5000A16A708D096B8847FFF798FF49F0200064
:100B6000A16A896988470120FFF706FE3878C00727
:100B700048BF4FF0010A12D4DFF8E40701F050F942
:100B80008346BBF1040FF7D000F067F880088000BF
:100B900008600321A26CDFF8C80752689047002064
:100BA00001F046F900F05FF8A06A806B8047BAF167
:100BB000000F0AD1A26CDFF8A80752685946904787
:100BC00000F04BF840F003000860012021688968BC
:100BD0008847DFF8900700688006FAD5B8F1000F63
:100BE0001CBF012001F0D0F8A16A49694846884736
:100BF000A16A496B484688470128F9D1E87A18B1BB
:100C0000A16AF08DC96A8847A87A18B1A16A708D67
:100C1000C96A8847FFF73AFF0020FFF7ADFD0320C0
:100C20003871042000F044F8DFF830170120086024
:100C300000F019F801F00AFA082000F039F804462B
:100C4000012038710198FFF7FDFC01F08AF9009846
:100C5000FFF7D0FC2046BDE8FE8FDFF81807DFF86D
:100C6000141700687047DFF8F0060068704700004E
:100C700038B58048DFF8BC560068EFF3118480F384
:100C80001188E888012803D100F01EFF0020E880C9
:100C900084F3118831BD000010B5FFF759FDEFF363
:100CA000118481F31188FFF7D1FC84F3118810BD02
:100CB00038B500F02AF80818FFF7ACFC002540B959
:100CC000204600F008F820B1DFF8B0060068804741
:100CD0000225284632BD70B500F017F80D182846D9
:100CE000FFF7B8FC0646B068204206D03169F268CA
:100CF00020469047C0B2012806D03046FFF7AEFC30
:100D00000646AE42EFD1002070BDDFF8C415096879
:100D10000446DFF82006704730BF704770B501F019
:100D200091F9DFF854552E6806F00C000C284BD0D2
:100D3000700727D4FFF79EFC044600210120FFF72F
:100D400081FDA0421ED2DFF8080400684519DFF8D3
:100D50000C040668DFF820060068B0FBF6F0211AE4
:100D60002846FFF74FFC2846FFF750FC4FF47A70F7
:100D7000B0FBF6F200210120FFF78EFE2846FFF7B8
:100D80003DFC23E030071FD4DFF83005DFF83045A5
:100D9000DFF8C455F10601685ABF4908490041F01F
:100DA00001010160DFF8CC05016841F00301016039
:100DB000202021688969884728682068806B8047DF
:100DC00001202860286801E0FFF7A6FF01F03EF946
:100DD000BDE8704001F0F0B810B50C1801F032F920
:100DE000401E8041C00FDFF8A4150A68002AFCD01D
:100DF000246801220A6008B101F028F9204610BDDC
:100E000080B51C490A68EFF3118182F31188DFF87D
:100E1000682413890020002B06BF012313810120C1
:100E200081F3118808B1002002BD0420FFF716FEEF
:100E30000820FFF713FE0E20FFF7BAFDDFF840058C
:100E4000DFF840150068C0F3815003280CBF012073
:100E500000200880DFF8300502680AB1012002BDD9
:100E6000DFF8303540221A600122C261002048605C
:100E700002BD00008C6C000038B5DFF84013DFF8CD
:100E800010450968B34D0968202088470F2020606D
:100E9000072341F61D5060604FF4C072022000909D
:100EA0000021284600F033FD07234FF4C0720021D3
:100EB000284600F04FFDDFF8E004012101600168E1
:100EC0008907FCD501212161DFF8B8442188012977
:100ED00007D1002101610220202100F08EF80120BD
:100EE00004E00121002000F088F80220606031BD9C
:100EF0002DE9F041DFF89C0482B000210160482117
:100F0000DFF88044C1606068002804BFBDE8F34199
:100F1000FFF7B2BF0128DFF884141AD10220606005
:100F200008684BF2F52148436188000A11B100219D
:100F3000618006E0DFF868140968090210EB1120EF
:100F40004008DFF860140860000C486001208860E9
:100F50000CE002280FD10868B0F5C06F02D1002064
:100F6000606045E00321616000F06EF80121BDE89A
:100F7000FC41002041E003283DD10020606008686A
:100F8000A0F5C065A06800F0B1F80646284600F05C
:100F9000ADF886422CDAA669284600F0ABF8801935
:100FA000A061E56860696B4E85420ED0A769A7F124
:100FB000100000F09BF880462069103800F096F889
:100FC000804502DABFB200970BE0ADB2009508236E
:100FD0004FF47F423021304600F099FC206980B206
:100FE000009012234FF4F8020421304600F08FFCE9
:100FF000BDE8F34189E0BDE8F38170B50D46DFF847
:10100000A84382B0032121600021DFF8A063316092
:1010100031688907FCD480B200900523602200214A
:101020004C4800F074FC0120306030688007FCD52B
:10103000A561002020600821DFF85803C16001602D
:101040000120206073BD000070B50646414C82B09F
:1010500030212046FFF7C0FEDFF82853C0F30720F9
:10106000E86004212046FFF7B7FEC0F38440286102
:10107000A6F5C060A8602E6900F03CF88019A86150
:10108000A969E868022909DA401E6FF03F03984217
:10109000B8BF184610310BD5002109E01E2908DB26
:1010A000401C4028A8BF3F2010392029A8BF1F217D
:1010B000A9616861082380B200904FF47F4230211B
:1010C00000F011F80120009011234FF4003200F0DD
:1010D00009F8A86980B2009012234FF4F80200F0DA
:1010E00001F873BD0421204600F011BC002848BF60
:1010F0004042704700284CBF6FF00101022101EB14
:101100004000032190FBF1F0704780B5DFF88802C2
:1011100000210160416001688907FCD441688907AA
:10112000FCD40020DFF86C1208600120DFF85812B0
:1011300008600E20FFF7D0FB0820FFF7ADFB04206E
:10114000FFF7AAFBDFF8EC110020088101BD0000C9
:10115000706C000000A00C40746C0000906C0000EB
:1011600010B504460020D4E90A2347F6906100F048
:1011700071FF012928BF4FF0FF3010BD10B50C469C
:1011800000F0E0FF011D201AB0F1004F05D8081B48
:10119000B0F1004F38BF8C4200D20C46DFF8142269
:1011A0001268526A2146BDE8104001201047000035
:1011B000A70300200440034040100940A001001094
:1011C000806C00002DE9F04180460A46D8E90A010A
:1011D000D8E90C45A0FB026701FB0277A6196F4115
:1011E000340C002244EA07414046FFF7C7FFC8E934
:1011F0000E67BDE8F0814FF0FF3002BDF8B505463F
:10120000DFF8B401DFF8B4610068DFF8B471EFF320
:10121000118480F31188306840F080003060012034
:10122000B96849688847F96A096A142088472869B3
:10123000BA68526AB0F5802F34BF0421010C012036
:1012400090473A681268232100209047B968C9691D
:1012500001208847306820F4E02040F4803030607E
:10126000306840F00100306084F31188F1BD000067
:101270000C20084084030020DC090020DFF848012E
:10128000036840680022002110185941704700008F
:1012900030030020EC680000DFF81811DFF81001BF
:1012A00010B5096844684968012088476069A169E8
:1012B000BDE8104008470000A08601008C210840CE
:1012C000B80100102820086028200840846C000025
:1012D000786C0000F8B504460D46FFF7CFFFD4E95F
:1012E0000A6732463B4600F0B5FE3DB1A6FB00233F
:1012F00006FB013307FB0033C4E90C23F2BD38B50C
:10130000DFF8B840DFF8BC5020684008400020609B
:10131000206840F0800020600120E062E06A2968D7
:10132000496801208847696A096A14208847E06A89
:1013300031BD0000DC090020680D00209001001084
:1013400080B500F004F8000C40EA014002BDDFF86F
:101350007C00006892E700002C2009400C40094006
:10136000004003401410094009B9DFF86410FFF78A
:1013700079B9000024220840886C00007C6C0000D1
:10138000B43F0050C40C002004800C4000800C408E
:101390000C400C402C500C4034600C4008400C4079
:1013A000102009403C600C4000400C4038600C406C
:1013B000E40100208C0100108C6C0000002009402A
:1013C000840100108C01001008200940EC0100206D
:1013D000A0010000FEE7704710B5DFF86404046860
:1013E00014F1010F08BF002400F020FFDFF85414AF
:1013F000002008600120DFF850140860DFF84C146A
:101400000860DFF84C04006828B1DFF84804006881
:10141000204600F023F8DFF84004DFF8402401689C
:101420008908890041F0005141F005010160DFF8B1
:10143000300401686FF31B4111430160DFF824049D
:101440000168C1F30131012907D10168DFF81824CF
:10145000114041F400320260016010BD2DE9F84FE7
:101460000446DFF8081401200860DFF8040401686E
:101470000029FCD0DFF8FC53DFF8FC83C020286093
:10148000D8F80CA0D8F80810DFF8F00389075DBF82
:10149000D8F80410090C41F0F00172210170DFF856
:1014A000E0130968D8F80C20C1F304611629A8BF1D
:1014B000203901EB2271491C6FF009029142B8BF3B
:1014C000114601F01F0141F4F8510183CAF3C061D4
:1014D000DFF8B00381F001010160CAF3806181F09F
:1014E0000101816014B9DFF8A0732DE0DFF89C03DF
:1014F0000068C0F383615FEA8A32C0F38F2021D491
:101500004FEA0A4212160AD54FF6FF73400804D17B
:101510001846490804BF01210120521CF6D4012AB3
:1015200010DB400040F00100B0F5803F21BF0120FA
:10153000490041F00101102924BF0F214FF6FF702F
:10154000521EECE740EA014700F07CFD401E80415E
:10155000C00FCF4E31680029FCD0DFF83893C9F8AE
:1015600010700121316008B100F070FD0CB9D82075
:1015700008E0C64A10681168C0F3870001F0030153
:1015800040EA0120009040F2FF3700233A462C2128
:10159000C14800F0BCF91CB1BC48C06A8704BF0C4C
:1015A00000F050FD401E8041C00F31680029FCD082
:1015B000C9F814700121316008B100F047FD002C1A
:1015C0000FBFB64FB148406A20F0033700F03AFD34
:1015D000401E8041C00F31680029FCD0C9F80C7052
:1015E0000121316008B100F031FD0CB9AC4F04E0CD
:1015F000A648AC49006A01EA000700F023FD401E3E
:101600008041C00F31680029FCD0C9F80870012161
:10161000316008B100F01AFD0CB9A34F20E09B48DF
:10162000806AD8F80830DB07C0F30352C0F30341E7
:101630000BD4D8F804301F0502EB27721B0482F389
:10164000040201EB237181F30401090441EA025110
:1016500082B242EA0107222C24BF00F080400743F7
:1016600000F0F0FC401E8041C00F31680029FCD022
:10167000C9F804700121316008B100F0E7FC2220B4
:10168000222C824F06D3F86B000F00F001004000BF
:1016900040F02000854908721120222C05D3F86BF8
:1016A000400F00F0010040F01000202C08724FF0B5
:1016B000000B07D3B86CC10C01F44071C0F3845027
:1016C00040EA010B00F0BEFC401E8041C00F3168B3
:1016D0000029FCD0C9F820B00121316008B100F028
:1016E000B5FC6020202C06D3B86C000D00F0030080
:1016F000400040F060006D49C8728020222C06D363
:10170000F86BC00E00F00100C00040F080000870CF
:10171000222C4FF47C4006D3F86B400D00F03F00C4
:10172000800040F47C406249DFF888B10880202CBA
:101730000AD3B86C0203810A02F47C1242EA815196
:1017400000F00F0041EA003B00F07CFC401E8041AD
:10175000C00F31680029FCD0C9F800B00121316008
:1017600008B100F073FC5448442101708821817055
:101770000CB9302105E0F96BC90C01F0030141F00F
:101780003001C1704FEA9A5010F0030003D00228D4
:101790003CD012D33CE00121042000F0FDF843F2DC
:1017A000BD70E863862028640120686443480168AE
:1017B0000029FCD0002068642EE0012000F00EF922
:1017C00004462146042000F0E7F8042000F006F962
:1017D000A042FAD1D8F800301802000A81B2E963B9
:1017E000000C286401206864344801680029FCD09A
:1017F000002068644FF06022180E314B1B681B6894
:10180000072198474FF48060C9F83800032100E0B1
:101810000221042000F0C0F8F8692A4900F03F00D6
:10182000087047F6180028490880104927480068C2
:10183000002028600860012025490860BDE8F18F7C
:101840001C130050840460425C600C400822044376
:101850008001284300012043044003400000390177
:101860004820034004000940FFFFFCFC1010094021
:101870009402224300600C40A83F0050566208408A
:10188000B812005000002043FF0F0F00501300500B
:1018900000800C4008A00C4000A00C4000008868AC
:1018A0008A766800FFFFFC00273F710041A10C40D1
:1018B000DCA10C4000803F4005A10C4084088C4313
:1018C000B40100100BB00C4070B00C402C2009404B
:1018D0009404604238B504460D4600F0B3FB401E48
:1018E0008041C00F1A490A68002AFCD0012D02D09D
:1018F000022D02D003E0247802E0248800E024686E
:1019000001220A6008B100F0A1FB204632BD38B5C3
:1019100000EB4100102B00F5007402D3103B241D96
:10192000120C0498984040EA024500F08BFB401EE0
:101930008041C00F06490A68002AFCD025600122B8
:101940000A6000281CBFBDE8314000F07FBB31BDFC
:1019500000800C4038B51D460818102D144602D3DF
:10196000103D801C240C0221FFF7B4FF04EA0001A3
:1019700088B2E84032BD50F8041B61B150F8042B26
:10198000D30744BFA9F101039A180023091F42F8A5
:10199000043BFAD1EFE7704738B50446E0070D463F
:1019A00007D5A8B200900023012200216B48FFF761
:1019B000AEFFA00707D5A8B20090012302220021A4
:1019C0006648FFF7A4FF600707D5ADB20095022374
:1019D0000C2200216148FFF79AFF31BD014604291E
:1019E00007BF1D234FF0C0421C234FF080525B48BD
:1019F0003421FFF7AFBF10B5594C21688968012029
:101A00008847584801688906FCD521690968402043
:101A1000884721698968402088471128F9D110BD7D
:101A200070B5054600F08EFB4F4C6168401A4FF4CC
:101A30007A714843060C00F003FC2169401A48BF44
:101A40004042711940F6B932914207D2062805DAB0
:101A5000A068E168814201D3226852B943494A68CB
:101A6000D2074FF4FA6016D40868C0B27D2148430B
:101A700008E0081A3E494843000C00EB90009042F1
:101A800038BF1046C82801D2C82070BDB0F57A6FA3
:101A900088BF4FF47A6070BD10B582B0012000900D
:101AA00000232E4C012219462046FFF730FF01206B
:101AB00000900346022200212046FFF728FF00F095
:101AC00041FB2949886013BD80B50120FFF786FFDF
:101AD00001281AD00023012234212048FFF73AFFC1
:101AE000A0B124480068804700F02CFB1E498B6899
:101AF0000A68C860A2EB9202C01A1D4B5843000C42
:101B00000860904238BF10460860012002BD10B541
:101B100082B0002000900146104C00230122204694
:101B2000FFF7F5FE00200090014601230222204627
:101B3000FFF7EDFE1C234FF0805234212046FFF7C3
:101B400009FF10B10B4800688047074C00F0FAFA13
:101B5000606000F075FB206113BD000000A00C4028
:101B6000900100101410094044030020AC3F0050C5
:101B700040420F0080000010DFF800F049C1011062
:101B8000DFF800F019C20110DFF800F00DC30110FA
:101B9000DFF800F081C60110DFF800F095B7011002
:101BA000DFF800F08DC20110DFF800F03DC2011037
:101BB000DFF800F009C30110DFF800F045C00110A4
:101BC000DFF800F0D1C70110DFF800F067BE0110A8
:101BD000DFF800F021B30110DFF800F011C80110A8
:101BE000DFF800F021C801100C2811D0192814D0FA
:101BF0001D2817D020281AD021281DD0252820D014
:101C00002A2823D02B2826D02C2829D00020704722
:101C1000DFF8E401006800687047DFF8DC01006865
:101C200040687047DFF8D001006880687047DFF8CF
:101C3000C8010068C0687047DFF8BC01006800692F
:101C40007047DFF8B401006840697047DFF8A80109
:101C50000068C0697047DFF8A0010068006A70473B
:101C6000DFF894010068406A704700B58BB00A2124
:101C700000A8FFF789FF0BB000BD00B581B0FEF7EB
:101C80006DFDDFF87801DFF878110068884218BF31
:101C900000F034F8DFF86C01B0F5B26F03D001B09A
:101CA0005DF804EB2BE001B000BD00B581B00FF290
:101CB0002100FFF76DFFFFF76FFFFFF771FFFFF7E1
:101CC00073FF01B05DF804EBFFF772BF0000000086
:101CD00000B581B0FEF7A2FCFEF788FC01B05DF80C
:101CE00004EB0320FFF768BF10B504460320FFF79D
:101CF00063FF2046BDE81040FFF762BFFEE7FEE746
:101D000000B581B0FFF760FFDFF8FC00C06801B0EC
:101D10005DF804EBFFF75CBFDFF8F010DFF8F000D0
:101D200088617047DFF8EC1001280CBF40F2FF70AB
:101D3000002008600020704730B581B0FFF71CFF1D
:101D4000DFF8D4500446E88820B1FFF7BDFE60B14B
:101D50000020E880FFF754F805461020FEF7A8FFA2
:101D6000012D0BD1FFF788F808E0052105F13000BF
:101D7000FEF748FC05F13000FEF748FC204601B0B4
:101D8000BDE83040FFF7FCBE10B5012818D1FFF7C1
:101D900025FE012816D0FFF77FFEDFF87C400120EA
:101DA000E08004F13000FEF729FC052104F1300049
:101DB000FEF728FC04F13000FEF728FC002010BDDF
:101DC000FFF7A5FE002010BD10B501240E2805D197
:101DD0000120FFF703FE012805D003E0DFF83C10E7
:101DE000405C00B90024204610BD00207047FFF77A
:101DF000F3BEFFF7F5BE0000F001002098CA011005
:101E00007047282090050000780100204401002040
:101E10000004000000000460DC0900203003002002
:101E20000068010701D50420704700F003007047E7
:101E3000F8B505467748784C0068800705D5082036
:101E4000A071764976480860F1BD00F0F9F9754A4D
:101E50001268002112F0030F18BF0121520748BF7A
:101E600041F002010DB141F0040194F90720821AFA
:101E7000052A02DAA279914259D0A0F10F02002579
:101E80000023002A1FD402EB02121312082B28BFD2
:101E900007231D46072D28BF0625634E06EB850741
:101EA00056F825507F687E1BF5B24F0744BFC6F336
:101EB00007277D198F0744BFC6F307477D19CF0752
:101EC00048BF05EB1665584E56F82370FEB25FEA20
:101ED000417C44BFC7F3072C66445FEA817C44BF62
:101EE000C7F3074C66445FEAC17C48BF06EB176640
:101EF000A2EB03226A434D4B1D681B68A17180321F
:101F0000092A92412D17C5F108053427D243DBB2C7
:101F10007D436B4306EBD272B3FBF2F2B2F5803F26
:101F200028BF4FF6FF7200F30700A280E07140481F
:101F30000068A188206000201F2904D21F21A180F1
:101F400004E04908401CB1F5007FFAD20F390909B5
:101F500040EAC100314A3749084310600020506010
:101F6000F1BD10B53448006884B224B300F068F9BC
:101F7000294991F90720904205DA6FF07F029042DB
:101F8000B8BF1046C8718888844201D28C8010BDC9
:101F9000274A12680B68D21A921C202A28BF1F22D7
:101FA000231A520823FA02F42018B0F5803F28BF04
:101FB0004FF6FF70888010BD2048006800B9704758
:101FC00010B41F498A6802F04063B3F1406F1ED01D
:101FD0004B689B071BD40F4B1C680968C1F3035166
:101FE0001C31090114F0050F06D088420FD224F0ED
:101FF0000500186010BC7047814208D2100158BF1C
:1020000044F00104500158BF44F004041C6010BCAB
:1020100070470000000009408C0300203010094088
:10202000FDFDA400242208409C130050B43F005042
:102030000820094000FFA4803410094028500940BE
:10204000AC3F0050EFF3108072B67047EFF3108092
:1020500062B670471B4213D1094236D12AB1844679
:10206000B0FBF2F002FB10C2704700F0FDB8FCD3E9
:102070000022002370470B0002000021002070475F
:10208000904271EB030CF6D370B5B1FA81F4B3FA58
:1020900083F52C1BA340C4F1200532FA05F6334327
:1020A000A2405FF00046E64002E05B085FEA3202D1
:1020B000841A71EB030524BF204629467641F4D3E8
:1020C00002000B003000002170BD012ACFD970B58D
:1020D000140C20D0B1FA81F4B2FA82F5C4F12004D4
:1020E0006419B4F12006D6D3B2405FF00044F44046
:1020F000002502E052085FEA3303C61A71EB020EB4
:1021000024BF3046714664416D41F3D302000B0099
:102110002000290070BD0C46B1FBF2F102FB114515
:102120002D0445EA1045B5FBF2F402FB145580B2CC
:1021300040EA0545B5FBF2F002FB105240EA0440CC
:1021400070BD000038B5FFF77DFF06490C684D688B
:10215000401E8041C00F18BFFFF778FF280C40EAEF
:10216000044032BD082009402D480068000C00F0F2
:102170000700032828BF4FF0FF307047294909683E
:10218000C1F30F314BF69A1291424FF0FF3001D15B
:10219000002070474BF6BE12914201D101207047DA
:1021A0004BF62032914208BF0220704710B41D49FF
:1021B0001D4B0A681B680968120FDBB2802B28BF11
:1021C0000023C1F30F314BF69A14A1424FF0FF30B8
:1021D0000CD1012A08D0032A1DD0072A1DD0082AB5
:1021E00008BF03F1160013E00A2011E04BF6BE14FD
:1021F000A14206D1002AF7D0022A09D103F1140026
:1022000006E04BF62034A14204BF002A03F10A0085
:1022100010BC40B270471420FAE71520F8E7000020
:102220009412005018130050A010005080B5FFF712
:10223000A5FF18B9FFF7BAFF162800DAFEE701BDBF
:102240000748084A816812780068C90352B2A0F5AD
:102250004070C9135043A1EB20108030001270472A
:10226000285009400C13005070470000DFF800F0C0
:10227000D9C10110DFF800F0ADB50110DFF800F0B2
:1022800019AE0110DFF800F041AC0110DFF800F0EA
:10229000E5C10110DFF800F0CDA00110DFF800F07B
:1022A00085C20110DFF800F081C20110DFF800F0F4
:1022B00055C10110DFF800F043C20110DFF800F053
:1022C00079AB0110DFF800F0D9B60110DFF800F0AB
:1022D00085C10110DFF800F0EDB30110DFF800F068
:1022E000C1C1011020B108232C220021FFF73CB806
:1022F000704720B108233C220021FFF7B7BF704789
:1023000080B5FEF773F9ADF80000FFF735FCADF8C6
:102310000200009802BD01B5BDF80200FFF730FCD5
:10232000BDF80000BDE80240FEF764B938B5DFF83B
:102330006448DFF864580020A4F86C0AE820208084
:1023400040F68410A4F8E80004F1E800686000207A
:1023500000F003F8A8606C6031BDF8B500240025DA
:10236000061D16F003001CBF311D0E1AFFF7C8FF33
:10237000DFF82418B6B20860112EB4BF4F688F681A
:1023800039880B0403D581F40041002519E0A5B17B
:1023900023883A88134423809BB2B34211D3274643
:1023A0001946B7B1891B89B20429A7BFF15346F476
:1023B0000041398841F4004109E0B142F1DA0125D8
:1023C0003C46CF1939880029DBD1002701E027F8E6
:1023D000041BFFF7A0FF3846F2BD10B50446FFF717
:1023E0008FFFDFF8B417221F086013885B045B0CB3
:1023F00013804B689A4238BF4A60BDE810408AE7B4
:1024000038B50446FFF77CFF00210C23DFF88C274A
:1024100003FB0125AA6C4AB1944204D1FFF77BFF6C
:1024200005F1480032BD491C0329EFD3FFF773FFC4
:10243000002032BD70B50546FFF762FF044600205C
:102440000C22DFF8581702FB001101F14806316831
:1024500049B90020B06035600022FFF70BFF7060C3
:1024600018B900F069FC8D4204D12046FFF753FFF4
:10247000304670BD401C0328E3D32046FFF74BFFD6
:10248000002070BD38B50446FFF73AFF0025DFF89D
:102490000C170C2202FB0512128842B1944203D1A0
:1024A000FFF739FFA8B232BD6D1C062DF1D3FFF73F
:1024B00032FFFF2032BD10B504462088FFF7E2FF4F
:1024C000FF2800D169E1DFF8D4160C2202FB0010CE
:1024D0008168080002D16FF0010010BD2046BDE800
:1024E0001040084702460FF2A070104710B50020B8
:1024F0000C21DFF8A826002401FB0023401C032840
:102500009C641C65F8D30020034601FB0024401C9A
:1025100006282380F9D3082010800FF255709060B0
:10252000BDE8104002E770B590B0FEF75FF80446D2
:1025300000A8FFF7DEFE0520069000224FF4487049
:10254000089000A94FF201000490DFF854060590AE
:10255000DFF85006FFF792FE050006D0FFF7D0FE29
:1025600006462846FFF766FF08B900F0E5FB30464F
:10257000FFF7D1FE2046FEF73DF810B070BD70B5F4
:1025800000F0E4F8FFF756FF0546FFF7B9FEA28812
:102590000021DFF808360C2606FB01331E883EB901
:1025A0001A805D60A2689A60A1816968216165E70F
:1025B000B24204D1FFF7AFFE6FF0020070BD491CBC
:1025C0000629E6D300F0B8FB00BF38B500F0BEF82E
:1025D000FFF730FF050016D0FFF792FE0021DFF86D
:1025E000BC250C2303FB012213884BB94FF6F8736B
:1025F0001380556000239360A1806968A16015E78E
:10260000491C0629EBD300F097FB00BF10B5044628
:1026100060680C3080B2FFF7A0FE00B91AE0616874
:10262000018100210160FF2181720C30A060002037
:1026300010BD80B540680C3811E080B28DE610B551
:102640000446606880B2FFF788FEA06000B901E030
:10265000002010BD6FF0030010BD80B54068FFF78B
:10266000BCFE002002BD38B504460D46FFF748FE0B
:10267000002145F80C1C216811B9256006E01146BF
:1026800051F80C2C002AFAD141F80C5CBDE832401C
:1026900041E62DE9F04104466FF00206E068A0F142
:1026A0000C05E0880628BCBFA08806280BDAFFF7D7
:1026B00027FEE188DFF8E4840C2707FB01814968E5
:1026C00019B9FFF728FE304617E0FFF724FEA0886F
:1026D0002871E0886871207AA871E088E16807FBBA
:1026E000008040680830FFF7BEFFE08807FB0080ED
:1026F00040684068FFF7C6FD0020BDE8F08170B576
:1027000000F024F8FFF77CFE10B96FF0040070BDF4
:1027100000F10806FFF7F4FD3168002541B10D46D0
:10272000A5F10C010A68326000220A60FF228A7259
:10273000FFF7F1FDA560A5F10C010DB9022070BDF8
:102740000879A0804879E080002070BD0446FFF73A
:102750009DBD06280BDADFF844240C2303FB002080
:10276000008800281CBF4FF6F872904202D14FF04B
:10277000FF307047088000207047811D8088E8E79F
:1027800010B50446E088FFF77DFEFF2800D104E085
:10279000E0802046BDE810407BE74FF0FF3010BDE1
:1027A0003EB50446FFF7ABFF050017D1A08800A98E
:1027B000FFF7CFFF78B1A06802900821ADF80410B0
:1027C00001A80321ADF80610DFF8DC1389688847FB
:1027D0006FF005003EBDBDF80000A08028463EBD5C
:1027E00010B5DFF8C82312680C464FF47A71A1FBCC
:1027F00000010023FFF72EFC002902D8B0F1004FA2
:1028000002D36FF0020010BD2060002010BD38B56B
:10281000FFF79CFFFFF7F4FD0546FDF727FF0028B3
:1028200018BF012800D015B96FF0040032BD6068F0
:1028300040B9009000996868FFF72CFD401E804168
:10284000C00F32BD10F1010F08BF4FF0FF30F0D0C4
:1028500000F050F90028EDD032BD80B54068FFF798
:1028600011FD002002BD00F067FA00BF80B540688E
:10287000FFF714FD002002BD80B54068FFF712FD90
:10288000002002BD80B5FFF711FDFFF713FD00200A
:1028900002BD80B5FDF7AAFEFFF76EF9002002BD6C
:1028A00010B58CB0044600A8FFF71CFDE02000F036
:1028B00013F808B900F040FA0BE010B58CB00446EC
:1028C00000A8FFF70FFDE06800F006F808B900F077
:1028D00033FA00200CB010BD08900023A168606896
:1028E00000AAFFF7EBBC10B50446FFF7EBFC6060F5
:1028F000002010BD0146886849680847F0B50746C2
:102900008BB0BC68A84D6CBB0C20FFF726FD040003
:102910006FF003061ED008232422002101A8FFF730
:10292000D5FC0020ADF814000690079400237968C8
:102930009F4801AAFFF7CEFC206068B90820ADF8D7
:1029400000000C20ADF8020000A8A96888472046C6
:10295000FFF743FD304618E0F86860603869A06012
:10296000BC600AE02868804706462068FDF746FEFE
:102970003869A06030466968884779682068FDF743
:1029800041FE2068FDF742FE00200BB0F0BD10B5FF
:10299000044682B0606800F0ADF820B9009860602D
:1029A0002046FFF7ABFF16BD80B5406810B96FF049
:1029B000020002BD0068FDF721FE002002BD7B4938
:1029C000096841600020704750B5044677480268A6
:1029D0006FF00046A6FB020100234FF47A72FFF766
:1029E00039FB002902D8B0F1004F00D330466060B7
:1029F000002050BD2DE9F04186B00646FFF746FCA9
:102A0000FFF7FEFC0446002002900025FDF72EFE95
:102A1000002818BF012800D014B96FF0040066E048
:102A2000706820B110F1010F03D14FF0FF3000901A
:102A300004E000F05FF85FEA000857D1FFF742FCBE
:102A400000994FF001080F1800E0009000996068AD
:102A5000FFF720FC80B303A8FFF751FE5FEA0008F0
:102A60001AD1BDF8100001A9FFF773FE80B9059ACD
:102A7000BDF81210BDF80400B368984740B1BDF826
:102A80000400B081BDF81200F0810598306113E0B8
:102A9000059902A8FFF7E7FD00986D1C10F1010FE2
:102AA00018BF00284FF00108D0D0FFF70BFC381AF0
:102AB00002D000998142C8D2029EFFF721FC04F1A6
:102AC000080756B1314600E0114651F80C2C002A97
:102AD000FAD13A6841F80C2C3E60FFF71CFC002D3F
:102AE00003E06068FFF7CEFB6D1EFAD1404606B0EA
:102AF000BDE8F08100A973E6F8B5FFF727FE0546AB
:102B0000FDF7B4FD002818BF01286FF0040613D0AC
:102B1000FFF7F6FB0021214A0C234B439F5A4FB18C
:102B20009B185B681B68AB4201D1A18042E0491C45
:102B30000629F1D3FFF7EFFB3046F2BDF8B50446A6
:102B4000FDF794FD002818BF012802D16FF00400A2
:102B5000F2BDFFF79BFB0546FFF7D2FBA7880F4AA4
:102B600000210C234B439E5A6EB1BE4208D19918E6
:102B700049680968A9420CBF01210021A16019E040
:102B8000491C0629EDD3FFF7C6FB4FF0FF30F2BD1D
:102B900000000000E80D002078030020B42700208A
:102BA000A80C0020E52400005C0D0020906C0000C3
:102BB000F5280000FFF7AFFB0020F2BD70B504461A
:102BC0003C20FFF7CAFB05006FF0030611D0FFF7AA
:102BD00090FB207AA8610022608928622946E0687B
:102BE00028616068FFF74AFB04462846FFF7F5FBBB
:102BF0000CB9304670BD002070BD70B5044624206D
:102C0000FFF7ABFB05006FF0030613D00823242267
:102C10000021FFF763FB2079012808BF2876A06810
:102C200000222946FFF726FBE0602846FFF7D5FB88
:102C3000E06808B9304670BD002070BD10B504468C
:102C400082B0A06840B9009000996068FFF722FB4D
:102C5000401E8041C00F16BD10F1010F08BF4FF09C
:102C6000FF30F0D0FFF746FF0028EDD016BD000082
:102C70004188292902D36FF0010070470FF2140236
:102C800052F8211008470000B7240000012300007B
:102C9000172300007F250000CB2500000D26000033
:102CA000332600003F2600005B260000932600002C
:102CB000FF26000081270000A12700000F28000048
:102CC0005B280000672800006D28000079280000BC
:102CD0008528000093280000A1280000E7280000B4
:102CE0008F290000BF290000C92900007B270000B0
:102CF000A965000071660000F5290000F92A0000AE
:102D0000FD280000A92900000B66000043660000B2
:102D1000576600003D2B0000A9660000C566000054
:102D2000BD2B0000FB2B00003D2C0000BB6600000B
:102D3000D3660000BB280000012000F001B80000AD
:102D40002021090326311820ABBEF9E7DFF800F097
:102D500025B101102DE9F84CDFF83C790C4600262E
:102D600040F2013B92467B78398A97F804C097F885
:102D700003E0B0EB0B0540F67B4232D06D1E37D03E
:102D80006D1E3DD0AD1E41D06D1E00F07D806D1ECC
:102D900000F080806D1E00F08D806D1E00F09D8023
:102DA0006D1E00F0A2806D1E00F0A7806D1E00F069
:102DB000AD806D1E00F0B280ED1E00F0B7806D1E7C
:102DC00000F0BC806D1E00F0C1806D1E00F0C6805A
:102DD0006D1E00F0CB806D1F00F0D380AD1E2ED095
:102DE000E7E0102C05D11022514607F1A4008AE03B
:102DF000102C40F0DC801022514607F1B40082E034
:102E0000042C6BD1DAF80000F862DDE0012C65D10A
:102E1000BCF1010F36D09AF80000F870BEF1000F37
:102E200006D00028F1D1022B1BD0052BEDD118E0E4
:102E30000028EAD0012B21D0042B1DD11EE0012C4B
:102E40004CD1BEF1010F1DD09AF800003871BCF1D1
:102E5000000F0AD0002807D1032B1CBF072B052B1E
:102E600002D1C8B200F08CFEAEE00028FCD0012BED
:102E70001CBF042B062B01D0052B02D1012000F032
:102E800004FCA1E012269FE0022C27D1BAF8000032
:102E9000B88299E0202C0EDA07F1CC061F213046CB
:102EA00001F07AF800F097F8388A7C7133462246B0
:102EB00001210EE0202C7ADA07F1EC061F213046C2
:102EC00001F06AF800F087F8388ABC713346224670
:102ED0000021C0B200F037FE73E0012C67D19AF8F0
:102EE0000000052863DAF8716EE0012C5FD19AF8D2
:102EF000000004285BDA387266E0062C57D10622FF
:102F0000514607F5867001F04BF85DE0012C4ED17B
:102F10009AF8000008284ADA787255E0012C46D168
:102F20009AF80000042842DAB8724DE0012C3ED134
:102F30009AF8000002283ADAF87245E000F047F803
:102F400035D1811F914232D238833DE000F03FF805
:102F50002DD1811F91422AD2788335E000F037F8D5
:102F600025D1B0F5FA7F22DAB8832DE000F02FF8F2
:102F70001DD1A0F10A0140F67742914217D2F883A1
:102F800022E0012C04BF9AF8000001280FD107F1BC
:102F9000800001F09AF840B900F01CFB060013D144
:102FA00007F15C0001F098F80EE016260CE01826F8
:102FB0000AE0272807DA022C05D1BAF8001000F041
:102FC000F2FD064600E002263046BDE8F28CBAF873
:102FD0000000022C704722465146304600F0E0BF08
:102FE00038B500244FF440730D46C21ADFF8A81616
:102FF00036D0521E36D0521E37D0521E38D0521EF6
:1030000039D0521E3AD0521E3CD0521E3CD0521ED5
:103010003DD0521E3ED0521E3ED0521E3ED0521EB9
:1030200040D0521E40D0521E40D0921E40D0521E60
:1030300040D0521E40D0521E40D0521E40D0521E90
:1030400040D0521E45D0521E45D0521E45D0921E31
:1030500047D0521E14D0521E41D0521E43D045E0DC
:10306000887841E01022A4312FE01022B4312CE006
:10307000C86A286041E00622C43126E0C87833E0FF
:10308000087931E0888A35E04A79CC311DE08A79C7
:10309000EC311AE0C87927E0087A25E0062201F52C
:1030A000867112E0487A1FE0887A1DE0C88A21E024
:1030B000C87A1FE0088B1DE0488B1BE0888B19E065
:1030C000C88B17E0062201F58A71284600F068FFD8
:1030D00013E0088C0EE0488C0CE0888C0AE0087B3A
:1030E00002E0487800E0487B287006E0272803DAF1
:1030F00000F075FD288000E00224204632BD1CB59A
:10310000DFF89445617889B900B1206304F12C009F
:10311000019004F1B400009004F1A403208AA17886
:103120000022C0B200F0CAFC002016BD112016BD5E
:10313000DFF864054178062918BF072905D1C18A3F
:10314000008A1322C0B200F0DFBC1220704700B525
:103150008FB008233C22002100A8FFF787F8DFF892
:103160003C0500F15001079100234FF4DC710891F8
:1031700000AA032106910FF2D101FFF7E7FD0FB07E
:1031800000BD70B584B000F016F90120DFF810150D
:10319000DFF8044509680FF20D55ADF8020000A8EC
:1031A0008847BDF8040020820298A0620020607069
:1031B0004FF6FF70E08200F030FD20700023012008
:1031C0000190294600200090024604F1380000F0EA
:1031D00041FF022000F030F804F15C0000F03AFFFB
:1031E000042000F029F804F1800000F033FF0420EF
:1031F000A07004F1A40200200146034605462BC23C
:1032000004F1B40506464BC5E062E0712072A1727C
:1032100007206072103A1021022000F073FE103D6A
:103220002A461021032000F06DFE042104F12C0237
:10323000084600F067FE7FBD0190294600200090FF
:103240000346024670470000FEB5FFF79AFFDFF81D
:103250004854DFF84C4405F1800700F0ACF80A2030
:10326000ADF802004FF0FF30019000A821688847B8
:1032700000284BD100F09FF80920ADF8020000A80B
:1032800021688847BDF80610029E00283ED1BDF88F
:103290000400102804BF288A81422DD130884FF6BF
:1032A000FF71884209D17088400425D505F12C02B0
:1032B0000421042000F03BFE1EE03078A22805D057
:1032C000D02804BF304600F07AF815E07079132852
:1032D00012D13089012804BFA87B022805D13846C5
:1032E00000F0FAFEFFF724FF06E0052000F077FC6F
:1032F0000146384600F0D4FE46B100F05CF80320E9
:10330000ADF80200019600A821688847688AC107C5
:1033100030D54FF6FE7108406882E978287901437C
:1033200028D018B103208DF800000CE0E8798DF862
:1033300000000622287A8DF8010005F586710DF14E
:10334000020000F02DFE687A8DF8080000A9A87A26
:103350008DF80900288AC0B200F0F1FB00281FBFD9
:1033600008206870286B002804D0016808001CBF82
:1033700008208847688A810706D54FF6FD71084006
:103380006882002000F026F9688A41070AD54FF6C6
:10339000FB7108406882A87B012804D0022808BF7E
:1033A000FFF7C6FE59E70090EB8BAA8B698B288B41
:1033B00000F044F951E70820ADF800007047F8B577
:1033C0000546B54CA878010004F58A7704F180061B
:1033D00012D002283BD0032818BF04285BD0052850
:1033E00000F08180062800F0AB80072800F0CD8037
:1033F0000F2800F0E980F1BD6878D8B904F1A40283
:103400001021022000F093FD04F1B40210210320EA
:1034100000F08DFD0622E91C04F1C40000F0C0FD9F
:103420000120607004F1CC03208A62790121C0B2CE
:1034300000F089FB08B108206070206B30B1016892
:10344000080003D06078BDE8F4400847F1BD687813
:10345000E8B9E87848B1208AA27904F1EC030021A8
:10346000C0B200F070FB687011E06078022818BFED
:1034700007280CD0062802D12079012807D104F1B1
:10348000380000F022FE10B9012000F0FEF8687844
:103490000028DBD0CFE769780029CCD103280AD1F6
:1034A0006078062808BF0720C6D0E07800280CBF47
:1034B00003200220C0E7A18AE078002907D0227902
:1034C00010430AD004F1380000F0EAFD05E00128BD
:1034D00007BF0020E070002020716078072814BF2B
:1034E00004200620A8E7687820BB0622291D38465C
:1034F00000F056FD6889E08206206070E88920842B
:10350000288A6084688AA084E8782073E07A012899
:1035100009D11F2000F063FB4FF47A71414304F19D
:103520005C0000F0BDFD6A89E8780423291D00F0E5
:10353000D5F982E73128B0D10020E07004207BE784
:10354000A88800F0E2F90621384600F025FD0020A9
:1035500020846084A084A879607304F15C0000F08A
:10356000BBFD304600F0B8FD4FF6FF70E0822079D9
:1035700008B1032060E7A87908280CBF05200420C3
:103580006070012000F081F857E7304600F0A4FD9C
:10359000687800280AD1E8882084288960846889AE
:1035A000A08404F15C0000F090FD00287FF44EAF91
:1035B000636B002B3FF44AAF1B68A28C618C208C9C
:1035C00001B0BDE8F0401847A888BDE8F4400521E7
:1035D00000F0DBBAFEB5304D298B0446288C8842BA
:1035E00024BF698B814207D3688CA98B884202BFB4
:1035F000A88CE98B88421ED0052000F0F0FA064620
:10360000E88AADF80000288BADF80200688BADF8B1
:103610000400A88BADF80600E88BADF8080000A800
:1036200000F06DFA070007D1AC73314605F1800058
:1036300000F036FD00E018273846FEBD70B5164C88
:103640006578062D01D0142070BD40F67A45861F9E
:10365000AE423CBF8E1FAE4215D2B2F5FA7F12DAEF
:10366000A3F10A0540F67646B5420CD22083618369
:10367000A283E3830498FFF7ADFF04F15C0000F040
:103680002BFD002070BD182070BD03494A8A1043ED
:103690004882886AFEF7F6BD74070020AC2500203A
:1036A000640D0020F1E70000E0B50821ADF800103E
:1036B0000190022100F00FF808B100200EBD029821
:1036C0000EBD00B583B00821ADF8001001900321B4
:1036D00000F001F807BDADF8021000A8DFF8741380
:1036E000096808471FB5ADF80610ADF804000824B6
:1036F000DFF860138DF808200393ADF80040ADF8B3
:10370000024000A80968884704B010BD30B585B0F4
:10371000144608220291ADF800201922DFF8341374
:1037200009680190ADF802201D4600A8884714B131
:10373000BDF80C10218015B1BDF80E102980089A33
:103740000499116005B030BD00B583B00820ADF814
:1037500000001A2000F014F810B9BDF804000EBDE6
:10376000FF200EBDE0B5ADF80000ADF8061000205A
:1037700000F006F810B99DF808000EBDFF200EBD40
:10378000DFF8D0120968ADF8020000A8084750B170
:1037900010F1040F01D10420704710F1030F01D183
:1037A00002207047012070478123037042EAC11153
:1037B000002341F47C41C3708180704782230370F1
:1037C00081800023C370827170473EB50446082093
:1037D000ADF800000D462020ADF802001020DFF803
:1037E00074120968ADF8040000A8884720B902984F
:1037F00010B16FF004003EBD009500230022214669
:103800004FF0FF30FFF782FF3EBD10B51446CA7877
:10381000012A82B003D18A88DFF8E4341A8000F0EC
:1038200010F858B9009000A92046FFF7CEFF28B93C
:1038300000984478FFF745FF204616BDFFF7A7FF25
:1038400016BD0B46022210214CE738B51C46154622
:10385000FFF7F7FFB8B9009000A92846FFF7B5FFBA
:1038600088B900984578002D04BFC079A04205D1E1
:10387000009881680498224600F092FB0098FFF7B8
:1038800020FF284632BDFFF782FF32BDF8B500F0B9
:1038900056FA00F0BFF907000DD032462946FFF76F
:1038A0008DFF00F048F93872FFF74EFF3B4601B03C
:1038B000BDE8F0403AE0F1BD10220121E6E738B55D
:1038C00000F0E1F9050004D0042200F032F8AC6009
:1038D00026E031BD3C81BD72FE6035E72DE9F04147
:1038E00000F05AF907000FD0142200F022F83C72C1
:1038F000FD603E8287F81280FFF726FF3946BDE85B
:10390000F041DFF8002480E72FE038B500F033F80D
:10391000050001D0152200E031BD00F00AF82C812D
:10392000FFF712FF2B4601B0BDE830400222102104
:10393000D8E6012142E70022042176E02DE9F0419A
:1039400000F02AF9070010D002220421FFF736FF09
:10395000BC60BD81BE73C7F81080FFF7F5FE394625
:10396000BDE8F041DFF8A0234FE70420BDE8F08177
:10397000102202218AE704460A2095E602211DE76B
:10398000F8B500F07AF907000AD01522FFF7F6FF24
:10399000FFF7A0FF3946BDE8F840DFF8702334E7B1
:1039A0000420F2BD002203213FE000B583B00FF2F6
:1039B0004903019306230093032300F04DF80EBD45
:1039C0001078802802BF508840F27F61884208D179
:1039D0009088984202BF91790098814201D10120DC
:1039E00070470020704710B582B00624FFE70094AE
:1039F000FFF7E6FF16BD00000323F4E710788028E8
:103A000002BF508840F27F6188420CD19088032821
:103A100018BF042807D1907900281CBF102811284E
:103A200001D10120704700207047F8B500F013FA6B
:103A300007000CD032462946FFF7C0FEBC60FFF7F6
:103A400083FE3946BDE8F840DFF8C422DDE60420F5
:103A5000F2BD0000640D00202DE9F04100F027F8D0
:103A600007000AD0069A4146FFF7A8FE3C817D81F7
:103A7000FFF732FF079A00F015BA76E742460321B6
:103A800092E670B582B000F05AF9FFF75DFE1B2197
:103A90000091C3B232462946204600F0FEF876BDBA
:103AA00010B582B01D24009400F0F7F816BD04464E
:103AB0000D46164698461020FFF7F6BD2DE9F04159
:103AC00080460D4616461F461820FFF7EDFD040000
:103AD00014D0002200F05DF800F00BFA207265723D
:103AE000A672E7600698206107986061FFF72CFED8
:103AF0002146BDE8F0410FF2BD2286E635E70FF220
:103B0000B923112200211EE1F8B500F0C0F807002A
:103B10000FD00A2200F03DF800F00DF838727D81D8
:103B20003E73FFF711FE3946BDE8F8400FF28D22D3
:103B30006BE60420F2BD21465020FFF713BE0FF2C2
:103B40008123062210E12DE9F04180460D461646FC
:103B50001F461020FFF7A8FD040010D0072200F038
:103B600018F800F0C6F920726572A672E760FFF7D8
:103B7000EBFD2146BDE8F0410FF2492245E6F4E6AF
:103B80000FF2452308220021EEE00FF2412310221C
:103B9000C4E00421FFF708BE04460D4616469846C9
:103BA0001420FFF781BD70B500F014F806000BD0AB
:103BB0003022FFF7EEFF00F009F83146BDE8704013
:103BC0000FF20D22FFF721BE042070BD34817581F4
:103BD000FFF7BABD04460D460C20FFF765BD30B5B2
:103BE00083B004460020ADF8040000F013F805008F
:103BF0000DD03122FFF7CDFF2C81FFF7A5FD01A9E4
:103C0000009102230FF2CD122946FFF71EFEBDF8E8
:103C100004003EBD0A20FFF747BD1CB500208DF80B
:103C2000040000F012F804000CD01222FFF781FE0D
:103C3000FFF78AFD01A9009101230FF29D12214691
:103C4000FFF703FE9DF8040016BD0820FFF72CBD0A
:103C5000F8B500F012F807000DD03622FFF799FFF3
:103C60003C817D81FFF738FE3946BDE8F8400FF210
:103C70007912FFF7CABD0420F2BD04460D46164670
:103C80001020FFF711BD04460C20FFF70DBD0446C0
:103C90000D4616460E20FFF707BD2DE9F041FFF750
:103CA0007BFF070011D0069AFFF7E9FE3C813E74C6
:103CB000FD6000F01EF97874FFF746FD3946BDE857
:103CC000F0410FF25912FFF7A0BDFFF74EBE38B515
:103CD0001446104A15682A0006D0009302460B4687
:103CE00021460120A84732BD002032BD0A4A136890
:103CF0001A0003D00A460146012018477047000009
:103D0000D80D00203D3E00004D3E0000433E000027
:103D1000FD39000094030020980300202DE9F041B4
:103D200000F00DF898460C20FFF7BEFC070004D009
:103D300000F016F83C81BD72B1E0FFF716BE0446F4
:103D40000D46164670472DE9F041FFF7B0FE07001B
:103D500004D000F005F8BC60FD60A0E0FFF705BEF0
:103D600032460421FFF720BD2DE9F041FFF79FFE09
:103D7000070006D0FFF7F4FFFFF7DDFE3872FD60A5
:103D80008DE0FFF7F2BD1078802802BF508840F226
:103D90007F6188420CD190884FF680710140B1F567
:103DA0007E4F04BF00F07F00984201D10120704790
:103DB000002070470023E6E71123E4E70A23E2E747
:103DC0000623E0E70723DEE70823DCE71023DAE732
:103DD0003023D8E73123D6E780B51223009301239F
:103DE000FFF7EEFD02BD00003623CCE710788028F7
:103DF00002BF508840F27F6188420DD190884FF613
:103E0000807101404FF68052914204BF00F07F0064
:103E1000984201D1012070470020704770B5FFF72C
:103E20008EFF1D23FFF7E2FF30B9324629462046B8
:103E3000BDE870401B23D9E7012070BD80B5142375
:103E4000CCE780B5152300930223C9E780B5022390
:103E500000930423C4E704460D4616460C20FFF7E2
:103E600023BC2DE9F041FFF76AFF98460E20FFF7CB
:103E70001BFC070009D000F00AF83D817E81A7F8FD
:103E80000C80FFF761FC069A0CE0FFF76EBD812005
:103E900038700120F870BC8070473D81FE60FFF7EC
:103EA00053FC42463946BDE8F041FFF7AEBC1078FE
:103EB000802802BF508840F27F61884204BF90880A
:103EC000984201D1012070470020704738B5044660
:103ED000154600F00FF80FF225010091C2B22B46F3
:103EE00021464FF61840FFF7BCFF32BD3C817D8173
:103EF000BE8141465020FFF735BC00004FF6184305
:103F0000D5E70000F8B5FFF7B8FE07000DD0012295
:103F100000F022F83C727D72FFF7DEFC3946BDE806
:103F2000F8400FF26D02FFF770BC0420F2BDF8B547
:103F3000FFF7A3FE07000DD0022200F00DF83C723F
:103F40007D72FFF7C9FC3946BDE8F8400FF2450223
:103F5000FFF75BBC0420F2BD0521FFF725BC1078FC
:103F6000802802BF508840F27F6188420DD190883E
:103F70004FF6807101404FF68062914204BF00F01D
:103F80007F00984201D10120704700207047000057
:103F90000123E4E70223E2E7002200F013B9000066
:103FA00062B38B0708D0521E11F8013B00F8013BA9
:103FB00000F024808B07F6D1830740F0208000BFFB
:103FC000103A07D330B4B1E83810103AA0E83810EE
:103FD000F9D230BC530724BFB1E80810A0E808109C
:103FE00044BF51F8043B40F8043BD20724BF31F8EA
:103FF000022B20F8022B44BF0B7803707047083A5D
:1040000007D3B1E80810083A40F8043B40F804CB65
:10401000F7D25307E4E70000DFF800F079B50110AC
:10402000DFF800F0F5B80110DFF800F0B5C10110BD
:10403000DFF800F0A9C1011000B583B00821ADF888
:10404000001001900521ADF8021000A8554909683B
:10405000884707BDF0B589B004460D4616461F4691
:1040600008232422002100A8FEF730F90F984E49BA
:104070000968069000AB4FF47A70B0FBF1F101FBD8
:1040800007F0059001FB06F20E98ADF810002946E6
:104090002046FFF7C1FF204609B0F0BDFCF7B6BAD5
:1040A00038B504460D46FCF74AFB10B12046FCF734
:1040B000A5FA00F013F800FB05F12046FCF7A2FA80
:1040C0002046BDE83240FCF7A1BA80B5FCF737FBCB
:1040D00000B10120C0B202BDFCF790BA32490968B4
:1040E0004FF47A70B0FBF1F0704710B50446002130
:1040F000FFF796FF204610BD70B584B00446082037
:10410000ADF800000D460420ADF802000C20254952
:1041100009680190164600A8884758B9029949B124
:104120008E602046FFF780FF15B12846FEF7AAF8FB
:10413000012003E03046FFF77FFF002004B070BD90
:1041400010B50446FCF766FA38B92046FFF770FF51
:104150008468FFF771FF204610BD002010BD30B508
:1041600085B0044600A80FF248011422FFF728FF8B
:104170000E4830210170A21D782141700623811C58
:1041800000AC12F8015D2D095B1E2D5D01F8015B8D
:10419000157805F00F052D5D01F8015BF1D105B033
:1041A00030BD0000640D0020906C0000580300201A
:1041B000303132333435363738394142434445465D
:1041C00000000000401810F0030308D0C91A1FD3E4
:1041D000DB0748BF00F8012D28BF20F8022D13008F
:1041E00030B414461546103928BF20E93C00FAD8EF
:1041F000490728BF20E90C0048BF40F8042D89007A
:1042000028BF20F8022D48BF00F8012D30BC7047B0
:10421000C91818BF00F8012DCB0728BF00F8012DE1
:1042200070470000DFF800F061C20110DFF800F015
:10423000E1C20110DFF800F03DC10110DFF800F02D
:1042400029AF0110DFF800F009B70110DFF800F026
:10425000F9BF011040680068D0F80405084018BF95
:104260000120C0B2704740680068C0F8041570476C
:1042700050F8041F21F002010160704750F8142F1C
:1042800003E00162704750F8242F22EA0101016027
:10429000704770B50446FDF76FFCDFF8B46605465D
:1042A000307850B114F0704F04BF1020FCF7F4FACE
:1042B0000420FCF7F1FA002030702846BDE8704079
:1042C000FDF75EBC38B545688468E86E00F0A6FB73
:1042D000A86E00F08BFD2068FFF7CAFF05F11C00F7
:1042E000FFF7A0FF6079FCF7F7FA287818B905F115
:1042F0003800FFF79BFF05F19000FCF7CDFCFDF7C0
:104300003BFC002185F8A410BDE83240FDF738BC25
:104310002DE9F04147688668202915464FF0FF389F
:1043200007F1680404D02BD322290BD006D327E051
:10433000387B012818BF002020721EE00020207268
:1043400080461FE0287840F00041206841F4005189
:1043500000F0FBFCB0B930682978B0F1804F2068DC
:104360000CBF0B22232200F0BDFD97F859102068E6
:1043700000F018FD287887F859004FF0000801E098
:104380006FF001084046BDE8F0812DE9F041D0F81A
:1043900004C080680B880468DFF8B855DFF8B8857A
:1043A0008E680CF15802B4F1804F92F800E00FF2E1
:1043B0000C6403FA0EF39BB20CBF47462F4646B17E
:1043C0000FF2F05C5CF82EC0C7F808C09E19761E8C
:1043D00004E054F82E60BE600CF172067E6043F675
:1043E000F07C066808363E60D7F808E00E88761E36
:1043F0000CEA061646EA0E06BE600768B7F1804F63
:104400000CBF08F11005103592F800804F683FB1DD
:104410000FF2985454F82840AC60DB195B1E03E09F
:1044200054F82830AB60831D2B60036808336B6041
:10443000AB680988491E0CEA01111943A960526949
:1044400052688168C368126819439162006850F825
:10445000241F41F003010160BDE8F081F8B5044676
:10446000A66830686568C7693946FFF70AFFF8072C
:104470001ED530680121FFF701FF686D18B1204695
:10448000BDE8F2402BE13068FFF7F2FE306803210F
:10449000FFF7F9FE00F07BF900F073F90CBF4FF461
:1044A000807040F2011088472046BDE8F24092E15A
:1044B000F168E86EFFF7CEFE30B130680221FFF7F9
:1044C000E2FEF16800F066F9B168E86EFFF7C2FE3F
:1044D000A0B130680121FFF7D6FEB16800F05AF9AB
:1044E0006E6D002030747068FFF7D3FE00206865A1
:1044F0003146AA682046BDE8F8401047F1BD704734
:104500004068002180F8A4100020DFF844140870EF
:104510007047F0B5044695B06568A6680F46FDF78C
:104520002BFB95F8A410B1BB012185F8A410FDF771
:1045300027FB1FB90DA800F017FD0DAF002068651F
:104540003869286178696861387E2876387B2873F5
:104550003878287078686860002085F8700078697D
:1045600009288041C043C00F85F858007079FCF7D6
:104570001FFA204600F02FF9F07C85F859002046FC
:1045800000F051F958B97079FCF7A6F9FDF7F4FA83
:10459000002185F8A410FDF7F3FA00203FE008237E
:1045A0003022002101A8FFF745FE0020069400906C
:1045B00001AB3179DFF8A42305F11C00FFF73EFEC3
:1045C000287888B908232422002101A8FDF786FE57
:1045D00001208DF81C0001AA002105F13800FFF729
:1045E00031FE0FF2B51000E0B868A86000F0EFF9F6
:1045F000E866287B012807D1A86E0FF2A51100F00C
:1046000034FCA86E00B184600020009023460FF2B5
:104610007132042105F19000FCF7B5F9204615B080
:10462000F0BD2DE9F0410E46044630686568A76884
:10463000002852D0FDF7A0FA696D21B1FDF7A0FA6C
:104640000320307446E0012131746E65FDF798FA5D
:1046500095F8700030B195F85900C1490143A86E32
:1046600000F0EFFB3868DFF8E88250F8041F41F0F3
:104670000201016020463146FFF787FE386850F896
:10468000141F41F0010101607668FDF775FA0746D5
:1046900098F8000058B916F0704F04BF1020FCF7CE
:1046A000DDF90420FCF7DAF9012088F8000038462B
:1046B000FDF766FA287878B9696805F13800FDF7E2
:1046C000E9FD48B9204600F00AF8002105F138005C
:1046D000FDF7E0FD002000E00120BDE8F08170B5AD
:1046E00004466568A668FDF747FA696D002904BFAE
:1046F000BDE87040FDF744BAFDF742FA3068FFF7B5
:10470000B7FD30680321FFF7BEFD00F040F83068C8
:104710000121FFF7B3FD30680121FFF7B2FD00F082
:1047200030F80CBF4FF4807040F2011088472046EB
:1047300000F051F8686D4068FFF7ABFD696D087CCB
:1047400004281CBF03200874B268F36801201A43D0
:104750009040EA6E52681268D06230680A68B0F120
:10476000804F0CBF7C487B488068C0F30910101A4A
:10477000401E0860002068652046AA68BDE87040B9
:104780001047306877490968B0F1804F7047B068CA
:10479000F1680143E86E66E540683830FDF772BDA8
:1047A000F8B50546AC68606800F15406707900F011
:1047B00062FB07467179284600F043FB684800EA2F
:1047C0000701814206D13168042008742046BDE803
:1047D000F24084E7F1BD30B58568446885B028684B
:1047E000FFF746FD28680F21FFF748FD28680321E1
:1047F000FFF747FD02A8FFF729FD606901902069D6
:104800000090217B0FF2841050F821300FF28410B9
:10481000217E554C246850F821200399286824688B
:10482000A04705B030BD70B5446885684F492A7C03
:1048300004F10C0686B03378012B00A810D142F0A9
:10484000004200926A7C11434160A97C41F0004122
:10485000816094F8591041F0004141F4005119E091
:104860000A430092424B6A7C42F0004242F480428A
:104870004260327B002A18BF012A07BFAA7C11437D
:10488000A97C19438160032194F85920FF2A03D0A1
:1048900043EA0201C1600421FF2240F8212000A95F
:1048A00004F15C0000F015FA0028A0664ED00FF26B
:1048B000DC02337852F823202968012A20D1B1F193
:1048C000804F297C0CBF0922212200F00BFB00F055
:1048D00051F80CBF0A22222200F004FB2868A97CB0
:1048E00000F04AF80CBF0C22242200F0FBFA2868E2
:1048F00094F85910B0F1804F0CBF0B22232221E015
:10490000B1F1804F297C0CBF0A22222200F0EAFA82
:1049100000F030F80CBF0922212200F0E3FA2868E9
:10492000A97C00F029F80CBF0C22242200F0DAFA4E
:1049300094F85910FF2908D02868B0F1804F0CBFB7
:104940000B222322A06E00F0CDFA012006B070BD2C
:10495000A603002000050020300400205D44000074
:104960000000068078000010C4010010000480A040
:104970000004C0A02868697CB0F1804FA06E704729
:1049800080B50846FFF727FF002002BD00000000A9
:104990000100000000000000020000000100000013
:1049A000030000001000000020000000018000C093
:1049B000018000D50180000C0180005D018000CCE9
:1049C000018000DD406800680121C1647047F0B5D6
:1049D000234C6568266868798DB0FBF7E9FFFDF721
:1049E000CBF80746307898B908233022002101A877
:1049F000FFF720FC00200694009001AB2979194AAA
:104A0000301DFFF71BFC01203070204600F01EF81F
:104A10003846FDF7B5F820460DB0F0BD38B505684D
:104A20004468287888B16079FBF708FF012807D12E
:104A3000216800204860281DFFF7F4FB0020287043
:104A40006079BDE83240FBF747BF31BD406802687E
:104A50000021D162006804498160012141607047F2
:104A600040690000C54900000004002090FAA0F051
:104A7000B0FA80F07047DFF89414C4E180B5DFF835
:104A800090040068FFF7F2FF0121DFF888248140DD
:104A900011600121DFF880241160DFF880140A68BA
:104AA00090420BD201EB80014A683AB113681900B9
:104AB00004D0C1B21046BDE80440184701BDF8B5A6
:104AC0000D00ECB244BF85F0204585F4C045A1003F
:104AD00001F1804101F5012100EA05060A68DFF8CD
:104AE00040743E4085EA020382433243034000F4AF
:104AF000E0261B0EB6F5E02F03F0010302D1D3012F
:104B000005D411E010F4E02F08BF002B0CD002F404
:104B1000E023B3F5A02F04D0B3F5C02F04D10523B3
:104B200000E0062363F312420A60410205D5A90D95
:104B3000DFF8F02301F00101115500020ED5FDF759
:104B40001BF800F066F92C024CBF1C4600249A4367
:104B500022430A60BDE8F240FDF712B8F1BD00291A
:104B600048BF0021800000F1804000F5012001F0E5
:104B70003F010268920941EA8211016070472DE904
:104B8000F04F97B08146FDF7F9FA0025012804D1CE
:104B9000FDF7EAFA022808BF0125DFF88C03C16897
:104BA000C1F3815101294FF0010A04D10068000EC0
:104BB0000AFA00F00543DFF87403DFF86063007859
:104BC000DFF86C030068C0F346003060FDF7D6FAEA
:104BD000012802D13068401C30603168DFF854731E
:104BE00019B1FF22384600F0D7F94FF00008002431
:104BF00005E0CC550AFA00F040EA0808641C59F8B0
:104C00002400C1B2FF2908D03268914203D225FAAC
:104C100000F2D207EDD5022058E00920FBF7C8FECC
:104C2000C6F880900823242200210DA8FDF756FB2A
:104C30008DF84CA00DAA012106F1A000FFF702FBA0
:104C40000024DFF8F4A20BE05046FFF738FF4FF0E6
:104C5000FF31E0B2FFF783FF0020CBF80400641CB3
:104C60003068844212D225FA04F0C00706EB840BA8
:104C700048BF0420F1D428FA04F0C00747BFE05D24
:104C800059F82010E0B240F4C041DDE7082330229B
:104C9000002101A8FFF7CEFA0020009001ABDFF859
:104CA0009C22102106F18400FFF7C8FADFF8900279
:104CB000016821F47C5141F4005101600120DFF8CA
:104CC00084120860DFF880120860002017B0BDE889
:104CD000F08F2DE9F041DFF8446204460D4606F1FD
:104CE000A00800F05AF800273DB90020206060605D
:104CF000A06000271DB31EE07F1C15F82700FF28C9
:104D0000F3D03168884204D206EB80004068002866
:104D1000F2D0002413E006EB800101224C6002FA7D
:104D200000F0616808436060204655F827208249FA
:104D300000F0ABF87F1C15F82700FF28EBD14046A8
:104D4000FDF7A0FA2046BDE8F0812DE9F04105000D
:104D50000E46F7B203D0714C2068874201D302207F
:104D600019E004F1A00800F018F804EB870041688E
:104D700009B101250BE0456001216868B94008438D
:104D8000686032466C49284600F07FF800254046AE
:104D9000FDF778FA2846BDE8F0814FF0FF31404634
:104DA000FDF778BA10B50C46F0B1416821FA04F26B
:104DB000D20719D50122A2409143416000205749F2
:104DC00001EB840250605B48225C5B48FF2A0EBF07
:104DD00044F02041D1F8801051F82210FFF76FFE07
:104DE0004FF0FF3120468CE0022010BD10B5044684
:104DF00005E0FFF73BFEC1B22046FFF7D3FF606836
:104E00000028F6D110BD096821FA00F202F0010075
:104E100070474E490A680123A340704710B53F4BC5
:104E20001C68A14204D203EB81035B68834201D07A
:104E3000022010BD10003B4A18BF01205054002032
:104E400010BD10B5354B1C68CAB2A24204D203EBA8
:104E500082025268824201D0022010BD0A464FF4FD
:104E6000E02100F012F8002010BD10B10160002018
:104E700070470220704780B500F01BF880F00050AA
:104E800080F4C04040F0004002BD38B5234C256896
:104E90000B461146CAB2AA4204D204EB82025268FF
:104EA000824201D0022032BD1846FFF708FE0020E2
:104EB00032BD38B504462648194950F82400084048
:104EC00044EA00052046FFF7D6FD08B145F4800509
:104ED0001E48006820FA04F1C80748BF45F40005E1
:104EE000284632BD0B4610B511460C4A1468A34241
:104EF00004D202EB83025268824201D0022010BD2C
:104F00001846FFF72CFE002010BD00008020024054
:104F1000E0200240E020026080E200E00402002085
:104F2000007F077F00200240A83F0050A703002019
:104F30008012084010030020007FC7677D4A0000F0
:104F4000003009400C40094008000940D0200240D0
:104F500000100840034A0C2303FB00200268D268BB
:104F600010470000786900000FF20C012022FFF7C3
:104F700027B802681269104700000000FFFFFFFF1A
:104F8000000000000000000040420F000800000088
:104F9000000000000000000062F30F2262F31F42D5
:104FA00000B500BF130096469446103928BFA0E80C
:104FB0000C50FAD85FEA417C28BF0CC048BF40F8CB
:104FC000042BC90728BF20F8022B48BF00F8012B8B
:104FD00000BD0000DFF800F06DA90110C0680009F5
:104FE00000F0010070474FF0FF310160DFF80C1353
:104FF00041600021017270472DE9F043DFF8F8921B
:10500000D9F80050D9F8047099B00446884616467D
:10501000FCF7B2FD2988012902D1FCF7B1FD0DE0B2
:1050200001212980FCF7ACFD1EB904A8FFF7DBFFC6
:1050300004AE002C18BFB8F1000F01D100205BE0D6
:1050400010A8FFF791FF7068149010A9307A8DF8BE
:105050005800F879FFF77EFF00284DD068600823DC
:105060003068A860AC6285F82C802422002107A853
:10507000FDF734F9002608E0242000FB064007AACB
:1050800001210830FFF7DEF8761CF6B24645F3D36F
:1050900001208DF8340007AA012105F10C00FFF76B
:1050A000D1F83979DFF85802DFF84842014300911E
:1050B00000A9BA7910434860DFF848227879104394
:1050C0008860FF20C860201DFFF703FE206098B1B4
:1050D000DFF83412DFF834020968B0FBF1F0FFF7B3
:1050E00079FF797920680122FFF798FE396811224B
:1050F000484600F0CAF8484619B0BDE8F0832DE9EB
:10510000F84F90B081461B9800F007008DF808001A
:105110008B46D9F8008098F82C008345174659D261
:1051200008F1080508F10C002968FDF7B3F800281C
:1051300050D0286A1A9C242101FB0B00002C00F19E
:10514000080A2FD032220021384600F0AFFA00289A
:105150000EBF3226C61BF6B22022322103A8FFF76B
:105160001BFF3246394603A8FEF71AFF1098214666
:1051700000F0D1FA8019801C162827DA03A830180D
:10518000811C1098224600F0D6FA00F09DF9E8B193
:1051900000F023F800F028F803AA5946484600F02A
:1051A00043F90BE000F090F980B100F016F800F040
:1051B0001BF83A465946484600F036F9002259464F
:1051C000484600F0E0F85046FDF75CF808F10C00A6
:1051D000FDF758F811B0BDE8F08F9DF808200023C6
:1051E0005946484600F002B90020019000239DF87E
:1051F000080000907047026892F82C2091423CBF52
:10520000012200F0C0B87047006890F82C2091424D
:1052100000D3704770B508302423026A59438B18B5
:105220008D5801685C6803F108063046FDF732F8D6
:1052300048B11CB121462846FEF7AEFE3046BDE817
:105240007040FDF71FB870BD036893F82C30994289
:105250003CBF012300F0CAB870471CB500F00BF842
:1052600003D200F003F800F0DFF813BD012401942D
:10527000049C00947047046894F82C40A142704745
:105280004846BDE8F243FCF7FDBF2DE9F84300F0C6
:1052900027F800F03FF800F03BF800F01DF8074653
:1052A00000F03BF80028FBD107B13BE0BDE8F183FB
:1052B0002DE9F84300F014F80122FFF7AFFD00F0EC
:1052C00027F800F009F8074600F027F80028FBD17E
:1052D00007B127E0BDE8F1834A464146384642E03F
:1052E0000746044E7D683C683068884691462979B7
:1052F0007047000068030020B869000040420F00BA
:105300000000C08000008080906C0000A08601003A
:10531000A97930680022FFF781BD60688068006865
:10532000FFF75CBEA9793068BDE8F8430122FFF7BA
:1053300075BD38B50FF29814256800AB01F00F0465
:105340001D609DF80030D2188DF8002000AA9378D7
:10535000E3189370537803EB11115170032200A9E5
:10536000FFF793FF31BD00B585B000230393009292
:105370000293019100A900684068FFF7FAFD00B1AF
:10538000012005B000BD2DE9F84381461500D9F88C
:1053900000600F4605D0B16806F10C00FCF77AFFFB
:1053A00010B3B06A242179430F58081800F1080897
:1053B00025B1B1684046FCF76DFF90B1002422464C
:1053C00000214846FFF7B5FF802207EBC41148468D
:1053D000FFF76EFF641C082CF1DB2DB14046FCF793
:1053E00051FF06F10C004CE7BDE8F183F8B5144617
:1053F000006824225143826A8E5889181D4601F1A3
:10540000080725B181683846FCF744FF30B1802198
:1054100006EBC410FEF7C0FD05B100E0F1BD384653
:10542000BDE8F240FCF72EBF2DE9F84F06461546C1
:105430000C461F46284600F065F980460A9807EB9F
:10544000C0101FFA80FA3068826A242161438E58A6
:105450000B9C891801F108091CB1816800F02DF836
:1054600030B300270FF26C0B12E0213A02EB8202FC
:1054700092B2002303EB020C03EB010E1CF80BC0ED
:105480000EF806C05B1C052BF4DB002141717F1C6C
:1054900047450ADA062000FB07A17A5D8819202A11
:1054A000E3D10621FEF778FDF1E70CB1484607E0AD
:1054B000BDE8F18F01F1080901684846FCF7EABE32
:1054C000BDE8F24FFCF7DEBE29685046FCF7E2BEAD
:1054D000B010000000005F00000007000700147F0C
:1054E000147F14242A7F2A12231308646236495534
:1054F00022500005030000001C2241000041221C34
:1055000000082A1C2A0808083E080800503000003D
:105510000808080808006060000020100804023E27
:105520005149453E00427F40004261514946214178
:10553000454B311814127F1027454545393C4A49DF
:105540004930017109050336494949360649492957
:105550001E003636000000563600000008142241B6
:1055600014141414144122140800020151090632C3
:105570004979413E7E1111117E7F494949363E41AC
:105580004141227F4141221C7F494949417F09090C
:1055900001013E414151327F0808087F00417F41AF
:1055A000002040413F017F081422417F404040409D
:1055B0007F0204027F7F0408107F3E4141413E7F0D
:1055C000090909063E4151215E7F091929464649CC
:1055D00049493101017F01013F4040403F1F2040C8
:1055E000201F7F2018207F631408146303047804AD
:1055F00003615149454300007F41410204081020E6
:1056000041417F000004020102044040404040004C
:105610000102040020545454787F484444383844EC
:10562000444420384444487F3854545418087E0970
:105630000102081454543C7F0804047800447D405F
:10564000002040443D00007F10284400417F40007E
:105650007C041804787C0804047838444444387C7A
:1056600014141408081414187C7C08040408485402
:10567000545420043F4440203C4040207C1C2040A7
:10568000201C3C4030403C44281028440C505050D2
:105690003C4464544C44000836410000007F000044
:1056A0000041360800003E1C08000000C9B2830714
:1056B00006D0521E22D310F8013B9942F7D11FE0C9
:1056C000083A13D302F1040241EA012141EA0141FF
:1056D00050F8043B121F21BF4B40A3F1013C2CEAC0
:1056E000030C1CF0803FF3D0C9B2001F083210F841
:1056F000013B521E28BF91EA030FF8D818BF0120C2
:10570000401E7047002100E0491CC9B20A5C002A13
:10571000FAD1084670470022002801D101207047C5
:1057200005D54042012202E090FBF1F0521C012815
:10573000FADAD0B2704770B588B000AB0024B0FB85
:10574000F2F502FB1500C0B20A28B4BF3026372696
:1057500030181870280004D0641C5B1CE4B2202CA4
:10576000EDDB0020401C13F8012901F8012BC0B229
:105770008442F7D20020087008B070BD00B583B035
:105780000821ADF8001001900321ADF8021000A827
:10579000DFF88C150968884707BD00B58FB008236E
:1057A0003C22002100A8FCF761FDDFF8780500F13C
:1057B0005001079100234FF42171089100AA0121A3
:1057C00006910FF23521FDF7C1FA0FB000BD10B5FB
:1057D00084B00820ADF800000120DFF84415DFF8A0
:1057E00048450968ADF8020000A88847BDF80400E4
:1057F00060800298A06004F13800FEF776FCE0605B
:1058000000230420019041F288320020009004F12E
:1058100014000FF2C941FEF71DFC00F0F5FA062155
:105820001F20FEF7C0F901208DF801000DF10102E3
:105830000020ADF80A00012101208DF80000502061
:10584000ADF808004FF44870ADF806000020ADF840
:1058500004004FF47A70ADF8020040F20530FDF715
:1058600079FA0DF10A02022140F20630FDF772FAD0
:1058700004F144021E214FF44270FDF76BFA04F16B
:105880006402072140F20730FDF764FA00AA012103
:105890004FF44470FDF75EFA02AA022140F2113083
:1058A000FDF758FA0DF10602022140F21230FDF721
:1058B00051FA01AA022140F21330FDF74BFA0DF123
:1058C000020202214FF44570FDF744FA04F16C0224
:1058D00015210020FEF769F8A0210620FEF763F9E4
:1058E000A0210720FEF75FF9A0210820FEF75BF951
:1058F000A0210920FEF757F90020019001AA0120FC
:105900008DF803008DF80200042100208DF80100BD
:1059100001208DF800004FF48160FEF799F90DF138
:10592000030201214FF48060FEF792F90DF10202AB
:10593000012140F20240FEF78BF90DF10102012135
:1059400040F20340FEF784F900AA012140F206402C
:10595000FEF77EF94FF0FF30FEF724F84FF0FF30EE
:10596000FDF7E9FF00F096FA4FF0FF3000F09CFBE6
:1059700001208DF8030002208DF8020003208DF82D
:10598000010004208DF8000001A80FF2A0310CC91D
:105990000CC00DF103020121002000F0B7FB012132
:1059A0000DF10202084600F0B1FB0DF101020121E8
:1059B000022000F0ABFB00F0F0F801AA0521042062
:1059C00000F0A4FB04F1900000F099FB04F18400C6
:1059D000FDF795FB04F18800FDF771FF6088C0B208
:1059E000FDF76AFF6088C0B2FDF7C2FF00210FF229
:1059F000443000F026FA1FBD2DE9F04F87B0FFF7C5
:105A0000E6FE0FF2F4380FF2F8390FF2543AC64DB1
:105A1000C34E11E0A88841070ED54FF6FB71084030
:105A2000A88005F11400FEF739FB00A9022000F060
:105A3000A9FB08B900F0B1F80820ADF804000A206D
:105A4000ADF806004FF0FF30029001A8316888479A
:105A50000028DFD10820ADF80C000920ADF80E00B9
:105A600003A831688847BDF81220059F00286CD133
:105A7000BDF810000124102804BF69888A4251D162
:105A800038884FF6FF72904225D1B878000749D583
:105A90002869002846D02978491C297000F108029D
:105AA00001794088FDF76CFF162818BF042883464B
:105AB0000AD02869698840880022C9B2FEF706FA30
:105AC000584600F06FF82DE0297805230A22504649
:105AD00000F0D0F926E03878B02823D1787816285D
:105AE0000BD178880822C9B2FEF7F0F9A8B90120D5
:105AF00000F058F82F61002414E038797E2803D193
:105B0000397A0FF2402004E07F2806D139890FF25C
:105B1000442005230A2200F0ADF9397907F1080085
:105B2000FEF7E4F88FB184B13846FFF727FE0CE0AA
:105B3000A07800F057F80820ADF804000294052082
:105B4000ADF8060001A831688847E868FAF762FDF9
:105B500000287FF45FAFE868FEF7F2FA0400F4D0A3
:105B600020880128E4D00228E5D1A07860B102287D
:105B7000E1D100A900F006FB9DF8001004230A22E1
:105B8000484600F077F9D6E700A900F0FBFA9DF847
:105B9000001004230A224046F3E700AA0121032053
