:040000050001F9D12C
:020000040000FA
:100000005844002009B3000071AB000071AB000040
:1000100071AB000071AB000071AB000071AB000070
:1000200071AB000071AB000071AB000071AB000060
:1000300071AB000071AB00003DAB0000DFF884083D
:10004000007D7047DFF87C28117D107508467047E9
:10005000DFF87018D1E90023C0E900237047DFF80A
:100060006408C0690047DFF85C18096A084710B5E2
:1000700002F0C9F938B1DFF8E448A06802F0CCF921
:10008000A0614FF0FF3010BD10B52020EFF31184B8
:1000900080F31188DFF8D0088068002102F0C0F9F1
:1000A00084F3118810BD000038B52020DFF8B8585F
:1000B000EFF3118480F31188A868002102F0B0F9F1
:1000C0006969081AA969814238BF002084F3118840
:1000D00032BD70B5DFF8906804460D46B068214621
:1000E00002F09CF93461756170BD2DE9F8438846D2
:1000F000DFF8781809680446DFF86C080F184FF02D
:10010000FF393D680BE0F069B1698847B08A012882
:1001100005D1F068A0EB0800484598BF8146BD4274
:1001200011D02E462D68B08A0128F8D1012C04BFC9
:10013000F0684045EAD13169002907BF0020B0824C
:100140000818F060DFE74846BDE8F28300000000D1
:10015000F8B52020DFF81048EFF3118780F31188FD
:10016000A068012102F05CF90121A1830021E18353
:10017000656921682268461B801A691A884204D280
:100180000020A08387F31188F1BD87F31188002038
:1001900005E04519361A29460120FFF7A6FF8642D9
:1001A000F7D22021EFF3118781F31188E18B012928
:1001B00003D129460020FFF798FFA16910F1010F34
:1001C00008BF084603D0801B814238BF084641194A
:1001D000FFF77FFF012020840020A083256087F3A4
:1001E0001188F1BD38B504461D46A2606869DFF884
:1001F0007C272061A1612146A869E0610020A082DE
:100200001268DFF86407101800F084F8288A18B123
:100210002046BDE832403DE031BD82608161002270
:100220000261C36182820146DFF84027DFF83807A8
:10023000126810186EE038B5DFF82C570446288C89
:10024000012804BFA88B002817D1A868012102F05B
:10025000E7F829686A692B68D21A411A8A420CD3D6
:10026000A2681118E1600123A3826B69181A824207
:100270000ED21046BDE834402BE7FFF705FFA1681A
:100280000818E0600120A082A88B012808BFE8833D
:1002900031BD000010B52021EFF3118481F31188E6
:1002A000FFF7C9FF84F3118810BD002181827047D8
:1002B00001617047816070477047808A704780B5E0
:1002C00000F001F8FCE738B50024DFF8905804E0AE
:1002D000686850F824008047641C28688442F7DB73
:1002E00031BD13E001680A6802605060084670473B
:1002F0000168814201D101207047002070474268A7
:1003000008604A6011604160704700BF4060006053
:100310007047F4E72023EFF3118283F3118808601C
:1003200043684B6043681960416082F311887047ED
:10033000016842681160416800684160704710B50B
:100340000446107E207261810021DFF8A008006859
:10035000001902F057F9002020600120606010BDF4
:10036000DFF888180968081802F060B938B5044643
:100370002020EFF3118580F31188207C022808D11A
:100380002046FFF7D5FF002020742946A06800F022
:1003900011FC85F3118831BDF0B50E4616F1010F41
:1003A00018BF002E8FB005460AD000AB3246DFF8EA
:1003B000401805A8FFF731FF05A80390022002E0CE
:1003C0000020039003208DF81000DFF8200800685B
:1003D00047192020EFF3118480F31188688978BBD6
:1003E00016B984F3118837E000F002FA00F0B0FA91
:1003F00000A98161029800F0B3FB00A93846FFF71D
:100400007EFF9DF81000022804BF0398FFF713FF3A
:1004100084F31188284600F0F3F92020EFF31184CB
:1004200080F31188039818B1FFF782FF0020039032
:1004300000200299886184F311889DF810000BE078
:100440006889401E6881039818B1FFF771FF00208A
:10045000039084F3118801200FB0F0BD70B50446FD
:10046000DFF88807006806192020EFF3118580F374
:1004700011883046FFF73CFF48B1207AC0074EBFD5
:1004800001206089401C608185F3118870BD00F0F7
:10049000AFF904463046FFF725FF01210174C1681A
:1004A00009B100228A822946806800F083FB85F327
:1004B00011882046BDE87040A2E100002DE9F84314
:1004C0000746DFF8FC47B86AD4F81090A568E668DC
:1004D0002061E760786AA060386A78620020B8839B
:1004E00020800120FFF7AEFD804640F2000CEFF3C4
:1004F00011808CF311883969F868BA689047202117
:10050000EFF3118081F311884046FFF79BFD012036
:100510002080C4F81090E660A560BDE8F18300007B
:10052000F8B5DFF89C4725696068B0FA80F0C0F143
:100530001F00616901EBC0063046FFF7D3FE074696
:100540003046FFF7D5FE00F098F8606840B1B0FA89
:1005500080F0C0F11F00616901EBC006B542EBD32A
:10056000F1BD000070B52020DFF85457EFF311847F
:1005700080F311886868B0FA80F0C0F11F006A69E2
:10058000296902EBC00081420ED200F031F9064623
:10059000DFF8040802F01AF90020288084F311889B
:1005A0003046BDE870402BE10020288084F311889C
:1005B00070BD10B5002404E02146002002F086F84A
:1005C000641CDFF8000700688442F5DB002000E0CF
:1005D000401CDFF8C81709688842F9D300F098BBBF
:1005E0000AE0DFF8DC060188481E8041C00F704732
:1005F000DFF8CC16FEE000005FF0000080B5A8B97F
:100600002021EFF3118081F31188DFF8B4164A68D6
:1006100022B180F31188FFF7A5FF02E00A8080F382
:10062000118800F0E5F8BDE80240E9E001BD0000F6
:1006300000B17047F8B5DFF888466068D0B1256929
:10064000B0FA80F0C0F11F0003E0B0FA80F0C0F112
:100650001F00616901EBC006B5420BD23046FFF7BF
:1006600041FE07463046FFF743FE00F006F860689B
:100670000028EAD100202080F1BD18B16068B96976
:1006800088436060384619E770B505462020EFF3CF
:10069000118480F31188A88B10B184F3118870BD88
:1006A0000120A883FFF7A4FF0646A86A2946FFF7A2
:1006B00026FEDFF80C06AA6941681143416084F305
:1006C0001188002E04BFBDE87040FFF74BBF70BD1E
:1006D00010B5DFF8E0480020208101E000F08AFA40
:1006E00060680028FAD06068B0FA80F0C0F11F009E
:1006F000A16901EBC0006169814209D22269606190
:100700000068206100F1100102F1100001F08EFE7E
:1007100020890028DFD110BD10B5DFF8B44820894A
:1007200008B1FFF7D5FF0020208040F2000CEFF366
:1007300011808CF3118810BD38B501F073FE00B341
:10074000002407E02146002001F0CDFF002100F049
:1007500065F9641CDFF8580800688442F2DB002465
:10076000DFF86C5806E0286B50F82400002100F0F8
:1007700055F9641CDFF85C0800688442F3D34FF03D
:10078000FF3032BD5FF0000010B594B02021EFF3D0
:10079000118081F31188DFF8384801E000F02AFA6F
:1007A00060680028FAD06068B0FA80F0C0F11F00DD
:1007B000A16901EBC0006061006820610020208118
:1007C0000220FFF73FFC40F2000CEFF311808CF3A6
:1007D00011882021EFF3118081F3118801F00DFEC3
:1007E000206900F1100104A801F020FE14B010BD32
:1007F000DFF8C017088801220A8070475FF0000008
:1008000000B1704710B52021DFF8C447EFF3118025
:1008100081F31188208920B1FFF7E3FE08B1FFF7CB
:1008200057FF0020208040F2000CEFF311808CF382
:10083000118810BD00B1704710B5DFF894472089CA
:1008400020B1FFF7CEFE08B1FFF742FF0020208065
:1008500010BDDFF87C07006970470000808F012819
:1008600000D0704710B52020EFF3118480F3118879
:10087000DFF85C07C168491EC16004D184F31188A8
:100880000020FFF7F0FB84F3118810BD70B5DFF88E
:1008900040070469FFF7ACFF05462020EFF31186FF
:1008A00080F31188204600F05BF903202075204674
:1008B000FFF7D4FF86F311882046FFF726FD284670
:1008C0004EE000009C1A002010B52021EFF31184A7
:1008D00081F311888068214600F06CF984F3118857
:1008E00010BD000000B9704730B58DB0024600ABB6
:1008F000DFF8E41604A8FFF790FC04A8039020207A
:10090000EFF3118480F31188FFF772FF00F020F8F5
:1009100000F026F90398FFF78EFC00A8FFF7F5FC1E
:10092000029900A8886184F311882846FFF768FFC0
:100930002020EFF3118480F311880398FFF7F8FC6F
:100940000020039084F31188029988610DB030BDB6
:100950000546DFF87C06006902907047701A002097
:10096000BDE870404CE70000701A0020C8B30000DA
:100970002DE9F04116460446B069A0600D46706A44
:10098000984610B9DFF8540600686062376A17B9F4
:10099000DFF84C06076801F04BFDF26941424AB3AB
:1009A00040B1401E801808402062381A10180840D4
:1009B000E06101E02262E7614FF0FF306062A56212
:1009C0003069E06270692063B06A6063B08DA087AF
:1009D000012804D1DFF8F805C168491CC16041460F
:1009E000204600F01BF80446404601F035FA90B16D
:1009F000E01C10E020B1C219521E1140E16100E07C
:100A0000E7610246E169606A434601F06DFA002839
:100A10002062D4D10120BDE8F081000070B50D4600
:100A200004462B46DFF8BC25DFF8BC1501F0FCFCC2
:100A30002061284601F010FA60BB012020750020DB
:100A4000A061A168DFF8880500290AD50021E160CE
:100A5000DFF898150968081820642146FFF75AFC4A
:100A600018E0A26801219140E160A168806901F06D
:100A7000C3FD2064FFF7BCFE05462020EFF311867E
:100A800080F31188204600F089F886F31188284603
:100A9000FFF7B6FE002070BD2DE9F84F04460D4665
:100AA000FFF7A6FE06462020EFF3118780F311889A
:100AB000D4F80880A84502D187F3118847E0002DBB
:100AC000DFF8F09407D5DFF8240500684FF0000A3E
:100AD00000EB090B06E0012000FA05FAD9F818002E
:100AE00000EBC50B207D012822D12046FFF720FC1A
:100AF000206CFFF7FDFB28B1D9F80400E1688843BA
:100B0000C9F80400D9F81000A04207D1C9F814B000
:100B10002146DBF80000FFF7FCFB03E021465846C6
:100B2000FFF7EDFBD9F804004AEA0000C9F8040019
:100B3000A560C4F80CA0C4F840B0002D44BF00204C
:100B4000C9F814000120A9F8080087F3118830467D
:100B5000FFF756FE4046BDE8F28F00006CB3000080
:100B60002DE9F0410446DFF86854266C6F68D4F82C
:100B70000C80FFF7DDFB3046FFF7BAFB10B127EA28
:100B8000080068602869A04204BF00206861022054
:100B9000207501202881BDE8F081000010B52021DA
:100BA000EFF3118481F31188214600F003F884F3F8
:100BB000118810BD2DE9F041DFF814647768044610
:100BC0000D46D4F80C80206C2146FFF798FB48EACC
:100BD00007007060202101202075308185F3118885
:100BE000EFF3118081F31188BDE8F081D4B30000E8
:100BF0006D03000080B5DFF8F803DFF8F823006824
:100C000090420DD140F2000CEFF311808CF311886B
:100C1000FFF759FB2021EFF3118081F3118801BD0B
:100C2000010013D140F2000CEFF311808CF3118816
:100C3000002001E00098401C009000980028F9D0A6
:100C40002021EFF3118081F3118801BD804720211D
:100C5000EFF3118081F3118801BD000080B501F030
:100C6000A0FB08B14FF0FF3002BD01F0C8BB01F09E
:100C7000C8BB01F0BEBB38B5044608461146049D0A
:100C80001A462B4601F096FB6060284601F0E4F816
:100C900000B1012032BD00B585B0002101A8FFF7E9
:100CA000E8FF039804E00099BE2008700098401CFB
:100CB000009000A900988842F5D305B000BD00005F
:100CC000141B0020D8B3000001F095BB10B5202103
:100CD000EFF3118081F31188DFF81C034169826909
:100CE000C90802EBC1010839016100244FF0FF314E
:100CF000016007E02146002001F0B0FB002100F078
:100D00004FF8641CDFF8F40200688442FFF6F2AF8B
:100D10004FF0FF3010BDFEB51746DFF8E422054660
:100D20000846DFF8D41268821E46C969126851F875
:100D30002010089C914210D001900021DFF8C402DD
:100D40000068009002918F23DFF8BC020188002226
:100D5000204601F097F80120FEBD00F0ADF8AF602D
:100D600070696860306A10F1010F08BFFF202874B5
:100D70000020318B01B10120B18C09B140F002009B
:100D8000E8602146284600F00BF80546204601F0B1
:100D900063F800B1E81CFEBD21050000DCB30000D3
:100DA00038B50446217BB4F912008907054602D5FF
:100DB000217C202907D2A16800F0C2F8B4F9120002
:100DC0004042608209E0DFF83002DFF84012406AFA
:100DD00040F82540284600F0B3F8217C284600F072
:100DE000D9F8207BC00744BF284600F087F80020D0
:100DF000E06032BD012900D1704710B5B0F9124052
:100E0000204600F059F8DFF8F8010168204600F0AC
:100E100097F8DFF8E411496A002041F8240010BD7A
:100E200010B5DFF8D401DFF8E821C169DFF8E4018B
:100E300001600368934211D0002302E041F823408F
:100E40005B1CDFF8D4412468A34207D20F2B32BFCA
:100E500052F82340DFF8A8412468EFE7DFF8BC210F
:100E60004168126821F47F4101EB0221DFF8B021D3
:100E70005118416020218176DFF8A8110968C1600E
:100E800010BD000040F2000CEFF311808CF31188CC
:100E9000704700002021EFF3118081F31188704723
:100EA00080F311887047000040F2000CEFF31180CE
:100EB0008CF31188704700001028DFF86C110FD3F5
:100EC000A0F1100252091038012300F01F0011EBAD
:100ED00082018340D1F80001C1F8803118400AE056
:100EE0000F2807D108690A6932F0020200F00200F7
:100EF0000A6100E0002000BF704700001028DFF802
:100F000028110FD3A0F1100252091038012300F06C
:100F10001F0011EB82018340D1F80001C1F80031BC
:100F200018400AE00F2807D108690A6952F0020246
:100F300000F002000A6100E0002000BF70470000DE
:100F4000DFF8B420D26942F82010704710B5DFF8FE
:100F5000DC40206901F04AFC0020206010BD30B563
:100F6000DFF8C820936943605469846025462A7875
:100F7000BE2A04D0012200210160104630BD0022AB
:100F80000029F8D015F8011BBE29FBD0691E591A9B
:100F90006118F1E7DFF890208218102802D382F858
:100FA000F0137047042828BF82F8141D7047000012
:100FB000E4B3000064180020DFF83C305B680122D5
:100FC0001A80DFF8502112681300FED0104700008D
:100FD00064180020F4B30000C9080000ECB300005E
:100FE000F0B300008D08000019070000E0B3000016
:100FF000E8B30000C7020000F0180020ACB3000006
:10100000B8B30000A4B30000C62E000081AA0000FF
:101010000000000008ED00E0A8B30000BCB3000031
:101020000000FA05B0B3000000E000E0F018002076
:10103000F8B507462021EFF3118081F31188FFF7FF
:10104000D7FB0446FFF7D4FA05460020FEF7FAFF67
:101050000646DFF8000AA749406AD1F8041DC9B264
:1010600050F82110CF6040F2000CEFF311808CF3A8
:1010700011884868896888472021EFF3118081F33F
:1010800011883046FEF7DEFF05EB0420F2BDC0B24A
:10109000FFF7CEBA000AFFF7CDBB7CB50446DFF8F8
:1010A000140B00880D4600281CBFE1690029164674
:1010B00003D0206ABE2201F0BDFB206B01902B46BD
:1010C000E06A00903246A16A206AE4692018001F95
:1010D00001F0F4FB76BDDFF8180B0068704701F0F3
:1010E00023BC80B5002301223421DFF83C0A01F043
:1010F000D9FE00B10120C0B202BDDFF8F81A0A68BB
:10110000002812BF42F001005008400008607047FC
:101110007047FEE7B4B3000080B5042001F0F6FE8E
:10112000022818BF03280DD1032000901C234FF084
:1011300040520021DFF8F00901F091FEBDE80240C5
:10114000042063E0DFF8E419DFF8E4290968DFF838
:10115000A80A12680818DFF8A81AB1FBF2F181603A
:10116000BDE80240FFF796B880B5DFF8C8090078FF
:10117000DFF8C40901688908890041F001010160B4
:1011800001F0D1FE01F05BFFDFF8B019002008602C
:101190000220DFF81C1A0968C9688847DFF8780A56
:1011A000016849084900016000F00FFA042000F0CE
:1011B0000BF900F0A4BCDFF84C1A405C7047002229
:1011C000012904D1012807D1DFF8000A03E0012832
:1011D00002D1DFF8480A026810467047DFF8180AA3
:1011E0000079704701F0B4BE10B52021EFF31184EF
:1011F00081F31188DFF8001AC9880120012908BF8E
:10120000FFF76FFF84F3118810BD000030B5202276
:10121000EFF3118182F31188B0FA80F2C2F11F025C
:10122000DFF8D839D25CB0FA80F4C4F11F04551E3F
:10123000E55405D1DFF8C029136823EA00001060E7
:1012400081F3118830BD00002DE9F0412021EFF33A
:10125000118481F31188DFF8AC19425C531E4354AA
:1012600044D1DFF8A419DFF8A48901EB80052E78BA
:101270006F88300618D5D8F80010096A38468847B4
:10128000D8F80010896A38468847D8F80010096BEA
:1012900038468847DFF8781901200860DFF87409BC
:1012A00000688007FAD514E0700606D5DFF8601AEA
:1012B00051F82710002088470BE0D8F80010896902
:1012C00038468847D8F80010496B384688470228C6
:1012D000F8D106F03F003F2818BFFFF7B5FF687848
:1012E00000F03F003F2818BFFFF7AEFF84F31188DE
:1012F000BDE8F08100E000E010B508B1140001D1B4
:10130000032010BD8160C26003610146DFF810292F
:10131000DFF8000A12681018FEF7FCFF002010BD6D
:10132000F8B504462020DFF8DC18EFF3118580F3D0
:101330001188625C531C6354002A3ED1DFF8C81840
:1013400001EB8407387800F03F003F2818BFFFF713
:10135000E7FF787800F03F003F2818BFFFF7E0FF75
:101360007E883878DFF8A478010613D53968C96912
:10137000304688473968496A304688473968C96ABB
:101380003046884700F036F8DFF8880800688007A4
:10139000FAD512E0400606D5DFF8741951F8261088
:1013A0000120884709E0396849693046884739682B
:1013B000496B304688470128F9D185F311882046CA
:1013C000BDE8F24000F0DABF2022EFF3118182F392
:1013D0001188DFF82428136803431360B0FA80F003
:1013E000C0F11F00DFF81428835C5B1C835481F379
:1013F00011887047DFF81818012008607047000056
:101400002DE9F04F4FF000080021012883B0C146BC
:101410008A4618BF022410D12022DFF8F878EFF3B3
:10142000118082F311883A79012A06BF02223A71AB
:10143000012180F3118809B10624BDE0FFF7D8F936
:101440000090012000F0E3F8040002D00120387180
:10145000AFE0FFF7CDF8DFF8B0190190C1F80090C8
:10146000012001F053FD012804D1002000F066FFA7
:101470004FF00108DFF8A448DFF888572168896831
:101480000020884700F0A1F8687C08B14FF00109FE
:10149000287C08B149F00209E87B08B149F0040949
:1014A000E87ADFF8646718B1A16AF08D096B8847A4
:1014B000A87A18B1A16A708D096B8847FFF79AFF67
:1014C00049F02000A16A896988470120FFF715FECD
:1014D0003878C00748BF4FF0010A12D4DFF82C0952
:1014E00001F0E2FD8346BBF1040FF7D000F067F88E
:1014F0008008800008600321A26CDFF810095268A0
:101500009047002001F0D8FD00F05FF8A06A806BE2
:101510008047BAF1000F0AD1A26CDFF8F0085268D8
:101520005946904700F04BF840F003000860012056
:10153000216889688847DFF8D80800688006FAD5EE
:10154000B8F1000F1CBF012000F0F8FEA16A496944
:1015500048468847A16A496B484688470128F9D11F
:10156000E87A18B1A16AF08DC96A8847A87A18B1DB
:10157000A16A708DC96A8847FFF73CFF0020FFF71A
:10158000BCFD03203871042000F041F8DFF8781822
:101590000120086000F019F801F09CFE082000F01E
:1015A00036F80446012038710198FFF727F801F05A
:1015B0001CFE0098FFF724F92046BDE8FE8FDFF8F7
:1015C000E008DFF8DC1800687047DFF838080068CA
:1015D0007047000038B52020DFF83857EFF311844A
:1015E00080F31188E888012803D101F005FD00206F
:1015F000E88084F3118831BD10B52021EFF3118408
:1016000081F31188FEF794FE84F3118810BD38B57C
:1016100000F024F80818FEF76BFE002540B92046BC
:1016200000F008F820B1DFF8800800688047022544
:10163000284632BD70B500F011F80D182E68B0685C
:10164000204206D03169F26820469047C0B2012896
:1016500003D03668AE42F2D1002070BDDFF8C0156D
:1016600009680446DFF8AC067047000030BF7047D9
:1016700070B501F02BFEDFF880552E6806F00C00E7
:101680000C2848D0700724D4FEF70EFD0446002134
:101690000120FFF794FDA0421BD2DFF80C04006884
:1016A0004519DFF88C040668DFF8F8070068B0FB1E
:1016B000F6F0201AA8602846FEF7ECFD4FF47A7089
:1016C000B0FBF6F200210120FFF79AFE0020A8826D
:1016D00023E030071FD4DFF84005DFF83045DFF89E
:1016E0002457F10601685ABF4908490041F0010139
:1016F0000160DFF8AC07016841F0030101602020C0
:1017000021688969884728682068806B80470120A4
:101710002860286801E0FFF7A9FF01F0DBFDBDE8C4
:10172000704001F08DBD000010B50C1801F0CEFD29
:10173000401E8041C00FDFF884170A68002AFCD0E1
:10174000246801220A6008B101F0C4FD204610BDE2
:1017500080B50420FFF738FE0820FFF735FE0E2085
:10176000FFF7DEFDDFF85807DFF858170068C0F311
:10177000815003280CBF012000200880DFF84807B3
:1017800002680AB1012002BDDFF8483740221A6022
:101790000122C2610020486002BDDFF8141410B5B8
:1017A0000968DFF8284782B00968202088470F20A1
:1017B0002060072341F61D5060604FF4C072022084
:1017C000009000F0C7F8DFF8080701210160016808
:1017D0008907FCD501212161DFF8E846218801292C
:1017E00007D1002101610220202100F08FF80120A3
:1017F00004E00121002000F089F80220606013BDA0
:101800002DE9F041DFF8D006DFF8B84682B0016874
:1018100042688A43426001616068002804BFBDE8F5
:10182000F341FFF7BABF0128DFF8B0161AD1022042
:10183000606008684BF2F52148436188000A11B1E5
:101840000021618006E0DFF898160968090210EBB4
:1018500011204008DFF88C160860000C4860012059
:1018600088600CE002280FD10868B0F5C06F02D183
:101870000020606045E00321616000F06FF8012105
:10188000BDE8FC41002041E003283DD1002060601C
:101890000868A0F5C065A06800F0B2F806462846C2
:1018A00000F0AEF886422CDAA669284600F0ACF8C3
:1018B0008019A061E56860699B4E85420ED0A769DA
:1018C000A7F1100000F09CF880462069103800F065
:1018D00097F8804502DABFB200970BE0ADB20095F1
:1018E00008234FF47F423021304601F0B8FA2069D6
:1018F00080B2009012234FF4F8020421304601F028
:10190000AEFABDE8F3418AE0BDE8F38170B50D465B
:10191000DFF8484682B0032121600021DFF84066ED
:10192000316031688907FCD480B2009005236022C1
:1019300000F010F80120306030688007FCD5A56108
:10194000002020600821DFF88C05C16001600120C3
:10195000206073BD0021744801F081BA70B506465D
:10196000714C82B030212046FFF7DEFEDFF854557F
:10197000C0F30720E86004212046FFF7D5FEC0F33E
:1019800084402861A6F5C060A8602E6900F03CF88C
:101990008019A861A969E868022909DA401E6FF078
:1019A0003F039842B8BF184610310BD5002109E01B
:1019B0001E2908DB401C4028A8BF3F2010392029E1
:1019C000A8BF1F21A9616861082380B200904FF46D
:1019D0007F42302100F011F80120009011234FF4D4
:1019E000003200F009F8A86980B2009012234FF489
:1019F000F80200F001F873BD0421204601F02FBA6F
:101A0000002848BF4042704700284CBF6FF00101DA
:101A1000022101EB4000032190FBF1F0704780B5FB
:101A2000DFF8AC040021016001688907FCD40021C3
:101A3000016041600120DFF8901408600E20FFF77C
:101A400003FC0820FFF7E2FBBDE802400420FFF79B
:101A5000DDBB0000F018002010B504460020D4E9DA
:101A60000A2347F6906101F03DFC012928BF4FF0A1
:101A7000FF3010BD10B50C4601F0ACFC011D201A62
:101A8000B0F1004F05D8081BB0F1004F38BF8C42B1
:101A900000D20C46DFF8E0231268526A2146BDE806
:101AA000104001201047000084B300002DE9F041F0
:101AB00080460A46D8E90A01D8E90C45A0FB02672E
:101AC00001FB0277A6196F41340C002244EA07415A
:101AD0004046FFF7CFFFC8E90E67BDE8F08180B54B
:101AE000DFF82C05006800281EBFDFF88803406877
:101AF000002804D0818811B1002100F0C3F84FF014
:101B0000FF3002BDDFF80805006800281EBFDFF8BF
:101B100064034068002806D0818821B1017B002938
:101B200008BF00F00DB8704700A00C4088B300005B
:101B3000CCB30000A03B002004400340401009400B
:101B4000F8B506462020DFF83453DFF8E075EFF3F0
:101B5000118480F31188286840F0800028600120FB
:101B6000B96849688847F96A096A14208847306962
:101B7000BA68526AB0F5802F34BF0421010C0120ED
:101B800090473A681268232100209047B968C969D4
:101B900001208847286820F4E02040F48030286045
:101BA000286840F00100286084F31188F1BD00002E
:101BB000A0010010D2330000DFF8BC0503684068C4
:101BC00000220021101859417047000094B3000012
:101BD000DFF8A412DFF89C0210B509684468496870
:101BE000012088476069A169BDE8104008470000EE
:101BF000C0B300000C200840B0150020603B00205E
:101C0000A0860100043B00201CAC0000B8010010BD
:101C100028200860282008408C21084098B3000044
:101C20008CB30000F8B504460D46FFF7C5FFD4E9B4
:101C30000A6732463B4601F055FB3DB1A6FB002347
:101C400006FB013307FB0033C4E90C23F2BD38B5B2
:101C5000DFF82842DFF8205220684008400020606A
:101C6000206840F0800020600120E062E06A29687E
:101C7000496801208847696A096A14208847E06A30
:101C800031BD000010B52021EFF3118481F31188DC
:101C9000FFF7DDFF84F31188002010BD70470000BE
:101CA0002021EFF3118081F31188704781F31188AF
:101CB00070470020704710B50446DFF8F404006850
:101CC00000220121001900F0DCFC0020606010BD42
:101CD00038B50446DFF8A8516068296988420BD0FE
:101CE000DFF8CC0400684FF0FF310019FEF754FB19
:101CF00028696060002032BD012032BD31B94160E9
:101D0000DFF8AC1409680818FEF7A8BB704700009C
:101D1000801B0020B01500200120704790010010AA
:101D20002DE9F04105461646EA69984630460F46C9
:101D3000A96901F061FBB8F1000F3C46766005D05F
:101D4000EA6908234146304600F064F8F66869699C
:101D5000CFB9079BAA68E86800F0F9F8070008BF48
:101D600000201BD000F0DCF96968396007F1080435
:101D7000696849687960696849680F6069684F6097
:101D800000F095F803E00839204601F071FB28685F
:101D900010F1010F18BF206000F023F8BDE8F081BA
:101DA000F8B505460C461646EA69A9691F4630464D
:101DB00001F022FB76602FB1EA69082339463046EC
:101DC00000F028F86869F668A0F10801204601F0E3
:101DD0004FFB286810F1010F18BF206000F001F8D8
:101DE000F2BD286908B171680151204670470800AA
:101DF000194606D0130004D011F1010F08BF104797
:101E0000104770472C2009400C4009400040034017
:101E1000141009402DE9F843D1F80C80D8F800904F
:101E20000446086815461E46AF1BA0EB0902BA42DD
:101E300088BF3A46204601F0DFFA256064603D190C
:101E4000B14588BFB146E5604A464146284601F0A3
:101E5000E3FA2E60BDE8F183DFF86C1309780129FD
:101E600004D118B1C06810B1012000E00020C0B258
:101E700070470000DC1B00208C010010002009408E
:101E80006418002010B584B0089C0294079C01944B
:101E9000069C0094DFF834432468A0471FBD00006F
:101EA000242208409CB3000090B30000FEE70146E6
:101EB000DFF80003006800F0C4BA000000800C40A6
:101EC000B43F0050F81A002004800C400C400C4035
:101ED00034600C402C500C4028500C4008400C4002
:101EE000102009403C600C402DE9F0410546984621
:101EF00084B00E4617464046FFF7AEFF044617B9BA
:101F0000DFF8CC020768002D12BF2846DFF8C402B4
:101F1000006843463A46314600F08CFA070012D179
:101F20001CB94046FFF798FF68B9DFF8AC020068BB
:101F30000090029601953423DFF8A0020188002268
:101F40004046FFF79FFF384604B0BDE8F08180B5FA
:101F50000093002300F006F802BD000000400C4092
:101F600038600C4070B51D46049B0C46FFF7BCFF63
:101F7000060003D02A46214600F05CFC304670BDC6
:101F80000A6942604A6982604969C1607047F8B570
:101F90000446DFF84C0200680D46174600F04FFA81
:101FA000616800267A1E0A4018BFBE1AA26873191B
:101FB0009A4203D2FFF77BFF0020F2BD7718521B35
:101FC000921B5918A2606160FFF771FF3846F2BD9D
:101FD000DFF810020088012800D07047E0B500202B
:101FE000029001905523DFF8000200680090002263
:101FF000DFF8F80101880020FFF744FF07BD00204B
:102000007047C2680A608068486088607047000056
:10201000A0B30000DFF8D801818801B1704738B55E
:10202000012181800024DFF8CC5104E0686850F879
:1020300024008047641C28688442F7DBDFF8B8017D
:10204000DFF8B85100688047002404E0686850F861
:1020500024008047641C28688442F7DB31BD2DE9E9
:10206000F0470D4600268246012DA4BFA90001F0CD
:1020700003FADFF87C71DFF88801C7F800A00024BC
:10208000D0F800800CE0DFF87C01006830F8140024
:1020900028B158F82410002088474AF82400641C0E
:1020A000AC42F0DB0120F880B14601E009F1010902
:1020B000DFF854010068814518DA0126002402E0A7
:1020C00000200640641CAC420EDA5AF8240010F1DD
:1020D000010F07D058F8241088474AF8240010F15F
:1020E000010FEDD10120ECE73000DFD01EB90FF277
:1020F000341000F008F800203860BDE8F08700BF19
:102100004FF0FF30704710B5044600F009F8204644
:1021100000F099F9DFF8F4000068BDE810400047CE
:10212000DFF8BC00006800F08AB9000084010010EC
:1021300038B50546FFF7F4FFDFF8D410DFF8D430E8
:102140004A681B6801249A4206DA0B6843F8225059
:102150004A68521C4A6000E00024FFF7A8FE2046AF
:1021600032BD10B5044600F00BF82046DFF8A81089
:102170000968BDE81040084708200940FEE7FEE76F
:1021800070B50446DFF82C00DFF88450FFF7CAFF73
:102190006E6806E0296801EB8601761E51F8041C82
:1021A0008847012E2046F5DABDE8704000F04DB9B1
:1021B000C4B300002CB40000184909680847184946
:1021C00009680847FEE7704782350000FCB300004D
:1021D000F41B002010B40000F8B300007E340000AF
:1021E0002CB400007634000000B400006E3400000F
:1021F000703B002074B3000014B400007CB30000F6
:1022000020B400001CB4000018B4000030B400007A
:10221000783B002038B4000034B4000024B400003F
:1022200028B400007864632E72756E74696D652E33
:10223000537461727475703A20276D6178506173C0
:1022400073657327206578636565646564000000C5
:1022500000B589B0082100A8FFF701FF09B000BD53
:10226000FEF73DBF00B581B00FF21D00FFF760FF24
:10227000FFF748FCFEF728FDFEF7B2F901B05DF864
:1022800004EBFEF77FBA000000B581B0FEF7B0F9AD
:10229000FEF7AEFA01B05DF804EB0320FDF7D2BE05
:1022A00010B504460320FDF7CDFE2046BDE81040E2
:1022B000FFF757BF00B581B0FDF7FEFFDFF804025E
:1022C000C06801B05DF804EBFEF7DEB9DFF8F0118D
:1022D000DFF8F40188617047DFF8F01101280CBFC6
:1022E00040F2FF70002008600020704730B581B0D8
:1022F000FEF7D0FDDFF8D8510446E88820B100F0A1
:102300007BFE60B10020E880FFF722FA054610202E
:10231000FFF77DF9012D0BD1FFF73FFA08E005210A
:1023200005F13000FDF7C6FF05F13000FDF7B2FF03
:10233000204601B0BDE83040FEF7B2BD10B501281F
:1023400018D100F0E3FD012816D000F03DFEDFF8C3
:1023500080410120E08004F13000FDF7A6FF052157
:1023600004F13000FDF7A6FF04F13000FDF792FF05
:10237000002010BD00F063FE002010BD10B5012448
:102380000E2805D1012000F0C1FD012805D003E091
:10239000DFF86C11405C00B90024204610BD00201D
:1023A0007047DFF8B400006810B14069C00F704793
:1023B00001207047F0B5044630208FB00D460090E4
:1023C0001E461346019602AA0021DFF8B801FFF766
:1023D000A7FC070009D0009602AB2A462146FEF76B
:1023E0009AFC3046FFF738FD00B1002738460FB0A1
:1023F000F0BDFEF7B4BDFEF745BDFEF7A7BDFEF785
:102400005BBDFEF77BBDDFF85000006810B1C0690E
:10241000C00F704701207047FFF71EBBFFF746BB98
:10242000FFF700BC01207047FEF737BE00F06CBA22
:10243000FEF751BE10B50468A468A04710BDFFF7B1
:102440002FBCFFF733BCFFF7B7BEFFF7B8BE09B923
:10245000DFF83411FFF7DEBC703B002001EB4102D6
:1024600008B9DFF8900200EBC2007047F0B58FB0FA
:1024700004463020149F00900D461646019702AA8C
:102480002146DFF80001FFF78BFC009702AB3246D4
:1024900029462046FEF73FFC3846FFF7DDFC0FB02B
:1024A000F0BD00B581B00121009100230146DFF8A5
:1024B000B822DFF8D000FFF79AFC01B000BD0000A1
:1024C000F0180020701A00200004000000000460D2
:1024D000B015002010B588B002AA0B9901911821FF
:1024E00000910146DFF81801FFF71AFC040008BF4D
:1024F000002003D002A9FFF7D1FB204608B010BD91
:10250000043B002010B588B002AA0B990191182154
:10251000009101460948FFF703FC040008BF0020B2
:1025200003D002A9FFF7C7FB204608B010BD09B9C8
:10253000DFF86412FFF76EBC0000000010B100006D
:10254000F0B504462C208DB00D4600901E46134673
:10255000019602AA0021DFF84402FFF7E1FB070021
:1025600009D0009602AB2A462146FEF784FB30468E
:10257000FFF772FC10B100200DB0F0BD38460DB071
:10258000F0BD0000D0B0000008AF000009B9DFF8CE
:102590001012FFF73FBC70B58CB0044601932420A5
:1025A00000900D46134602AA0021DFF8F801FFF75C
:1025B000B7FB060008BF002005D002AB2A46214623
:1025C000FDF710FE30460CB070BD70B58CB00446FF
:1025D000002001900D4624200090164602AA2146B4
:1025E000DFF8C001FFF7DCFB02AB3246294620468C
:1025F000FDF7F8FD0CB070BD08B100EBC1007047ED
:10260000F0B0000010B588B00446002001900B46E1
:102610001820009002AA2146DFF88C01FFF7C0FBCA
:1026200002A92046FDF75DFE08B010BD00B581B0DF
:10263000012100914FF0FF3301460022DFF86801CD
:10264000FFF7D5FB01B000BD09B9DFF86011FFF756
:10265000E1BB30B58BB004462420019200900B46BC
:1026600002AA0021DFF84801FFF75AFB050008BF66
:10267000002004D002AA2146FDF761FE28460BB0D7
:1026800030BD30B58BB00446002001900D462420AB
:102690000090134602AA2146DFF81401FFF780FBE1
:1026A00002AA29462046FDF74AFE0BB030BD00B510
:1026B00081B0012100914FF0FF330146DFF8F42093
:1026C000DFF8EC00FFF793FB01B000BD01EB410226
:1026D00008B9DFF8E40000EB0210704709B9DFF831
:1026E000DC10FFF797BB4C22514300B9344808185F
:1026F000704700008419002070B504463C2092B059
:10270000154600900B46019502AA00212D48FFF7BF
:1027100007FB060008D02B4602AA2146FEF728F93F
:102720002846FFF799FB10B1002012B070BD30466B
:1027300012B070BD70B504463C2092B00D460090BA
:102740001E461346019602AA21461E48FFF728FBA3
:10275000334602AA29462046FEF70AF93046FFF71B
:102760007BFB12B070BD0000F50D000010B58AB003
:1027700002AA0D9901912021009101461248FFF70C
:10278000CFFA040008BF002003D002A9FFF7F8FB2E
:1027900020460AB010BD000098AF000030B1000024
:1027A0005CB0000050B1000070B1000080B00000CB
:1027B00090B1000061030000B419002060AE000079
:1027C000D0170020B0B10000D0B1000010B5EFF379
:1027D0001484002C1CBF002181F314888047002C36
:1027E0001CBF022181F3148810BD000000B5EFF377
:1027F000038212F0FF0F0DD06A46A2F1200282F38D
:1028000009886FF0020E10604FF08071D1610849A5
:10281000916170475DF804EB694681F3098880F3A4
:1028200008884FF00200EFF3148180F3148870479A
:102830001528000062F30F2262F31F42401810F0C7
:10284000030308D0C91A1FD3DB0748BF00F8012DC6
:1028500028BF20F8022D130030B414461546103955
:1028600028BF20E93C00FAD8490728BF20E90C001E
:1028700048BF40F8042D890028BF20F8022D48BF2A
:1028800000F8012D30BC7047C91818BF00F8012DA1
:10289000CB0728BF00F8012D704750F8041B61B129
:1028A00050F8042BD30744BFA9F101039A18002361
:1028B000091F42F8043BFAD1EFE7704740F8043DA6
:1028C00040F8042D40F8041D019940F8041D0099BA
:1028D00040F8041D0B4940F8041D81EA0101A1F1F3
:1028E000010140F8041D40F8041D40F8041D40F8A3
:1028F000041D40F8041D40F8041D40F8041D40F874
:10290000041D7047192900002DE9F04FC0F800D0D0
:10291000D1F800D0BDE8F08F049880470098019965
:10292000029ADDF80CE0104710B5DFF86404046883
:1029300014F1010F08BF002400F004FEDFF8541466
:10294000002008600120DFF850140860DFF84C1404
:102950000860DFF84C04006828B1DFF8480400681C
:10296000204600F023F8DFF84004DFF84024016837
:102970008908890041F0005141F005010160DFF84C
:10298000300401686FF31B4111430160DFF8240438
:102990000168C1F30131012907D10168DFF818246A
:1029A000114041F400320260016010BD2DE9F84F82
:1029B0000446DFF8081401200860DFF80404016809
:1029C0000029FCD0DFF8FC53DFF8FC83C02028602E
:1029D000D8F80CA0D8F80810DFF8F00389075DBF1D
:1029E000D8F80410090C41F0F00172210170DFF8F1
:1029F000E0130968D8F80C20C1F304611629A8BFB8
:102A0000203901EB2271491C6FF009029142B8BFD5
:102A1000114601F01F0141F4F8510183CAF3C0616E
:102A2000DFF8B00381F001010160CAF3806181F039
:102A30000101816014B9DFF8A0732DE0DFF89C0379
:102A40000068C0F383615FEA8A32C0F38F2021D42B
:102A50004FEA0A4212160AD54FF6FF73400804D116
:102A60001846490804BF01210120521CF6D4012A4E
:102A700010DB400040F00100B0F5803F21BF012095
:102A8000490041F00101102924BF0F214FF6FF70CA
:102A9000521EECE740EA014700F018FC401E80415E
:102AA000C00FCF4E31680029FCD0DFF83893C9F849
:102AB00010700121316008B100F00CFC0CB9D82075
:102AC00008E0C64A10681168C0F3870001F00301EE
:102AD00040EA0120009040F2FF3700233A462C21C3
:102AE000C14800F0BCF91CB1BC48C06A8704BF0CE7
:102AF00000F0ECFB401E8041C00F31680029FCD083
:102B0000C9F814700121316008B100F0E3FB002C1A
:102B10000FBFB64FB148406A20F0033700F0D6FB34
:102B2000401E8041C00F31680029FCD0C9F80C70EC
:102B30000121316008B100F0CDFB0CB9AC4F04E0CD
:102B4000A648AC49006A01EA000700F0BFFB401E3E
:102B50008041C00F31680029FCD0C9F808700121FC
:102B6000316008B100F0B6FB0CB9A34F20E09B48E0
:102B7000806AD8F80830DB07C0F30352C0F3034182
:102B80000BD4D8F804301F0502EB27721B0482F324
:102B9000040201EB237181F30401090441EA0251AB
:102BA00082B242EA0107222C24BF00F08040074392
:102BB00000F08CFB401E8041C00F31680029FCD022
:102BC000C9F804700121316008B100F083FB2220B4
:102BD000222C824F06D3F86B000F00F0010040005A
:102BE00040F02000854908721120222C05D3F86B93
:102BF000400F00F0010040F01000202C08724FF050
:102C0000000B07D3B86CC10C01F44071C0F38450C1
:102C100040EA010B00F05AFB401E8041C00F3168B2
:102C20000029FCD0C9F820B00121316008B100F0C2
:102C300051FB6020202C06D3B86C000D00F003007F
:102C4000400040F060006D49C8728020222C06D3FD
:102C5000F86BC00E00F00100C00040F0800008706A
:102C6000222C4FF47C4006D3F86B400D00F03F005F
:102C7000800040F47C406249DFF888B10880202C55
:102C80000AD3B86C0203810A02F47C1242EA815131
:102C900000F00F0041EA003B00F018FB401E8041AD
:102CA000C00F31680029FCD0C9F800B001213160A3
:102CB00008B100F00FFB5448442101708821817055
:102CC0000CB9302105E0F96BC90C01F0030141F0AA
:102CD0003001C1704FEA9A5010F0030003D002286F
:102CE0003CD012D33CE00121042000F0EDF843F287
:102CF000BD70E86386202864012068644348016849
:102D00000029FCD0002068642EE0012000F0FEF8CD
:102D100004462146042000F0D7F8042000F0F6F81D
:102D2000A042FAD1D8F800301802000A81B2E96353
:102D3000000C286401206864344801680029FCD034
:102D4000002068644FF06022180E314B1B681B682E
:102D5000072198474FF48060C9F83800032100E04C
:102D60000221042000F0B0F8F8692A4900F03F0081
:102D7000087047F61800284908801049274800685D
:102D8000002028600860012025490860BDE8F18F17
:102D90001C130050840460425C600C400822044311
:102DA0008001284300012043044003400000390112
:102DB0004820034004000940FFFFFCFC10100940BC
:102DC0009402224300600C40A83F00505662084025
:102DD000B812005000002043FF0F0F0050130050A6
:102DE00000800C4008A00C4000A00C400000886847
:102DF0008A766800FFFFFC00273F710041A10C406C
:102E0000DCA10C4000803F4005A10C4084088C43AD
:102E1000B40100100BB00C4070B00C402C200940E5
:102E20009404604238B504460D4600F04FFA401E47
:102E30008041C00F1A490A68002AFCD0012D02D037
:102E4000022D02D003E0247802E0248800E0246808
:102E500001220A6008B100F03DFA204632BD38B5C3
:102E600000EB4100102B00F5007402D3103B241D31
:102E7000120C0498984040EA024500F027FA401EE0
:102E80008041C00F06490A68002AFCD02560012253
:102E90000A6000281CBFBDE8314000F01BBA31BDFC
:102EA00000800C4038B51D460818102D144602D37A
:102EB000103D801C240C0221FFF7B4FF04EA00013E
:102EC00088B2E84032BD220038B50446E0070D461E
:102ED00007D5A8B200900023012200216B48FFF71C
:102EE000BEFFA00707D5A8B200900123022200214F
:102EF0006648FFF7B4FF600707D5ADB2009502231F
:102F00000C2200216148FFF7AAFF31BD01460429C8
:102F100007BF1D234FF0C0421C234FF080525B4877
:102F20003421FFF7BFBF10B5594C216889680120D3
:102F30008847584801688906FCD5216909684020FE
:102F4000884721698968402088471128F9D110BD38
:102F500070B5054600F03EFA4F4C6168401A4FF4D8
:102F60007A714843060C00F0F7FA2169401A48BF0D
:102F70004042711940F6B932914207D2062805DA6B
:102F8000A068E168814201D3226852B943494A6886
:102F9000D2074FF4FA6016D40868C0B27D214843C6
:102FA00008E0081A3E494843000C00EB90009042AC
:102FB00038BF1046C82801D2C82070BDB0F57A6F5E
:102FC00088BF4FF47A6070BD10B582B001200090C8
:102FD00000232E4C012219462046FFF740FF012016
:102FE00000900346022200212046FFF738FF00F040
:102FF000F1F92949886013BD80B50120FFF786FFEC
:1030000001281AD00023012234212048FFF74AFF6B
:10301000A0B124480068804700F0DCF91E498B68A5
:103020000A68C860A2EB9202C01A1D4B5843000CFC
:103030000860904238BF10460860012002BD10B5FC
:1030400082B0002000900146104C0023012220464F
:10305000FFF705FF002000900146012302222046D1
:10306000FFF7FDFE1C234FF0805234212046FFF76E
:1030700019FF10B10B4800688047074C00F0AAF90F
:10308000606000F069FA206113BD000000A00C40F0
:103090009001001014100940183B0020AC3F005074
:1030A00040420F00800000100068010701D5042095
:1030B000704700F003007047F8B505467748784C34
:1030C0000068800705D50820A07176497648086019
:1030D000F1BD00F041FA754A1268002112F0030FA9
:1030E00018BF0121520748BF41F002010DB141F064
:1030F000040194F90720821A052A02DAA279914282
:1031000059D0A0F10F0200250023002A1FD402EBA2
:1031100002121312082B28BF07231D46072D28BFB4
:103120000625634E06EB850756F825507F687E1B03
:10313000F5B24F0744BFC6F307277D198F0744BF79
:10314000C6F307477D19CF0748BF05EB1665584EF4
:1031500056F82370FEB25FEA417C44BFC7F3072CE8
:1031600066445FEA817C44BFC7F3074C66445FEA6C
:10317000C17C48BF06EB1766A2EB03226A434D4BA6
:103180001D681B68A1718032092A92412D17C5F173
:1031900008053427D243DBB27D436B4306EBD27282
:1031A000B3FBF2F2B2F5803F28BF4FF6FF7200F397
:1031B0000700A280E07140480068A18820600020DC
:1031C0001F2904D21F21A18004E04908401CB1F549
:1031D000007FFAD20F39090940EAC100314A374964
:1031E0000843106000205060F1BD10B534480068FD
:1031F00084B224B300F0B0F9294991F90720904234
:1032000005DA6FF07F029042B8BF1046C871888817
:10321000844201D28C8010BD274A12680B68D21AF2
:10322000921C202A28BF1F22231A520823FA02F4D4
:103230002018B0F5803F28BF4FF6FF70888010BD82
:103240002048006800B9704710B41F498A6802F02E
:103250004063B3F1406F1ED04B689B071BD40F4BEC
:103260001C680968C1F303511C31090114F0050FF2
:1032700006D088420FD224F00500186010BC7047B9
:10328000814208D2100158BF44F00104500158BFD8
:1032900044F004041C6010BC7047000000000940AA
:1032A000683B002030100940FDFDA40024220840A6
:1032B0009C130050B43F00500820094000FFA48038
:1032C0003410094028500940AC3F0050EFF3108003
:1032D00072B67047EFF3108062B670470138FDD1C7
:1032E000704770471B4213D1094236D12AB1844638
:1032F000B0FBF2F002FB10C2704700F041B9FCD302
:103300000022002370470B000200002100207047BC
:10331000904271EB030CF6D370B5B1FA81F4B3FAB5
:1033200083F52C1BA340C4F1200532FA05F6334384
:10333000A2405FF00046E64002E05B085FEA32022E
:10334000841A71EB030524BF204629467641F4D345
:1033500002000B003000002170BD012ACFD970B5EA
:10336000140C20D0B1FA81F4B2FA82F5C4F1200431
:103370006419B4F12006D6D3B2405FF00044F440A3
:10338000002502E052085FEA3303C61A71EB020E11
:1033900024BF3046714664416D41F3D302000B00F7
:1033A0002000290070BD0C46B1FBF2F102FB114573
:1033B0002D0445EA1045B5FBF2F402FB145580B22A
:1033C00040EA0545B5FBF2F002FB105240EA04402A
:1033D00070BD010038B5FFF779FF06490C684D68EC
:1033E000401E8041C00F18BFFFF774FF280C40EA51
:1033F000044032BD0820094062B38B0708D0521E3A
:1034000011F8013B00F8013B00F024808B07F6D156
:10341000830740F0208000BF103A07D330B4B1E8F2
:103420003810103AA0E83810F9D230BC530724BF46
:10343000B1E80810A0E8081044BF51F8043B40F878
:10344000043BD20724BF31F8022B20F8022B44BFE3
:103450000B7803707047083A07D3B1E80810083AB0
:1034600040F8043B40F804CBF7D25307E4E70A00E6
:103470000022FFF7E3B90100002200F087B809003D
:103480002D480068000C00F00700032828BF4FF00B
:10349000FF30704729490968C1F30F314BF69A1282
:1034A00091424FF0FF3001D1002070474BF6BE1221
:1034B000914201D1012070474BF62032914208BF62
:1034C0000220704710B41D491D4B0A681B6809682B
:1034D000120FDBB2802B28BF0023C1F30F314BF654
:1034E0009A14A1424FF0FF300CD1012A08D0032AD0
:1034F0001DD0072A1DD0082A08BF03F1160013E0CB
:103500000A2011E04BF6BE14A14206D1002AF7D0E2
:10351000022A09D103F1140006E04BF62034A1423F
:1035200004BF002A03F10A0010BC40B27047142007
:10353000FAE71520F8E70000941200501813005025
:10354000A010005080B5FFF7A5FF18B9FFF7BAFF2C
:10355000162800DAFEE701BD0748084A816812789C
:103560000068C90352B2A0F54070C9135043A1EBE3
:103570002010803000127047285009400C13005072
:103580007047010062F30F2262F31F4200B500BFD3
:10359000130096469446103928BFA0E80C50FAD87C
:1035A0005FEA417C28BF0CC048BF40F8042BC90724
:1035B00028BF20F8022B48BF00F8012B00BD0000F7
:1035C00020B108232C220021FEF7B1BF704720B1A3
:1035D00008233C220021FFF781B8704780B5FDF732
:1035E00007F9ADF80000FDF755FCADF802000098B2
:1035F00002BD01B5BDF80200FDF752FCBDF80000A8
:10360000BDE80240FDF7FCB838B5DFF86048DFF8E8
:1036100060580020A4F8340BE820208040F64C20AD
:10362000A4F8E80004F1E8006860002000F003F866
:10363000A8606C6031BDF8B500240025061D16F0A9
:1036400003001CBF311D0E1AFFF7C8FFDFF820185A
:10365000B6B20860112EB4BF4F688F6839880B046A
:1036600003D581F40041002519E0A5B123883A88EB
:10367000134423809BB2B34211D327461946B7B1F6
:10368000891B89B20429A7BFF15346F40041398848
:1036900041F4004109E0B142F1DA01253C46CF197D
:1036A00039880029DBD1002701E027F8041BFFF748
:1036B000A0FF3846F2BD10B500F049F8DFF8B017AA
:1036C000221F086013885B045B0C13804B689A42CE
:1036D00038BF4A60BDE810408BE770B500F037F89E
:1036E0000021DFF890570C2202FB01F6725942B11B
:1036F000944203D1FFF77DFF701970BD491C082962
:10370000F1D320E070B500F022F8054600200C222D
:10371000DFF8601702FB0016316849B90020B0607D
:1037200034600022FEF795FF706018B900F072FC5B
:103730008C4204D12846FFF75CFF304670BD401C28
:103740000828E5D32846FFF754FF002070BD044643
:1037500044E738B5FFF7FBFF0025DFF81C170C2204
:1037600002FB0512128842B1944203D1FFF741FFD8
:10377000A8B232BD6D1C0B2DF1D3FFF73AFFFF202D
:1037800032BD10B504462088FFF7E3FFFF2800D1C3
:103790006FE1DFF8E4160C2202FB001081680800DC
:1037A00002D16FF0010010BD2046BDE8104008476F
:1037B00002460FF2B070104710B500200C21DFF860
:1037C000B426002401FB00F3401C9C509B180828E1
:1037D0009C60F7D30020DFF8A026034601FB0024FD
:1037E000401C0B282380F9D3082010800FF25D7055
:1037F0009060BDE8104007E770B590B0FCF7F8FFA7
:10380000044600A8FFF7E3FE0520069000224FF4CF
:103810004870089000A94FF001100490DFF85C0692
:103820000590DFF85C06FEF767FF050006D0FFF79E
:10383000D5FE06462846FFF765FF08B900F0EAFB0B
:103840003046FFF7D6FE2046FCF7DAFF10B070BD19
:1038500070B500F0E7F8FFF755FF0546FFF7BEFE2D
:10386000A2880021DFF810360C2606FB01331E88E3
:103870003EB91A805D60A2689A60A1816968216181
:1038800061E7B24204D1FFF7B4FE6FF0020070BDF1
:10389000491C0B29E6D300F0BDFB00BF38B500F092
:1038A000C1F8FFF72FFF050019D0FFF797FE0021A1
:1038B000DFF8C4250C2303FB0122138863B94FF6FC
:1038C000F8731380556000239360A1806968A1603C
:1038D000FFF78FFE002032BD491C0B29E8D300F012
:1038E00099FB00BF10B5044660680C3080B2FFF74A
:1038F000A2FE00B91AE06168018100210160FF2188
:1039000081720C30A060002010BD80B540680C387A
:1039100011E080B28FE610B50446606880B2FFF710
:103920008AFEA06000B901E0002010BD6FF0030026
:1039300010BD80B54068FFF7BEFE002002BD38B55F
:1039400004460D46FFF74AFE002145F80C1C21688D
:1039500011B9256006E0114651F80C2C002AFAD165
:1039600041F80C5CBDE8324043E62DE9F0410446E5
:103970006FF00206E068A0F10C05E0880B28BCBFE0
:10398000A0880B280BDAFFF729FEE188DFF8E8842E
:103990000C2707FB0181496819B9FFF72AFE304659
:1039A00017E0FFF726FEA0882871E0886871207A6A
:1039B000A871E088E16807FB008040680830FFF7E5
:1039C000BEFFE08807FB008040684068FCF746FDCA
:1039D0000020BDE8F08170B500F024F8FFF77DFE0F
:1039E00010B96FF0040070BD00F10806FFF7F6FD96
:1039F0003168002541B10D46A5F10C010A6832601D
:103A000000220A60FF228A72FFF7F3FDA560A5F18C
:103A10000C010DB9022070BD0879A0804879E080C2
:103A2000002070BD0446FCF714BF0B280BDADFF84A
:103A300048240C2303FB0020008800281CBF4FF6FD
:103A4000F872904202D14FF0FF307047088000209A
:103A50007047811D8088E8E710B50446E088FFF7CD
:103A600078FEFF2800D104E0E0802046BDE8104049
:103A70007BE74FF0FF3010BD3EB50446FFF7ABFFCC
:103A8000050017D1A08800A9FFF7CFFF78B1A06883
:103A900002900821ADF8041001A80321ADF806102A
:103AA000DFF8E013896888476FF005003EBDBDF878
:103AB0000000A08028463EBD10B5DFF8CC23126878
:103AC0000C464FF47A71A1FB00010023FFF70AFCBA
:103AD000002902D8B0F1004F02D36FF0020010BDF0
:103AE0002060002010BD38B5FFF79CFFFFF7F5FD03
:103AF0000546FCF7A3FA002818BF012800D015B925
:103B00006FF0040032BD606840B9009000996868A9
:103B1000FCF742FC401E8041C00F32BD10F1010F86
:103B200008BF4FF0FF30F0D000F050F90028EDD082
:103B300032BD80B54068FCF791FC002002BD00F06A
:103B400069FA00BF80B54068FDF791F8002002BD1A
:103B500080B54068FDF789F8002002BD80B5FDF70B
:103B6000A3F9FCF74BFE002002BD80B5FCF740FE38
:103B7000FDF790F9002002BD10B58CB0044600A8F6
:103B8000FFF71EFDE02000F013F808B900F042FA3C
:103B90000BE010B58CB0044600A8FFF711FDE068FB
:103BA00000F006F808B900F035FA00200CB010BD9E
:103BB00008900023A168606800AAFEF7C1BC10B598
:103BC0000446FCF761FA6060002010BD0146886879
:103BD00049680847F0B507468BB0BC68A94D6CBB77
:103BE0000C20FFF728FD04006FF003061ED0082309
:103BF0002422002101A8FEF7C9FC0020ADF8140022
:103C00000690079400237968A04801AAFEF7C3FC38
:103C1000206068B90820ADF800000C20ADF8020063
:103C200000A8A96888472046FFF745FD304618E000
:103C3000F86860603869A060BC600AE02868804766
:103C400006462068FCF731FB3869A0603046696899
:103C5000884779682068FCF72DFB2068FCF71AFB81
:103C600000200BB0F0BD10B5044682B0606800F0D3
:103C7000ADF820B9009860602046FFF7ABFF16BD95
:103C800080B5406810B96FF0020002BD0068FCF713
:103C90000CFB002002BD7C49096841600020704790
:103CA00050B50446784802686FF00046A6FB020152
:103CB00000234FF47A72FFF715FB002902D8B0F108
:103CC000004F00D330466060002050BD2DE9F04128
:103CD00086B00646FCF7BDFDFFF7FFFC044600205A
:103CE00002900025FCF7AAF9002818BF012800D08F
:103CF00014B96FF0040066E0706820B110F1010F94
:103D000003D14FF0FF30009004E000F05FF85FEA6D
:103D1000000857D1FCF7B8F900994FF001080F18C7
:103D200000E0009000996068FCF736FB80B303A8C0
:103D3000FFF751FE5FEA00081AD1BDF8100001A993
:103D4000FFF773FE80B9059ABDF81210BDF80400A4
:103D5000B368984740B1BDF80400B081BDF81200C7
:103D6000F0810598306113E0059902A8FFF7E7FD9F
:103D700000986D1C10F1010F18BF00284FF00108CA
:103D8000D0D0FCF781F9381A02D000998142C8D20C
:103D9000029EFFF723FC04F1080756B1314600E00C
:103DA000114651F80C2C002AFAD13A6841F80C2C33
:103DB0003E60FFF71EFC002D03E06068FCF74EFB41
:103DC0006D1EFAD1404606B0BDE8F08100A973E649
:103DD000F8B5FFF727FE0546FCF730F9002818BFB5
:103DE00001286FF0040613D0FFF7F8FB0021224AE8
:103DF0000C234B439F5A4FB19B185B681B68AB4227
:103E000001D1A18044E0491C0B29F1D3FFF7F1FB5C
:103E10003046F2BDF8B50446FCF710F9002818BF8B
:103E2000012802D16FF00400F2BDFCF712FD054637
:103E3000FFF7D4FBA788104A00210C234B439E5A5E
:103E40006EB1BE4208D1991849680968A9420CBFF1
:103E500001210021A1601BE0491C0B29EDD3FFF7D4
:103E6000C8FB4FF0FF30F2BD000000001C1C00201A
:103E70004C3B0020E439002060390020C01A0020AB
:103E8000B1370000681B0020CCB30000CD3B000020
:103E9000FFF7AFFB0020F2BD70B504463C20FFF7F2
:103EA000CAFB05006FF0030611D0FFF790FB207AE4
:103EB000A8610022608928622946E068286160685C
:103EC000FEF71AFC04462846FFF7F5FB0CB930460E
:103ED00070BD002070BD70B504462420FFF7ABFB19
:103EE00005006FF0030613D0082324220021FEF7FB
:103EF000ABFB2079012808BF2876A068002229465C
:103F0000FEF7A7FBE0602846FFF7D5FBE06808B99D
:103F1000304670BD002070BD10B5044682B0A06868
:103F200040B9009000996068FCF736FA401E804165
:103F3000C00F16BD10F1010F08BF4FF0FF30F0D0D9
:103F4000FFF744FF0028EDD016BD00004188292965
:103F500002D36FF0010070470FF2140252F82110E3
:103F60000847000083370000DD350000F33500000E
:103F7000513800009D380000E53800000B39000082
:103F800017390000333900006B390000D7390000C1
:103F9000593A0000793A0000E73A0000333B00004C
:103FA0003F3B0000453B0000513B00005D3B0000F3
:103FB0006B3B0000793B0000BF3B0000673C00000A
:103FC000973C0000A13C0000533A000085A7000088
:103FD0004DA80000CD3C0000D13D0000D53B0000C5
:103FE000813C0000E7A700001FA8000033A80000E4
:103FF000153E000085A80000A1A80000993E000021
:10400000D73E0000193F000097A80000AFA80000AD
:10401000933B0000012000F001B8000020210903BB
:1040200026311820ABBEF9E72DE9F84CDFF84479CA
:104030000C46002640F2013B92467B78398A97F87D
:1040400004C097F803E0B0EB0B0540F67B4232D09A
:104050006D1E37D06D1E3DD0AD1E41D06D1E00F0DF
:104060007D806D1E00F080806D1E00F08D806D1EC5
:1040700000F09D806D1E00F0A2806D1E00F0A780F4
:104080006D1E00F0AD806D1E00F0B280ED1E00F0E0
:10409000B7806D1E00F0BC806D1E00F0C1806D1EEB
:1040A00000F0C6806D1E00F0CB806D1F00F0D38045
:1040B000AD1E2ED0E7E0102C05D11022514607F19D
:1040C000A4008AE0102C40F0DC801022514607F159
:1040D000B40082E0042C6BD1DAF80000F862DDE075
:1040E000012C65D1BCF1010F36D09AF80000F870B0
:1040F000BEF1000F06D00028F1D1022B1BD0052BFA
:10410000EDD118E00028EAD0012B21D0042B1DD1DD
:104110001EE0012C4CD1BEF1010F1DD09AF8000019
:104120003871BCF1000F0AD0002807D1032B1CBF47
:10413000072B052B02D1C8B200F060FEAEE00028CC
:10414000FCD0012B1CBF042B062B01D0052B02D168
:10415000012000F008FCA1E012269FE0022C27D1EC
:10416000BAF80000B88299E0202C0EDA07F1CC06EC
:104170001F213046FFF77CF900F097F8388A7C71F0
:104180003346224601210EE0202C7ADA07F1EC06B4
:104190001F213046FFF76CF900F087F8388ABC71B0
:1041A000334622460021C0B200F00BFE73E0012C22
:1041B00067D19AF80000052863DAF8716EE0012CE7
:1041C0005FD19AF8000004285BDA387266E0062CAA
:1041D00057D10622514607F58670FFF70DF95DE0CD
:1041E000012C4ED19AF8000008284ADA787255E07E
:1041F000012C46D19AF80000042842DAB8724DE04A
:10420000012C3ED19AF8000002283ADAF87245E013
:1042100000F047F835D1811F914232D238833DE01A
:1042200000F03FF82DD1811F91422AD2788335E0EA
:1042300000F037F825D1B0F5FA7F22DAB8832DE007
:1042400000F02FF81DD1A0F10A0140F6774291420B
:1042500017D2F88322E0012C04BF9AF8000001284D
:104260000FD107F1800000F0BEFF40B900F020FB45
:10427000060013D107F15C0000F0BCFF0EE016262B
:104280000CE018260AE0272807DA022C05D1BAF834
:10429000001000F0C6FD064600E002263046BDE8EC
:1042A000F28CBAF80000022C704722465146304684
:1042B000FFF7A2B838B500244FF440730D46C21A78
:1042C000DFF8B01636D0521E36D0521E37D0521EEE
:1042D00038D0521E39D0521E3AD0521E3CD0521EF7
:1042E0003CD0521E3DD0521E3ED0521E3ED0521ED9
:1042F0003ED0521E40D0521E40D0521E40D0921E80
:1043000040D0521E40D0521E40D0521E40D0521EAD
:1043100040D0521E40D0521E45D0521E45D0521E93
:1043200045D0921E47D0521E14D0521E41D0521E6C
:1043300043D045E0887841E01022A4312FE01022DC
:10434000B4312CE0C86A286041E00622C43126E07E
:10435000C87833E0087931E0888A35E04A79CC3191
:104360001DE08A79EC311AE0C87927E0087A25E067
:10437000062201F5867112E0487A1FE0887A1DE076
:10438000C88A21E0C87A1FE0088B1DE0488B1BE03B
:10439000888B19E0C88B17E0062201F58A71284640
:1043A000FFF72AF813E0088C0EE0488C0CE0888CAC
:1043B0000AE0087B02E0487800E0487B287006E0CD
:1043C000272803DA00F049FD288000E00224204677
:1043D00032BD1CB5DFF89C45617889B900B1206316
:1043E00004F12C00019004F1B400009004F1A40346
:1043F000208AA1780022C0B200F09EFC002016BDE9
:10440000112016BD10B1DFF86C1548637047DFF856
:1044100064054178062918BF072905D1C18A008A99
:104420001322C0B200F0AEBC1220704700B58FB0AE
:1044300008233C22002100A8FEF750F9DFF83805D8
:1044400000F15001079100234FF4DC71089100AA9C
:10445000032106910FF2CD01FEF76CF90FB000BDFC
:1044600070B584B000F015F90120DFF81015DFF801
:10447000044509680FF20955ADF8020000A8884705
:10448000BDF8040020820298A062002060704FF600
:10449000FF70E08200F0FFFC2070002301200190FB
:1044A000294600200090024604F1380000F060FE2A
:1044B000022000F030F804F15C0000F059FE042006
:1044C00000F029F804F1800000F052FE0420A070F2
:1044D00004F1A40200200146034605462BC204F164
:1044E000B40506464BC5E062E0712072A172072058
:1044F0006072103A1021022000F0E3FD103D2A46C0
:104500001021032000F0DDFD042104F12C020846F7
:1045100000F0D7FD7FBD01902946002000900346A2
:1045200002467047FEB5FFF79BFFDFF84854DFF8FF
:104530004C4405F1800700F0ACF80A20ADF8020009
:104540004FF0FF30019000A82168884700284BD128
:1045500000F09FF80920ADF8020000A82168884704
:10456000BDF80610029E00283ED1BDF804001028B8
:1045700004BF288A81422DD130884FF6FF718842CE
:1045800009D17088400425D505F12C0204210420AE
:1045900000F0ACFD1EE03078A22805D0D02804BF82
:1045A000304600F07AF815E07079132812D130897E
:1045B000012804BFA87B022805D1384600F01AFE66
:1045C000FFF725FF06E0052000F047FC01463846CE
:1045D00000F0F4FD46B100F05CF80320ADF80200F5
:1045E000019600A821688847688AC10730D54FF630
:1045F000FE7108406882E9782879014328D018B113
:1046000003208DF800000CE0E8798DF80000062208
:10461000287A8DF8010005F586710DF10200FEF78C
:10462000EBFE687A8DF8080000A9A87A8DF80900D9
:10463000288AC0B200F0C1FB00281FBF08206870A4
:10464000286B002804D0016808001CBF0820884798
:10465000688A810706D54FF6FD7108406882002000
:1046600000F026F9688A41070AD54FF6FB71084029
:104670006882A87B012804D0022808BFFFF7C7FE84
:1046800059E70090EB8BAA8B698B288B00F044F9DB
:1046900051E70820ADF800007047F8B50546B54C65
:1046A000A878010004F58A7704F1800612D0022868
:1046B0003BD0032818BF04285BD0052800F0818078
:1046C000062800F0AB80072800F0CD800F2800F00E
:1046D000E980F1BD6878D8B904F1A4021021022064
:1046E00000F004FD04F1B4021021032000F0FEFCF0
:1046F0000622E91C04F1C400FEF77EFE0120607072
:1047000004F1CC03208A62790121C0B200F059FB88
:1047100008B108206070206B30B10168080003D038
:104720006078BDE8F4400847F1BD6878E8B9E878FA
:1047300048B1208AA27904F1EC030021C0B200F054
:1047400040FB687011E06078022818BF07280CD081
:10475000062802D12079012807D104F1380000F0A1
:1047600042FD10B9012000F0FEF868780028DBD087
:10477000CFE769780029CCD103280AD160780628D0
:1047800008BF0720C6D0E07800280CBF0320022015
:10479000C0E7A18AE078002907D0227910430AD027
:1047A00004F1380000F00AFD05E0012807BF0020F1
:1047B000E070002020716078072814BF04200620D4
:1047C000A8E7687820BB0622291D3846FEF714FEAC
:1047D0006889E08206206070E8892084288A6084E5
:1047E000688AA084E8782073E07A012809D11F2024
:1047F00000F033FB4FF47A71414304F15C0000F0A8
:10480000DDFC6A89E8780423291D00F0BCF982E701
:104810003128B0D10020E07004207BE7A88800F0A8
:10482000C9F906213846FEF723FE00202084608463
:10483000A084A879607304F15C0000F0DBFC3046D2
:1048400000F0D8FC4FF6FF70E082207908B1032019
:1048500060E7A87908280CBF0520042060700120BB
:1048600000F081F857E7304600F0C4FC6878002873
:104870000AD1E8882084288960846889A08404F1AA
:104880005C0000F0B0FC00287FF44EAF636B002B9F
:104890003FF44AAF1B68A28C618C208C01B0BDE84C
:1048A000F0401847A888BDE8F440052100F0ABBAF5
:1048B000FEB5304D298B0446288C884224BF698B75
:1048C000814207D3688CA98B884202BFA88CE98BF0
:1048D00088421ED0052000F0C0FA0646E88AADF8EE
:1048E0000000288BADF80200688BADF80400A88B9F
:1048F000ADF80600E88BADF8080000A800F03DFA1E
:10490000070007D1AC73314605F1800000F056FC7A
:1049100000E018273846FEBD70B5164C6578062DA8
:1049200001D0142070BD40F67A45861FAE423CBFD0
:104930008E1FAE4215D2B2F5FA7F12DAA3F10A0544
:1049400040F67646B5420CD220836183A283E3838E
:104950000498FFF7ADFF04F15C0000F04BFC002071
:1049600070BD182070BD03494A8A10434882886A86
:10497000FBF774BD600E0020E8300020701B0020A3
:10498000F1E70000E0B50821ADF800100190022128
:1049900000F00FF808B100200EBD02980EBD00B562
:1049A00083B00821ADF800100190032100F001F858
:1049B00007BDADF8021000A8DFF814130968084716
:1049C0001FB5ADF80610ADF804000824DFF8001399
:1049D0008DF808200393ADF80040ADF8024000A820
:1049E0000968884704B010BD30B585B01446082268
:1049F0000291ADF800201922DFF8D4120968019065
:104A0000ADF802201D4600A8884714B1BDF80C106F
:104A1000218015B1BDF80E102980089A0499116003
:104A200005B030BD00B583B00820ADF800001A20F5
:104A300000F014F810B9BDF804000EBDFF200EBD43
:104A4000E0B5ADF80000ADF80610002000F006F863
:104A500010B99DF808000EBDFF200EBDDFF87012E2
:104A60000968ADF8020000A8084750B110F1040F22
:104A700001D10420704710F1030F01D102207047CB
:104A8000012070478123037042EAC111002341F4E1
:104A90007C41C37081807047822303708180002332
:104AA000C370827170473EB504460820ADF800001F
:104AB0000D462020ADF802001020DFF8141209681E
:104AC000ADF8040000A8884720B9029810B16FF033
:104AD00004003EBD00950023002221464FF0FF3028
:104AE000FFF782FF3EBD10B51446CA78012A82B096
:104AF00003D18A88DFF858341A8000F010F858B9CA
:104B0000009000A92046FFF7CEFF28B9009844780E
:104B1000FFF745FF204616BDFFF7A7FF16BD0B4662
:104B2000022210214CE738B51C461546FFF7F7FF67
:104B3000B8B9009000A92846FFF7B5FF88B90098DA
:104B40004578002D04BFC079A04205D10098816846
:104B500004982246FEF750FC0098FFF720FF2846F5
:104B600032BDFFF782FF32BD38B500F0B5F9050060
:104B700004D0042200F032F8AC6026E031BD3C8164
:104B8000BD72FE604EE72DE9F04100F043F90700E9
:104B90000FD0142200F022F83C72FD603E8287F8AC
:104BA0001280FFF73FFF3946BDE8F041DFF8A4234C
:104BB00099E72FE038B500F030F8050001D0152254
:104BC00000E031BD00F00AF82C81FFF72BFF2B46E7
:104BD00001B0BDE8304002221021F1E601215BE77F
:104BE000002204215FE02DE9F04100F013F90700F5
:104BF00010D002220421FFF74FFFBC60BD81BE73BD
:104C0000C7F81080FFF70EFF3946BDE8F041DFF826
:104C1000482368E70420BDE8F08104460A20B1E695
:104C2000002203213FE000B583B00FF24903019356
:104C300006230093032300F04DF80EBD1078802862
:104C400002BF508840F27F61884208D19088984224
:104C500002BF91790098814201D101207047002064
:104C6000704710B582B00624FFE70094FFF7E6FF17
:104C700016BD00000323F4E71078802802BF508897
:104C800040F27F6188420CD19088032818BF042825
:104C900007D1907900281CBF1028112801D10120CC
:104CA000704700207047F8B500F0F4F907000CD009
:104CB00032462946FFF7F0FEBC60FFF7B3FE3946E7
:104CC000BDE8F840DFF894220DE70420F2BD0000B3
:104CD000701B00202DE9F04100F027F807000AD0F2
:104CE000069A4146FFF7D8FE3C817D81FFF749FFD8
:104CF000079A00F0DAB98DE742460321C2E670B5A3
:104D000082B000F042F9FFF78DFE1B210091C3B283
:104D100032462946204600F0E9F876BD10B582B04B
:104D20001D24009400F0E2F816BD04460D46164618
:104D300098461020FFF726BE2DE9F04180460D462B
:104D400016461F461820FFF71DFE040014D000224F
:104D500000F05DF800F0B1F920726572A672E760AC
:104D60000698206107986061FFF75CFE2146BDE868
:104D7000F0410FF28D22B6E64CE70FF289231122A3
:104D8000002106E1F8B500F0ABF807000FD00A22C9
:104D900000F03DF800F00DF838727D813E73FFF7AA
:104DA00041FE3946BDE8F8400FF25D229BE6042043
:104DB000F2BD21465020FFF743BE0FF251230622D9
:104DC000F8E02DE9F04180460D4616461F461020BA
:104DD000FFF7D8FD040010D0072200F018F800F00B
:104DE0006CF920726572A672E760FFF71BFE214620
:104DF000BDE8F0410FF2192275E60BE70FF215231B
:104E000008220021D6E00FF211231022ACE0042189
:104E1000FFF738BE04460D46164698461420FFF7A5
:104E2000B1BD70B500F014F806000BD03022FFF7CA
:104E3000EEFF00F009F83146BDE870400FF2DD12D8
:104E4000FFF751BE042070BD34817581FFF7EABDC4
:104E500004460D460C20FFF795BD30B583B00446DF
:104E60000020ADF8040000F013F805000DD0312249
:104E7000FFF7CDFF2C81FFF7D5FD01A9009102239B
:104E80000FF29D122946FFF74EFEBDF804003EBD0D
:104E90000A20FFF777BD1CB500208DF8040000F054
:104EA00012F804000CD01222FFF798FEFFF7BAFDAB
:104EB00001A9009101230FF26D122146FFF733FE85
:104EC0009DF8040016BD0820FFF75CBD04460D46A2
:104ED00016461020FFF756BD04460C20FFF752BDC2
:104EE00004460D4616460E20FFF74CBD2DE9F04155
:104EF000FFF790FF070011D0069AFFF7FEFE3C81F6
:104F00003E74FD6000F0D9F87874FFF78BFD3946E8
:104F1000BDE8F0410FF24D12FFF7E5BDFFF77ABE95
:104F200038B514460E4A15682A0006D0009302468A
:104F30000B4621460120A84732BD002032BD094A58
:104F400013681A0003D00A4601460120184770472B
:104F5000F81B0020855000008B500000794C0000A9
:104F6000883B00208C3B00202DE9F04100F00DF83B
:104F700098460C20FFF706FD070004D000F016F855
:104F80003C81BD728EE0FFF745BE04460D461646D5
:104F900070472DE9F041FFF7C8FE070004D000F08C
:104FA00005F8BC60FD607DE0FFF734BE32460421A9
:104FB000FFF768BD2DE9F041FFF7B7FE070006D007
:104FC000FFF7F4FFFFF7F5FE3872FD606AE0FFF7C8
:104FD00021BE1078802802BF508840F27F6188424D
:104FE0000CD190884FF680710140B1F57E4F04BF1F
:104FF00000F07F00984201D10120704700207047E7
:105000000023E6E71123E4E70A23E2E70623E0E7CB
:105010000723DEE70823DCE71023DAE73023D8E7AD
:105020003123D6E780B5122300930123FFF706FE54
:1050300002BD00001078802802BF508840F27F61D6
:1050400088420DD190884FF6807101404FF6805212
:10505000914204BF00F07F00984201D101207047C7
:105060000020704770B5FFF790FF1D23FFF7E2FFA8
:1050700030B9324629462046BDE870401B23D9E7A7
:10508000012070BD80B51423CEE780B502230093C4
:105090000423CBE704460D4616460C20FFF772BCEE
:1050A0003D81FE60FFF7BEFC42463946BDE8F04157
:1050B000FFF719BD3C817D81BE8141465020FFF73D
:1050C000BFBCF8B5FFF702FF07000DD0012200F0CA
:1050D00022F83C727D72FFF754FD3946BDE8F84076
:1050E0000FF26902FFF7FFBC0420F2BDF8B5FFF72D
:1050F000EDFE07000DD0022200F00DF83C727D722B
:10510000FFF73FFD3946BDE8F8400FF24502FFF7D3
:10511000EABC0420F2BD0521FFF7B4BC107880285A
:1051200002BF508840F27F6188420DD190884FF6CF
:10513000807101404FF68062914204BF00F07F0011
:10514000984201D101207047002070470123E5E714
:105150000223E3E700B583B00821ADF80010019009
:105160000521ADF8021000A853490968884707BD1A
:10517000F0B589B004460D4616461F460823242282
:10518000002100A8FDF702FA0F984C490968069023
:1051900000AB4FF47A70B0FBF1F101FB07F0059022
:1051A00001FB06F20E98ADF8100029462046FDF7E7
:1051B0000CFA204609B0F0BDFBF76CB838B50446D0
:1051C0000D46FBF77AF810B12046FBF76EF800F0B9
:1051D00031F800FB05F12046FBF76CF82046BDE8EE
:1051E0003240FBF757B880B5FBF767F800B10120F4
:1051F000C0B202BDFBF759B870B504460D46FBF7C7
:105200005CF820B12046FBF750F8012600E00026AC
:1052100000F010F8454329462046FBF74BF8294695
:105220002046FBF745F826B12046BDE87040FBF765
:1052300031B870BD214909684FF47A70B0FBF1F0C4
:10524000704710B504460021FDF7DCF9204610BD7B
:1052500070B584B004460820ADF800000D46042067
:10526000ADF802000C20144909680190164600A808
:10527000884758B9029949B18E602046FBF73FF83C
:1052800015B12846FBF7EAF8012003E03046FFF7A6
:1052900061FF002004B070BD10B50446FBF728F88C
:1052A00038B92046FBF71EF88468FFF753FF204605
:1052B00010BD002010BD0000701B0020CCB300000A
:1052C00040680068D0F80405084018BF0120C0B24B
:1052D000704740680068C0F80415704750F8041F14
:1052E00021F002010160704750F8142F01E050F8DE
:1052F000242F22EA01010160704770B50446FBF7D4
:10530000C9FDDFF8B4660546307850B114F0704F2F
:1053100004BF1020FBF77AFF0420FBF777FF002083
:1053200030702846BDE87040FBF7BABD38B5456817
:105330008468E86E00F0A6FBA86E00F080FD20688F
:10534000FFF7CCFF05F11C00FDF7ABF86079FBF728
:105350007BFF287818B905F13800FDF7A8F905F1A9
:105360009000FCF749F9FBF795FD002185F8A410A2
:10537000BDE83240FBF794BD2DE9F04147688668EF
:10538000202915464FF0FF3807F1680404D02BD3CD
:1053900022290BD006D327E0387B012818BF002034
:1053A00020721EE00020207280461FE0287840F026
:1053B0000041206841F4005100F0F0FCB0B93068C1
:1053C0002978B0F1804F20680CBF0B22232200F017
:1053D000B6FD97F85910206800F00DFD287887F881
:1053E00059004FF0000801E06FF001084046BDE8A9
:1053F000F0812DE9F041D0F804C080680B88046882
:10540000DFF8B855DFF8B8858E680CF15802B4F1B2
:10541000804F92F800E00FF20C6403FA0EF39BB297
:105420000CBF47462F4646B10FF2F05C5CF82EC029
:10543000C7F808C09E19761E04E054F82E60BE60BE
:105440000CF172067E6043F6F07C066808363E601A
:10545000D7F808E00E88761E0CEA061646EA0E0615
:10546000BE600768B7F1804F0CBF08F1100510351A
:1054700092F800804F683FB10FF2985454F82840DA
:10548000AC60DB195B1E03E054F82830AB60831D71
:105490002B60036808336B60AB680988491E0CEA0F
:1054A00001111943A960526952688168C368126882
:1054B00019439162006850F8241F41F00301016014
:1054C000BDE8F08170B50446A66830686568C169BA
:1054D0000162C90721D50121FFF706FF686D18B1E8
:1054E0002046BDE8704033E13068FFF7F7FE3068D2
:1054F0000321FFF7FCFE00F07EF93068DFF8C414EA
:105500000968B0F1804F0CBF4FF4807040F2011079
:1055100088472046BDE8704091E1F168E86EFFF7EA
:10552000CFFE30B130680221FFF7E1FEF16800F0F4
:1055300065F9B168E86EFFF7C3FE90B130680121EC
:10554000FFF7D5FEB16800F059F96E6D0020307498
:105550007068FFF7D2FE002068653146AA682046D1
:1055600046E170BD70474068002180F8A41000201B
:10557000DFF84414087070472DE9F0418046D8F8F0
:105580000450D8F8087096B00C46FBF783FC95F8E9
:10559000A410A9BB012185F8A410FBF781FC1CB95C
:1055A0000DA800F011FD0DAC0020686505F158064E
:1055B0002069286160696861207E2876207B2873D5
:1055C000207828706068686000203076606909285B
:1055D0008041C043C00F30707879FBF7A1FE404690
:1055E00000F02DF9F87C7070404600F04FF958B982
:1055F0007879FBF729FEFBF74DFC002185F8A41014
:10560000FBF74EFC002041E008233022002101A8D6
:10561000FCF71DFF0020CDF81880009001AB397910
:10562000DFF8A42305F11C00FCF720FF287888B9D7
:1056300008232422002101A8FDF706F801208DF897
:105640001C0001AA002105F13800FDF71AF80FF23D
:10565000B11000E0A068A86000F0EDF97061287B4F
:10566000012808D130690FF2A11100F02CFC30693B
:1056700008B1C0F808800020009043460FF269325C
:10568000042105F19000FBF737FE404616B0BDE857
:10569000F0812DE9F0410D46044628686668A76848
:1056A000002853D0FBF7F6FB716D21B1FBF7F8FB37
:1056B0000320287447E0012129747565FBF7F0FB8E
:1056C00006F16800017A31B196F85910BF4A0068B6
:1056D000114300F0E4FB3868DFF8DC8250F8041F67
:1056E00041F00201016020462946FFF782FE38683A
:1056F00050F8141F41F0010101606D68FBF7CAFB0F
:10570000074698F8000058B915F0704F04BF1020F4
:10571000FBF75AFE0420FBF757FE012088F8000033
:105720003846FBF7BDFB307878B9716806F1380070
:10573000FAF732FE48B9204600F00AF8002106F1D7
:105740003800FAF729FE002000E00120BDE8F081D2
:1057500070B504466568A668FBF79CFB696D002977
:1057600004BFBDE87040FBF79BBBFBF799FB3068BB
:10577000FFF7B4FD30680321FFF7B9FD00F03BF8F7
:1057800030680121FFF7B0FD306801210162B0F1FE
:10579000804F8C4909680CBF4FF4807040F20110B3
:1057A0008847204600F04BF8686D4068FFF7A5FD7C
:1057B000696D087C04281CBF03200874B268F36874
:1057C00001201A439040EA6E52681268D062306835
:1057D0000A68B0F1804F0CBF794878488068C0F300
:1057E0000910101A401E0860002068652046AA684B
:1057F000BDE870401047B068F1680143E86E68E5A5
:1058000040683830FAF72ABEF8B50546AC686068DB
:1058100000F15406707900F05CFB07467179284668
:1058200000F03DFB694800EA0701814206D131687A
:10583000042008742046BDE8F24089E7F1BD30B588
:105840008568446885B02868FFF748FD28680F21FF
:10585000FFF74AFD29680320086202A8FAF7F8FB5F
:105860006069019020690090217B0FF2881050F848
:1058700021300FF28810217E554C246850F82120E9
:10588000039928682468A04705B030BD70B5446806
:10589000856850492A7C04F10C0686B03378012BC8
:1058A00000A810D142F0004200926A7C114341608E
:1058B000A97C41F00041816094F8591041F0004109
:1058C00041F4005119E00A430092434B6A7C42F0D4
:1058D000004242F480424260327B002A18BF012A13
:1058E00007BFAA7C1143A97C19438160032194F866
:1058F0005920FF2A03D043EA0201C1600421FF229C
:1059000040F8212000A904F15C0000F00CFA002806
:10591000A0664ED00FF2DC02337852F823202968BB
:10592000012A20D1B1F1804F297C0CBF092221220C
:1059300000F005FB00F052F80CBF0A22222200F012
:10594000FEFA2868A97C00F04BF80CBF0C22242238
:1059500000F0F5FA286894F85910B0F1804F0CBFA8
:105960000B22232221E0B1F1804F297C0CBF0A22B7
:10597000222200F0E4FA00F031F80CBF09222122C3
:1059800000F0DDFA2868A97C00F02AF80CBF0C2290
:10599000242200F0D4FA94F85910FF2908D028687E
:1059A000B0F1804F0CBF0B222322A06E00F0C7FA8B
:1059B000012006B070BD00009F3B002000050020C4
:1059C0003004002078000010C5540000000006805C
:1059D000C4010010000480A00004C0A02868697CF5
:1059E000B0F1804FA06E704780B50846FFF727FFE3
:1059F000002002BD000000000100000000000000C7
:105A00000200000001000000030000001000000080
:105A100020000000018000C0018000D50180000C42
:105A20000180005D018000CC018000DD40680068DD
:105A30000121C1647047F0B5234C65682668687918
:105A40008DB0FBF76DFCFBF725FA0746307898B967
:105A500008233022002101A8FCF7F9FC002006945D
:105A6000009001AB2979194A301DFCF7FFFC012099
:105A70003070204600F01EF83846FBF711FA204639
:105A80000DB0F0BD38B505684468287888B16079F4
:105A9000FBF791FB012807D1216800204860281DF1
:105AA000FCF7FFFC002028706079BDE83240FBF76E
:105AB000CBBB31BD406802680021D1620068044957
:105AC000816001214160704798AB00002D5A0000B1
