:10000000D0430020014B000001CA011001CA0110B9
:1000100001CA011001CA011001CA011001CA011070
:1000200001CA011001CA011001CA011001CA011060
:0C00300001CA011001CA01103FCA0110F2
:10003C00000000000068010701D50420704700F0A3
:10004C0003007047EFF3108072B67047EFF3108027
:10005C0062B6704738B5FFF7F5FF06490C684D6876
:10006C00401E8041C00F18BFFFF7F0FF280C40EA7C
:10007C00044032BD082009400748084A81681278BC
:10008C000068C90352B2A0F54070C9135043A1EBEC
:10009C002010803000127047285009400C1300507B
:1000AC00704700007FC80110C9BC011051B201108B
:1000BC0037C20110BDAD0110C1B10110E90700003C
:0C00CC0071BA011069BB011021C00110C5
:100100003C0000000000000000000000340100007E
:1001100000000000000000000100000000000000DE
:1001200000000000000000000000000001000000CE
:0C013000000000000800000000000000BB
:10013C003400000000000000000000006801000016
:10014C0000000000000000000100000000000000A2
:10015C00010000000000000000000000080000008A
:04016C00000000008F
:1001700030000000000000000000000098010000B6
:10018000040000000000000001000000FFFFFFFF6E
:10019000FF00000001000000080000000000000057
:1001A0002C0000000000000000000000C40100005E
:1001B000040000000000000001000000FFFFFFFF3E
:0C01C000FFFFFFFF08000000000000002F
:1001CC0034050000E401000099A1011095A701106D
:1001DC00A5C2011009B2011045B8011000000000C1
:0801EC00000000002E000000DD
:1001F40028000000000000000000000014020000BD
:100204000000000000000000FFFFFFFF00000000EE
:080214000800000000000000DA
:10021C00300500003002000069C201106DC10110F0
:10022C001FC2011095BA0110000000000000000070
:04023C00300000008E
:10024000300500005402000075C20110A9B601106B
:100250009DBF011049B60110000000000000000021
:040260003100000069
:1002640024000000000000000000000080020000E4
:100274000000000000000000000000000800000072
:040284000000000076
:10028800240000000000000000000000A40200009C
:10029800000000000000000000000000080000004E
:0402A8000000000052
:1002AC00240000000000000000000000C802000054
:1002BC000000000001000000000000000800000029
:0402CC00000000002E
:1002D000000000002C0500200400000000000000C9
:1002E000000000002000000070010000300000004D
:1002F0001C02000034050020040000000000000083
:10030000000000000C000000300400001800000095
:10031000400200003C050020040000000000000036
:100320000000000024000000480400001800000045
:100330000000000044050020040000000000000050
:100340000000000010000000A00100002C000000D0
:10035000CC0100004C05002004000000000000005B
:1003600000000000200000006402000024000000E3
:10037000FFFFFFFF54050020040000000000000004
:100380000000000028000000880200002400000097
:10039000FFFFFFFF5C0500200400000000000000DC
:1003A00000000000580000003C0100003400000084
:1003B000FFFFFFFF640500200400000000000000B4
:1003C00000000000100000006004000018000000A1
:1003D000FFFFFFFF6C05002004000000000000008C
:1003E000000000001C000000AC020000240000001F
:1003F000FFFFFFFF74050020040000000000000064
:100400000000000038000000F40100002800000097
:10041000FFFFFFFF7C05002004000000000000003B
:100420000000000054000000000100003C0000003B
:100430001800000000000000000000004004000060
:080440000800000000000000AC
:100448001800000000000000000000005804000030
:08045800080000000000000094
:100460001800000000000000000000007004000000
:0804700008000000000000007C
:0804780001000000604B0000D0
:020480007047C3
:040484000100000073
:0404880000000C0064
:04048C0000000D005F
:040490003200000036
:040494000200000062
:04049800D403002069
:04049C00000200005A
:0404A0000000000058
:0404A40001CA011078
:0404A8000000000050
:0404AC00000000004C
:0404B0000800000040
:0404B4000000200024
:0404B8009C03002081
:0404BC00010000003B
:0404C000F404002020
:0404C400080000002C
:0404C8000000000030
:0404CC00000000002C
:0404D0000000000028
:0404D4000000000024
:0404D8000000000020
:0404DC00010000001B
:0404E00004040020F0
:0404E400060000000E
:0404E800010000000F
:0404EC00CC0200201E
:0404F0000000000008
:0404F4000000000004
:0404F80000020000FE
:0404FC0000000000FC
:020502002A00CD
:020504000100F4
:020506002500CE
:020508003000C1
:02050A003100BE
:02050C002E00BF
:02050E000100EA
:0105100001E9
:08051400040000002C4B000064
:08051C000000000000000000D7
:0405240000000100D2
:0405280000000300CC
:04052C0087C401106F
:04053000380500008A
:040534003805000086
:0405380000000000BF
:04053C00800000003B
:040540008000000037
:0405440000000000B3
:04054800F404002097
:04054C00FF1B000091
:040550002000000087
:04055400184B000040
:04055800B0000000EF
:04055C000DC30110BA
:0405600089130000FB
:040564008B130000F5
:0405680099C801101D
:04056C009BC8011017
:040570000000000087
:040574003C00000047
:04057800D847000060
:04057C00F047000044
:04058000C047000070
:0205840008006D
:0205860009006A
:02058800010070
:02058A0000006F
:01058C00016D
:040590000000000067
:040594000000000063
:04059800000000005F
:04059C00000000005B
:0405A0001B1200002A
:0405A40081120000C0
:0405A800FD10000042
:0405AC00AB1200008E
:0405B00061110000D5
:0405B4001911000019
:0405B800A911000085
:0405BC00ED1200003C
:0405C0007D1B00009F
:0405C400831D000093
:0405C800871D00008B
:0405CC000800000023
:0405D0002400000003
:0405D400180000000B
:0405D80028000000F7
:0405DC0020000000FB
:0405E0003C000000DB
:0405E4000C00000007
:0405E80034000000DB
:1005EC00DFF800F0F5C00110DFF800F049BA011097
:1005FC00DFF800F025C20110DFF800F0C1C20110D5
:10060C00DFF800F0E3BF0110DFF800F013C10110B8
:10061C00DFF800F0D5C00110DFF800F095C0011034
:10062C00DFF800F00DA80110DFF800F0BDBE0110DE
:10063C00DFF800F02DBF0110DFF800F0E1B501107C
:10064C00DFF800F021C10110DFF800F0D5C2011075
:10065C00DFF800F0D9C20110DFF800F0F1C501108D
:10066C00DFF8D000007D704738B5DFF8D000DFF838
:10067C00C8500068EFF3118480F31188A86800213A
:10068C00FFF7CAFF6969081AA969814238BF0020BF
:10069C0084F3118832BD00002DE9F041DFF89C0095
:1006AC00DFF894400768EFF3118887F31188A0688E
:1006BC000121FFF7B1FF0121A1830021E1836569CD
:1006CC0021682268461B801A691A884204D20020CD
:1006DC00A08388F311882AE088F31188002005E0B4
:1006EC004519361A29460120FFF79AFF8642F7D2A0
:1006FC00EFF3118887F31188E18B012903D1294687
:10070C000020FFF78DFFA16910F1010F08BF08460B
:10071C0003D0801B814238BF08464119FFF784FF84
:10072C00012020840020A083256088F31188BDE877
:10073C00F0810000A401002078010020584B00003B
:10074C00DFF8041009687047584B000000F018BE21
:10075C0080B5002301223421DFF8E40901F0CEF842
:10076C0000B10120C0B202BDDFF8DC1A0A68002813
:10077C0012BF42F0010050084000086070470000B2
:10078C007047FEE710B582B0042001F0EBF80228A8
:10079C0018BF03280DD1032000901C234FF04052AA
:1007AC000021DFF89C0901F086F8BDE81640042012
:1007BC0066E0DFF89419DFF8940A09680C18DFF882
:1007CC008C19DFF8980A0968B0FBF1F12046FFF7A5
:1007DC0013FF2046BDE81640FFF712BF80B5DFF8C7
:1007EC0070090078DFF8A40901688908890041F0D4
:1007FC000101016001F0C3F801F04DF9DFF8901927
:10080C00002008600220DFF88C190968C968884745
:10081C00DFF84C0A016849084900016000F017FA3A
:10082C00042000F00FF900F0AEBC000000220129FA
:10083C0004D1012807D1DFF8600903E0012802D1B7
:10084C00DFF8280A026810467047DFF8000A0079C2
:10085C007047000001F0A8B810B5DFF83C16096825
:10086C00EFF3118481F31188DFF8E019C9880120B6
:10087C00012908BFFFF76CFF84F3118810BD00003D
:10088C0030B5DFF81416DFF89C390A68EFF31181E4
:10089C0082F31188B0FA80F2C2F11F02D25CB0FA76
:1008AC0080F4C4F11F04551EE55405D1DFF89C29D2
:1008BC00136823EA0000106081F3118830BD00003A
:1008CC002DE9F041FFF73CFFEFF3118481F3118820
:1008DC00DFF87C19425C531E435444D1DFF8741981
:1008EC00DFF8748901EB80052E786F88300618D5F7
:1008FC00D8F80010096A38468847D8F80010896A79
:10090C0038468847D8F80010096B38468847DFF816
:10091C00541901200860DFF8500900688007FAD5E7
:10092C0014E0700606D5DFF8B01951F82710002036
:10093C0088470BE0D8F80010896938468847D8F802
:10094C000010496B384688470228F8D106F03F0062
:10095C003F2818BFFFF7B4FF687800F03F003F282E
:10096C0018BFFFF7ADFF84F31188BDE8F08110B517
:10097C0008B1140001D1032010BD8160C260036175
:10098C000146DFF8EC28DFF84C0912681018FFF765
:10099C004FFE002010BD0000F8B50446DFF8F80447
:1009AC00DFF8AC180068EFF3118580F31188625CF6
:1009BC00531C6354002A3ED1DFF8981801EB8407CE
:1009CC00387800F03F003F2818BFFFF7E5FF787834
:1009DC0000F03F003F2818BFFFF7DEFF7E88387815
:1009EC00DFF87478010613D53968C9693046884731
:1009FC003968496A304688473968C96A3046884739
:100A0C0000F038F8DFF8600800688007FAD512E0CB
:100A1C00400606D5DFF8C01851F82610012088478B
:100A2C0009E039684969304688473968496B30466E
:100A3C0088470128F9D185F311882046BDE8F2409A
:100A4C0001F086B9DFF850140A68EFF3118182F3D4
:100A5C001188DFF8F827136803431360B0FA80F0AD
:100A6C00C0F11F00DFF8BC27835C5B1C835481F34F
:100A7C0011887047DFF8EC17012008607047000000
:100A8C002DE9F04F4FF000080021012883B0C1463A
:100A9C008A4618BF022412D1DFF8FC03DFF8347841
:100AAC000268EFF3118082F311883A79012A06BFAC
:100ABC0002223A71012180F3118809B10624BDE0AC
:100ACC00FFF78EFD0090012000F0E6F8040002D044
:100ADC0001203871AFE0FFF79BFDDFF8281801907B
:100AEC00C1F80090012000F03DFF012804D1002046
:100AFC0001F00EF94FF00108DFF8E047DFF850572E
:100B0C00216889680020884700F0A1F8687C08B14A
:100B1C004FF00109287C08B149F00209E87B08B1C3
:100B2C0049F00409E87ADFF82C6718B1A16AF08D56
:100B3C00096B8847A87A18B1A16A708D096B884730
:100B4C00FFF798FF49F02000A16A896988470120C6
:100B5C00FFF70AFE3878C00748BF4FF0010A12D4DD
:100B6C00DFF89807FFF766FA8346BBF1040FF7D05E
:100B7C0000F067F88008800008600321A26CDFF8A1
:100B8C007C0752689047002001F00EF900F05FF8E6
:100B9C00A06A806B8047BAF1000F0AD1A26CDFF813
:100BAC005C0752685946904700F04BF840F0030040
:100BBC0008600120216889688847DFF844070068CD
:100BCC008006FAD5B8F1000F1CBF012001F0A0F887
:100BDC00A16A496948468847A16A496B48468847D3
:100BEC000128F9D1E87A18B1A16AF08DC96A884751
:100BFC00A87A18B1A16A708DC96A8847FFF73AFFC5
:100C0C000020FFF7B1FD03203871042000F044F8F8
:100C1C00DFF8F0160120086000F019F8FFF716FA5B
:100C2C00082000F039F80446012038710198FFF7CC
:100C3C0003FD01F052F90098FFF7D6FC2046BDE801
:100C4C00FE8FDFF8D006DFF8CC1600687047DFF8AF
:100C5C00C80600687047000038B58F48DFF8745636
:100C6C000068EFF3118480F31188E888012803D120
:100C7C0000F0EEFE0020E88084F3118831BD000006
:100C8C0010B5FFF75DFDEFF3118481F31188FFF7C9
:100C9C00D7FC84F3118810BD38B500F02AF8081879
:100CAC00FFF7B2FC002540B9204600F008F820B14F
:100CBC00DFF86806006880470225284632BD70B50B
:100CCC0000F017F80D182846FFF7BEFC0646B06872
:100CDC00204206D03169F26820469047C0B2012804
:100CEC0006D03046FFF7B4FC0646AE42EFD10020EA
:100CFC0070BDDFF87C1509680446DFF8D80570472D
:100D0C0030BF704770B5FFF79DF9DFF840552E687E
:100D1C0006F00C000C284BD0700727D4FFF7A4FC6E
:100D2C00044600210120FFF781FDA0421ED2DFF80E
:100D3C00140400684519DFF814040668DFF8E005B0
:100D4C000068B0FBF6F0211A2846FFF755FC284640
:100D5C00FFF756FC4FF47A70B0FBF6F2002101203D
:100D6C00FFF78EFE2846FFF743FC23E030071FD425
:100D7C00DFF8EC04DFF8E044DFF87C55F10601689D
:100D8C005ABF4908490041F001010160DFF88405B0
:100D9C00016841F0030101602020216889698847BE
:100DAC0028682068806B804701202860286801E053
:100DBC00FFF7A6FFFFF74AF9BDE8704001F0B8B89D
:100DCC0010B50C18FFF73EF9401E8041C00FDFF83C
:100DDC0060150A68002AFCD0246801220A6008B158
:100DEC00FFF734F9204610BD80B50420FFF72AFE2A
:100DFC000820FFF727FE0E20FFF7CEFDDFF82405B5
:100E0C00DFF824150068C0F3815003280CBF0120C3
:100E1C0000200880DFF8140502680AB1012002BD29
:100E2C00DFF8103540221A600122C26100204860B0
:100E3C0002BDDFF8601310B50968DFF8FC4482B01E
:100E4C000968202088470F202060072341F61D5099
:100E5C0060604FF4C0720220009000F0C9F8DFF817
:100E6C00DC040121016001688907FCD501212161A5
:100E7C00DFF8B4442188012907D100210161022047
:100E8C00202100F091F8012004E00121002000F065
:100E9C008BF80220606013BD584B00002DE9F04127
:100EAC00DFF89C04DFF8804482B0016842688A4312
:100EBC00426001616068002804BFBDE8F341FFF7A0
:100ECC00B8BF0128DFF87C141AD1022060600868D2
:100EDC004BF2F52148436188000A11B10021618071
:100EEC0006E0DFF864140968090210EB11204008D1
:100EFC00DFF858140860000C4860012088600CE092
:100F0C0002280FD10868B0F5C06F02D100206060D4
:100F1C0045E00321616000F06FF80121BDE8FC4160
:100F2C00002041E003283DD1002060600868A0F556
:100F3C00C065A06800F0B2F80646284600F0AEF88E
:100F4C0086422CDAA669284600F0ACF88019A0611C
:100F5C00E56860697A4E85420ED0A769A7F110004A
:100F6C0000F09CF880462069103800F097F8804516
:100F7C0002DABFB200970BE0ADB2009508234FF434
:100F8C007F423021304600F096FC206980B2009000
:100F9C0012234FF4F8020421304600F08CFCBDE81B
:100FAC00F3418AE0BDE8F38170B50D46DFF8A0434C
:100FBC0082B0032121600021DFF898633160316831
:100FCC008907FCD480B200900523602200F010F851
:100FDC000120306030688007FCD5A56100202060BE
:100FEC000821DFF85003C16001600120206073BD4F
:100FFC000021534800F05FBC70B50646504C82B0DF
:10100C0030212046FFF7DCFEDFF81C53C0F307202D
:10101C00E86004212046FFF7D3FEC0F3844028612A
:10102C00A6F5C060A8602E6900F03CF88019A86194
:10103C00A969E868022909DA401E6FF03F0398425B
:10104C00B8BF184610310BD5002109E01E2908DB6A
:10105C00401C4028A8BF3F2010392029A8BF1F21C1
:10106C00A9616861082380B200904FF47F4230215F
:10107C0000F011F80120009011234FF4003200F021
:10108C0009F8A86980B2009012234FF4F80200F01E
:10109C0001F873BD0421204600F00DBC002848BFA8
:1010AC004042704700284CBF6FF00101022101EB58
:1010BC004000032190FBF1F0704780B5DFF87C0213
:1010CC000021016001688907FCD4002101604160A6
:1010DC000120DFF8581208600E20FFF7F1FB082002
:1010EC00FFF7CEFBBDE802400420FFF7C9BB0000B0
:1010FC0010B504460020D4E90A2347F6906100F0AD
:10110C005DFF012928BF4FF0FF3010BD10B50C4614
:10111C00FEF7A0FF011D201AB0F1004F05D8081BE7
:10112C00B0F1004F38BF8C4200D20C46DFF82C22B5
:10113C001268526A2146BDE8104001201047000099
:10114C0000A00C403C4B0000404B00005C4B0000EE
:10115C007F3900202DE9F04180460A46D8E90A0182
:10116C00D8E90C45A0FB026701FB0277A6196F4179
:10117C00340C002244EA07414046FFF7C7FFC8E998
:10118C000E67BDE8F0814FF0FF3002BD0440034014
:10119C0040100940A00100104C4B0000F8B505466A
:1011AC00DFF8BC01DFF8BC610068DFF8BC71EFF35D
:1011BC00118480F31188306840F080003060012089
:1011CC00B96849688847F96A096A14208847286908
:1011DC00BA68526AB0F5802F34BF0421010C01208B
:1011EC0090473A681268232100209047B968C96972
:1011FC0001208847306820F4E02040F480303060D3
:10120C00306840F00100306084F31188F1BDDFF8E4
:10121C006001036840680022002110185941704792
:10122C000000000054390020DFF83011DFF82801ED
:10123C0010B5096844684968012088476069A1694C
:10124C00BDE81040084700000C20084008020020B0
:10125C001039002008480000B8010010A0860100D9
:10126C008C2108402820086028200840504B0000A2
:10127C00444B0000F8B504460D46FFF7C8FFD4E90F
:10128C000A6732463B4600F099FE3DB1A6FB0023AF
:10129C0006FB013307FB0033C4E90C23F2BD38B560
:1012AC00DFF8C040DFF8C4502068400840002060E0
:1012BC00206840F0800020600120E062E06A29682C
:1012CC00496801208847696A096A14208847E06ADE
:1012DC0031BD00000802002018050020900100100C
:1012EC0080B500F004F8000C40EA014002BDDFF8C4
:1012FC00840000688BE700002C200940004003406C
:10130C00141009400C40094009B9DFF86C10FFF7C4
:10131C00A3B90000242208402C200940484B0000AF
:10132C00544B0000B43F0050D804002004800C4003
:10133C0000800C402C500C400C400C4034600C4095
:10134C0028500C4008400C40102009403C600C40D8
:10135C0000400C4038600C40E40100208C0100106F
:10136C00584B000000200940840100108C01001033
:10137C0008200940EC010020A0010000FEE77047A6
:10138C0010B5DFF86404046814F1010F08BF0024E1
:10139C0000F0EEFEDFF85414002008600120DFF8A6
:1013AC0050140860DFF84C140860DFF84C04006837
:1013BC0028B1DFF848040068204600F023F8DFF875
:1013CC004004DFF8402401688908890041F000518D
:1013DC0041F005010160DFF8300401686FF31B4137
:1013EC0011430160DFF824040168C1F301310129C4
:1013FC0007D10168DFF81824114041F40032026073
:10140C00016010BD2DE9F84F0446DFF808140120E7
:10141C000860DFF8040401680029FCD0DFF8FC53F5
:10142C00DFF8FC83C0202860D8F80CA0D8F808108E
:10143C00DFF8F00389075DBFD8F80410090C41F000
:10144C00F00172210170DFF8E0130968D8F80C2064
:10145C00C1F304611629A8BF203901EB2271491C84
:10146C006FF009029142B8BF114601F01F0141F41F
:10147C00F8510183CAF3C061DFF8B00381F00101B8
:10148C000160CAF3806181F00101816014B9DFF859
:10149C00A0732DE0DFF89C030068C0F383615FEA62
:1014AC008A32C0F38F2021D44FEA0A4212160AD591
:1014BC004FF6FF73400804D11846490804BF0121B8
:1014CC000120521CF6D4012A10DB400040F0010030
:1014DC00B0F5803F21BF0120490041F001011029E6
:1014EC0024BF0F214FF6FF70521EECE740EA014774
:1014FC00FEF7A8FD401E8041C00FCF4E3168002979
:10150C00FCD0DFF83893C9F810700121316008B1B4
:10151C00FEF79CFD0CB9D82008E0C64A106811688B
:10152C00C0F3870001F0030140EA0120009040F273
:10153C00FF3700233A462C21C14800F0BCF91CB1FE
:10154C00BC48C06A8704BF0CFEF77CFD401E80417E
:10155C00C00F31680029FCD0C9F81470012131602A
:10156C0008B1FEF773FD002C0FBFB64FB148406AAF
:10157C0020F00337FEF766FD401E8041C00F316836
:10158C000029FCD0C9F80C700121316008B1FEF7BC
:10159C005DFD0CB9AC4F04E0A648AC49006A01EA09
:1015AC000007FEF74FFD401E8041C00F3168002937
:1015BC00FCD0C9F808700121316008B1FEF746FD76
:1015CC000CB9A34F20E09B48806AD8F80830DB07A1
:1015DC00C0F30352C0F303410BD4D8F804301F05F9
:1015EC0002EB27721B0482F3040201EB237181F3DB
:1015FC000401090441EA025182B242EA0107222C99
:10160C0024BF00F080400743FEF71CFD401E8041C4
:10161C00C00F31680029FCD0C9F804700121316079
:10162C0008B1FEF713FD2220222C824F06D3F86B53
:10163C00000F00F00100400040F0200085490872C6
:10164C001120222C05D3F86B400F00F0010040F064
:10165C001000202C08724FF0000B07D3B86CC10C93
:10166C0001F44071C0F3845040EA010BFEF7EAFC30
:10167C00401E8041C00F31680029FCD0C9F820B051
:10168C000121316008B1FEF7E1FC6020202C06D36B
:10169C00B86C000D00F00300400040F060006D4994
:1016AC00C8728020222C06D3F86BC00E00F001000B
:1016BC00C00040F080000870222C4FF47C4006D310
:1016CC00F86B400D00F03F00800040F47C40624914
:1016DC00DFF888B10880202C0AD3B86C0203810A89
:1016EC0002F47C1242EA815100F00F0041EA003B07
:1016FC00FEF7A8FC401E8041C00F31680029FCD0C9
:10170C00C9F800B00121316008B1FEF79FFC5448C4
:10171C0044210170882181700CB9302105E0F96BEE
:10172C00C90C01F0030141F03001C1704FEA9A502D
:10173C0010F0030003D002283CD012D33CE001216E
:10174C00042000F0EDF843F2BD70E86386202864B5
:10175C0001206864434801680029FCD000206864BB
:10176C002EE0012000F0FEF804462146042000F093
:10177C00D7F8042000F0F6F8A042FAD1D8F80030DF
:10178C001802000A81B2E963000C28640120686425
:10179C00344801680029FCD0002068644FF06022B6
:1017AC00180E314B1B681B68072198474FF480605B
:1017BC00C9F83800032100E00221042000F0B0F841
:1017CC00F8692A4900F03F00087047F618002849CC
:1017DC000880104927480068002028600860012014
:1017EC0025490860BDE8F18F1C1300508404604249
:1017FC005C600C4008220443800128430001204314
:10180C000440034000003901482003400400094013
:10181C00FFFFFCFC101009409402224300600C40B6
:10182C00A83F005056620840B812005000002043F8
:10183C00FF0F0F005013005000800C4008A00C400C
:10184C0000A00C40000088688A766800FFFFFC004E
:10185C00273F710041A10C40DCA10C4000803F40AF
:10186C0005A10C4084088C43B40100100BB00C4053
:10187C0070B00C402C2009409404604238B50446EA
:10188C000D46FEF7DFFB401E8041C00F1A490A6867
:10189C00002AFCD0012D02D0022D02D003E02478C6
:1018AC0002E0248800E0246801220A6008B1FEF7F7
:1018BC00CDFB204632BD38B500EB4100102B00F5B6
:1018CC00007402D3103B241D120C0498984040EA7B
:1018DC000245FEF7B7FB401E8041C00F06490A685F
:1018EC00002AFCD0256001220A6000281CBFBDE83C
:1018FC003140FEF7ABBB31BD00800C4038B51D4606
:10190C000818102D144602D3103D801C240C022103
:10191C00FFF7B4FF04EA000188B2E84032BD0000D2
:10192C0038B50446E0070D4607D5A8B20090002351
:10193C00012200216B48FFF7BEFFA00707D5A8B214
:10194C0000900123022200216648FFF7B4FF6007D4
:10195C0007D5ADB2009502230C2200216148FFF798
:10196C00AAFF31BD0146042907BF1D234FF0C04219
:10197C001C234FF080525B483421FFF7BFBF10B5DA
:10198C00594C2168896801208847584801688906A4
:10199C00FCD5216909684020884721698968402065
:1019AC0088471128F9D110BD70B50546FEF752FBDA
:1019BC004F4C6168401A4FF47A714843060CFEF79D
:1019CC005BFB2169401A48BF4042711940F6B9329D
:1019DC00914207D2062805DAA068E168814201D35A
:1019EC00226852B943494A68D2074FF4FA6016D4B8
:1019FC000868C0B27D21484308E0081A3E494843B4
:101A0C00000C00EB9000904238BF1046C82801D261
:101A1C00C82070BDB0F57A6F88BF4FF47A6070BD86
:101A2C0010B582B00120009000232E4C01221946E3
:101A3C002046FFF740FF01200090034602220021C0
:101A4C002046FFF738FFFEF705FB2949886013BDD8
:101A5C0080B50120FFF786FF01281AD00023012250
:101A6C0034212048FFF74AFFA0B124480068804782
:101A7C00FEF7F0FA1E498B680A68C860A2EB920266
:101A8C00C01A1D4B5843000C0860904238BF1046DA
:101A9C000860012002BD10B582B000200090014604
:101AAC00104C002301222046FFF705FF0020009078
:101ABC000146012302222046FFF7FDFE1C234FF0B6
:101ACC00805234212046FFF719FF10B10B480068F3
:101ADC008047074CFEF7BEFA6060FEF7CDFA206136
:101AEC0013BD000000A00C40900100101410094020
:101AFC0024390020AC3F005040420F008000001001
:101B0C00DFF800F049C10110DFF800F019C2011034
:101B1C00DFF800F00DC30110DFF800F081C60110F2
:101B2C00DFF800F095B70110DFF800F08DC201105E
:101B3C00DFF800F03DC20110DFF800F009C301101E
:101B4C00DFF800F045C00110DFF800F0D1C701103C
:101B5C00DFF800F067BE0110DFF800F021B30110D0
:101B6C00DFF800F011C80110DFF800F021C80110F7
:101B7C000C2811D0192814D01D2817D020281AD0C1
:101B8C0021281DD0252820D02A2823D02B2826D048
:101B9C002C2829D000207047DFF8E4010068006889
:101BAC007047DFF8DC01006840687047DFF8D0014F
:101BBC00006880687047DFF8C8010068C06870472B
:101BCC00DFF8BC01006800697047DFF8B4010068F9
:101BDC0040697047DFF8A8010068C0697047DFF8FA
:101BEC00A0010068006A7047DFF894010068406A41
:101BFC00704700B58BB00A2100A8FFF789FF0BB026
:101C0C0000BD00B581B0FEF7A1FDDFF87801DFF86B
:101C1C0078110068884218BF00F034F8DFF86C01C6
:101C2C00B0F5B26F03D001B05DF804EB2BE001B05E
:101C3C0000BD00B581B00FF22100FFF76DFFFFF77B
:101C4C006FFFFFF771FFFFF773FF01B05DF804EB57
:101C5C00FFF772BF0000000000B581B0FEF7D8FCA2
:101C6C00FEF7BEFC01B05DF804EB0320FFF768BF84
:101C7C0010B504460320FFF763FF2046BDE8104073
:101C8C00FFF762BFFEE7FEE700B581B0FFF760FF2C
:101C9C00DFF8FC00C06801B05DF804EBFFF75CBF37
:101CAC00DFF8F010DFF8F00088617047DFF8EC1017
:101CBC0001280CBF40F2FF70002008600020704724
:101CCC0030B581B0FFF71CFFDFF8D4500446E8882C
:101CDC0020B1FFF7BDFE60B10020E880FFF784F86B
:101CEC0005461020FEF7D8FF012D0BD1FFF7A1F808
:101CFC0008E0052105F13000FEF77EFC05F130000F
:101D0C00FEF77EFC204601B0BDE83040FFF7FCBE7C
:101D1C0010B5012818D1FFF725FE012816D0FFF7C2
:101D2C007FFEDFF87C400120E08004F13000FEF7FC
:101D3C005FFC052104F13000FEF75EFC04F130007D
:101D4C00FEF75EFC002010BDFFF7A5FE002010BDC5
:101D5C0010B501240E2805D10120FFF703FE012840
:101D6C0005D003E0DFF83C10405C00B900242046AD
:101D7C0010BD00207047FFF7F3BEFFF7F5BE000063
:101D8C00F001002098CA011070472820900500002F
:101D9C0078010020440100200004000000000460D1
:101DAC000802002010390020F8B505467748784C19
:101DBC000068800705D50820A07176497648086030
:101DCC00F1BDFEF759F9754A1268002112F0030FA4
:101DDC0018BF0121520748BF41F002010DB141F07B
:101DEC00040194F90720821A052A02DAA279914299
:101DFC0059D0A0F10F0200250023002A1FD402EBBA
:101E0C0002121312082B28BF07231D46072D28BFCB
:101E1C000625634E06EB850756F825507F687E1B1A
:101E2C00F5B24F0744BFC6F307277D198F0744BF90
:101E3C00C6F307477D19CF0748BF05EB1665584E0B
:101E4C0056F82370FEB25FEA417C44BFC7F3072CFF
:101E5C0066445FEA817C44BFC7F3074C66445FEA83
:101E6C00C17C48BF06EB1766A2EB03226A434D4BBD
:101E7C001D681B68A1718032092A92412D17C5F18A
:101E8C0008053427D243DBB27D436B4306EBD27299
:101E9C00B3FBF2F2B2F5803F28BF4FF6FF7200F3AE
:101EAC000700A280E07140480068A18820600020F3
:101EBC001F2904D21F21A18004E04908401CB1F560
:101ECC00007FFAD20F39090940EAC100314A37497B
:101EDC000843106000205060F1BD10B53448006814
:101EEC0084B224B3FEF7C8F8294991F9072090422F
:101EFC0005DA6FF07F029042B8BF1046C87188882F
:101F0C00844201D28C8010BD274A12680B68D21A09
:101F1C00921C202A28BF1F22231A520823FA02F4EB
:101F2C002018B0F5803F28BF4FF6FF70888010BD99
:101F3C002048006800B9704710B41F498A6802F045
:101F4C004063B3F1406F1ED04B689B071BD40F4B03
:101F5C001C680968C1F303511C31090114F0050F09
:101F6C0006D088420FD224F00500186010BC7047D0
:101F7C00814208D2100158BF44F00104500158BFEF
:101F8C0044F004041C6010BC7047000000000940C1
:101F9C005C39002030100940FDFDA40024220840CB
:101FAC009C130050B43F00500820094000FFA4804F
:101FBC003410094028500940AC3F00501B4213D14B
:101FCC00094236D12AB18446B0FBF2F002FB10C2B2
:101FDC007047FEF765B8FCD30022002370470B0056
:101FEC000200002100207047904271EB030CF6D3E5
:101FFC0070B5B1FA81F4B3FA83F52C1BA340C4F18C
:10200C00200532FA05F63343A2405FF00046E64065
:10201C0002E05B085FEA3202841A71EB030524BF0D
:10202C00204629467641F4D302000B0030000021F3
:10203C0070BD012ACFD970B5140C20D0B1FA81F43F
:10204C00B2FA82F5C4F120046419B4F12006D6D397
:10205C00B2405FF00044F440002502E052085FEA11
:10206C003303C61A71EB020E24BF3046714664412D
:10207C006D41F3D302000B002000290070BD0C460B
:10208C00B1FBF2F102FB11452D0445EA1045B5FBFD
:10209C00F2F402FB145580B240EA0545B5FBF2F0B0
:1020AC0002FB105240EA044070BD00002D4800684D
:1020BC00000C00F00700032828BF4FF0FF307047DA
:1020CC0029490968C1F30F314BF69A1291424FF02E
:1020DC00FF3001D1002070474BF6BE12914201D166
:1020EC00012070474BF62032914208BF0220704706
:1020FC0010B41D491D4B0A681B680968120FDBB22E
:10210C00802B28BF0023C1F30F314BF69A14A14248
:10211C004FF0FF300CD1012A08D0032A1DD0072A1A
:10212C001DD0082A08BF03F1160013E00A2011E0A5
:10213C004BF6BE14A14206D1002AF7D0022A09D1CF
:10214C0003F1140006E04BF62034A14204BF002A30
:10215C0003F10A0010BC40B270471420FAE71520B6
:10216C00F8E700009412005018130050A010005013
:10217C0080B5FFF7A5FF18B9FFF7BAFF162800DAEC
:10218C00FEE701BDDFF800F0D9C10110DFF800F067
:10219C00ADB50110DFF800F019AE0110DFF800F05A
:1021AC0041AC0110DFF800F0E5C10110DFF800F0E0
:1021BC00CDA00110DFF800F085C20110DFF800F0AF
:1021CC0081C20110DFF800F055C10110DFF800F0FA
:1021DC0043C20110DFF800F079AB0110DFF800F01A
:1021EC00D9B60110DFF800F085C10110DFF800F05E
:1021FC00EDB30110DFF800F0C1C1011020B10823CC
:10220C002C220021FFF780B8704720B108233C2214
:10221C000021FFF7B7BF704780B5FEF7E1F9ADF8C5
:10222C000000FFF76DFCADF80200009802BD01B58F
:10223C00BDF80200FFF768FCBDF80000BDE80240E5
:10224C00FEF7D2B938B5DFF86448DFF8645841F6C8
:10225C003C7100200853E820208041F65460A4F81B
:10226C00E80004F1E8006860002000F003F8A860C2
:10227C006C6031BDF8B500240025061D16F0030076
:10228C001CBF311D0E1AFFF7C7FFDFF82418B6B2BA
:10229C000860112EB4BF4F688F6839880B0403D5C2
:1022AC0081F40041002519E0A5B123883A88134434
:1022BC0023809BB2B34211D327461946B7B1891B71
:1022CC0089B20429A7BFF15346F40041398841F47F
:1022DC00004109E0B142F1DA01253C46CF193988B9
:1022EC000029DBD1002701E027F8041BFFF79FFF33
:1022FC003846F2BD10B50446FFF78EFFDFF8B01775
:10230C00221F086013885B045B0C13804B689A4295
:10231C0038BF4A60BDE8104089E738B50446FFF77E
:10232C007BFF00210C23DFF88C2703FB0125AA6C13
:10233C004AB1944204D1FFF77AFF05F1480032BD4F
:10234C00491C0329EFD3FFF772FF002032BD70B593
:10235C000546FFF761FF044600200C22DFF85417F6
:10236C0002FB001101F14806316849B90020B06048
:10237C0035600022FFF70AFF706018B900F068FCA6
:10238C008D4204D12046FFF752FF304670BD401CF1
:10239C000328E3D32046FFF74AFF002070BD38B571
:1023AC000446FFF739FF0025DFF808170C2202FB63
:1023BC000512128842B1944203D1FFF738FFA8B23C
:1023CC0032BD6D1C062DF1D3FFF731FFFF2032BD5E
:1023DC0010B504462088FFF7E2FFFF2800D169E121
:1023EC00DFF8D0160C2202FB00108168080002D125
:1023FC006FF0010010BD2046BDE8104008470246B2
:10240C000FF29C70104710B500200C21DFF8A426A9
:10241C00002401FB0023401C03289C641C65F8D39A
:10242C000020034601FB0024401C06282380F9D31E
:10243C00082010800FF251709060BDE8104001E749
:10244C0070B590B0FEF7CCF8044600A8FFF7DDFE9F
:10245C000520069000224FF44870089000A947F21E
:10246C0001000490DFF850060590DFF85006FFF7E6
:10247C0091FE050006D0FFF7CFFE06462846FFF773
:10248C0066FF08B900F0E4FB3046FFF7D0FE2046AB
:10249C00FEF7AAF810B070BD70B500F0E4F8FFF7C5
:1024AC0056FF0546FFF7B8FEA2880021DFF8043678
:1024BC000C2606FB01331E883EB91A805D60A268AB
:1024CC009A60A1816968216165E7B24204D1FFF786
:1024DC00AEFE6FF0020070BD491C0629E6D300F079
:1024EC00B7FB00BF38B500F0BEF8FFF730FF0500B2
:1024FC0016D0FFF791FE0021DFF8B8250C2303FB63
:10250C00012213884BB94FF6F873138055600023E2
:10251C009360A1806968A16015E7491C0629EBD37B
:10252C0000F096FB00BF10B5044660680C3080B21A
:10253C00FFF7A0FE00B91AE061680181002101607B
:10254C00FF2181720C30A060002010BD80B5406866
:10255C000C3811E080B28DE610B50446606880B28C
:10256C00FFF788FEA06000B901E0002010BD6FF0FD
:10257C00030010BD80B54068FFF7BCFE002002BD13
:10258C0038B504460D46FFF747FE002145F80C1CF4
:10259C00216811B9256006E0114651F80C2C002A6F
:1025AC00FAD141F80C5CBDE8324040E62DE9F0412F
:1025BC0004466FF00206E068A0F10C05E0880628DE
:1025CC00BCBFA08806280BDAFFF726FEE188DFF8EF
:1025DC00E4840C2707FB0181496819B9FFF727FE32
:1025EC00304617E0FFF723FEA0882871E088687159
:1025FC00207AA871E088E16807FB00804068083009
:10260C00FFF7BEFFE08807FB008040684068FFF7DB
:10261C00C5FD0020BDE8F08170B500F024F8FFF78F
:10262C007CFE10B96FF0040070BD00F10806FFF7D6
:10263C00F3FD3168002541B10D46A5F10C010A6886
:10264C00326000220A60FF228A72FFF7F0FDA5605B
:10265C00A5F10C010DB9022070BD0879A080487954
:10266C00E080002070BD0446FFF79CBD06280BDA05
:10267C00DFF840240C2303FB0020008800281CBF3B
:10268C004FF6F872904202D14FF0FF30704708803D
:10269C0000207047811D8088E8E710B50446E0886B
:1026AC00FFF77DFEFF2800D104E0E0802046BDE866
:1026BC0010407BE74FF0FF3010BD3EB50446FFF7EE
:1026CC00ABFF050017D1A08800A9FFF7CFFF78B1A9
:1026DC00A06802900821ADF8041001A80321ADF800
:1026EC000610DFF8DC13896888476FF005003EBDE3
:1026FC00BDF80000A08028463EBD10B5DFF8C4230D
:10270C0012680C464FF47A71A1FB00010023FFF70D
:10271C0055FC002902D8B0F1004F02D36FF0020033
:10272C0010BD2060002010BD38B5FFF79CFFFFF7EF
:10273C00F4FD0546FDF794FF002818BF012800D0D2
:10274C0015B96FF0040032BD606840B90090009973
:10275C006868FFF72BFD401E8041C00F32BD10F1A1
:10276C00010F08BF4FF0FF30F0D000F050F90028F7
:10277C00EDD032BD80B54068FFF710FD002002BDE2
:10278C0000F066FA00BF80B54068FFF713FD00202B
:10279C0002BD80B54068FFF711FD002002BD80B579
:1027AC00FFF710FDFFF712FD002002BD80B5FDF70D
:1027BC0017FFFFF7A5F9002002BD10B58CB0044639
:1027CC0000A8FFF71BFDE02000F013F808B900F09B
:1027DC003FFA0BE010B58CB0044600A8FFF70EFDD5
:1027EC00E06800F006F808B900F032FA00200CB0EE
:1027FC0010BD08900023A168606800AAFFF7EABC2E
:10280C0010B50446FFF7EAFC6060002010BD0146DD
:10281C00886849680847F0B507468BB0BC68A84D76
:10282C006CBB0C20FFF726FD04006FF003061ED0D6
:10283C0008232422002101A8FFF7D4FC0020ADF8C6
:10284C00140006900794002379689F4801AAFFF7AB
:10285C00CDFC206068B90820ADF800000C20ADF864
:10286C00020000A8A96888472046FFF743FD3046C0
:10287C0018E0F86860603869A060BC600AE02868FD
:10288C00804706462068FDF7B3FE3869A0603046E5
:10289C006968884779682068FDF7AEFE2068FDF707
:1028AC00AFFE00200BB0F0BD10B5044682B06068DE
:1028BC0000F0ADF820B9009860602046FFF7ABFF40
:1028CC0016BD80B5406810B96FF0020002BD0068FB
:1028DC00FDF78EFE002002BD7A4909684160002098
:1028EC00704750B50446774802686FF00046A6FB67
:1028FC00020100234FF47A72FFF760FB002902D823
:10290C00B0F1004F00D330466060002050BD2DE97F
:10291C00F04186B00646FFF745FCFFF7FEFC044687
:10292C00002002900025FDF79BFE002818BF01280F
:10293C0000D014B96FF0040066E0706820B110F19B
:10294C00010F03D14FF0FF30009004E000F05FF86E
:10295C005FEA000857D1FFF741FC00994FF00108DE
:10296C000F1800E0009000996068FFF71FFC80B31F
:10297C0003A8FFF751FE5FEA00081AD1BDF810005A
:10298C0001A9FFF773FE80B9059ABDF81210BDF8C6
:10299C000400B368984740B1BDF80400B081BDF89D
:1029AC001200F0810598306113E0059902A8FFF739
:1029BC00E7FD00986D1C10F1010F18BF00284FF0B7
:1029CC000108D0D0FFF70AFC381A02D000998142D6
:1029DC00C8D2029EFFF720FC04F1080756B131461D
:1029EC0000E0114651F80C2C002AFAD13A6841F853
:1029FC000C2C3E60FFF71BFC002D03E06068FFF71A
:102A0C00CDFB6D1EFAD1404606B0BDE8F08100A9A1
:102A1C0073E6F8B5FFF727FE0546FDF721FE002803
:102A2C0018BF01286FF0040613D0FFF7F5FB002147
:102A3C00204A0C234B439F5A4FB19B185B681B6871
:102A4C00AB4201D1A18041E0491C0629F1D3FFF72B
:102A5C00EEFB3046F2BDF8B50446FDF701FE00284A
:102A6C0018BF012802D16FF00400F2BDFFF79AFBEA
:102A7C000546FFF7D1FBA7880E4A00210C234B43D8
:102A8C009E5A6EB1BE4208D1991849680968A9428C
:102A9C000CBF01210021A16018E0491C0629EDD3CF
:102AAC00FFF7C5FB4FF0FF30F2BD00008C05002096
:102ABC004839002014380020BC0400200B240000EE
:102ACC000C0500205C4B00001B280000FFF7AFFB3F
:102ADC000020F2BD70B504463C20FFF7CBFB05008F
:102AEC006FF0030611D0FFF790FB207AA86100224B
:102AFC00608928622946E06828616068FFF74AFB14
:102B0C0004462846FFF7F6FB0CB9304670BD002092
:102B1C0070BD70B504462420FFF7ACFB05006FF0C8
:102B2C00030613D0082324220021FFF763FB20792E
:102B3C00012808BF2876A06800222946FFF726FB4B
:102B4C00E0602846FFF7D6FBE06808B9304670BD58
:102B5C00002070BD10B5044682B0A06840B900904A
:102B6C0000996068FFF722FB401E8041C00F16BD24
:102B7C0010F1010F08BF4FF0FF30F0D0FFF747FF07
:102B8C000028EDD016BD00004188292902D36FF032
:102B9C00010070470FF2140252F821100847000090
:102BAC00DD230000252200003B220000A5240000AC
:102BBC00F124000033250000592500006525000094
:102BCC0081250000B925000025260000A72600005D
:102BDC00C726000035270000812700008D27000044
:102BEC00932700009F270000AB270000B9270000A7
:102BFC00C72700000D280000B5280000E5280000BC
:102C0C00EF280000A1260000C54400008D450000FF
:102C1C001B2900001F2A000023280000CF280000D9
:102C2C00274500005F45000073450000632A000043
:102C3C00C5450000E1450000E12A00001F2B000003
:102C4C00612B0000D7450000EF450000E127000094
:102C5C00012000F001B800002021090326311820C2
:102C6C00ABBEF9E7DFF800F03DC10110DFF800F072
:102C7C0029AF0110DFF800F009B70110DFF800F000
:102C8C0079B50110DFF800F061C20110DFF800F037
:102C9C00E1C20110DFF800F0B9C20110DFF800F05A
:102CAC00F9BF01108069C00800F00100704750F8AE
:102CBC00382F11430160704750F8382F22EA010178
:102CCC000160704741647047406800F00F00704726
:102CDC00002141607047817BFF291CBFC07BFF280E
:102CEC0001D0012070470020704738B5FEF708FF6F
:102CFC00DFF8B4570446287820B90420FDF7A2FE6B
:102D0C00012028700CE038B5FEF7FAFEDFF8985772
:102D1C000446287820B10420FDF7B2FD002028706D
:102D2C002046BDE83240FEF7EFBE40687430FFF736
:102D3C0035BA40689030FFF731BA70B54468856891
:102D4C000E4606E0206A401C2062761E606A401C1B
:102D5C0060624EB1206ADFF8542712680178286847
:102D6C00926990470028EDD1304670BD70B545682A
:102D7C0086680C4608E0296B0870641E286B401CA2
:102D8C002863686B401C686344B1DFF8201709683E
:102D9C0030680969884710F1010FECD1204670BDED
:102DAC0070B504466568A668FFF7ADFF00F0E2FA5F
:102DBC00D7E270B5446804F1AC050E462846FDF721
:102DCC0017FC0FF24871627F207F51F8221008180F
:102DDC00C01D7043DFF8D8164843A169B0FBF1F071
:102DEC00DFF8D01609686430B0FBF1F12846FDF726
:102DFC0003FC2846BDE87040FDF702BCF8B504465C
:102E0C006568A66805F1AC073846FDF7F1FB30683C
:102E1C00FFF748FF88B1DFF89C1609684FF4FA7089
:102E2C00B0FBF1F1022938BF01213846FDF7E4FB74
:102E3C003846BDE8F240FDF7E3BBFFF764FF3068AE
:102E4C002021FFF739FF00F031FA25E270B5044676
:102E5C000D4620212868DFF86066FFF72DFF297BDF
:102E6C003068012200F002FD297B3068012200F05D
:102E7C001AFD297B3068002200F03CFDA97B3068EC
:102E8C00002200F037FDA078012805D12868FFF753
:102E9C0009FF0028FAD105E04FF0FF3104F174006E
:102EAC00FFF784F9297B3068102200F023FD2846B7
:102EBC00FFF711FF30B1A97B3068BDE870401122DB
:102ECC0000F018BD70BD2DE9F8438146D9F80860B3
:102EDC003068D9F80470046C2146FFF7F3FE14F443
:102EEC00F06F07F128052DD0600510D53068FFF77D
:102EFC00EBFE80463068FFF7EBFE2969212928BFDD
:102F0C00202100F050F817E02869401E286128693C
:102F1C0090B1012100F047F83068FFF7D5FE8046EC
:102F2C003068FFF7D5FEB8F1000FEDD0A868401E51
:102F3C00A860E868401EE86087F81F80484600F0EB
:102F4C00F9F91FE060060BD5296900F02CF828610F
:102F5C00687910B10020286111E0286900280DE083
:102F6C00E0060FD5287D471E2869874228BF0746F3
:102F7C00394600F018F82869C01B286102D1484670
:102F8C00FFF70EFFA0060CD52C6854B1214648461D
:102F9C00FFF7D3FE286020B9211D4846BDE8F44355
:102FAC0007E7BDE8F1834846E0E640680021017080
:102FBC000020DFF8F41408707047F0B5044665681B
:102FCC00A76897B00E46FEF79BFD297800294CD1D7
:102FDC0001212970FEF798FD1EB90DA81CF016F8FA
:102FEC000DAE307868707078A87070686860B068E2
:102FFC00A860F068E86030692861307D2875707DC4
:10300C006875B07DA875B069A861307F2877707F2E
:10301C006877B07FA87700202862286368626863AD
:10302C00A862A86385F82C0085F82D00102085F87F
:10303C003C00002085F83D00B868C0B2FDF7ACFC40
:10304C00204600F0A0F9204600F0F2F988B9DFF82C
:10305C005C1409683868C9688847B868C0B2FDF75D
:10306C002FFCFEF74DFD00212970FEF74DFD0020D1
:10307C004DE008233022002101A8FFF7F3FD0020CA
:10308C000694009001AB7968DFF8302405F1580004
:10309C00FFF7ECFD08232422002101A8FFF7AAF872
:1030AC0001208DF81C00A87840B901AA002105F177
:1030BC007400FFF7DFFDDFF808042861687840B979
:1030CC0001AA002105F19000FFF7D4FDDFF8F4030D
:1030DC00E86008232422002101A8FFF783F80020D0
:1030EC000690ADF81400079401AB0A22DFF8D81350
:1030FC0005F1AC00FFF7C2FD0020009023460FF253
:10310C00D932042105F14400FDF731FC204617B0FB
:10311C00F0BD38B544688568DFF89C03006800F0A2
:10312C0098FB286840F2F271FFF7C6FDDFF87C13BC
:10313C0009682868C9688847A868C0B2FDF7C0FB51
:10314C0004F15800FFF79EFDA07818B904F1740043
:10315C00FFF79CFD607818B904F19000FFF796FD1D
:10316C0004F1AC00FFF796FDFEF7CAFC00212170BC
:10317C00FEF7CAFC04F14400BDE83240FDF780BD07
:10318C00426820296FF0010002D0212905D0704738
:10319C00012082F82D0000207047002082F82D00BD
:1031AC0070472DE9F84304466668A7680D469146BA
:1031BC00FEF7A6FC8046B06A18B14046FEF7A4FCA8
:1031CC0038E006F1AC00FDF713FA0020F077356219
:1031DC0070624046FEF798FCFFF787FDBB4801681C
:1031EC0041F48071016020464946FFF7A6FDB062AC
:1031FC0048B949462046FFF7DCFDB078F8B900F035
:10320C0021F8D0B90DE038682021FFF750FDB078D7
:10321C00A8B900F017F880B949462046FFF7C9FD58
:10322C000020B06239461020F0773046FFF70EFED2
:10323C00FFF769FD4FF0FF3002E0706A00E00020FC
:10324C00BDE8F283B16806F17400FEF7AFBF6EE023
:10325C00F8B500F093F80746A86A40B93068FFF754
:10326C0021FD20B93846BDE8F240FEF74DBC0020E8
:10327C00A8623846FEF748FC3046FFF72CFD18B123
:10328C0031462846FFF7E2FD30682021FFF714FD98
:10329C0000F00CF8FFF737FD6A6A286A2B69811A6F
:1032AC002962204601B0BDE8F04018478748016804
:1032BC0021F4807101607047F8B5446885680E464A
:1032CC001746FEF71DFCA16B21B1FEF71DFC4FF05C
:1032DC00FF30F2BDE1776163A7632663FEF714FC50
:1032EC00FFF703FD7948016841F4007101604FF468
:1032FC00FA612868FFF7DBFC6078A8B9616804F113
:10330C009000FEF753FF68B9A0634FF4FA61286888
:10331C00FFF7D2FCFFF7F7FC206B616B401A2063C0
:10332C001020E077606BF2BD0020F2BD00BF4FF0C3
:10333C00FF30704770B500F021F8A96B002904BF6D
:10334C00BDE87040FEF7E0BB0021A963FEF7DCFB93
:10335C0000F010F85D48016821F400710160FFF77E
:10336C00D2FC6A6B286BEB68811A29632046BDE896
:10337C007040184730684FF4FA619DE40446656864
:10338C00A668FEF7BDBBF0B587B0044602A80FF2E5
:10339C005811464E14221BF067FE6568A46831680C
:1033AC002068C968884740F2F27720683946FFF7F1
:1033BC0083FC20683946FFF785FC05F13C0002AA26
:1033CC0041780078C00852F820000843216848630F
:1033DC0000A8FFF763FC05F118000FF22011027929
:1033EC0051F822100FF22412437952F823208379DA
:1033FC0035686D6811430FF21C1252F8232042EA13
:10340C000103026801992068A847314D286840F0F3
:10341C0010002860686840F0010068602046FFF7E3
:10342C005AFC18B1686840F44040686007B0F0BDC1
:10343C00F0B58468274D607B85B040F0004000906B
:10344C0000AE207B2843706008272046FFF743FC22
:10345C0038B1A07B40F00040B0601027E07B2843DF
:10346C00F060FF20B85100A9134D281D00F08CF915
:10347C002860B8B1617B0F2200F03CFA217B2868F0
:10348C00102200F037FA2046FFF725FC48B1A17B4B
:10349C002868112200F02EFAE17B2868122200F035
:1034AC0029FA012005B0F0BD7E390020D0010010B2
:1034BC0040420F005C4B000038390020D32E000036
:1034CC00372D00003F2D0000092E00003010004069
:1034DC002C1000400000C0A080B5042804BF084692
:1034EC00FFF751FF002002BD0000000008000000A3
:1034FC001000000018000000200000000000000078
:10350C0020000000400000006000000000000000EF
:10351C00080000000000000006000000020000008F
:10352C00860000008200000090FAA0F0B0FA80F053
:10353C00704780B5DFF8EC030068FFF7F5FF012159
:10354C00DFF8E423814011600121DFF8E0231160F2
:10355C00DFF8DC130A6890420BD201EB80014A6859
:10356C003AB11368190004D0C1B21046BDE804404A
:10357C00184701BDF8B50D00ECB244BF85F02045ED
:10358C0085F4C045A10001F1804101F5012100EA5B
:10359C0005060A68DFF89C733E4085EA0203824305
:1035AC003243034000F4E0261B0EB6F5E02F03F087
:1035BC00010302D1D30105D411E010F4E02F08BFB0
:1035CC00002B0CD002F4E023B3F5A02F04D0B3F5FC
:1035DC00C02F04D1052300E0062363F312420A60D6
:1035EC00410205D5A90DDFF8502301F00101115559
:1035FC0000020ED5FEF784FA00F050F92C024CBFF5
:10360C001C4600249A4322430A60BDE8F240FEF7B0
:10361C007BBAF1BD002948BF0021800000F1804039
:10362C0000F5012001F03F010268920941EA821184
:10363C00016070472DE9F04F97B08146FEF740FDD1
:10364C000025012804D1FEF731FD022808BF012511
:10365C00DFF8E802C168C1F3815101294FF0010A7A
:10366C0004D10068000E0AFA00F00543DFF8D0021E
:10367C00DFF8BC620078DFF8CC020068C0F34600CB
:10368C003060FEF71DFD012802D13068401C30600F
:10369C003168DFF8B47219B1FF2238461BF010FD07
:1036AC004FF00008002405E0CC550AFA00F040EA7F
:1036BC000808641C59F82400C1B2FF2908D03268EC
:1036CC00914203D225FA00F2D207EDD5022058E040
:1036DC000920FDF761F9C6F8809008232422002107
:1036EC000DA8FEF787FD8DF84CA00DAA012106F15F
:1036FC00A000FFF7BFFA0024DFF850A20BE0504601
:10370C00FFF738FF4FF0FF31E0B2FFF783FF0020E7
:10371C00CBF80400641C3068844212D225FA04F001
:10372C00C00706EB840B48BF0420F1D428FA04F040
:10373C00C00747BFE05D59F82010E0B240F4C0412B
:10374C00DDE708233022002101A8FFF78BFA0020C7
:10375C00009001ABDFF8F821102106F18400FFF78F
:10376C0085FADFF8F001016821F47C5141F4005135
:10377C0001600120DFF8E0110860DFF8E01108605B
:10378C00002017B0BDE8F08F2DE9F041DFF8A06103
:10379C0004460D4606F1A00800F032F800273DB9AA
:1037AC00002020606060A06000271DB31EE07F1C1D
:1037BC0015F82700FF28F3D03168884204D206EBB5
:1037CC00800040680028F2D0002413E006EB800152
:1037DC0001224C6002FA00F06168084360602046E8
:1037EC0055F82720594900F071F87F1C15F827006F
:1037FC00FF28EBD14046FEF7D1FC2046BDE8F08116
:10380C004FF0FF314046FEF7D1BC10B50C46F0B17D
:10381C00416821FA04F2D20719D50122A240914342
:10382C0041600020424901EB840250604648225C12
:10383C004648FF2A0EBF44F02041D1F8801051F8C1
:10384C002210FFF797FE4FF0FF31204661E0022077
:10385C0010BD10B5044605E0FFF766FEC1B2204668
:10386C00FFF7D3FF60680028F6D110BD38B50C46C1
:10387C002F4915460A68944204D201EB8401496829
:10388C00814201D0022032BDFEF73AF900F006F871
:10389C009A4305FA04F31A430A603EE030490A6879
:1038AC000123A340704710B5214B1C68A14204D2E0
:1038BC0003EB81035B68834201D0022010BD100032
:1038CC001D4A18BF01205054002010BD38B5184CAB
:1038DC0025680B461146CAB2AA4204D204EB8202F6
:1038EC005268824201D0022032BD1846FFF742FED8
:1038FC00002032BD0B4610B511460D4A1468A34288
:10390C0004D202EB83025268824201D0022010BD25
:10391C001846FFF77FFE002010BDFEF7F5F80020DB
:10392C0032BD0000E0200240E020026080E200E0B6
:10393C0058370020007F077F00200240A83F00502E
:10394C007F39002080120840D8380020007FC767DC
:10395C003F350000003009400C4009400800094088
:10396C00D020024070B50446474800680D46804799
:10397C00064646480FF22102C460056100F59471B9
:10398C00183000F0C5FA3046BDE87040404909686F
:10399C0008473E480078704738B50C463B4D00212F
:1039AC00A980688018B129690A0018BF884744B1FA
:1039BC0000202870E968080003D0E88808B9204680
:1039CC008847E98819B16869BDE8344018E031BD11
:1039DC0070B504460D4600F045F8A84202D200F03E
:1039EC0041F80546294EB088801900F118012A4685
:1039FC0020461BF029FBB0882818B080284670BDE3
:103A0C002DE9F04104462048204E0068204F0D4619
:103A1C0080478046307820B139684046884700207E
:103A2C001EE0B5F5877FC3BF04F58770A5F58771D8
:103A3C004FF487750021F18070612A46214606F506
:103A4C0094701BF001FB01203070B068401CB0601A
:103A5C00284600F0E3FA0546396840468847284670
:103A6C00BDE8F081094841888088081A00F5877004
:103A7C004FF4877190FBF1F14FF4877202FB110048
:103A8C0080B27047000000000C0500207830002048
:103A9C0010050020F8B52B4C2B4F064660880025EE
:103AAC008119B1F5877F08DDC0F58775A9B2C019FA
:103ABC00FFF78EFF0020761B6080B1B26088C019C2
:103ACC00FFF786FF6088301880B24FF4877190FB47
:103ADC00F1F14FF4877202FB11006080A81980B2DB
:103AEC00F2BD184841880088081A00F587704FF419
:103AFC00877190FBF1F14FF4877202FB110080B2D9
:103B0C00704780B5FFF7EDFFC0F5877080B202BD3E
:103B1C00F0B50C4B0C4D1C8800224FF487770BE052
:103B2C00A4B2521C665D00F8016B641CA4B23E4644
:103B3C0094FBF6F607FB164492B28A42F0D31C8033
:103B4C000846F0BD70390020B0340020E0B50821E3
:103B5C00ADF800100190022100F00FF808B1002020
:103B6C000EBD02980EBD00B583B00821ADF8001053
:103B7C000190032100F001F807BDADF8021000A878
:103B8C00DFF89412096808471FB5ADF80610ADF8B8
:103B9C0004000824DFF880128DF808200393ADF898
:103BAC000040ADF8024000A80968884704B010BD79
:103BBC0030B585B0144608220291ADF800201922C8
:103BCC00DFF8541209680190ADF802201D4600A8D8
:103BDC00884714B1BDF80C10218015B1BDF80E103A
:103BEC002980089A0499116005B030BD00B583B0E6
:103BFC000820ADF800001A2000F014F810B9BDF838
:103C0C0004000EBDFF200EBDE0B5ADF80000ADF810
:103C1C000610002000F006F810B99DF808000EBD43
:103C2C00FF200EBDDFF8F0110968ADF8020000A806
:103C3C00084750B110F1040F01D10420704710F166
:103C4C00030F01D1022070470120704781230370BC
:103C5C0042EAC111002341F47C41C370818070475A
:103C6C008223037081800023C370827170473EB53C
:103C7C0004460820ADF800000D462020ADF80200E7
:103C8C001020DFF894110968ADF8040000A88847EB
:103C9C0020B9029810B16FF004003EBD00950023CE
:103CAC00002221464FF0FF30FFF782FF3EBD10B5DA
:103CBC001446CA78012A82B003D18A88DFF8AC3165
:103CCC001A8000F010F858B9009000A92046FFF7B0
:103CDC00CEFF28B900984478FFF745FF204616BD63
:103CEC00FFF7A7FF16BD0B46022210214CE7F8B5D3
:103CFC0000F0C2F800F0AFF807000DD032462946AC
:103D0C00FFF7AEFF00F0A3F83872FFF76FFF3B46EA
:103D1C0001B0BDE8F0400AE0F1BD10220121E6E758
:103D2C0010220021E3E73C81BD72FE605EE70222B7
:103D3C00102129E70022042159E00420BDE8F0817C
:103D4C0010B500F08BF804000AD0112200F00AF82C
:103D5C00FFF74CFF2146BDE81040DFF81421A6E721
:103D6C00042010BD02217BE7002203213FE000B5B7
:103D7C0083B00FF24903019306230093032300F051
:103D8C004DF80EBD1078802802BF508840F27F613C
:103D9C00884208D19088984202BF9179009881425C
:103DAC0001D1012070470020704710B582B0062465
:103DBC00FFE70094FFF7E6FF16BD00000323F4E7CE
:103DCC001078802802BF508840F27F6188420CD165
:103DDC009088032818BF042807D1907900281CBFAD
:103DEC001028112801D10120704700207047F8B528
:103DFC0000F051F807000CD032462946FFF730FF8F
:103E0C00BC60FFF7F3FE3946BDE8F840DFF86420EC
:103E1C004DE70420F2BD0000140500202DE9F0410F
:103E2C0000F00EF807000AD0069A4146FFF718FF7B
:103E3C003C817D81FFF779FF079A00F032B87CE76F
:103E4C0004460D46164698461020FFF77FBE2146C5
:103E5C005020FFF7D9BE0A20FFF778BE0820FFF7E5
:103E6C0075BE04460C20FFF771BE000088050020CB
:103E7C00993E0000CD3D000004460D4616467047A5
:103E8C0000930123FFF77EFF02BD000080B51123D4
:103E9C0000930223F6E704460D4616460C20FFF766
:103EAC0055BE3946BDE8F041FFF701BF0521FFF7CC
:103EBC00CDBE1078802802BF508840F27F618842C6
:103ECC000DD190884FF6807101404FF6806291427F
:103EDC0004BF00F07F00984201D101207047002000
:103EEC00704738B5FFF7BDFF05000CD00422FFF773
:103EFC00DDFFAC60FFF77AFE2946BDE838400FF2D3
:103F0C000D02FFF7D4BE042032BD00000423D0E71D
:103F1C0010B5504CE0628AB02163A26200A81BF07D
:103F2C0075F84FF4E130069000A900208DF81500CB
:103F3C008DF8160003208DF81C0000208DF81D0054
:103F4C0001208DF800008DF8010000208DF817007D
:103F5C000FF23D0003900FF21D00049000201BF0A7
:103F6C004CF86062002220211BF044F800F044F869
:103F7C000AB010BD10B53848006880470446354873
:103F8C00826A110002D0418C0020904740E0000072
:103F9C00F8B500F05AF8144680470546CCB1318C80
:103FAC00002089B2B1F5877F09DAF76A835DCB55BA
:103FBC0000228255401C491CC0B2A042F1D384425D
:103FCC00318406D0B26A100009D0718C4FF487701E
:103FDC009047B26A100002D00021A0B29047002096
:103FEC0030842022706A31461BF015F82846BDE853
:103FFC00F4401A490968084710B51748006880470B
:10400C0004461449002008842022486A1BF003F857
:10401C00204612490968BDE81040084770B50446AF
:10402C0000F013F880470546316B706A74842246A1
:10403C001AF0F4FF094910F1010F04BF002070843D
:10404C00096828468847708C70BD0348014E00688B
:10405C0070470000803800200C050020100500205F
:10406C00E0B50821ADF8001001900221ADF8021066
:10407C0000A88A490968884708B100200EBD02983B
:10408C000EBD00B58FB008233C22002100A8FEF71E
:10409C0079F8834800F15001079100234FF4217106
:1040AC00089100AA012106910FF2A9011BF026F834
:1040BC000FB000BD10B584B00820ADF80000012091
:1040CC007649784C0968ADF8020000A88847BDF81D
:1040DC000400A081FCF7CEF9A089C0B2FFF71DFE49
:1040EC00FFF72EFE2046FFF7FCFE4FF0FF30FFF7E8
:1040FC003BFE4FF0FF30FFF71DFE608900F00C0116
:10410C000C2903D10A220FF2A0210DE0010703D5DF
:10411C000E220FF2A02107E0400747BF11220FF239
:10412C00A4210E220FF2B02104F110001AF09CFF12
:10413C0004F1100000F058F9C1B204F11002002093
:10414C00FFF715FE04F10E0202210120FFF70FFE0E
:10415C001FBD000030B585B0FFF7ACFF4F4C0820F9
:10416C00ADF800000A20ADF802004FF0FF300190CE
:10417C0000A8216888470028F1D10820ADF8080074
:10418C000920ADF80A0002A821688847BDF80C1078
:10419C00BDF80E20049D0028E1D1102902BF414832
:1041AC008089824205D12878912804BF284600F0E6
:1041BC000BF80820ADF800000320ADF802000195C3
:1041CC0000A821688847CAE730B5374A4478138875
:1041DC00811C0E2C83B04FF6FF7506D00F2C10D01F
:1041EC003E2C3AD0FF2C4DD037BD8488A3424CD006
:1041FC00836830F8040CA0F10C02D2B221460E20D8
:10420C0049E08488A34240D042F23200844244D137
:10421C000D780F20FFF724FF00283ED004210170F9
:10422C00FF2141700721418000F108014160042108
:10423C00426811700F2142685170042142689170DC
:10424C004168CD7001214268117141684C71210A9D
:10425C00426891711BF0B3F837BD09780C291CD159
:10426C008DF8001000A9C2784A7082888A70828802
:10427C00120ACA7082790A71C0794871062000F05E
:10428C006AF837BD4C88A34201D1158037BD8368CD
:10429C000A782146FF2000F009F837BD14050020EC
:1042AC00502B002094040020880500202DE9F042BA
:1042BC0081460C461546B9F1FF0F05F10B0014BFF2
:1042CC000321022108181E46C0B2FFF7C9FE0700E1
:1042DC003FD004203870FF20787007F10800786018
:1042EC00042079680870786880F80190200A796851
:1042FC00B9F1FF0F10D0EA1C8A7001217A68D170D5
:10430C002A4679680C717968487131467868801D45
:10431C001AF09AFEA81D15E0AA1C8A707A683178EA
:10432C00D1707A68717811717A68B1785171EA1E1E
:10433C0079688C717968C871F11C786808301AF04A
:10434C0083FE681DC0B278803846BDE8F0421BF091
:10435C0036B8BDE8F08270B5044604F10B000D468A
:10436C00C0B2FFF77DFE06001CD004203070FF2089
:10437C007070E01C708006F1080070600420716899
:10438C0008703E2071684870706884702CB1706839
:10439C0022462946C01C1AF057FE3046BDE8704034
:1043AC001BF00DB870BD0000544920424C45204113
:1043BC006C6C0000544920424C452043656E74726D
:1043CC00616C0000544920424C4520506572697064
:1043DC00686572616C000000544920424C452055C0
:1043EC006E6B6E6F776E000000F10103810704D0D5
:1043FC0010F8011B89B18107FAD10268B2F10131C1
:10440C00914311F0803F04BF50F8042FF6E710F8E9
:10441C00011B11B110F8011BFBE7C01A704700001B
:10442C0080B501280BD002280BD0042802D0082814
:10443C0009D00AE000200A689047002002BD022043
:10444C00F9E70420F7E70520F5E7FEF701FC00BFCC
:10445C0038B50446012504E005FA00F0C0B2FCF7BB
:10446C00F1FAB4FA84F0202800D131BD00F01CF828
:10447C00F2DB401FC0B2FCF78FFAF2E738B5044606
:10448C00012504E005FA00F0C0B2FCF7F9F9B4FA22
:10449C0084F0202800D131BD00F006F8F2DB401F7B
:1044AC00C0B2FCF70DFAF2E7C0F11F00C0B205FA7A
:1044BC0000F14C400528704738B500793C4CA8B148
:1044CC00FDF7AAFE05462078FF2805D12846FDF702
:1044DC00AEFE6FF0060032BD401C2070C0B2012849
:1044EC0004BF6068FFF7B4FF284612E0FDF794FEA6
:1044FC00217821B9FDF79BFE6FF0070032BD491EF4
:10450C002170C9B229B9FDF792FE6068FFF7B6FFBA
:10451C0001E0FDF78CFE002032BD70B504466068EA
:10452C0010F07F4F02D06FF0020070BDFDF774FEEB
:10453C001F4E0546307828B17068FFF79FFF606802
:10454C00FFF786FF606870602846FDF770FE00205C
:10455C0070BD80B5406810F07F4F00D00DE0FFF7C4
:10456C0077FF002002BD80B5406810F07F4F00D06F
:10457C0003E0FFF783FF002002BD6FF0020002BDD5
:10458C001CB50446A168606808601420FDF7E2FFC2
:10459C00019010B96FF0030016BD002000900F21A0
:1045AC00A3680198034AFCF7E2F9002016BD00004D
:1045BC00240500202D44000010B50446FCF74CF9EE
:1045CC0000B101202071002010BD80B5FCF744FB28
:1045DC00002002BD10B50446FCF737F960600020DE
:1045EC0010BD10B504466068FCF734F9A0600020DB
:1045FC0010BD816807E002681168536889185B1860
:10460C00C36008320260C2689142F4D04A1C8260D6
:10461C000878704738B504460D46A068E1688842B2
:10462C0012D120686168884208BFFEF711FB206830
:10463C00227C016802B14944A16042685218E260D0
:10464C00083091422060ECD0A068401CA06000F8BB
:10465C00015D31BD2DE9F0418AB000F108010591F1
:10466C000268520801EBC2010691002107910891E2
:10467C000168490800EBC10108310091017901F092
:10468C0001018DF8101040680099400801EBC00042
:10469C00019000200290039084E005A8FFF7A9FF89
:1046AC00044614F0030603D105A8FFF7A2FFC61CAD
:1046BC0025090F2D1BD105A8FFF79BFF00F10F0556
:1046CC0015E00598016808180599079049680818BD
:1046DC000890059808300590079808998842F0D002
:1046EC00401C079010F8011D00A8FFF793FF761EE1
:1046FC00F2D1002D51D005A8FFF77BFF0646A0088C
:10470C0000F00300032804BF05A8FFF772FFDDF8D3
:10471C0000800299039F06EB002008E0A8F108082E
:10472C00A8F10801801A0A6849688F18394658F8A8
:10473C00082C8A1A8242F1D30C1AAE1C2DD0BC4222
:10474C0006D158F8044B58F8040B0719BC42F8D0A2
:10475C000298039914F8015B884217D100980199CB
:10476C00884208BFFEF774FA009800689DF8101094
:10477C00029009B148440290009902984968009A45
:10478C0009180832884203910092E7D00298401C25
:10479C000290761E00F8015DD1D1029803998842EF
:1047AC007FF47BAF0198009981427FF476AF0AB019
:1047BC00BDE8F0817B756E6B6E6F776E2D696E73D5
:1047CC0074616E63652D6E616D657D007B656D70CA
:1047DC0074792D696E7374616E63652D6E616D6590
:1047EC007D0000007B7374617469632D696E737452
:1047FC00616E63652D6E616D657D00008F3F0000FD
:10480C008F3F01008F3F02008F3F0300903F00015C
:10481C008F3F0101903F0002903F00038F3F010446
:10482C008F3F00058F1208048F3F00048F3F000656
:10483C00513F00007F3F01003F3F04003F3F02001B
:10484C003F3F01007F3F0200DFF800F055C0011030
:10485C0038B5124C1248134DFEF7ECFE23681B685A
:10486C0001220121284698472268526801212846D6
:10487C0090470420FCF7E6F80820FCF7E3F8FDF776
:10488C00C2FDFDF7DDFDFFF7FCFB10201AF077FDF4
:10489C00FFF7DAFF002032BD00000000D801001045
:1048AC00600300200040034019E050F8041BCB07C4
:1048BC0044BFA9F101035918121F0023042A41F81F
:1048CC00043BF9D25FEA827C0B4604D54FF0000C16
:1048DC00A1F800C09B1CD10744BF0021197050F8EF
:1048EC00042B002AE1D17047EBC70CEEC90CF1CBBD
:1048FC000CF44B14F74E19FA521DFD58250061317A
:10490C0001144202184E031C5A04249305309300E0
:10491C00F44800000D0700000010004015000000D6
:10492C00060000000302FFFF4C490000C0350020C8
:10493C0024490000000000000000000000000000FE
:10494C001F3100008D310000B72F0000C72F000071
:10495C00C53200003933000041330000AF31000094
:10496C005B3200005D32000010B507497944183104
:10497C00064C7C44163404E00A68081D511888471C
:10498C000146A142F8D110BD080000000C01000046
:10499C0019FFFFFF04000000EC01002008000000DC
:1049AC00F001002008000000F8010020F4330000A2
:1049BC008C050020000000009DFCFFFF02000000A1
:1049CC0002000000D40100001B0000007801002050
:1049DC002C00000081FCFFFF020000000200000020
:1049EC00D30100001A000000A401002024000000E4
:1049FC0065FCFFFF0200000002000000D101000076
:104A0C000C000000C80100201C00000049FCFFFF46
:104A1C000200000002000000400100001C00000029
:104A2C0000010020440000002DFCFFFF02000000EC
:104A3C0002000000AE010000060000000002002091
:104A4C000400000011FCFFFF020000000200000047
:104A5C002401000024000000440100203400000068
:104A6C00F5FBFFFF02000000020000006D010000DA
:104A7C0009000000E401002008000000D9FBFFFF42
:104A8C00020000000200000060010000D0010000E4
:104A9C000802002082030000DFF800F059C5011065
:104AAC000548012808BFFDF7ACB87047034801283A
:104ABC0008BFFFF7F1BF70470100000001000000C4
:104ACC0000F00BF8002803D0FFF74EFFFFF7EEFFC6
:104ADC000020FFF7BDFEFDF737F80120704700B549
:104AEC0081B0FFF7DDFFC046C04601B05DF804EBB6
:104AFC00FFF7E6BF44F2D030C2F20000854644F620
:104B0C00EB20C0F200008047FEE70000010000002F
:104B1C000000000000000000000000000100000088
:104B2C0045B50110AD1C000099A6011019B8011073
:104B3C001000000050000000080000008F0700006B
:104B4C004B00000064000000820000002000000008
:104B5C000A000000110D000083010001A10CD0031C
:104B6C006404002000014384051420023401002059
:104B7C0004523C0412000110037C3900207404120E
:104B8C007804211013D03F0822040A4006002001AB
:104B9C000100009036186104520001100718030040
:104BAC002004040020010CC30100011003180200B2
:104BBC0020580422000150026CDC0200015003B8A2
:104BCC00030020030C10033F1C00007D04F30101C3
:104BDC000001200234040020081200010002180316
:104BEC000020000208000000120001120104200243
:104BFC001002002004123804D0039C010020000194
:104C0C00438D0708125820F30118022043CD1C08CD
:104C1C00213C214413102754422714216052914007
:104C2C00100F07100000384035002D400140028461
:104C3C0060005D08102700F80118A38407008305A5
:104C4C007EA40306E0EA2306010088604500C30049
:104C5C003801030401026384000073843800352C8E
:104C6C00100F08047F17AC526003A302AD0163025E
:104C7C006801FF0112CC7052CC94520190620499DD
:104C8C004003020000B0321CE0020BC20110B8E27B
:104C9C000111D11443C5A70883951C1EC004EC0355
:104CAC000020C5A734C3C5A7081003190880801BB2
:104CBC000412070412060410030B2000C013041284
:104CCC000C04120F0412120410070D008080040053
:104CDC00C0800504120E0412030412FF3CE34002D0
:104CEC008C10010100B0742104F1031C12CC188744
:104CFC00CC03941003A90E00000308B001FF002C94
:104D0C00A46335121832141020020404002004830A
:104D1C00A50624120504E5DD435C041312340821B6
:104D2C0004523C04524404524C04525404525C0449
:104D3C00526404526C04527404527C045284045223
:104D4C008C04C176F3071100011403080A1B0078C8
:104D5C00F0131C49D011D11003643900206804876A
:104D6C002C0116F1030512CC1B12080843D0246C3D
:104D7C00438006101003252200003B041403DD239E
:104D8C000000B9E840041D1D00007F1D34251B13D5
:104D9C002C055C1104523404523C04524404524C11
:104DAC0004525404525C04526404526C0452740451
:084DBC00527C0429B403FFFF3F
:020000040001F9
:10F0000003685B681847034A0C2303FB002002686F
:10F01000D2681047344900000FF21401242200F096
:10F0200029B803681B6918470368DB6918470000A3
:10F0300000000000FFFFFFFFFFFFFFFF00000000D8
:10F04000000000000101010100C2010003000000F6
:10F050000000000062B38B0708D0521E11F8013B7C
:10F0600000F8013B00F024808B07F6D1830740F0C5
:10F07000208000BF103A07D330B4B1E83810103AFE
:10F08000A0E83810F9D230BC530724BFB1E808100B
:10F09000A0E8081044BF51F8043B40F8043BD207F5
:10F0A00024BF31F8022B20F8022B44BF0B780370E9
:10F0B0007047083A07D3B1E80810083A40F8043B13
:10F0C00040F804CBF7D25307E4E7000062F30F22C5
:10F0D00062F31F4200B500BF1300964694461039F4
:10F0E00028BFA0E80C50FAD85FEA417C28BF0CC0CA
:10F0F00048BF40F8042BC90728BF20F8022B48BF9F
:10F1000000F8012B00BD0000DFF800F025B1011070
:10F11000DFF800F0B5C10110DFF800F0A9C101105F
:10F12000DFF800F021B9011000B583B000F00DF850
:10F13000032114E0E0B500F008F8042100F012F813
:10F1400008B100200EBD02980EBD0821ADF80010D8
:10F150000190704700B583B0FFF7F7FF052100F07D
:10F1600001F807BDADF8021000A8DFF868130968C0
:10F1700008472DE9F04184B0DFF85843DFF85853D1
:10F18000DFF85883DFF858730FE0B869E3F70CF83D
:10F19000B888410709D54FF6FB710840B880F86878
:10F1A000E1F738FA08B900F0B5F8B8694FF0FF3167
:10F1B000E3F702F8D8F800008047FA883B89B9885D
:10F1C0001A437B891A431143B9800021F9803981A0
:10F1D000798129688847B888010603D54FF67F7181
:10F1E0000840B8800820ADF800000920ADF8020002
:10F1F00000A821688847002801BF029EBDF80600CC
:10F20000798888421CD1396A080007D078780128AB
:10F2100002D0022839D001E030468847304600F05D
:10F220008AF906460C20FFF785FF0146002E18BF1D
:10F23000002905D08E60F868FFF76AFF00F06AF8D1
:10F240003879C00627D5F868E1F7E4F998B9E4F70A
:10F25000A6FB80B9F868FFF75FFF06000BD0B16826
:10F26000486878614988E4F7D1FBB068FFF772FF1E
:10F270003046FFF76FFFF868E1F7CCF940B1B88886
:10F280004FF6EF710840B88005E030468847D7E771
:10F29000B869E2F789FF387980070DD500F07EF96B
:10F2A000E4F725FC28B9B8884FF6FD710840B8800E
:10F2B00002E0B869E2F778FF3879000729D53869A4
:10F2C000FFF72AFF060019D0F96978880A001CBFE9
:10F2D0003A78002A0CD0022A01D002D30BE0B068A1
:10F2E00004E0B16800F08AF8B068F969884702E084
:10F2F000B16800F083F83046FFF72CFF3869E1F77A
:10F3000089F900283FF441AFB8884FF6F7710840FB
:10F31000B8803DE7B88840F01000B880B869E2F7DF
:10F3200043BF10B56E4C0020A080606186B0002104
:10F33000FFF7F6FEE06000210846FFF7F1FE2061CE
:10F340000820ADF800000020ADF802003820ADF82C
:10F35000040000205F490968029000A88847BDF8B2
:10F360000C0060800498A0610FF2ED0000F0D9F865
:10F370000FF279120FF23D110FF2BD00E4F7F8FA27
:10F38000FFF7F7FE06B010BDCBE730B5554C206057
:10F390004FF400758FB0DD22294604F15400FFF7C9
:10F3A00095FE08233C22002100A8E2F7F1FE04F1BB
:10F3B00054000790089502200690002300AA4A49AD
:10F3C000201DFFF7A1FE0FB030BD10B500F0B3F85F
:10F3D00004460C20FFF7AEFE002C18BF00280CD00E
:10F3E0008460217849B93E4C0146E068FFF790FE01
:10F3F000A08840F01000A08028E010BD30B585B096
:10F400000C46ADF80400082136480068ADF8060047
:10F41000ADF8001000208DF80800ADF8021060680B
:10F420002C490968039000A8884705462046FFF745
:10F4300091FE284605B030BD10B5294C606918B161
:10F44000FFF772FE002060610420E080A069BDE843
:10F450001040E2F7A9BE0000F8B504460D46164676
:10F460000C20FFF767FE07460820FFF763FE002F1A
:10F4700018BF00281CD045604480B8607EB90021C8
:10F48000174C017039462069FFF742FEA08840F012
:10F490000800A080A069BDE8F240E2F785BEFFF752
:10F4A00059FE3846FFF756FE2846BDE8F2403BE6D7
:10F4B000F1BD000010B50446E4F729FB844208DAE8
:10F4C000A0B2E4F7EDFA064802214181BDE8104000
:10F4D00012E0FEE714050020100500200C050020B6
:10F4E000B4380020242E002089F30100004801E0F8
:10F4F000B4380020802101818069E2F755BE000008
:10F50000E0B50821ADF8001001900221ADF802101D
:10F5100000A8AA490968884708B100200EBD0298D2
:10F520000EBD10B50446A6480088C0B2E4F7FEFB45
:10F53000A448C46010BDF0B585B0A34D9F4E0446ED
:10F540000820ADF808002C600420ADF80A0008205F
:10F55000039002A83168884708B1002710E0049F93
:10F5600077B1387028684088FFF7CAFF786029684B
:10F5700048887880786818B14A884968FFF76AFD3A
:10F580000820ADF800000320ADF80200019400A8A7
:10F5900031688847384605B0F0BD00002DE9F041DC
:10F5A00082B0FF2440F20F15884E864F02E03A8069
:10F5B0000220B870E4F79BFA002800F0FD800121DA
:10F5C00000A8E4F7ABFA3178BB789DF80020481C1E
:10F5D0000A2BEFD8DFE803F00806151B5582858B50
:10F5E0008EC0E800E3E7E5E79DF80000FA70401EF2
:10F5F00003D0401E012802D9DCE70120D9E705200D
:10F60000D7E7388840EA022038800320D1E7BA8063
:10F610000020AA42307075DA02F10C00FFF770FF8B
:10F62000386110B300F1080141604268F978117047
:10F630004268397851704268797891704268B98827
:10F64000D170447039888A0A3F2A0AD1C1F3C211A5
:10F6500039B19321017041688A7802F003028A70FF
:10F6600001E0022101700421B970B9880029A1D1FB
:10F67000FB68190003D0014600220C2098470020A7
:10F6800097E73A69526889189DF800200A7130702E
:10F69000E4F72DFA39694968804630784218B9880C
:10F6A0000B1A434506DB4146101DE4F737FA307864
:10F6B000404405E0091A89B2101DE4F72FFAB88812
:10F6C00030703178B8888142D1D1FB681900D6D02A
:10F6D00039690C300022C0B29847D0E7FA80062082
:10F6E00067E7F88840EA0220F880072061E7BA80DF
:10F6F00008205EE7B88840EA0220B8800021A842CE
:10F70000317003DBB88838810A2052E71030FFF7E8
:10F71000F7FE010079611CD0032008704C70F87866
:10F720008870F8880205000B00F00300120D887144
:10F730008A8001F11002B888CA6008810922002875
:10F74000BA7094D1FB68180099D000221020984715
:10F7500095E70020B8702FE07B69DB68CA543070F1
:10F76000E4F7C5F9804678693178C068BA88081826
:10F77000531A434505DB4146E4F7D0F9307840445D
:10F7800004E0511A89B2E4F7C9F9B88830703178C9
:10F79000B88881420DD1FB68190004D07969103016
:10F7A0000022C0B298476AE73889401E388180B28B
:10F7B00000287FF4FFAEFCE6BDE8F38114050020CD
:10F7C000B6380020F83800206C390020803900203D
:10FFA80000008001100082FFFDFF58003AFFBFF3F8
:10FFB800FFFFFFFFFFFFFFFFFFFFFFFFFFFFFFFF49
:10FFC800FFFFFFFFFFFFFFFFFFFFFFFFFFFFFFFF39
:10FFD800FFFFFFC5FFFFFFFFC5FFFFFFC5C5C5FF4B
:10FFE800C5C5C5FF00000000FFFFFFFFFFFFFFFFC3
:08FFF800FFFFFFFFFFFFFFFF09
:0400000500004B01AB
:00000001FF
