:020000040001F9
:10F000004FF0200383F3118872B6024B9D4600F047
:10F0100048B90000FC360020DFF86803006850F0B3
:10F020000100DFF8601308607047D648006850F0B0
:10F030000200D44908607047D3490860704710B592
:10F040000400A4B24FF4805000FB04F000F0ACF9CF
:10F05000002801D1002001E05FF0FF3010BD13B5A2
:10F0600004000422210001A800F0A3F9002801D126
:10F07000002001E05FF0FF3016BD70B504000D0008
:10F0800016002A003100200000F0B2F970BD70B502
:10F0900004000D0016002A003100200000F0B8F92D
:10F0A00070BD2DE9F84304000D001600370BA819B8
:10F0B000401E000B8046ED1CAD0816F0030F02D079
:10F0C0005FF0FF3038E0B84502D3B8F11F0F02D32C
:10F0D0005FF0FF3030E0B8452DD34FF480694745ED
:10F0E00001D128008146380080B2FFF7A8FF002830
:10F0F00002D05FF0FF301FE04846B0F1010980B256
:10F10000002816D0042200A92000FFF7B6FF00282F
:10F1100002D05FF0FF300FE000993000FFF79FFF53
:10F12000002802D05FF0FF3006E0241D361D6D1E62
:10F13000E2E77F1CCFE70020BDE8F2832DE9F14F25
:10F1400082B00C0000254FF480599DF808004FF460
:10F15000805101FB00FA8D4F4A465146380000F0BD
:10F1600067F99DF808008DF800008948C0884FF4C1
:10F17000806190FBF1F88648C088A4B2042194FB1A
:10F18000F1F108185FFA88F84FF4806101FB18006C
:10F1900080B287009DF8000010EB08089DF8000081
:10F1A00006005FFA88F8F6B2B0453BD39DF8000040
:10F1B000F6B2864202D114F1040901E05FF00009C1
:10F1C0001FFA89F9B9F5805F16DAF6B25FFA88F8A6
:10F1D000464504D31FFA89F9BFB2B9450CD26B4832
:10F1E0001FFA89F919F80010280080B200F03EF8E3
:10F1F000050019F10109E3E7F6B25FFA88F8464520
:10F200000ED04FF4805AF6B2701C4FF48051484330
:10F210000190DFF878B152460199584600F008F99C
:10F22000761CBEE70021280080B200F01FF8050020
:10F230000021280080B200F019F80500280080B2F3
:10F24000BDE8FE8F70B504000D001600290089B2DC
:10F250002000C0B2FFF772FF318880B2814203D133
:10F2600030887080012000E0002070BD30B441F291
:10F27000210200242300DBB2082B0FDAC0F3C034D4
:10F2800014F0010440000D0601D550F00100E4B275
:10F29000002C00D050405B1C4900ECE780B230BC31
:10F2A000704770B504000D00160000F093F83200AE
:10F2B00029002000FFF7F5FE00F096F804203549FC
:10F2C0000860FFF7B2FEFFF7A7FE0020FFF7B4FECD
:10F2D00000F0EAF8FEE770B500F07CF85FF4F0208B
:10F2E0000400B4F5F22F49D8102229492000FFF775
:10F2F000C4FE274800884FF6FF7188423BD024485F
:10F300000088002837D0224800882149498888424F
:10F3100031D11F48C07BFF282DD11D48807B01289B
:10F3200002D10020050008E01948807B022803D1A3
:10F330005FF40030050000E01DE015488089820080
:10F340001348C08881002800FFF7ABFE1048808971
:10F350008000000B06000E4A00213000C0B2FFF70B
:10F3600071FF0028D9D080200949C87310220849AC
:10F370002000FFF78CFE14F58054B2E700F034F85B
:10F3800070BD000008000840000008400000002098
:10F39000001000201021084080B5FFF79CFF41F2CB
:10F3A00014000068004701BD80B508490968496933
:10F3B00005E080B5054B1B689B69984700E08847CE
:10F3C000034A0021116002BD00000000A8010010E6
:10F3D0008404604280B500F033F9002801D0002099
:10F3E00001E05FF0FF3002BD80B500F049F901BDDA
:10F3F00070B504000D00160032002900200000F056
:10F4000045F9002801D0002001E05FF0FF3070BD19
:10F4100070B504000D00160032002900200000F035
:10F4200066F9002801D0002001E05FF0FF3070BDD8
:10F4300062B38B0708D0521E11F8013B00F8013B64
:10F4400000F024808B07F6D1830740F0208000BFB6
:10F45000103A07D330B4B1E83810103AA0E83810A9
:10F46000F9D230BC530724BFB1E80810A0E8081057
:10F4700044BF51F8043B40F8043BD20724BF31F8A5
:10F48000022B20F8022B44BF0B7803707047083A18
:10F4900007D3B1E80810083A40F8043B40F804CB21
:10F4A000F7D25307E4E7FEE7EFF3108062B6704748
:10F4B000002902D06B4B1A0001E06B4B1A00106060
:10F4C000704780B500214FF48040FFF7F1FF01BD88
:10F4D00080B501214FF48040FFF7EAFF01BD10B570
:10F4E00082B0B9208DF80000FFF7EBFF012100A8E2
:10F4F00000F063F9002801D1012400E00024FFF7A7
:10F50000E7FFE4B2002C06D000F073F8002801D128
:10F51000012400E000242000C0B216BD10B582B066
:10F52000AB208DF80000FFF7CCFF012100A800F010
:10F5300044F9002801D1012400E00024FFF7C8FFAE
:10F54000E4B2002C06D000F02FF8002801D10124ED
:10F5500000E000242000C0B216BD1CB501A843493C
:10F560000A680260FFF7ADFF042101A800F025F949
:10F570000400002C03D0FFF7ABFF002013E00221B2
:10F5800000A800F032F90400FFF7A2FF002C07D119
:10F590009DF80000EF2803D19DF80100122801D04A
:10F5A000002000E0012016BD10B582B03048007880
:10F5B0008DF80100FFF785FF00F036F9FFF788FFAF
:10F5C000FFF77FFF01210DF1010000F0F6F80121A6
:10F5D00000A800F00AF90400FFF77AFF002C02D01F
:10F5E0007FF0010004E09DF80000C007E8D400208F
:10F5F00016BD10B500200400E4B20A2C07DAFFF7AC
:10F60000ACFF002801D1002003E0641CF4E75FF0A8
:10F61000FF3010BD10B582B0164800788DF800009C
:10F62000FFF74FFF012100A800F0C7F80400FFF723
:10F630004FFF002C02D07FF0020000E0002016BD3A
:10F6400080B511210C4800F0FAF80E200B4909682A
:10F65000C96B8847FFF73CFFFFF760FFFFF77DFFAF
:10F6600002BD000090200240A0200240DCF9010011
:10F670008EF701008FF7010000093D00B401001072
:10F6800080B5FFF72CFF00F030F901BDF8B504009C
:10F690000D001600FFF788FF0700002F01D00020A3
:10F6A00024E003208DF80000200C8DF80100200AD2
:10F6B0008DF8020020008DF80300FFF702FF0421FF
:10F6C00000A800F07AF8002803D0FFF701FF00201F
:10F6D0000CE02900300000F088F80700FFF7F8FE82
:10F6E000002F01D1012000E00020C0B2F2BD2DE9C1
:10F6F000F04182B004000D001600002D44D0FFF749
:10F7000053FF0700002F01D000203EE0FFF782FFEB
:10F710000700002F01D0002037E04FF48070B4FBC9
:10F72000F0F101FB1041D1F580708046454500D2D3
:10F73000A84602208DF80000200C8DF80100200A58
:10F740008DF8020020008DF8030018EB0404B5EBDF
:10F750000805FFF7B6FE042100A800F02EF80028E7
:10F7600003D0FFF7B5FE00200FE04146300000F067
:10F7700024F8002803D0FFF7ABFE002005E018EBCB
:10F780000606FFF7A5FEB8E70120BDE8F6810506ED
:10F79000416851F002014160704742698A43426109
:10F7A00070470162704701206349086070476348F1
:10F7B0000068400810F00100704738B504000D00E3
:10F7C000002D10D021785FF080405D4A12685268A9
:10F7D000904700A95FF08040594A1268D26890476C
:10F7E0006D1E641CECE7002032BD38B504000D002E
:10F7F000002D17D000215FF08040514A12689268B6
:10F800009047002802D15FF0FF300CE000A95FF0C4
:10F8100080404B4A1268D2689047009820706D1E55
:10F82000641CE5E7002032BD80B500A95FF0804090
:10F83000434A1268126990470028F6D101BD7CB591
:10F8400004000D0006203F490968496988470620E1
:10F850003C490968496B88470128F8D14FF4A060FA
:10F8600038490968C9698847FFF79DFFFFF79FFF7F
:10F870000028FBD04FF4807032490968C969884775
:10F88000FFF791FFFFF793FF0028FBD00F215FF0F8
:10F890008040FFF782FF03215FF08040FFF781FF88
:10F8A0000820019000940023002227495FF0804047
:10F8B000234E36683668B04700955FF0FF33132259
:10F8C00012215FF08040214E3668766CB0475FF0C1
:10F8D0008040FFF75DFF00A95FF08040184A126882
:10F8E000126990470028F6D173BD80B54FF480703F
:10F8F00014490968096A8847FFF755FFFFF757FF62
:10F900000028FBD04FF4A0600E490968096A8847B7
:10F91000FFF749FFFFF74BFF0028FBD006200949FE
:10F92000096889698847062006490968496B88473C
:10F930000228F8D101BD00002820086028200840D6
:10F94000C4010010B8010010006CDC02B40100100A
:10F9500000370020D1F90100A7F40100A7F401004D
:10F96000A7F40100A7F40100A7F4010000000000C3
:10F97000000000000000000000000000A7F40100EB
:10F98000A7F4010000000000A7F40100A7F40100A3
:10F990000120C046002801D0C046C0460020C04615
:10F9A000C046FFF7F9FC00F000F800F001B80000D5
:10F9B0000746384600F002F8FBE7000080B5C04675
:10F9C000C046024A11001820ABBEFBE72600020029
:10F9D000C046C046C046C046FFF7DAFF90FFFF00B2
:10FFA80000008001100082FFFDFF58003AFFBFF3F8
:10FFB800FFFFFFFFFFFFFFFFFFFFFFFFFFFFFFFF49
:10FFC800FFFFFFFFFFFFFFFFFFFFFFFFFFFFFFFF39
:10FFD800FFFFFFC5FFFFFFFFC5FFFFFFC5C5C5FF4B
:10FFE800C5C5C5FF00000000FFFFFFFFFFFFFFFFC3
:08FFF800FFFFFFFFFFFFFFFF09
:040000050001F9D12C
:00000001FF
