:1000000058440020D1A30000559D0000559D0000DC
:10001000559D0000559D0000559D0000559D000018
:10002000559D0000559D0000559D0000559D000008
:0C003000559D0000559D0000219D000022
:10003C00DFF89808007D7047DFF89028117D107567
:10004C0008467047DFF88418D1E90023C0E9002383
:10005C007047DFF87808C0690047DFF87018096A44
:10006C00084710B502F071F938B1DFF8F848A0680C
:10007C0002F074F9A0614FF0FF3010BD10B52020D4
:10008C00EFF3118480F31188DFF8E4088068002115
:10009C0002F068F984F3118810BD000038B52020F7
:1000AC00DFF8CC58EFF3118480F31188A868002195
:1000BC0002F058F96969081AA969814238BF002011
:1000CC0084F3118832BD70B5DFF8A46804460D4680
:1000DC00B068214602F044F93461756170BD2DE9B8
:1000EC00F8438846DFF88C1809680446DFF8800866
:1000FC000F184FF0FF393D680BE0F069B169884784
:10010C00B08A012805D1F068A0EB0800484598BFDB
:10011C008146BD4211D02E462D68B08A0128F8D1F7
:10012C00012C04BFF0684045EAD13169002907BFB2
:10013C000020B0820818F060DFE74846BDE8F28383
:10014C0000000000F8B52020DFF82448EFF31187F9
:10015C0080F31188A068012102F004F90121A18328
:10016C000021E183656921682268461B801A691A9F
:10017C00884204D20020A08387F31188F1BD87F355
:10018C001188002005E04519361A29460120FFF791
:10019C00A6FF8642F7D22021EFF3118781F3118855
:1001AC00E18B012903D129460020FFF798FFA169B3
:1001BC0010F1010F08BF084603D0801B814238BFE5
:1001CC0008464119FFF77FFF012020840020A083FF
:1001DC00256087F31188F1BD38B504461D46A26031
:1001EC006869DFF890272061A1612146A869E06168
:1001FC000020A0821268DFF87807101800F08EF843
:10020C00288A18B12046BDE8324049E031BD0000D3
:10021C0010B52021EFF3118481F3118800F08CF8D4
:10022C0084F3118810BD8260816100220261C36178
:10023C0082820146DFF83C27DFF834071268101879
:10024C006CE038B5DFF828570446288C012804BF29
:10025C00A88B002817D1A868012102F083F829681F
:10026C006A692B68D21A411A8A420CD3A2681118F7
:10027C00E1600123A3826B69181A82420ED21046E8
:10028C00BDE834401FE7FFF7F9FEA1680818E060ED
:10029C000120A082A88B012808BFE88331BD000093
:1002AC0010B52021EFF3118481F31188FFF7C9FFFA
:1002BC0084F3118810BD00218182704781607047E2
:1002CC007047808A704780B500F001F8FCE738B5BC
:1002DC000024DFF8CC5704E0686850F8240080470D
:1002EC00641C28688442F7DB31BD13E001680A689E
:1002FC0002605060084670470168814201D10120BC
:10030C00704700207047426808604A601160416085
:10031C00704700BF40600060704700002023EFF37F
:10032C00118283F31188086043684B60436819603D
:10033C00416082F31188704701684268116041681E
:10034C0000684160704710B50446107E20726181D0
:10035C000021DFF8DC070068001902F005F9002025
:10036C0020600120606010BDDFF8C4170968081810
:10037C0002F00EB938B504462020EFF3118580F356
:10038C001188207C022808D12046FFF7D5FF0020D9
:10039C0020742946A06800F0AFFB85F3118831BDAD
:1003AC00F0B50E4616F1010F18BF002E8FB00546A2
:1003BC000AD000AB3246DFF87C1705A8FFF733FFF5
:1003CC0005A80390022002E00020039003208DF882
:1003DC001000DFF85C07006847192020EFF3118448
:1003EC0080F31188688978BB16B984F3118837E0DB
:1003FC0000F002FA00F0B0FA00A98161029800F056
:10040C0051FB00A93846FFF77EFF9DF8100002282B
:10041C0004BF0398FFF715FF84F31188284600F0FA
:10042C00F3F92020EFF3118480F31188039818B1AD
:10043C00FFF782FF0020039000200299886184F36B
:10044C0011889DF810000BE06889401E68810398A4
:10045C0018B1FFF771FF0020039084F3118801207D
:10046C000FB0F0BD70B50446DFF8C406006806197D
:10047C002020EFF3118580F311883046FFF73CFF05
:10048C0048B1207AC0074EBF01206089401C6081B2
:10049C0085F3118870BD00F0AFF904463046FFF7C4
:1004AC0025FF01210174C16809B100228A82294605
:1004BC00806800F021FB85F311882046BDE8704070
:1004CC00A2E100002DE9F8430746DFF83847B86A87
:1004DC00D4F81090A568E6682061E760786AA0609F
:1004EC00386A78620020B88320800120FFF7A4FDD1
:1004FC00804640F2000CEFF311808CF311883969BF
:10050C00F868BA6890472021EFF3118081F31188C5
:10051C004046FFF791FD01202080C4F81090E66062
:10052C00A560BDE8F1830000F8B5DFF8D846256971
:10053C006068B0FA80F0C0F11F00616901EBC00681
:10054C003046FFF7D3FE07463046FFF7D5FE00F0E6
:10055C0098F8606840B1B0FA80F0C0F11F00616992
:10056C0001EBC006B542EBD3F1BD000070B5202005
:10057C00DFF89056EFF3118480F311886868B0FAB5
:10058C0080F0C0F11F006A69296902EBC00081424A
:10059C000ED200F031F90646DFF8400702F0CAF837
:1005AC000020288084F311883046BDE870402BE190
:1005BC000020288084F3118870BD10B5002404E05D
:1005CC002146002002F034F8641CDFF83C06006879
:1005DC008442F5DB002000E0401CDFF804170968BA
:1005EC008842F9D300F036BB0AE0DFF81806018820
:1005FC00481E8041C00F7047DFF80816FEE000006F
:10060C005FF0000080B5A8B92021EFF3118081F3D1
:10061C001188DFF8F0154A6822B180F31188FFF7D2
:10062C00A5FF02E00A8080F3118800F0E5F8BDE830
:10063C000240E9E001BD000000B17047F8B5DFF8F9
:10064C00C4456068D0B12569B0FA80F0C0F11F00D4
:10065C0003E0B0FA80F0C0F11F00616901EBC00645
:10066C00B5420BD23046FFF741FE07463046FFF746
:10067C0043FE00F006F860680028EAD100202080D4
:10068C00F1BD18B16068B96988436060384619E7F4
:10069C0070B505462020EFF3118480F31188A88BE8
:1006AC0010B184F3118870BD0120A883FFF7A4FF5B
:1006BC000646A86A2946FFF726FEDFF84805AA6910
:1006CC0041681143416084F31188002E04BFBDE8DA
:1006DC007040FFF74BBF70BD10B5DFF81C48002011
:1006EC00208101E000F028FA60680028FAD06068E8
:1006FC00B0FA80F0C0F11F00A16901EBC000616984
:10070C00814209D2226960610068206100F1100108
:10071C0002F1100001F02CFE20890028DFD110BD61
:10072C0010B5DFF8F047208908B1FFF7D5FF00209E
:10073C00208040F2000CEFF311808CF3118810BD77
:10074C0038B501F011FE00B3002407E0214600206B
:10075C0001F07BFF002100F065F9641CDFF89407C1
:10076C0000688442F2DB0024DFF8A85706E0286B0F
:10077C0050F82400002100F055F9641CDFF89807AC
:10078C0000688442F3D34FF0FF3032BD5FF00000BD
:10079C0010B594B02021EFF3118081F31188DFF8AC
:1007AC00744701E000F0C8F960680028FAD060686E
:1007BC00B0FA80F0C0F11F00A16901EBC0006061CC
:1007CC0000682061002020810220FFF735FC40F2F8
:1007DC00000CEFF311808CF311882021EFF31180C2
:1007EC0081F3118801F0ABFD206900F1100104A820
:1007FC0001F0BEFD14B010BDDFF8FC160888012214
:10080C000A8070475FF0000000B1704710B52021DE
:10081C00DFF80047EFF3118081F31188208920B1B4
:10082C00FFF7E3FE08B1FFF757FF0020208040F2EE
:10083C00000CEFF311808CF3118810BD00B17047E0
:10084C0010B5DFF8D046208920B1FFF7CEFE08B1F5
:10085C00FFF742FF0020208010BDDFF8B8060069CA
:10086C0070470000808F012800D0704710B5202001
:10087C00EFF3118480F31188DFF89806C168491EE4
:10088C00C16004D184F311880020FFF7E6FB84F3E8
:10089C00118810BD70B5DFF87C060469FFF7ACFF5A
:1008AC0005462020EFF3118680F31188204600F0D6
:1008BC00F9F8032020752046FFF7D4FF86F3118842
:1008CC002046FFF726FD28464EE00000DC0D0020F8
:1008DC0010B52021EFF3118481F311888068214633
:1008EC0000F00AF984F3118810BD000000B97047BC
:1008FC0030B58DB0024600ABDFF8201604A8FFF728
:10090C0092FC04A803902020EFF3118480F311884B
:10091C00FFF772FF00F020F800F0C4F80398FFF71F
:10092C0090FC00A8FFF7F5FC029900A8886184F3FD
:10093C0011882846FFF768FF2020EFF3118480F31D
:10094C0011880398FFF7F8FC0020039084F31188BA
:10095C00029988610DB030BD0546DFF8B805006915
:10096C0002907047B00D0020BDE870404CE70000CD
:10097C00B00D002084A400002DE9F0411646044679
:10098C00B069A0600D46706A984610B9DFF8900502
:10099C0000686062376A17B9DFF88805076801F0EC
:1009AC00E9FCF26941424AB340B1401E801808404C
:1009BC002062381A10180840E06101E02262E761F9
:1009CC004FF0FF306062A5623069E06270692063AD
:1009DC00B06A6063B08DA087012804D1DFF83405BC
:1009EC00C168491CC1604146204600F01BF8044612
:1009FC00404601F0D3F990B1E01C10E020B1C219CF
:100A0C00521E1140E16100E0E7610246E169606A53
:100A1C00434601F00BFA00282062D4D10120BDE836
:100A2C00F081000070B50D4604462B46DFF8F82423
:100A3C00DFF8F81401F09AFC2061284601F0AEF9B9
:100A4C0060BB012020750020A061A168DFF8C40400
:100A5C0000290AD50021E160DFF8D41409680818D0
:100A6C0020642146FFF75AFC18E0A268012191404E
:100A7C00E160A168806901F071FD2064FFF7BCFEA4
:100A8C0005462020EFF3118680F31188204600F0F4
:100A9C0027F886F311882846FFF7B6FE002070BDB4
:100AAC0028A400002DE9F0410446DFF86854266CB8
:100ABC006F68D4F80C80FFF73FFC3046FFF71CFC46
:100ACC0010B127EA080068602869A04204BF002022
:100ADC0068610220207501202881BDE8F0810000AA
:100AEC0010B52021EFF3118481F31188214600F019
:100AFC0003F884F3118810BD2DE9F041DFF814647C
:100B0C00776804460D46D4F80C80206C2146FFF71C
:100B1C00FAFB48EA07007060202101202075308123
:100B2C0085F31188EFF3118081F31188BDE8F08112
:100B3C0090A400008103000080B5DFF8F803DFF813
:100B4C00F823006890420DD140F2000CEFF31180B5
:100B5C008CF31188FFF7BBFB2021EFF3118081F39D
:100B6C00118801BD010013D140F2000CEFF311808C
:100B7C008CF31188002001E00098401C0090009834
:100B8C000028F9D02021EFF3118081F3118801BDE9
:100B9C0080472021EFF3118081F3118801BD000003
:100BAC0080B501F0A0FB08B14FF0FF3002BD01F0A1
:100BBC00C8BB01F0C8BB01F0BEBB38B50446084643
:100BCC001146049D1A462B4601F096FB60602846A0
:100BDC0001F0E4F800B1012032BD00B585B0002170
:100BEC0001A8FFF7E8FF039804E00099BE20087005
:100BFC000098401C009000A900988842F5D305B0DD
:100C0C0000BD00008C0E002094A4000001F095BBE8
:100C1C0010B52021EFF3118081F31188DFF81C034C
:100C2C0041698269C90802EBC101083901610024DC
:100C3C004FF0FF31016007E02146002001F0B0FBCE
:100C4C00002100F04FF8641CDFF8F40200688442C5
:100C5C00FFF6F2AF4FF0FF3010BDFEB51746DFF8D0
:100C6C00E42205460846DFF8D41268821E46C9699C
:100C7C00126851F82010089C914210D0019000216C
:100C8C00DFF8C4020068009002918F23DFF8BC02E9
:100C9C0001880022204601F097F80120FEBD00F0EB
:100CAC00ADF8AF6070696860306A10F1010F08BF71
:100CBC00FF2028740020318B01B10120B18C09B1C7
:100CCC0040F00200E8602146284600F00BF805468B
:100CDC00204601F063F800B1E81CFEBD35050000AC
:100CEC0098A4000038B50446217BB4F9120089079A
:100CFC00054602D5217C202907D2A16800F0C2F854
:100D0C00B4F912004042608209E0DFF83002DFF8EB
:100D1C004012406A40F82540284600F0B3F8217C88
:100D2C00284600F0D9F8207BC00744BF284600F0C5
:100D3C0087F80020E06032BD012900D1704710B562
:100D4C00B0F91240204600F059F8DFF8F8010168BC
:100D5C00204600F097F8DFF8E411496A002041F8CA
:100D6C00240010BD10B5DFF8D401DFF8E821C1690B
:100D7C00DFF8E40101600368934211D0002302E024
:100D8C0041F823405B1CDFF8D4412468A34207D20E
:100D9C000F2B32BF52F82340DFF8A8412468EFE74D
:100DAC00DFF8BC214168126821F47F4101EB02217C
:100DBC00DFF8B0215118416020218176DFF8A811AD
:100DCC000968C16010BD000040F2000CEFF3118007
:100DDC008CF31188704700002021EFF3118081F310
:100DEC001188704780F311887047000040F2000CA6
:100DFC00EFF311808CF31188704700001028DFF896
:100E0C006C110FD3A0F1100252091038012300F01D
:100E1C001F0011EB82018340D1F80001C1F8803131
:100E2C0018400AE00F2807D108690A6932F002025B
:100E3C0000F002000A6100E0002000BF70470000D3
:100E4C001028DFF828110FD3A0F110025209103826
:100E5C00012300F01F0011EB82018340D1F8000147
:100E6C00C1F8003118400AE00F2807D108690A6957
:100E7C0052F0020200F002000A6100E0002000BF04
:100E8C0070470000DFF8B420D26942F82010704798
:100E9C0010B5DFF8DC40206901F05CFC002020601C
:100EAC0010BD30B5DFF8C820936943605469846085
:100EBC0025462A78BE2A04D0012200210160104662
:100ECC0030BD00220029F8D015F8011BBE29FBD03B
:100EDC00691E591A6118F1E7DFF890208218102862
:100EEC0002D382F8F0137047042828BF82F8141D2F
:100EFC0070470000A0A40000480C0020DFF83C3034
:100F0C005B6801221A80DFF8502112681300FED0B2
:100F1C0010470000480C0020B0A40000DD080000C1
:100F2C00A8A40000ACA40000A10800002D0700003C
:100F3C009CA40000A4A40000DB0200008C0C002088
:100F4C0068A4000074A4000060A400000E28000037
:100F5C00659C00000000000008ED00E064A40000A7
:100F6C0078A400000000FA056CA4000000E000E08A
:100F7C008C0C0020F8B507462021EFF3118081F38B
:100F8C001188FFF739FC0446FFF736FB05460020B5
:100F9C00FFF752F80646DFF8000AA749406AD1F875
:100FAC00041DC9B250F82110CF6040F2000CEFF3D1
:100FBC0011808CF311884868896888472021EFF3E9
:100FCC00118081F311883046FFF736F805EB0420C9
:100FDC00F2BDC0B2FFF730BB000AFFF72FBC7CB5E7
:100FEC000446DFF8140B00880D4600281CBFE1698D
:100FFC000029164603D0206ABE2201F0CFFB206BDD
:10100C0001902B46E06A00903246A16A206AE4699E
:10101C002018001F01F0F6FB76BDDFF8180B0068F6
:10102C00704701F025BC80B5002301223421DFF884
:10103C003C0A01F0DBFE00B10120C0B202BDDFF8BA
:10104C00F81A0A68002812BF42F00100500840004C
:10105C00086070477047FEE770A4000080B504205C
:10106C0001F0F8FE022818BF03280DD103200090D0
:10107C001C234FF040520021DFF8F00901F093FEE1
:10108C00BDE80240042063E0DFF8E419DFF8E4294E
:10109C000968DFF8A80A12680818DFF8A81AB1FB6B
:1010AC00F2F18160BDE80240FFF7FAB880B5DFF8D5
:1010BC00C8090078DFF8C40901688908890041F083
:1010CC000101016001F0D3FE01F05DFFDFF8B01902
:1010DC00002008600220DFF81C1A0968C9688847DC
:1010EC00DFF8780A016849084900016000F00FFA3E
:1010FC00042000F00BF900F0A4BCDFF84C1A405CA3
:10110C0070470022012904D1012807D1DFF8000A19
:10111C0003E0012802D1DFF8480A02681046704744
:10112C00DFF8180A0079704701F0B6BE10B520211F
:10113C00EFF3118481F31188DFF8001AC9880120BC
:10114C00012908BFFFF76FFF84F3118810BD000061
:10115C0030B52022EFF3118182F31188B0FA80F2BE
:10116C00C2F11F02DFF8D839D25CB0FA80F4C4F1B6
:10117C001F04551EE55405D1DFF8C029136823EA76
:10118C000000106081F3118830BD00002DE9F041A2
:10119C002021EFF3118481F31188DFF8AC19425C44
:1011AC00531E435444D1DFF8A419DFF8A48901EB92
:1011BC0080052E786F88300618D5D8F80010096A8B
:1011CC0038468847D8F80010896A38468847D8F8D6
:1011DC000010096B38468847DFF878190120086041
:1011EC00DFF8740900688007FAD514E0700606D59C
:1011FC00DFF8601A51F82710002088470BE0D8F868
:10120C000010896938468847D8F80010496B384671
:10121C0088470228F8D106F03F003F2818BFFFF797
:10122C00B5FF687800F03F003F2818BFFFF7AEFF0E
:10123C0084F31188BDE8F08100E000E010B508B13E
:10124C00140001D1032010BD8160C260036101460E
:10125C00DFF81029DFF8000A12681018FFF75EF8A3
:10126C00002010BDF8B504462020DFF8DC18EFF3A1
:10127C00118580F31188625C531C6354002A3ED1A3
:10128C00DFF8C81801EB8407387800F03F003F28DE
:10129C0018BFFFF7E7FF787800F03F003F2818BF32
:1012AC00FFF7E0FF7E883878DFF8A478010613D5C5
:1012BC003968C969304688473968496A3046884771
:1012CC003968C96A3046884700F036F8DFF8880874
:1012DC0000688007FAD512E0400606D5DFF87419CD
:1012EC0051F826100120884709E0396849693046D1
:1012FC0088473968496B304688470128F9D185F30E
:10130C0011882046BDE8F24000F0DABF2022EFF34E
:10131C00118182F31188DFF82428136803431360CA
:10132C00B0FA80F0C0F11F00DFF81428835C5B1C5E
:10133C00835481F311887047DFF818180120086076
:10134C00704700002DE9F04F4FF0000800210128F4
:10135C0083B0C1468A4618BF022410D12022DFF880
:10136C00F878EFF3118082F311883A79012A06BFDD
:10137C0002223A71012180F3118809B10624BDE0E3
:10138C00FFF73AFA0090012000F0E3F8040002D0D5
:10139C0001203871AFE0FFF72FF9DFF8B019019099
:1013AC00C1F80090012001F055FD012804D1002066
:1013BC0000F066FF4FF00108DFF8A448DFF888570B
:1013CC00216889680020884700F0A1F8687C08B182
:1013DC004FF00109287C08B149F00209E87B08B1FB
:1013EC0049F00409E87ADFF8646718B1A16AF08D56
:1013FC00096B8847A87A18B1A16A708D096B884768
:10140C00FFF79AFF49F02000A16A896988470120FB
:10141C00FFF715FE3878C00748BF4FF0010A12D409
:10142C00DFF82C0901F0E4FD8346BBF1040FF7D083
:10143C0000F067F88008800008600321A26CDFF8D8
:10144C00100952689047002001F0DAFD00F05FF8B7
:10145C00A06A806B8047BAF1000F0AD1A26CDFF84A
:10146C00F00852685946904700F04BF840F00300E2
:10147C0008600120216889688847DFF8D80800686F
:10148C008006FAD5B8F1000F1CBF012000F0F8FE61
:10149C00A16A496948468847A16A496B484688470A
:1014AC000128F9D1E87A18B1A16AF08DC96A884788
:1014BC00A87A18B1A16A708DC96A8847FFF73CFFFA
:1014CC000020FFF7BCFD03203871042000F041F828
:1014DC00DFF878180120086000F019F801F09EFE82
:1014EC00082000F036F80446012038710198FFF707
:1014FC0089F801F01EFE0098FFF786F92046BDE83A
:10150C00FE8FDFF8E008DFF8DC1800687047DFF8C2
:10151C00380800687047000038B52020DFF83857CD
:10152C00EFF3118480F31188E888012803D101F0CE
:10153C0007FD0020E88084F3118831BD10B520210F
:10154C00EFF3118481F31188FEF7F6FE84F3118812
:10155C0010BD38B500F024F80818FEF7CDFE0025B4
:10156C0040B9204600F008F820B1DFF88008006888
:10157C0080470225284632BD70B500F011F80D18D1
:10158C002E68B068204206D03169F2682046904738
:10159C00C0B2012803D03668AE42F2D1002070BD33
:1015AC00DFF8C01509680446DFF8AC067047000088
:1015BC0030BF704770B501F02DFEDFF880552E68F6
:1015CC0006F00C000C2848D0700724D4FEF766FDFA
:1015DC00044600210120FFF794FDA0421BD2DFF846
:1015EC000C0400684519DFF88C040668DFF8F8076E
:1015FC000068B0FBF6F0201AA8602846FEF750FEF3
:10160C004FF47A70B0FBF6F200210120FFF79AFE3E
:10161C000020A88223E030071FD4DFF84005DFF854
:10162C003045DFF82457F10601685ABF49084900D4
:10163C0041F001010160DFF8AC07016841F00301E2
:10164C000160202021688969884728682068806BA0
:10165C00804701202860286801E0FFF7A9FF01F00E
:10166C00DDFDBDE8704001F08FBD000010B50C1819
:10167C0001F0D0FD401E8041C00FDFF884170A68CE
:10168C00002AFCD0246801220A6008B101F0C6FDD2
:10169C00204610BD80B50420FFF738FE0820FFF768
:1016AC0035FE0E20FFF7DEFDDFF85807DFF8581780
:1016BC000068C0F3815003280CBF01200020088073
:1016CC00DFF8480702680AB1012002BDDFF848378D
:1016DC0040221A600122C2610020486002BDDFF87E
:1016EC00141410B50968DFF8284782B00968202067
:1016FC0088470F202060072341F61D5060604FF48F
:10170C00C0720220009000F0C7F8DFF80807012132
:10171C00016001688907FCD501212161DFF8E846E9
:10172C002188012907D1002101610220202100F02C
:10173C008FF8012004E00121002000F089F802203C
:10174C00606013BD2DE9F041DFF8D006DFF8B84634
:10175C0082B0016842688A43426001616068002877
:10176C0004BFBDE8F341FFF7BABF0128DFF8B0169C
:10177C001AD10220606008684BF2F5214843618859
:10178C00000A11B10021618006E0DFF898160968A3
:10179C00090210EB11204008DFF88C160860000CD1
:1017AC004860012088600CE002280FD10868B0F571
:1017BC00C06F02D10020606045E00321616000F041
:1017CC006FF80121BDE8FC41002041E003283DD128
:1017DC00002060600868A0F5C065A06800F0B2F851
:1017EC000646284600F0AEF886422CDAA669284652
:1017FC0000F0ACF88019A061E56860699B4E8542E9
:10180C000ED0A769A7F1100000F09CF88046206963
:10181C00103800F097F8804502DABFB200970BE061
:10182C00ADB2009508234FF47F423021304601F0D1
:10183C00BAFA206980B2009012234FF4F802042106
:10184C00304601F0B0FABDE8F3418AE0BDE8F3811F
:10185C0070B50D46DFF8484682B0032121600021A7
:10186C00DFF84066316031688907FCD480B20090A3
:10187C000523602200F010F80120306030688007EA
:10188C00FCD5A561002020600821DFF88C05C16023
:10189C0001600120206073BD0021744801F083BAFF
:1018AC0070B50646714C82B030212046FFF7DEFE43
:1018BC00DFF85455C0F30720E86004212046FFF7F9
:1018CC00D5FEC0F384402861A6F5C060A8602E69DF
:1018DC0000F03CF88019A861A969E868022909DAC6
:1018EC00401E6FF03F039842B8BF184610310BD51D
:1018FC00002109E01E2908DB401C4028A8BF3F201E
:10190C0010392029A8BF1F21A9616861082380B262
:10191C0000904FF47F42302100F011F8012000902C
:10192C0011234FF4003200F009F8A86980B200903E
:10193C0012234FF4F80200F001F873BD0421204685
:10194C0001F031BA002848BF4042704700284CBF14
:10195C006FF00101022101EB4000032190FBF1F03B
:10196C00704780B5DFF8AC0400210160016889077D
:10197C00FCD40021016041600120DFF89014086064
:10198C000E20FFF703FC0820FFF7E2FBBDE8024046
:10199C000420FFF7DDBB00008C0C002010B50446C2
:1019AC000020D4E90A2347F6906101F03FFC01299D
:1019BC0028BF4FF0FF3010BD10B50C4601F0AEFC47
:1019CC00011D201AB0F1004F05D8081BB0F1004FD3
:1019DC0038BF8C4200D20C46DFF8E0231268526A02
:1019EC002146BDE8104001201047000040A4000033
:1019FC002DE9F04180460A46D8E90A01D8E90C45A0
:101A0C00A0FB026701FB0277A6196F41340C002280
:101A1C0044EA07414046FFF7CFFFC8E90E67BDE82F
:101A2C00F08180B5DFF82C05006800281EBFDFF8B8
:101A3C0088034068002804D0818811B1002100F08F
:101A4C00C3F84FF0FF3002BDDFF80805006800282E
:101A5C001EBFDFF864034068002806D0818821B1DE
:101A6C00017B002908BF00F00DB8704700A00C40A6
:101A7C0044A4000088A40000C636002004400340A3
:101A8C0040100940F8B506462020DFF83453DFF843
:101A9C00E075EFF3118480F31188286840F0800022
:101AAC0028600120B96849688847F96A096A1420D6
:101ABC0088473069BA68526AB0F5802F34BF042168
:101ACC00010C012090473A681268232100209047AE
:101ADC00B968C96901208847286820F4E02040F4DF
:101AEC0080302860286840F00100286084F3118859
:101AFC00F1BD0000A00100101A2E0000DFF8BC059B
:101B0C0003684068002200211018594170470000FA
:101B1C0050A40000DFF8A412DFF89C0210B509688D
:101B2C0044684968012088476069A169BDE8104094
:101B3C00084700007CA400000C200840A80A0020E4
:101B4C008C360020A086010028360020289E00003C
:101B5C00B801001028200860282008408C2108407B
:101B6C0054A4000048A40000F8B504460D46FFF745
:101B7C00C5FFD4E90A6732463B4601F057FB3DB13D
:101B8C00A6FB002306FB013307FB0033C4E90C233F
:101B9C00F2BD38B5DFF82842DFF820522068400843
:101BAC0040002060206840F0800020600120E0624E
:101BBC00E06A2968496801208847696A096A142023
:101BCC008847E06A31BD000010B52021EFF3118485
:101BDC0081F31188FFF7DDFF84F31188002010BD1D
:101BEC00704700002021EFF3118081F311887047BA
:101BFC0081F3118870470020704710B50446DFF858
:101C0C00F404006800220121001900F0ECFC002013
:101C1C00606010BD38B50446DFF8A85160682969CA
:101C2C0088420BD0DFF8CC0400684FF0FF3100196C
:101C3C00FEF7B6FB28696060002032BD012032BD82
:101C4C0031B94160DFF8AC1409680818FEF70ABC1A
:101C5C0070470000E80E0020A80A00200120704701
:101C6C00900100102DE9F04105461646EA699846A8
:101C7C0030460F46A96901F063FBB8F1000F3C46F2
:101C8C00766005D0EA6908234146304600F064F8D6
:101C9C00F6686969CFB9079BAA68E86800F0F9F89B
:101CAC00070008BF00201BD000F0DCF96968396020
:101CBC0007F10804696849687960696849680F60C8
:101CCC0069684F6000F095F803E00839204601F090
:101CDC0073FB286810F1010F18BF206000F023F887
:101CEC00BDE8F081F8B505460C461646EA69A969C7
:101CFC001F46304601F024FB76602FB1EA690823B9
:101D0C003946304600F028F86869F668A0F10801F9
:101D1C00204601F051FB286810F1010F18BF20601C
:101D2C0000F001F8F2BD286908B171680151204634
:101D3C0070470800194606D0130004D011F1010FAA
:101D4C0008BF1047104770472C2009400C40094031
:101D5C0000400340141009402DE9F843D1F80C80E1
:101D6C00D8F800900446086815461E46AF1BA0EB39
:101D7C000902BA4288BF3A46204601F0E1FA2560D2
:101D8C0064603D19B14588BFB146E5604A4641469D
:101D9C00284601F0E5FA2E60BDE8F183DFF86C13FC
:101DAC000978012904D118B1C06810B1012000E0F4
:101DBC000020C0B270470000440F00208C010010BE
:101DCC0000200940480C002010B584B0089C0294F7
:101DDC00079C0194069C0094DFF834432468A047C8
:101DEC001FBD00002422084058A400004CA4000091
:101DFC00FEE70146DFF80003006800F0C4BA0000FB
:101E0C0000800C40B43F0050700E002004800C4049
:101E1C000C400C4034600C402C500C4028500C40B2
:101E2C0008400C40102009403C600C402DE9F0416A
:101E3C000546984684B00E4617464046FFF7AEFF5F
:101E4C00044617B9DFF8CC020768002D12BF2846EC
:101E5C00DFF8C402006843463A46314600F08CFA7B
:101E6C00070012D11CB94046FFF798FF68B9DFF89C
:101E7C00AC0200680090029601953423DFF8A002B2
:101E8C00018800224046FFF79FFF384604B0BDE8AA
:101E9C00F08180B50093002300F006F802BD00002D
:101EAC0000400C4038600C4070B51D46049B0C463D
:101EBC00FFF7BCFF060003D02A46214600F06EFC5B
:101ECC00304670BD0A6942604A6982604969C160E6
:101EDC007047F8B50446DFF84C0200680D4617460B
:101EEC0000F04FFA616800267A1E0A4018BFBE1A2D
:101EFC00A26873199A4203D2FFF77BFF0020F2BD50
:101F0C007718521B921B5918A2606160FFF771FF82
:101F1C003846F2BDDFF810020088012800D0704767
:101F2C00E0B50020029001905523DFF80002006814
:101F3C0000900022DFF8F80101880020FFF744FF31
:101F4C0007BD00207047C2680A60806848608860DE
:101F5C00704700005CA40000DFF8D801818801B153
:101F6C00704738B5012181800024DFF8CC5104E0A2
:101F7C00686850F824008047641C28688442F7DBAA
:101F8C00DFF8B801DFF8B85100688047002404E09E
:101F9C00686850F824008047641C28688442F7DB8A
:101FAC0031BD2DE9F0470D4600268246012DA4BF18
:101FBC00A90001F005FADFF87C71DFF88801C7F899
:101FCC0000A00024D0F800800CE0DFF87C01006851
:101FDC0030F8140028B158F82410002088474AF82B
:101FEC002400641CAC42F0DB0120F880B14601E017
:101FFC0009F10109DFF854010068814518DA01265E
:10200C00002402E000200640641CAC420EDA5AF8B0
:10201C00240010F1010F07D058F8241088474AF813
:10202C00240010F1010FEDD10120ECE73000DFD0DE
:10203C001EB90FF2341000F008F800203860BDE82B
:10204C00F08700BF4FF0FF30704710B5044600F02A
:10205C0009F8204600F099F9DFF8F4000068BDE8B3
:10206C0010400047DFF8BC00006800F08AB900009F
:10207C008401001038B50546FFF7F4FFDFF8D410E3
:10208C00DFF8D4304A681B6801249A4206DA0B68E0
:10209C0043F822504A68521C4A6000E00024FFF7C3
:1020AC00A8FE204632BD10B5044600F00BF82046C1
:1020BC00DFF8A8100968BDE810400847082009405F
:1020CC00FEE7FEE770B50446DFF82C00DFF884501D
:1020DC00FFF7CAFF6E6806E0296801EB8601761EE1
:1020EC0051F8041C8847012E2046F5DABDE87040F3
:1020FC0000F04DB980A40000E8A40000184909685C
:10210C000847184909680847FEE77047D2330000B2
:10211C00B8A40000600F0020CCA40000B4A4000000
:10212C00CA330000E8A40000C2330000BCA40000C5
:10213C00263300009C36002030A40000D0A4000000
:10214C0038A40000DCA40000D8A40000D4A4000033
:10215C00ECA40000A4360020F4A40000F0A40000BD
:10216C00E0A40000E4A400007864632E72756E7421
:10217C00696D652E537461727475703A20276D61A8
:10218C007850617373657327206578636565646542
:10219C006400000000B589B0082100A8FFF701FF1A
:1021AC0009B000BDFEF73DBF00B581B00FF21D00B8
:1021BC00FFF760FFFFF748FCFEF728FDFEF714FA67
:1021CC0001B05DF804EBFEF7E1BA000000B581B098
:1021DC00FEF712FAFEF710FB01B05DF804EB0320DA
:1021EC00FDF72ABF10B504460320FDF725FF204656
:1021FC00BDE81040FFF757BF00B581B0FEF760F89F
:10220C00DFF80402C06801B05DF804EBFEF740BAD9
:10221C00DFF8F011DFF8F40188617047DFF8F01196
:10222C0001280CBF40F2FF700020086000207047AE
:10223C0030B581B0FEF7D0FDDFF8D8510446E88800
:10224C0020B100F07DFE60B10020E880FFF722FA9B
:10225C0005461020FFF77DF9012D0BD1FFF73FFA52
:10226C0008E0052105F13000FEF728F805F13000F3
:10227C00FEF716F8204601B0BDE83040FEF7B2BDBF
:10228C0010B5012818D100F0E5FD012816D000F09A
:10229C003FFEDFF880410120E08004F13000FEF7C2
:1022AC000AF8052104F13000FEF708F804F13000BB
:1022BC00FDF7F6FF002010BD00F065FE002010BDFC
:1022CC0010B501240E2805D1012000F0C3FD012812
:1022DC0005D003E0DFF86C11405C00B90024204607
:1022EC0010BD00207047DFF8B400006810B14069E1
:1022FC00C00F704701207047F0B5044630208FB0F6
:10230C000D4600901E461346019602AA0021DFF8E6
:10231C00B801FFF7A7FC070009D0009602AB2A46CC
:10232C002146FEF79AFC3046FFF738FD00B1002736
:10233C0038460FB0F0BDFEF7B4BDFEF745BDFEF755
:10234C00A7BDFEF75BBDFEF77BBDDFF85000006854
:10235C0010B1C069C00F704701207047FFF71EBB5A
:10236C00FFF746BBFFF700BC01207047FEF737BEF6
:10237C0000F06EBAFEF751BE10B50468A468A04711
:10238C0010BDFFF72FBCFFF733BCFFF7B7BEFFF74D
:10239C00B8BE09B9DFF83411FFF7DEBC9C3600205B
:1023AC0001EB410208B9DFF8B00200EBC200704744
:1023BC00F0B58FB004463020149F00900D461646A1
:1023CC00019702AA2146DFF80001FFF78BFC00976A
:1023DC0002AB324629462046FEF73FFC3846FFF753
:1023EC00DDFC0FB0F0BD00B581B0012100910023E0
:1023FC000146DFF8D822DFF8D000FFF79AFC01B0D5
:10240C0000BD00008C0C0020B00D0020000400006A
:10241C0000000460A80A002010B588B002AA0B992D
:10242C000191182100910146DFF83801FFF71AFCE1
:10243C00040008BF002003D002A9FFF7D1FB2046FF
:10244C0008B010BD2836002010B588B002AA0B9930
:10245C0001911821009101460948FFF703FC040083
:10246C0008BF002003D002A9FFF7C7FB204608B025
:10247C0010BD09B9DFF88412FFF76EBC0000000034
:10248C00D8A10000F0B504462C208DB00D4600906C
:10249C001E461346019602AA0021DFF86402FFF7DC
:1024AC00E1FB070009D0009602AB2A462146FEF755
:1024BC0084FB3046FFF772FC10B100200DB0F0BD6C
:1024CC0038460DB0F0BD000098A10000B49F00008C
:1024DC0009B9DFF83012FFF73FBC70B58CB0044679
:1024EC000193242000900D46134602AA0021DFF828
:1024FC001802FFF7B7FB060008BF002005D002AB9F
:10250C002A462146FDF768FE30460CB070BD70B50A
:10251C008CB00446002001900D46242000901646F5
:10252C0002AA2146DFF8E001FFF7DCFB02AB3246E2
:10253C0029462046FDF750FE0CB070BD00B581B0A9
:10254C00012100914FF0FF330146DFF8C021DFF885
:10255C00B801FFF7EEFB01B000BD000008B100EBC5
:10256C00C1007047B8A1000010B588B00446002027
:10257C0001900B461820009002AA2146DFF890012A
:10258C00FFF7B0FB02A92046FDF7AFFE08B010BD67
:10259C0000B581B0012100914FF0FF3301460022BC
:1025AC00DFF86C01FFF7C5FB01B000BD09B9DFF81E
:1025BC006411FFF7D1BB30B58BB0044624200192D7
:1025CC0000900B4602AA0021DFF84C01FFF74AFBF2
:1025DC00050008BF002004D002AA2146FDF7B3FE77
:1025EC0028460BB030BD30B58BB0044600200190AE
:1025FC000D4624200090134602AA2146DFF818014C
:10260C00FFF770FB02AA29462046FDF79CFE0BB093
:10261C0030BD00B581B0012100914FF0FF33014670
:10262C00DFF8F820DFF8F000FFF783FB01B000BD06
:10263C0001EB410208B9DFF8E80000EB021070472B
:10264C0009B9DFF8E010FFF787BB4C22514300B902
:10265C003548081870470000F00C002070B504468F
:10266C003C2092B0154600900B46019502AA002121
:10267C002E48FFF7F7FA060008D02B4602AA21468F
:10268C00FEF77AF92846FFF789FB10B1002012B04B
:10269C0070BD304612B070BD70B504463C2092B08F
:1026AC000D4600901E461346019602AA21461F486D
:1026BC00FFF718FB334602AA29462046FEF75CF9C1
:1026CC003046FFF76BFB12B070BD0000450D0000EB
:1026DC0010B58AB002AA0D990191202100910146F2
:1026EC001348FFF7BFFA040008BF002003D002A96B
:1026FC00FFF7E8FB20460AB010BD000014A0000054
:10270C00F8A1000000A1000018A200001D020000AA
:10271C0038A2000024A1000058A20000750300009C
:10272C00200D0020449F00006C0B002078A20000BC
:10273C0098A2000010B5EFF31484002C1CBF0021EC
:10274C0081F314888047002C1CBF022181F314886C
:10275C0010BD000000B5EFF3038212F0FF0F0DD097
:10276C006A46A2F1200282F309886FF0020E106013
:10277C004FF08071D1610849916170475DF804EBAD
:10278C00694681F3098880F308884FF00200EFF363
:10279C00148180F3148870478927000062F30F229C
:1027AC0062F31F42401810F0030308D0C91A1FD35C
:1027BC00DB0748BF00F8012D28BF20F8022D1300BD
:1027CC0030B414461546103928BF20E93C00FAD81D
:1027DC00490728BF20E90C0048BF40F8042D8900A8
:1027EC0028BF20F8022D48BF00F8012D30BC7047DF
:1027FC00C91818BF00F8012DCB0728BF00F8012D10
:10280C007047220040F8043D40F8042D40F8041DA8
:10281C00019940F8041D009940F8041D0B4940F83B
:10282C00041D81EA0101A1F1010140F8041D40F8E9
:10283C00041D40F8041D40F8041D40F8041D40F828
:10284C00041D40F8041D40F8041D70476D2800005D
:10285C002DE9F04FC0F800D0D1F800D0BDE8F08FD2
:10286C000498804700980199029ADDF80CE0104713
:10287C0010B5DFF86404046814F1010F08BF0024DC
:10288C0000F004FEDFF85414002008600120DFF88B
:10289C0050140860DFF84C140860DFF84C04006832
:1028AC0028B1DFF848040068204600F023F8DFF870
:1028BC004004DFF8402401688908890041F0005188
:1028CC0041F005010160DFF8300401686FF31B4132
:1028DC0011430160DFF824040168C1F301310129BF
:1028EC0007D10168DFF81824114041F4003202606E
:1028FC00016010BD2DE9F84F0446DFF808140120E3
:10290C000860DFF8040401680029FCD0DFF8FC53F0
:10291C00DFF8FC83C0202860D8F80CA0D8F8081089
:10292C00DFF8F00389075DBFD8F80410090C41F0FB
:10293C00F00172210170DFF8E0130968D8F80C205F
:10294C00C1F304611629A8BF203901EB2271491C7F
:10295C006FF009029142B8BF114601F01F0141F41A
:10296C00F8510183CAF3C061DFF8B00381F00101B3
:10297C000160CAF3806181F00101816014B9DFF854
:10298C00A0732DE0DFF89C030068C0F383615FEA5D
:10299C008A32C0F38F2021D44FEA0A4212160AD58C
:1029AC004FF6FF73400804D11846490804BF0121B3
:1029BC000120521CF6D4012A10DB400040F001002B
:1029CC00B0F5803F21BF0120490041F001011029E1
:1029DC0024BF0F214FF6FF70521EECE740EA01476F
:1029EC0000F018FC401E8041C00FCF4E316800290A
:1029FC00FCD0DFF83893C9F810700121316008B1B0
:102A0C0000F00CFC0CB9D82008E0C64A106811681C
:102A1C00C0F3870001F0030140EA0120009040F26E
:102A2C00FF3700233A462C21C14800F0BCF91CB1F9
:102A3C00BC48C06A8704BF0C00F0ECFB401E804110
:102A4C00C00F31680029FCD0C9F814700121316025
:102A5C0008B100F0E3FB002C0FBFB64FB148406A41
:102A6C0020F0033700F0D6FB401E8041C00F3168C8
:102A7C000029FCD0C9F80C700121316008B100F0BC
:102A8C00CDFB0CB9AC4F04E0A648AC49006A01EA96
:102A9C00000700F0BFFB401E8041C00F31680029C9
:102AAC00FCD0C9F808700121316008B100F0B6FB08
:102ABC000CB9A34F20E09B48806AD8F80830DB079C
:102ACC00C0F30352C0F303410BD4D8F804301F05F4
:102ADC0002EB27721B0482F3040201EB237181F3D6
:102AEC000401090441EA025182B242EA0107222C94
:102AFC0024BF00F08040074300F08CFB401E804157
:102B0C00C00F31680029FCD0C9F804700121316074
:102B1C0008B100F083FB2220222C824F06D3F86BE5
:102B2C00000F00F00100400040F0200085490872C1
:102B3C001120222C05D3F86B400F00F0010040F05F
:102B4C001000202C08724FF0000B07D3B86CC10C8E
:102B5C0001F44071C0F3845040EA010B00F05AFBC1
:102B6C00401E8041C00F31680029FCD0C9F820B04C
:102B7C000121316008B100F051FB6020202C06D3FC
:102B8C00B86C000D00F00300400040F060006D498F
:102B9C00C8728020222C06D3F86BC00E00F0010006
:102BAC00C00040F080000870222C4FF47C4006D30B
:102BBC00F86B400D00F03F00800040F47C4062490F
:102BCC00DFF888B10880202C0AD3B86C0203810A84
:102BDC0002F47C1242EA815100F00F0041EA003B02
:102BEC0000F018FB401E8041C00F31680029FCD05A
:102BFC00C9F800B00121316008B100F00FFB544856
:102C0C0044210170882181700CB9302105E0F96BE9
:102C1C00C90C01F0030141F03001C1704FEA9A5028
:102C2C0010F0030003D002283CD012D33CE0012169
:102C3C00042000F0EDF843F2BD70E86386202864B0
:102C4C0001206864434801680029FCD000206864B6
:102C5C002EE0012000F0FEF804462146042000F08E
:102C6C00D7F8042000F0F6F8A042FAD1D8F80030DA
:102C7C001802000A81B2E963000C28640120686420
:102C8C00344801680029FCD0002068644FF06022B1
:102C9C00180E314B1B681B68072198474FF4806056
:102CAC00C9F83800032100E00221042000F0B0F83C
:102CBC00F8692A4900F03F00087047F618002849C7
:102CCC00088010492748006800202860086001200F
:102CDC0025490860BDE8F18F1C1300508404604244
:102CEC005C600C400822044380012843000120430F
:102CFC00044003400000390148200340040009400F
:102D0C00FFFFFCFC101009409402224300600C40B1
:102D1C00A83F005056620840B812005000002043F3
:102D2C00FF0F0F005013005000800C4008A00C4007
:102D3C0000A00C40000088688A766800FFFFFC0049
:102D4C00273F710041A10C40DCA10C4000803F40AA
:102D5C0005A10C4084088C43B40100100BB00C404E
:102D6C0070B00C402C2009409404604238B50446E5
:102D7C000D4600F04FFA401E8041C00F1A490A68F8
:102D8C00002AFCD0012D02D0022D02D003E02478C1
:102D9C0002E0248800E0246801220A6008B100F0F7
:102DAC003DFA204632BD38B500EB4100102B00F542
:102DBC00007402D3103B241D120C0498984040EA76
:102DCC00024500F027FA401E8041C00F06490A68F0
:102DDC00002AFCD0256001220A6000281CBFBDE837
:102DEC00314000F01BBA31BD00800C4038B51D4697
:102DFC000818102D144602D3103D801C240C0221FF
:102E0C00FFF7B4FF04EA000188B2E84032BD0100CC
:102E1C0038B50446E0070D4607D5A8B2009000234C
:102E2C00012200216B48FFF7BEFFA00707D5A8B20F
:102E3C0000900123022200216648FFF7B4FF6007CF
:102E4C0007D5ADB2009502230C2200216148FFF793
:102E5C00AAFF31BD0146042907BF1D234FF0C04214
:102E6C001C234FF080525B483421FFF7BFBF10B5D5
:102E7C00594C21688968012088475848016889069F
:102E8C00FCD5216909684020884721698968402060
:102E9C0088471128F9D110BD70B5054600F03EFAEF
:102EAC004F4C6168401A4FF47A714843060C00F09D
:102EBC00F7FA2169401A48BF4042711940F6B932FD
:102ECC00914207D2062805DAA068E168814201D355
:102EDC00226852B943494A68D2074FF4FA6016D4B3
:102EEC000868C0B27D21484308E0081A3E494843AF
:102EFC00000C00EB9000904238BF1046C82801D25D
:102F0C00C82070BDB0F57A6F88BF4FF47A6070BD81
:102F1C0010B582B00120009000232E4C01221946DE
:102F2C002046FFF740FF01200090034602220021BB
:102F3C002046FFF738FF00F0F1F92949886013BDEE
:102F4C0080B50120FFF786FF01281AD0002301224B
:102F5C0034212048FFF74AFFA0B12448006880477D
:102F6C0000F0DCF91E498B680A68C860A2EB92027B
:102F7C00C01A1D4B5843000C0860904238BF1046D5
:102F8C000860012002BD10B582B0002000900146FF
:102F9C00104C002301222046FFF705FF0020009073
:102FAC000146012302222046FFF7FDFE1C234FF0B1
:102FBC00805234212046FFF719FF10B10B480068EE
:102FCC008047074C00F0AAF9606000F069FA2061B4
:102FDC0013BD000000A00C4090010010141009401B
:102FEC003C360020AC3F005040420F0080000010E7
:102FFC000068010701D50420704700F003007047FA
:10300C00F8B505467748784C0068800705D5082048
:10301C00A071764976480860F1BD00F041FA754A16
:10302C001268002112F0030F18BF0121520748BF8C
:10303C0041F002010DB141F0040194F90720821A0C
:10304C00052A02DAA279914259D0A0F10F0200258B
:10305C000023002A1FD402EB02121312082B28BFE4
:10306C0007231D46072D28BF0625634E06EB850753
:10307C0056F825507F687E1BF5B24F0744BFC6F348
:10308C0007277D198F0744BFC6F307477D19CF0764
:10309C0048BF05EB1665584E56F82370FEB25FEA32
:1030AC00417C44BFC7F3072C66445FEA817C44BF74
:1030BC00C7F3074C66445FEAC17C48BF06EB176652
:1030CC00A2EB03226A434D4B1D681B68A171803231
:1030DC00092A92412D17C5F108053427D243DBB2DA
:1030EC007D436B4306EBD272B3FBF2F2B2F5803F39
:1030FC0028BF4FF6FF7200F30700A280E071404832
:10310C000068A188206000201F2904D21F21A18003
:10311C0004E04908401CB1F5007FFAD20F390909C7
:10312C0040EAC100314A3749084310600020506022
:10313C00F1BD10B53448006884B224B300F0B0F986
:10314C00294991F90720904205DA6FF07F029042ED
:10315C00B8BF1046C8718888844201D28C8010BDDB
:10316C00274A12680B68D21A921C202A28BF1F22E9
:10317C00231A520823FA02F42018B0F5803F28BF16
:10318C004FF6FF70888010BD2048006800B970476A
:10319C0010B41F498A6802F04063B3F1406F1ED02F
:1031AC004B689B071BD40F4B1C680968C1F3035178
:1031BC001C31090114F0050F06D088420FD224F0FF
:1031CC000500186010BC7047814208D2100158BF2E
:1031DC0044F00104500158BF44F004041C6010BCBE
:1031EC007047000000000940943600203010094060
:1031FC00FDFDA400242208409C130050B43F005055
:10320C000820094000FFA4803410094028500940D0
:10321C00AC3F0050EFF3108072B67047EFF31080A4
:10322C0062B670470138FDD1704770471B4213D10D
:10323C00094236D12AB18446B0FBF2F002FB10C22F
:10324C00704700F041B9FCD30022002370470B00FB
:10325C000200002100207047904271EB030CF6D362
:10326C0070B5B1FA81F4B3FA83F52C1BA340C4F109
:10327C00200532FA05F63343A2405FF00046E640E3
:10328C0002E05B085FEA3202841A71EB030524BF8B
:10329C00204629467641F4D302000B003000002171
:1032AC0070BD012ACFD970B5140C20D0B1FA81F4BD
:1032BC00B2FA82F5C4F120046419B4F12006D6D315
:1032CC00B2405FF00044F440002502E052085FEA8F
:1032DC003303C61A71EB020E24BF304671466441AB
:1032EC006D41F3D302000B002000290070BD0C4689
:1032FC00B1FBF2F102FB11452D0445EA1045B5FB7B
:10330C00F2F402FB145580B240EA0545B5FBF2F02D
:10331C0002FB105240EA044070BD0A0038B5FFF7BA
:10332C0079FF06490C684D68401E8041C00F18BFDC
:10333C00FFF774FF280C40EA044032BD0820094016
:10334C0062B38B0708D0521E11F8013B00F8013B09
:10335C0000F024808B07F6D1830740F0208000BF5B
:10336C00103A07D330B4B1E83810103AA0E838104E
:10337C00F9D230BC530724BFB1E80810A0E80810FC
:10338C0044BF51F8043B40F8043BD20724BF31F84A
:10339C00022B20F8022B44BF0B7803707047083ABD
:1033AC0007D3B1E80810083A40F8043B40F804CBC6
:1033BC00F7D25307E4E701000022FFF7F3B9090045
:1033CC00002200F087B801002D480068000C00F0C6
:1033DC000700032828BF4FF0FF30704729490968C0
:1033EC00C1F30F314BF69A1291424FF0FF3001D1DD
:1033FC00002070474BF6BE12914201D1012070475C
:10340C004BF62032914208BF0220704710B41D4980
:10341C001D4B0A681B680968120FDBB2802B28BF92
:10342C000023C1F30F314BF69A14A1424FF0FF3039
:10343C000CD1012A08D0032A1DD0072A1DD0082A36
:10344C0008BF03F1160013E00A2011E04BF6BE147E
:10345C00A14206D1002AF7D0022A09D103F11400A7
:10346C0006E04BF62034A14204BF002A03F10A0007
:10347C0010BC40B270471420FAE71520F8E70000A2
:10348C009412005018130050A010005080B5FFF794
:10349C00A5FF18B9FFF7BAFF162800DAFEE701BD41
:1034AC000748084A816812780068C90352B2A0F52F
:1034BC004070C9135043A1EB2010803000127047AC
:1034CC00285009400C1300507047000062F30F2283
:1034DC0062F31F4200B500BF1300964694461039A4
:1034EC0028BFA0E80C50FAD85FEA417C28BF0CC07A
:1034FC0048BF40F8042BC90728BF20F8022B48BF4F
:10350C0000F8012B00BD000070B5694D044600F0B9
:10351C0015F80826E109286814BF012200220A21A7
:10352C0001F075F9286801220B2101F070F900F007
:10353C0005F86406240E761EECD170BD28680022B6
:10354C000B2101F064B910B5594C206801220B21F4
:10355C000AE010B500F020F8206801220A2101F0E1
:10356C0056F9206800220A2101F051F92068BDE8C3
:10357C00104000220B2101F04AB910B500F00CF8F4
:10358C00206800220A2101F042F92068BDE81040B1
:10359C0001220A2101F03BB9454C206801220B2184
:1035AC0001F035B910B5044641B9FFF7D2FF7820C8
:1035BC00FFF7AAFFFFF7C7FF002007E0FFF7C9FFDF
:1035CC007820FFF7A1FFFFF7BEFF4520FFF79CFF18
:1035DC00FFF7B9FF2046FFF797FFFFF7B4FFBDE8F1
:1035EC001040CAE770B5334C04F580654FF4806227
:1035FC002146284601F0B2F908B34FF48062214607
:10360C002846FFF7ADFE0025A5F150000021C0B201
:10361C00FFF7C8FF00210420FFF7C4FF0021102092
:10362C00FFF7C0FF00262819012110F83600FFF71C
:10363C00B9FF761C802EF6DB6D1C082DE4DB70BD0B
:10364C0000218D20AEE710B500201A49002400227D
:10365C00431803F83240521C802AFADB401C08281D
:10366C00F5DBBDE81040BDE7802800DB704730B5C6
:10367C0040291ADACC08C4F107040E4BE4B201F06D
:10368C00070101250428B4BF7C30001FC0B203EB36
:10369C00C000C1F1070105FA01F1235CC9B2002A8F
:1036AC0014BF194323EA0101215430BD000000006E
:1036BC00380E0020B01A00202DE9F44F8846050181
:1036CC004FF000090026B2109DF800100FF678405C
:1036DC0006EB5272D21002EB410100EB011009F122
:1036EC000101C9B219F800A00C5C481C00F00F09CC
:1036FC00002707EB080B0AF00102E9B25FFA8BF026
:10370C00FFF7B2FF0BF1080004F00102E9B2C0B2FE
:10371C00FFF7AAFF64087F1C082F4FEA5A0AE8DB60
:10372C006D1C761C102ECEDBBDE8F18F2DE9F84F09
:10373C0005468946A2F120000A9C8DF800009846A7
:10374C00CA46002603E0BBF1010B16D1761C464598
:10375C002ADAB8F10C0F07D19DF800100FF2841083
:10376C000C2202FB010005E09DF800100FF2E8505E
:10377C0000EB0110375C4FF0080B380648BF2246AF
:10378C0002D4621E9241D20F4946E8B2FFF76CFF99
:10379C0009F101005FFA80F97F00A9EB0A004045AE
:1037AC00D1D1D1466D1CD1E7BDE8F18F70B582B097
:1037BC0004460D46164615E0E4B27B2CA4BF00244B
:1037CC001035EDB23B2D03DBFFF73DFF0024002548
:1037DC0001200090102316F8012B29462046FFF7F4
:1037EC00A5FF083430780028E6D173BD10B5054C20
:1037FC0004F11001201D00F050FF034920600968FE
:10380C00024805E0380E002088A40000A0860100C4
:10381C00B0FBF1F0FDF76AF80021AE20FFF7C2FE15
:10382C000021D520FFF7BEFE00218020FFF7BAFE55
:10383C000021A820FFF7B6FE00213F20FFF7B2FEC3
:10384C000021D320FFF7AEFE00210020FFF7AAFED7
:10385C0000214020FFF7A6FEFFF7F2FE0021142006
:10386C00FFF7A0FE00212020FFF79CFE0021022084
:10387C00FFF798FE0021A120FFF794FE0021C02045
:10388C00FFF790FE0021DA20FFF78CFE00211220BA
:10389C00FFF788FE00218120FFF784FE0021EF2036
:1038AC00FFF780FE0021D920FFF77CFE0021F120DC
:1038BC00FFF778FE0021DB20FFF774FE002140208B
:1038CC00FFF770FE0021A420FFF76CFE0021A6205C
:1038DC00FFF768FEFFF7B7FEBDE810400021AF20F0
:1038EC0060E6000000000000000000000000000086
:1038FC00000000003F40000000000000000030000D
:10390C00400030004000000009000BC03D000BC01F
:10391C003D00090018C024407FE0224031800000A7
:10392C00180024C01B000D803240018003801C4015
:10393C0027401C8007400040100060000000000081
:10394C00000000000000000000001F80204040200C
:10395C000000402020401F800000000009000600ED
:10396C001F80060009000000040004003F800400D2
:10397C0004000000001000600000000000000000C7
:10398C0004000400040004000400000000000040D7
:10399C000000000000000000002001C006003800FC
:1039AC00400000001F802040204020401F8000006D
:1039BC00000010403FC000400000000018C0214033
:1039CC002240244018400000108020402440244015
:1039DC001B80000002000D0011003FC001400000E0
:1039EC003C80244024402440238000001F8024403D
:1039FC0024403440038000003000200027C03800F1
:103A0C00200000001B802440244024401B80000028
:103A1C001C0022C0224022401F8000000000000039
:103A2C0008400000000000000000000004600000DE
:103A3C0000000000000004000A001100208040403B
:103A4C0009000900090009000900000000004040BD
:103A5C00208011000A0004001800200023402400DC
:103A6C00180000001F802040274029401F40000004
:103A7C00004007C039000F0001C0004020403FC08B
:103A8C00244024401B8000001F8020402040204008
:103A9C003080000020403FC0204020401F800000AC
:103AAC0020403FC024402E4030C0000020403FC08A
:103ABC0024402E00300000000F00108020402240D7
:103ACC003380020020403FC0040004003FC020406F
:103ADC00204020403FC020402040000000602020BB
:103AEC0020203FC02000200020403FC024400B007D
:103AFC0030C0204020403FC020400040004000C06B
:103B0C003FC03C0003C03C003FC0000020403FC011
:103B1C000C4023003FC020001F802040204020404C
:103B2C001F80000020403FC02440240018000000EB
:103B3C001F802140214020E01FA0000020403FC0FA
:103B4C002440260019C0004018C0244024402240C4
:103B5C0031800000300020403FC020403000000089
:103B6C0020003F80004000403F80200020003E00AD
:103B7C0001C0070038002000380007C03C0007C017
:103B8C0038000000204039C0060039C02040000039
:103B9C002000384007C0384020000000304021C0D1
:103BAC002640384020C00000000000007FE040208C
:103BBC0040200000000070000C000380004000005A
:103BCC000000402040207FE00000000000002000AA
:103BDC004000200000000000001000100010001039
:103BEC000010001000000000400000000000000069
:103BFC00000002800540054003C0004020003FC08B
:103C0C000440044003800000000003800440044092
:103C1C000640000000000380044024403FC00040E8
:103C2C0000000380054005400340000000000440F4
:103C3C001FC0244024402000000002E00550055025
:103C4C000650042020403FC00440040003C0004044
:103C5C000000044027C000400000000000100010CD
:103C6C00041027E00000000020403FC00140070086
:103C7C0004C00440204020403FC0004000400000F1
:103C8C0007C0040007C0040003C00000044007C0C4
:103C9C000440040003C000400000038004400440C2
:103CAC0003800000041007F004500440038000005F
:103CBC00000003800440045007F00010044007C0CB
:103CCC0002400400040000000000064005400540CE
:103CDC0004C00000000004001F80044000400000ED
:103CEC00040007800040044007C0004004000700A7
:103CFC0004C0018006000400060001C0070001C0DA
:103D0C0006000000044006C0010006C0044000008C
:103D1C000410071004E001800600040000000440B9
:103D2C0005C00640044000000000000004007BE0D9
:103D3C0040200000000000000000FFF00000000028
:103D4C00000040207BE004000000000040008000E8
:103D5C004000200020004000000000000000000097
:103D6C0000000000000000000000000000001FCC5C
:103D7C00000C000000000000000008003000600093
:103D8C000800300060000000022003FC1E2002200E
:103D9C0003FC1E200220000000000E1811043FFF3F
:103DAC0010840C78000000000F0010840F3800C045
:103DBC00077818840078000000780F8410C4112450
:103DCC000E9800E4008400080800680070000000F1
:103DDC00000000000000000000000000000007E0F0
:103DEC00181820044002000000004002200418189B
:103DFC0007E00000000000000240024001800FF0CC
:103E0C0001800240024000000080008000800FF81A
:103E1C0000800080008000000001000D000E0000FA
:103E2C000000000000000000000000800080008006
:103E3C0000800080008000800000000C000C00005E
:103E4C0000000000000000000000000600180060E8
:103E5C000180060018002000000007F0080810047C
:103E6C001004080807F000000000080408041FFCF8
:103E7C00000400040000000000000E0C10141024BC
:103E8C00104411840E0C000000000C1810041104D6
:103E9C00110412880C700000000000E003200424C0
:103EAC0008241FFC0024000000001F98108411043B
:103EBC001104108810700000000007F0088811042D
:103ECC00110418880070000000001C00100010FC89
:103EDC0013001C001000000000000E381144108468
:103EEC00108411440E38000000000700088C1044A8
:103EFC001044088807F00000000000000000030CCC
:103F0C00030C00000000000000000000000101068E
:103F1C0000000000000000000000008001400220B2
:103F2C0004100808100400000220022002200220C5
:103F3C0002200220022000000000100408080410D7
:103F4C00022001400080000000000E001200100C46
:103F5C00106C10800F00000003E00C1813E4142404
:103F6C0017C4082807D000000004003C03C41C4000
:103F7C00074000E4001C000410041FFC1104110491
:103F8C0011040E880070000003E00C1810041004DB
:103F9C00100410081C10000010041FFC1004100466
:103FAC001004080807F0000010041FFC1104110491
:103FBC0017C410040818000010041FFC1104110091
:103FCC0017C010000800000003E00C1810041004C7
:103FDC0010441C780040000010041FFC108400806A
:103FEC00008010841FFC10040000100410041FFC3F
:103FFC001004100400000000000300011001100167
:10400C001FFE10001000000010041FFC11040380A0
:10401C001464181C1004000010041FFC100400048D
:10402C0000040004000C000010041FFC1F0000FC26
:10403C001F001FFC1004000010041FFC0C040300E4
:10404C0000E010181FFC100007F008081004100402
:10405C001004080807F0000010041FFC10841080E6
:10406C00108010800F00000007F008181024102496
:10407C00101C080A07F2000010041FFC11041100A8
:10408C0011C011300E0C000400000E1C1104108421
:10409C00108410441C3800001800100010041FFC81
:1040AC00100410001800000010001FF81004000489
:1040BC00000410041FF8100010001E0011E0001C7A
:1040CC00007013801C0010001FC0103C00E01F008B
:1040DC0000E0103C1FC000001004180C163401C086
:1040EC0001C01634180C100410001C00130400FC42
:1040FC0013041C00100000000804101C1064108431
:10410C0013041C04101800000000000000007FFEC7
:10411C004002400240020000000030000C0003800E
:10412C000060001C0003000000004002400240023E
:10413C007FFE000000000000000000002000400096
:10414C0040004000200000000001000100010001BF
:10415C0000010001000100010000400040002000AF
:10416C000000000000000000000000980124014441
:10417C000144014400FC000410001FFC00880104F1
:10418C000104008800700000000000700088010429
:10419C000104010400880000000000700088010484
:1041AC00010411081FFC0004000000F80144014444
:1041BC000144014400C800000000010401040FFC8C
:1041CC001104110411001800000000D60129012966
:1041DC00012901C90106000010041FFC0084010024
:1041EC000100010400FC000400000104190419FC86
:1041FC0000040004000000000000000300010101A5
:10420C00190119FE0000000010041FFC00240040DE
:10421C0001B4010C010400000000100410041FFC88
:10422C000004000400000000010401FC0104010072
:10423C0001FC0104010000FC010401FC00840100EC
:10424C000100010400FC0004000000F8010401045A
:10425C000104010400F80000010101FF00850104C4
:10426C000104008800700000000000700088010448
:10427C000104010501FF00010104010401FC00849B
:10428C000104010001800000000000CC0124012485
:10429C00012401240198000000000100010007F82E
:1042AC000104010400000000010001F800040004F6
:1042BC000004010801FC0004010001800170000CE5
:1042CC00001001600180010001F0010C003001C000
:1042DC000030010C01F0010000000104018C00749D
:1042EC000170018C01040000010101810171000EBB
:1042FC00001801600180010000000184010C0134F0
:10430C0001440184010C00000000000000000000CA
:10431C0001003EFC400240020000000000000000D2
:10432C00FFFF0000000000000000400240023EFCC5
:10433C000100000000000000000060008000800010
:10434C004000400020002000000000000000FE7F24
:10435C00FE7FFE7FFF7FFF7FFF7FFF7FFE7FFE7F65
:10436C00FE7F000000000000000000000000FE7F47
:10437C00F27FF27FF37FF37FF37FF37FF27FF27FA5
:10438C00FE7F000000000000000000000000FE7F27
:10439C00C27FC27FC37FC37FC37FC37FC27FC27F05
:1043AC00FE7F000000000000000000000000FE7F07
:1043BC00027F027F037F037F037F037F027F027FE5
:1043CC00FE7F000000000000000000000000FE7FE7
:1043DC00027C027C037C037C037C037C027C027CDD
:1043EC00FE7F000000000000000000000000FE7FC7
:1043FC00027002700370037003700370027002701D
:10440C00FE7F000000000000000000000000FE7FA6
:10441C00024002400340034003400340024002407C
:10442C00FE7F000000000000000000000000FE7F86
:10443C00C260E250F358BB4C9B468F478643824187
:10444C00FE7F000000000000DFF8BC04DFF8BC2495
:10445C00006890FAA0F0B0FA80F10120884010605A
:10446C000120DFF8AC241060DFF8A8040268914248
:10447C0008D200EB8100406820B1026813001CBF19
:10448C00C9B210477047F8B50D00ECB244BF85F0C7
:10449C00204585F4C045A10001F1804101F50121C1
:1044AC0000EA05060A68DFF870743E4085EA0203EC
:1044BC0082433243034000F4E0261B0EB6F5E02F96
:1044CC0003F0010302D1D30105D411E010F4E02F65
:1044DC0008BF002B0CD002F4E023B3F5A02F04D0BE
:1044EC00B3F5C02F04D1052300E0062363F3124279
:1044FC000A60410205D5A90DDFF8202401F0010165
:10450C00115500020ED5FCF767FC00F07BF92C026C
:10451C004CBF1C4600249A4322430A60BDE8F2407B
:10452C00FCF760BCF1BD002948BF0021800000F100
:10453C00804000F5012001F03F010268920941EA38
:10454C008211016070472DE9F04F97B08146FEF75C
:10455C0045FF0025012804D1FEF736FF022808BFCD
:10456C000125DFF8BC03C168C1F3815101294FF06B
:10457C00010A04D10068000E0AFA00F00543DFF8C6
:10458C00A403DFF890630078DFF89C030068C0F3A5
:10459C0046003060FEF722FF012802D13068401C33
:1045AC0030603168DFF8847319B1FF223846FEF7AA
:1045BC008DFF4FF00008002405E0CC550AFA00F0FE
:1045CC0040EA0808641C59F82400C1B2FF2908D03D
:1045DC003268914203D225FA00F2D207EDD50220BF
:1045EC0058E00920FCF73EFEC6F8809008232422F0
:1045FC0000210DA8FDF7DAFF8DF84CA00DAA0121C2
:10460C0006F1A000FDF7EFFF0024DFF824A30BE078
:10461C005046FFF738FF4FF0FF31E0B2FFF783FF52
:10462C000020CBF80400641C3068844212D225FAB6
:10463C0004F0C00706EB840B48BF0420F1D428FA21
:10464C0004F0C00747BFE05D59F82010E0B240F419
:10465C00C041DDE708233022002101A8FDF799FEB7
:10466C000020009001ABDFF8CC22102106F1840071
:10467C00FDF79EFEDFF8C002016821F47C5141F485
:10468C00005101600120DFF8B4120860DFF8B012AD
:10469C000860002017B0BDE8F08F2DE9F0419D4E69
:1046AC0004460D4606F1A00800F05AF800273DB963
:1046BC00002020606060A06000271DB31EE07F1CFE
:1046CC0015F82700FF28F3D03168884204D206EB96
:1046DC00800040680028F2D0002413E006EB800133
:1046EC0001224C6002FA00F06168084360602046C9
:1046FC0055F827208E4900F0C7F87F1C15F82700C5
:10470C00FF28EBD14046FBF7ADFE2046BDE8F0811B
:10471C002DE9F04105000E46F7B203D07D4C206820
:10472C00874201D3022019E004F1A00800F018F828
:10473C0004EB8700416809B101250BE045600121BC
:10474C006868B9400843686032467949284600F0E9
:10475C009BF800254046FBF785FE2846BDE8F08116
:10476C004FF0FF314046FBF71BBE10B50C46F0B1C5
:10477C00416821FA04F2D20719D50122A2409143D3
:10478C0041600020634901EB840250606748225C61
:10479C006748FF2A0EBF44F02041D1F8801051F831
:1047AC002210FFF770FE4FF0FF312046A7E00220E9
:1047BC0010BD10B5044607E090FAA0F0B0FA80F1F5
:1047CC00C9B22046FFF7D1FF60680028F4D110BDB4
:1047DC005C492FE038B50C464E4915460A689442A0
:1047EC0004D201EB84014968814201D0022032BD20
:1047FC00FCF7F2FA00F006F89A4305FA04F31A43B0
:10480C000A60A7E050490A680123A340704710B51D
:10481C00404B1C68A14204D203EB81035B688342CA
:10482C0001D0022010BD10003C4A18BF012050548A
:10483C00002010BD096821FA00F202F00100704757
:10484C0010B5344B1C68CAB2A24204D203EB8202EC
:10485C005268824201D0022010BD0A464FF4E0217A
:10486C0000F012F8002010BD10B10160002070475C
:10487C000220704780B500F01BF880F0005080F4E7
:10488C00C04040F0004002BD38B5224C25680B46B4
:10489C001146CAB2AA4204D204EB82025268824286
:1048AC0001D0022032BD1846FFF7EDFD002032BDCD
:1048BC0010B52749184A51F820101140234A1368A3
:1048CC00126D014323FA00F4E30748BF41F4800161
:1048DC0022FA00F3D80748BF41F40001084610BD86
:1048EC000B4610B511460B4A1468A34204D202EBD6
:1048FC0083025268824201D0022010BD1846FFF795
:10490C0012FE002010BD0000E0200240E0200260FA
:10491C0080E200E030330020007F077F002002405F
:10492C00A83F0050C636002080120840E835002011
:10493C00007FC76755440000003009400C40094017
:10494C0008000940C0200240D020024080200240D4
:10495C0000100840FCF746FA002032BD030000208E
:10496C0013F0030F09D0521E22BF13F8010B11F8DC
:10497C0001CBB0EB0C00F3D07047121F22BF53F8E1
:10498C00040B51F804CB6045F7D0121D0AD200BAC3
:10499C009CFA8CFCB0EB0C0038BF6FF0000088BFA9
:1049AC0001207047521E22BF13F8010B11F801CBE6
:1049BC00B0EB0C00F6D0521C08BF1046704700003C
:1049CC0020B108232C220021FDF753BD704720B1E4
:1049DC0008233C220021FDF733BE704780B5FBF75E
:1049EC000BFFADF80000FCF7F7F9ADF802000098EA
:1049FC0002BD01B5BDF80200FCF7F4F9BDF80000EA
:104A0C00BDE80240FBF700BF38B5DFF86048DFF8BF
:104A1C0060580020A4F8340BE820208040F64C208D
:104A2C00A4F8E80004F1E8006860002000F003F846
:104A3C00A8606C6031BDF8B500240025061D16F089
:104A4C0003001CBF311D0E1AFFF7C8FFDFF820183A
:104A5C00B6B20860112EB4BF4F688F6839880B044A
:104A6C0003D581F40041002519E0A5B123883A88CB
:104A7C00134423809BB2B34211D327461946B7B1D6
:104A8C00891B89B20429A7BFF15346F40041398828
:104A9C0041F4004109E0B142F1DA01253C46CF195D
:104AAC0039880029DBD1002701E027F8041BFFF728
:104ABC00A0FF3846F2BD10B500F049F8DFF8B0178A
:104ACC00221F086013885B045B0C13804B689A42AE
:104ADC0038BF4A60BDE810408BE770B500F037F87E
:104AEC000021DFF890570C2202FB01F6725942B1FB
:104AFC00944203D1FFF77DFF701970BD491C082942
:104B0C00F1D320E070B500F022F8054600200C220D
:104B1C00DFF8601702FB0016316849B90020B0605D
:104B2C0034600022FDF747FD706018B900F072FC8C
:104B3C008C4204D12846FFF75CFF304670BD401C08
:104B4C000828E5D32846FFF754FF002070BD044623
:104B5C0044E738B5FFF7FBFF0025DFF81C170C22E4
:104B6C0002FB0512128842B1944203D1FFF741FFB8
:104B7C00A8B232BD6D1C0B2DF1D3FFF73AFFFF200D
:104B8C0032BD10B504462088FFF7E3FFFF2800D1A3
:104B9C006FE1DFF8E4160C2202FB001081680800BC
:104BAC0002D16FF0010010BD2046BDE8104008474F
:104BBC0002460FF2B070104710B500200C21DFF840
:104BCC00B426002401FB00F3401C9C509B180828C1
:104BDC009C60F7D30020DFF8A026034601FB0024DD
:104BEC00401C0B282380F9D3082010800FF25D7035
:104BFC009060BDE8104007E770B590B0FBF7FCFD86
:104C0C00044600A8FFF7E3FE0520069000224FF4AF
:104C1C004870089000A94FF001100490DFF85C0672
:104C2C000590DFF85C06FDF719FD050006D0FFF7CF
:104C3C00D5FE06462846FFF765FF08B900F0EAFBEB
:104C4C003046FFF7D6FE2046FBF7DEFD10B070BDF8
:104C5C0070B500F0E7F8FFF755FF0546FFF7BEFE0D
:104C6C00A2880021DFF810360C2606FB01331E88C3
:104C7C003EB91A805D60A2689A60A1816968216161
:104C8C0061E7B24204D1FFF7B4FE6FF0020070BDD1
:104C9C00491C0B29E6D300F0BDFB00BF38B500F072
:104CAC00C1F8FFF72FFF050019D0FFF797FE002181
:104CBC00DFF8C4250C2303FB0122138863B94FF6DC
:104CCC00F8731380556000239360A1806968A1601C
:104CDC00FFF78FFE002032BD491C0B29E8D300F0F2
:104CEC0099FB00BF10B5044660680C3080B2FFF72A
:104CFC00A2FE00B91AE06168018100210160FF2168
:104D0C0081720C30A060002010BD80B540680C385A
:104D1C0011E080B28FE610B50446606880B2FFF7F0
:104D2C008AFEA06000B901E0002010BD6FF0030006
:104D3C0010BD80B54068FFF7BEFE002002BD38B53F
:104D4C0004460D46FFF74AFE002145F80C1C21686D
:104D5C0011B9256006E0114651F80C2C002AFAD145
:104D6C0041F80C5CBDE8324043E62DE9F0410446C5
:104D7C006FF00206E068A0F10C05E0880B28BCBFC0
:104D8C00A0880B280BDAFFF729FEE188DFF8E8840E
:104D9C000C2707FB0181496819B9FFF72AFE304639
:104DAC0017E0FFF726FEA0882871E0886871207A4A
:104DBC00A871E088E16807FB008040680830FFF7C5
:104DCC00BEFFE08807FB008040684068FBF74AFBA9
:104DDC000020BDE8F08170B500F024F8FFF77DFEEF
:104DEC0010B96FF0040070BD00F10806FFF7F6FD76
:104DFC003168002541B10D46A5F10C010A683260FD
:104E0C0000220A60FF228A72FFF7F3FDA560A5F16C
:104E1C000C010DB9022070BD0879A0804879E080A2
:104E2C00002070BD0446FBF718BD0B280BDADFF829
:104E3C0048240C2303FB0020008800281CBF4FF6DD
:104E4C00F872904202D14FF0FF307047088000207A
:104E5C007047811D8088E8E710B50446E088FFF7AD
:104E6C0078FEFF2800D104E0E0802046BDE8104029
:104E7C007BE74FF0FF3010BD3EB50446FFF7ABFFAC
:104E8C00050017D1A08800A9FFF7CFFF78B1A06863
:104E9C0002900821ADF8041001A80321ADF806100A
:104EAC00DFF8E013896888476FF005003EBDBDF858
:104EBC000000A08028463EBD10B5DFF8CC23126858
:104ECC000C464FF47A71A1FB00010023FEF7AEF9FA
:104EDC00002902D8B0F1004F02D36FF0020010BDD0
:104EEC002060002010BD38B5FFF79CFFFFF7F5FDE3
:104EFC000546FBF79DF8002818BF012800D015B90E
:104F0C006FF0040032BD606840B900900099686889
:104F1C00FBF746FA401E8041C00F32BD10F1010F65
:104F2C0008BF4FF0FF30F0D000F050F90028EDD062
:104F3C0032BD80B54068FBF795FA002002BD00F049
:104F4C0069FA00BF80B54068FBF733FE002002BD54
:104F5C0080B54068FBF72BFE002002BD80B5FBF747
:104F6C0045FFFBF74FFC002002BD80B5FBF744FC6E
:104F7C00FBF732FF002002BD10B58CB0044600A830
:104F8C00FFF71EFDE02000F013F808B900F042FA1C
:104F9C000BE010B58CB0044600A8FFF711FDE068DB
:104FAC0000F006F808B900F035FA00200CB010BD7E
:104FBC0008900023A168606800AAFDF763BA10B5D9
:104FCC000446FBF75BF86060002010BD0146886862
:104FDC0049680847F0B507468BB0BC68A94D6CBB57
:104FEC000C20FFF728FD04006FF003061ED00823E9
:104FFC002422002101A8FDF76BFA0020ADF8140063
:10500C000690079400237968A04801AAFDF765FA79
:10501C00206068B90820ADF800000C20ADF8020043
:10502C0000A8A96888472046FFF745FD304618E0E0
:10503C00F86860603869A060BC600AE02868804746
:10504C0006462068FBF737F93869A0603046696876
:10505C00884779682068FBF731F92068FBF720F95D
:10506C0000200BB0F0BD10B5044682B0606800F0B3
:10507C00ADF820B9009860602046FFF7ABFF16BD75
:10508C0080B5406810B96FF0020002BD0068FBF7F4
:10509C0012F9002002BD7C4909684160002070476C
:1050AC0050B50446784802686FF00046A6FB020132
:1050BC0000234FF47A72FEF7B9F8002902D8B0F148
:1050CC00004F00D330466060002050BD2DE9F04108
:1050DC0086B00646FBF7C1FBFFF7FFFC0446002039
:1050EC0002900025FAF7A4FF002818BF012800D071
:1050FC0014B96FF0040066E0706820B110F1010F74
:10510C0003D14FF0FF30009004E000F05FF85FEA4D
:10511C00000857D1FAF7B2FF00994FF001080F18A9
:10512C0000E0009000996068FBF73AF980B303A89F
:10513C00FFF751FE5FEA00081AD1BDF8100001A973
:10514C00FFF773FE80B9059ABDF81210BDF8040084
:10515C00B368984740B1BDF80400B081BDF81200A7
:10516C00F0810598306113E0059902A8FFF7E7FD7F
:10517C0000986D1C10F1010F18BF00284FF00108AA
:10518C00D0D0FAF77BFF381A02D000998142C8D2EE
:10519C00029EFFF723FC04F1080756B1314600E0EC
:1051AC00114651F80C2C002AFAD13A6841F80C2C13
:1051BC003E60FFF71EFC002D03E06068FBF752F920
:1051CC006D1EFAD1404606B0BDE8F08100A973E629
:1051DC00F8B5FFF727FE0546FAF72AFF002818BF97
:1051EC0001286FF0040613D0FFF7F8FB0021224AC8
:1051FC000C234B439F5A4FB19B185B681B68AB4207
:10520C0001D1A18044E0491C0B29F1D3FFF7F1FB3C
:10521C003046F2BDF8B50446FAF70AFF002818BF6D
:10522C00012802D16FF00400F2BDFBF716FB054616
:10523C00FFF7D4FBA788104A00210C234B439E5A3E
:10524C006EB1BE4208D1991849680968A9420CBFD1
:10525C0001210021A1601BE0491C0B29EDD3FFF7B4
:10526C00C8FB4FF0FF30F2BD00000000780F0020AB
:10527C00803600200C350020883400201C0E0020C5
:10528C00BD4B0000D00E002088A40000D94F0000B8
:10529C00FFF7AFFB0020F2BD70B504463C20FFF7D2
:1052AC00CAFB05006FF0030611D0FFF790FB207AC4
:1052BC00A8610022608928622946E068286160683C
:1052CC00FDF7CCF904462846FFF7F5FB0CB9304640
:1052DC0070BD002070BD70B504462420FFF7ABFBF9
:1052EC0005006FF0030613D0082324220021FDF7DC
:1052FC005DF92079012808BF2876A068002229468C
:10530C00FDF759F9E0602846FFF7D5FBE06808B9CE
:10531C00304670BD002070BD10B5044682B0A06848
:10532C0040B9009000996068FBF73AF8401E804144
:10533C00C00F16BD10F1010F08BF4FF0FF30F0D0B9
:10534C00FFF744FF0028EDD016BD00004188292945
:10535C0002D36FF0010070470FF2140252F82110C3
:10536C00084700008F4B0000E9490000FF4900008E
:10537C005D4C0000A94C0000F14C0000174D0000E2
:10538C00234D00003F4D0000774D0000E34D000021
:10539C00654E0000854E0000F34E00003F4F0000AC
:1053AC004B4F0000514F00005D4F0000694F000053
:1053BC00774F0000854F0000CB4F0000735000006A
:1053CC00A3500000AD5000005F4E00006999000032
:1053DC00319A0000D9500000DD510000E14F00006F
:1053EC008D500000CB990000039A0000179A000022
:1053FC0021520000699A0000859A0000A552000015
:10540C00E3520000255300007B9A0000939A0000A1
:10541C009F4F0000012000F001B80000202109037B
:10542C0026311820ABBEF9E72DE9F84CDFF84479AA
:10543C000C46002640F2013B92467B78398A97F85D
:10544C0004C097F803E0B0EB0B0540F67B4232D07A
:10545C006D1E37D06D1E3DD0AD1E41D06D1E00F0BF
:10546C007D806D1E00F080806D1E00F08D806D1EA5
:10547C0000F09D806D1E00F0A2806D1E00F0A780D4
:10548C006D1E00F0AD806D1E00F0B280ED1E00F0C0
:10549C00B7806D1E00F0BC806D1E00F0C1806D1ECB
:1054AC0000F0C6806D1E00F0CB806D1F00F0D38025
:1054BC00AD1E2ED0E7E0102C05D11022514607F17D
:1054CC00A4008AE0102C40F0DC801022514607F139
:1054DC00B40082E0042C6BD1DAF80000F862DDE055
:1054EC00012C65D1BCF1010F36D09AF80000F87090
:1054FC00BEF1000F06D00028F1D1022B1BD0052BDA
:10550C00EDD118E00028EAD0012B21D0042B1DD1BD
:10551C001EE0012C4CD1BEF1010F1DD09AF80000F9
:10552C003871BCF1000F0AD0002807D1032B1CBF27
:10553C00072B052B02D1C8B200F060FEAEE00028AC
:10554C00FCD0012B1CBF042B062B01D0052B02D148
:10555C00012000F008FCA1E012269FE0022C27D1CC
:10556C00BAF80000B88299E0202C0EDA07F1CC06CC
:10557C001F213046FDF720FF00F097F8388A7C7128
:10558C003346224601210EE0202C7ADA07F1EC0694
:10559C001F213046FDF710FF00F087F8388ABC71E8
:1055AC00334622460021C0B200F00BFE73E0012C02
:1055BC0067D19AF80000052863DAF8716EE0012CC7
:1055CC005FD19AF8000004285BDA387266E0062C8A
:1055DC0057D10622514607F58670FDF7B1FE5DE006
:1055EC00012C4ED19AF8000008284ADA787255E05E
:1055FC00012C46D19AF80000042842DAB8724DE02A
:10560C00012C3ED19AF8000002283ADAF87245E0F3
:10561C0000F047F835D1811F914232D238833DE0FA
:10562C0000F03FF82DD1811F91422AD2788335E0CA
:10563C0000F037F825D1B0F5FA7F22DAB8832DE0E7
:10564C0000F02FF81DD1A0F10A0140F677429142EB
:10565C0017D2F88322E0012C04BF9AF8000001282D
:10566C000FD107F1800000F0BEFF40B900F020FB25
:10567C00060013D107F15C0000F0BCFF0EE016260B
:10568C000CE018260AE0272807DA022C05D1BAF814
:10569C00001000F0C6FD064600E002263046BDE8CC
:1056AC00F28CBAF80000022C704722465146304664
:1056BC00FDF746BE38B500244FF440730D46C21AB0
:1056CC00DFF8B01636D0521E36D0521E37D0521ECE
:1056DC0038D0521E39D0521E3AD0521E3CD0521ED7
:1056EC003CD0521E3DD0521E3ED0521E3ED0521EB9
:1056FC003ED0521E40D0521E40D0521E40D0921E60
:10570C0040D0521E40D0521E40D0521E40D0521E8D
:10571C0040D0521E40D0521E45D0521E45D0521E73
:10572C0045D0921E47D0521E14D0521E41D0521E4C
:10573C0043D045E0887841E01022A4312FE01022BC
:10574C00B4312CE0C86A286041E00622C43126E05E
:10575C00C87833E0087931E0888A35E04A79CC3171
:10576C001DE08A79EC311AE0C87927E0087A25E047
:10577C00062201F5867112E0487A1FE0887A1DE056
:10578C00C88A21E0C87A1FE0088B1DE0488B1BE01B
:10579C00888B19E0C88B17E0062201F58A71284620
:1057AC00FDF7CEFD13E0088C0EE0488C0CE0888CE5
:1057BC000AE0087B02E0487800E0487B287006E0AD
:1057CC00272803DA00F049FD288000E00224204657
:1057DC0032BD1CB5DFF89C45617889B900B12063F6
:1057EC0004F12C00019004F1B400009004F1A40326
:1057FC00208AA1780022C0B200F09EFC002016BDC9
:10580C00112016BD10B1DFF86C1548637047DFF836
:10581C0064054178062918BF072905D1C18A008A79
:10582C001322C0B200F0AEBC1220704700B58FB08E
:10583C0008233C22002100A8FCF702FFDFF8380502
:10584C0000F15001079100234FF4DC71089100AA7C
:10585C00032106910FF2CD01FCF71EFF0FB000BD26
:10586C0070B584B000F015F90120DFF81015DFF8E1
:10587C00044509680FF20955ADF8020000A88847E5
:10588C00BDF8040020820298A062002060704FF6E0
:10589C00FF70E08200F0FFFC2070002301200190DB
:1058AC00294600200090024604F1380000F060FE0A
:1058BC00022000F030F804F15C0000F059FE0420E6
:1058CC0000F029F804F1800000F052FE0420A070D2
:1058DC0004F1A40200200146034605462BC204F144
:1058EC00B40506464BC5E062E0712072A172072038
:1058FC006072103A1021022000F0E3FD103D2A46A0
:10590C001021032000F0DDFD042104F12C020846D7
:10591C0000F0D7FD7FBD0190294600200090034682
:10592C0002467047FEB5FFF79BFFDFF84854DFF8DF
:10593C004C4405F1800700F0ACF80A20ADF80200E9
:10594C004FF0FF30019000A82168884700284BD108
:10595C0000F09FF80920ADF8020000A821688847E4
:10596C00BDF80610029E00283ED1BDF80400102898
:10597C0004BF288A81422DD130884FF6FF718842AE
:10598C0009D17088400425D505F12C02042104208E
:10599C0000F0ACFD1EE03078A22805D0D02804BF62
:1059AC00304600F07AF815E07079132812D130895E
:1059BC00012804BFA87B022805D1384600F01AFE46
:1059CC00FFF725FF06E0052000F047FC01463846AE
:1059DC0000F0F4FD46B100F05CF80320ADF80200D5
:1059EC00019600A821688847688AC10730D54FF610
:1059FC00FE7108406882E9782879014328D018B1F3
:105A0C0003208DF800000CE0E8798DF800000622E8
:105A1C00287A8DF8010005F586710DF10200FDF76D
:105A2C008FFC687A8DF8080000A9A87A8DF8090017
:105A3C00288AC0B200F0C1FB00281FBF0820687084
:105A4C00286B002804D0016808001CBF0820884778
:105A5C00688A810706D54FF6FD71084068820020E0
:105A6C0000F026F9688A41070AD54FF6FB71084009
:105A7C006882A87B012804D0022808BFFFF7C7FE64
:105A8C0059E70090EB8BAA8B698B288B00F044F9BB
:105A9C0051E70820ADF800007047F8B50546B54C45
:105AAC00A878010004F58A7704F1800612D0022848
:105ABC003BD0032818BF04285BD0052800F0818058
:105ACC00062800F0AB80072800F0CD800F2800F0EE
