:20000000604000203179000001CA011001CA011001CA011001CA011001CA011001CA01104E
:1C00200001CA011001CA011001CA011001CA011001CA011001CA01103FCA011082
:20003C0000008001100082FFFDFF58003AFFBFF3FFFFFFFFFFFFFFFFFFFFFFFFFFFFFFFF63
:20005C00FFFFFFFFFFFFFFFFFFFFFFFFFFFFFFFFFFFFFFC5FFFFFFFFC5FFFFFFC5C5C5FFC6
:18007C00C5C5C5FF00000000FFFFFFFFFFFFFFFFFFFFFFFFFFFFFFFF2E
:200100003C000000000000000000000034010000000000000000000001000000000000006D
:1C01200000000000000000000000000001000000000000000800000000000000BA
:20013C00340000000000000000000000680100000000000000000000010000000000000005
:14015C00010000000000000000000000080000000000000086
:2001700030000000000000000000000098010000040000000000000001000000FFFFFFFFA5
:10019000FF00000001000000080000000000000057
:2001A0002C0000000000000000000000C4010000040000000000000001000000FFFFFFFF4D
:0C01C000FFFFFFFF08000000000000002F
:2001CC0034050000E401000099A1011095A70110A5C2011009B2011045B80110000000000B
:0801EC00000000002E000000DD
:2001F400280000000000000000000000140200000000000000000000FFFFFFFF00000000B1
:080214000800000000000000DA
:20021C00300500003002000069C201106DC101101FC2011095BA011000000000000000008E
:04023C00300000008E
:20024000300500005402000075C20110A9B601109DBF011049B601100000000000000000DE
:040260003100000069
:200264002400000000000000000000008002000000000000000000000000000008000000CC
:040284000000000076
:20028800240000000000000000000000A40200000000000000000000000000000800000084
:0402A8000000000052
:2002AC00240000000000000000000000C8020000000000000100000000000000080000003B
:0402CC00000000002E
:2002D00000000000A818002004000000000000000000000020000000700100003000000069
:2002F0001C020000BC1800200400000000000000000000000C000000300400001800000080
:2003100040020000C8180020040000000000000000000000240000004804000018000000FF
:2003300000000000D018002004000000000000000000000010000000A00100002C000000C4
:20035000CC010000D818002004000000000000000000000020000000640200002400000002
:20037000FFFFFFFFF818002004000000000000000000000028000000880200002400000067
:20039000FFFFFFFF08190020040000000000000000000000580000003C0100003400000043
:2003B000FFFFFFFF1019002004000000000000000000000010000000600400001800000058
:2003D000FFFFFFFF181900200400000000000000000000001C000000AC02000024000000CE
:2003F000FFFFFFFF2019002004000000000000000000000038000000F4010000280000003F
:20041000FFFFFFFF2819002004000000000000000000000054000000000100003C000000DA
:1804300018000000000000000000000040040000080000000000000050
:1804480018000000000000000000000058040000080000000000000020
:18046000180000000000000000000000700400000800000000000000F0
:080478000100000044AA00008D
:040484000100000073
:0404880000000C0064
:04048C0000000D005F
:040490003200000036
:040494000200000062
:04049800D42100204B
:04049C00000200005A
:0404A0000000000058
:0404A40001CA011078
:0404A8000000000050
:0404AC00000000004C
:0404B0000800000040
:0404B4000000200024
:0404B80038210020C7
:0404BC00010000003B
:0404C000E018002020
:0404C400080000002C
:0404C8000000000030
:0404CC00000000002C
:0404D0000000000028
:0404D4000000000024
:0404D8000000000020
:0404DC00010000001B
:0404E00034220020A2
:0404E400060000000E
:0404E800010000000F
:0404EC005820002074
:0404F0000000000008
:0404F4000000000004
:0404F80000020000FE
:0404FC0000000000FC
:020502002A00CD
:020504000100F4
:020506002500CE
:020508003000C1
:02050A003100BE
:02050C002E00BF
:02050E000100EA
:0105100001E9
:0805140003000000FCA9000037
:08051C000000000000000000D7
:0405240000000100D2
:0405280000000300CC
:04052C0087C401106F
:04053000380500008A
:040534003805000086
:0405380000000000BF
:04053C00800000003B
:040540008000000037
:0405440000000000B3
:04054800E018002097
:04054C00739D00009B
:040550002000000087
:04055400B8A9000042
:04055800ECA700000C
:04055C000DC30110BA
:04056000BF5B00007D
:04056400AF5E000086
:0405680099C801101D
:04056C009BC8011017
:040570000000000087
:0405740023AA0000B6
:0405780044A5000096
:04057C005CA500007A
:040580002CA50000A6
:0205840008006D
:0205860009006A
:02058800010070
:02058A0000006F
:01058C00016D
:040590000000000067
:040594000000000063
:04059800000000005F
:04059C00000000005B
:0405A0000D9B0000AF
:0405A4008D7D000049
:0405A800C9930000F3
:0405AC00417A000090
:0405B000F9660000E8
:0405B40019870000A3
:0405B800B952000034
:0405BC00099700009B
:0405C000956A000038
:0405C40011C8011049
:0405C80021C8011035
:0405CC000800000023
:0405D0002400000003
:0405D400180000000B
:0405D80028000000F7
:0405DC0020000000FB
:0405E0003C000000DB
:0405E4000C00000007
:0405E80034000000DB
:2005EC002DE9F04FADF1740D05F03CFAE54C04F1280004F1780104F0B9FCDFF89493E060AD
:20060C00494609F0DFFC01260821DFF89083ADF86010D8F80000ADF86260014618A888470F
:20062C00BDF8640060801A98A06004F1340009F04FFC00254FF0040A04F194074FF47A7265
:20064C00DB4920612B4600953846CDF804A006F053FB1F20314608F015F930468DF80800F9
:20066C00AB46ADF80AB002AA8DF80CB03146ADF812B00820ADF80E004FF44870ADF81000C8
:20068C006420ADF8140040F2053001F0FFFA40F2063002210DF10A0201F0F8FA04F15A05F4
:2006AC004FF442701B212A4601F0F0FA40F207300E2104F14C0201F0E9FA1B970E3D1C9555
:2006CC004FF44470314603AA01F0E0FA40F2113002210DF10E0201F0D9FA40F21230022129
:2006EC0004AA01F0D3FA40F2133002210DF1120201F0CCFA4FF44570022105AA01F0C6FAA6
:20070C00D84E5846152106F1470209F067FA04F11C0009F00DFC0620A02108F0B3F8072075
:20072C00A02108F0AFF80820A02108F0ABF80920A02108F0A7F84FF0FF3009F0F2FC4FF0B4
:20074C00FF3009F0EBFC09F03FFA06F111020120112102F009FB02200521324602F004FB48
:20076C0005203246014602F0FFFA06F134020320132102F0F9FA721D50460C2102F0F4FA03
:20078C0006F12207062012213A4602F0EDFA7F2003F058FE7F2814BF0A200F20052106F0A4
:2007AC0003FF07F09BF8002851D106F049FF5FEA00084CD05E4630464FF4805105F036FF54
:2007CC0006F58056F00CF6D05F4639E007F500304FF4805105F02AFF5FEA00082ED004F516
:2007EC00847A3D465E46504629464FF4807204F041FAF01900F500394FF4807152464846CE
:20080C0005F0F6F85FEA000812D048464FF48071524606F016FDA8789AF80210D8468842A7
:20082C0006D1E8789AF80310884208BF4FF0010806F5807605F58075300BD4D007F5805765
:20084C00780C08BFB8F1010FC0D007F08DF805F0BDFE06F083FE09F0E7FA08F00DFE05F083
:20086C00EFFD09F00BFA05F081FE04F1200009F0D3FA04F1400009F02BFB606104F1180011
:20088C0007F0E6FF584608F0A0FBE068404909F099FBC8480068D8464FF0050944F6206143
:2008AC00B1FBF0FA08200A213C4FADF858004FF0FF36ADF85A1038681796014616A8884717
:2008CC00002840F0238108213846ADF848100927CDF818B00068ADF84A70014612A8884718
:2008EC00149E0028069640F00581BDF84C0010280CD16088BDF84E10884207D1304601781E
:20090C00B02903D10179083008F080FF0698002800F0F08008200321ADF840001F4FADF88B
:20092C00421038681196014610A88847E2E0206908F0B4FE071C00F0DD803E78781C761E01
:20094C0038D0761E40F0CB800078B978401E2BD0401E25D0801E1DD0401E15D0401E0CD017
:20096C00401E06D0801E40F0BA80084606F040FCB5E0084603F008FDB1E0084604F03CFBCA
:20098C00ADE0C04620050020084604F057FDA6E0059A0000084603F097FCA0E09417002099
:2009AC00084604F099FA9AE0084604F005FD96E09D9C00000678701E51D0401E20D0801ED0
:2009CC0001283FD9801E02D0801E29D086E01B9809F032FA10B91B9809F0E0FBE0680A21C2
:2009EC00424607F027FDE0680F21424607F022FDE0681521424607F01DFD05F047F96DE099
:200A0C001B9809F019FA10B91B9809F0C7FB1C9A40F207300E2182F80D8001F037F95DE021
:200A2C0008F04EFD08F016FD08F064FC08F03CFB07F038FD06F0B8FAE0680A21012207F074
:200A4C00F9FC4BE008F03CFD08F004FD08F052FC08F02AFB07F026FD06F0A6FA3EE0454684
:200A6C0014E0C04630A40000E0680F21012207F0E1FC504609F074FCE0680F21424607F037
:200A8C00D9FC504609F06CFC6D1CEDB2052DEBDB4FF441700EA901F097FF9DF839508DF889
:200AAC0031508DF834809DF83C108DF833809DF83D208DF836109DF838008DF837209DF85C
:200ACC003A308DF830009DF83B508DF8323008210CAA40468DF8355002F046F92670082086
:200AEC00ADF82800344EADF82A9030680B9701460AA88847206909F02FFC00283FF417AF6C
:200B0C0003F0B6FD08F0CAFC02F0BAF9A1882078CA082AD321F004010628A18018BF0228CA
:200B2C0003D11B9809F03AFB2078062805D140464146424608F000F92078022815D146469E
:200B4C0011E0E0680F21012207F074FC504609F007FCE0680F21424607F06CFC504609F016
:200B6C00FFFB761CF6B2002EEBD0606909F0F4FB00287FF497AE606909F0EAFB0646307A1E
:200B8C00012806D0022808D17089F16801F07AFE03E07089F16802F0E1FD0820ADF820009A
:200BAC00054FADF8229038680996014608A88847DBE7C04640AA0000941700202DE9F04FA7
:200BCC00064640F29421012541F22D00ADF10C0DC4F22231C4F2090040F81D5C0868002888
:200BEC00FCD043F6AC7E46F2440AC020C5F2000EC4F20C0AF4464AF8440CDEF80890DCF8B5
:200C0C00041046F25620C4F20800890807D271460A686FF00F0E4EEA1241017001E07221C9
:200C2C00017041F28C38C5F2000858F8D41CC1F304611629A8BF20396246926812175118F5
:200C4C00491C11F10A0FB8BF6FF0090100232C4625EAD96201F01F01C4F2203341F4F851B1
:200C6C00018324EA996E1A60002EC3F808E073D058F83C1CC1F38360C1F38F275FEA994175
:200C8C0067D249F3072CBCF1000F29D549F307214A42B1F1FF3F4FEA620215DA7F0805D12D
:200CAC00400806BF281C2F1C4FF6FF777F080CF1010C05D1400806BF281C2F1C4FF6FF7713
:200CCC00521E0CF1010CE9D1490809D37F0805D1400806BF281C2F1C4FF6FF770CF1010CE9
:200CEC00BCF1000F35DDBCF1020F4FEA6C020CF001031DDB4FF6FF717F0047F00107B9424F
:200D0C0007D2400040F001000F2892BF2F1C0F200F1C7F0047F00107B94207D2400040F04E
:200D2C0001000F2892BF2F1C0F200F1C521EE3D1002B0EDD7F004FF6FF7147F00107B942D1
:200D4C0007D2400040F001000F2892BF2F1C0F200F1C47EA004703E040F6FF77C0F20F0741
:200D6C0009F024F939460022002808BF2A1C48F20007C4F20C0738680028FCD04AF2080099
:200D8C00C4F20C0001613D600AB109F015F9002E08BFD82109D058F83C1C58F83C0CC1F309
:200DAC00870100F0030041EA002188B2009040F2FF3200232C214AF20000C4F20C0006F0CF
:200DCC004AF8002E1ABF58F8100CC0F30D0B40F2FF3B09F0EBF80021002808BF291C38684A
:200DEC000028FCD04AF20800C4F20C00C0F814B03D6009B109F0E0F8002E04BF4FF0000B0E
:200E0C00C6F6880B0DD058F818BC0BF07C420BF47C010BF47C4011430BF0FC0B08434BEAB0
:200E2C00000B09F0C3F80021002808BF291C38680028FCD04AF20800C4F20C00C0F80CB084
:200E4C003D6009B109F0B8F8002E04BF47F28A6BC0F2680B0DD058F81CBC0BF47C020BF4C1
:200E6C007C410BF4707011430BF03F0B08434BEA000B09F09BF80021002808BF291C386825
:200E8C000028FCD04AF20800C4F20C00C0F808B03D6009B109F090F8002E3AD058F8140C5C
:200EAC0043F6AC71C5F200014B68C0F303525B08C0F3034117D243F6AC73C5F200031B6885
:200ECC0043F3032C12EB0C0203D4102A02DB0F2200E0002243F30333C91803D4102902DB3B
:200EEC000F2100E0002141EA021100F47F4200F0F00E0B0400F00F0B222E42EA03024EEA02
:200F0C0002014BEA010B08D300F0804040EA0B0B03E043F6277BC0F2710B09F047F8002171
:200F2C00002808BF291C38680028FCD04AF20800C4F20C00C0F804B03D6009B109F03CF8E7
:200F4C00222E26BFD8F80000C0F30070281C4AF2400BC4F20C0B222E4FEA400040F02000AC
:200F6C008BF8090126BFD8F80000C0F34070281C202E40F010008BF809013CBF00200190B5
:200F8C000CD3D8F80C00C20C02F44072800D00F01C0100F0030011430843019009F006F860
:200FAC00019A0021002808BF291C38680028FCD04AF20800C4F20C0002623D6009B108F0E8
:200FCC00FBFF202E26BFD8F80C00C0F301500020222E4FEA400040F060008BF80C0126BF0A
:200FEC00D8F80000C0F3C06100216FF07F00222E40EAC1008BF8010126BFD8F80000C0F31A
:20100C00455100214FF60040202ECFF6FF7040EA8100ABF89C0105D248F20000C4F23F0015
:20102C0001900BE0D8F80C000003820D00F47C11920500F4704011430843019008F0B6FF21
:20104C00019A0021002808BF291C38680028FCD04AF20800C4F20C0002603D6009B108F049
:20106C00ABFF44204FF0880E8BF8C500002E8BF8C7E01ABFD8F80000C0F3C141002140F62C
:20108C008406C9F3815041F03001C4F28C3600288BF8C81041D0401E07D0401E37D0042001
:2010AC00022106F07CF800214BE0284608F09AF904460420214606F072F8042008F092F976
:2010CC008442FAD143F6AC70C5F2000050F8040C0104090C4AF8081CC0F3074E4AF804EC55
:2010EC00CAF8005031680029FCD0002240F2B411CAF80020C1F2000109680B68000E4FF064
:20110C006022072198474FF48060CBF800000420032106F044F8002113E00420294606F03D
:20112C003EF843F2BD704AF8080C4FF086094AF8049CCAF8005030680028FCD00021CAF884
:20114C00001058F8200C4BF2700342F22C0E41F22D0C47F6180240F29449C4F20C0300F052
:20116C003F00C4F2090E8BF8CB0FC4F2090C1A80DEF800004AF8441CC4F260294CF81D1C61
:20118C0003B0C9F80050BDE8F08F70472DE9F04F0820ADF1740DDFF828B3ADF83800012058
:2011AC00ADF83A00DBF8000001460EA88847C54CBDF83C002082002666701098A0624FF616
:2011CC00FF70E08207F032FAB046C44D2070324633460120CDF800802946019004F1A80084
:2011EC00139005F089FD0220CDF80080324633462946019004F1CC00129005F07DFD042077
:20120C00CDF80080324633462946019004F1F000119005F071FD04F14A090420102231468E
:20122C00A070484604F048FA04F15A0A10225046314604F041FA04F12C073E6004F10A053D
:20124C002E70072060721021E6714A462672022007F008FA03201021524607F003FA04201C
:20126C003A46014607F0FEF913981490CDF85890CDF85CA04FF003081A9705F13A00139022
:20128C0005F17F00159005F12E00189005F16000199034351B950AE06078062818BF07284E
:2012AC0005D1208AE18A1322C0B206F005FE08200A21ADF830004FF0FF35ADF83210DBF842
:2012CC0000700D950CA839468847002840F069813046082102900925ADF82010DBF8007035
:2012EC00ADF8225008A839468847DDF828A00028CDF808A040F05581BDF82410208A1029C9
:20130C0040F04181BDF82610884240F03C8155462A884FF6FF73A91C934200F02C8151465B
:20132C000F78A23F00F008812E3F40F02C818978B146002900F0D480891E00F0A880491EEB
:20134C0001297CD9891E4CD0491E23D0491E03D0083900F0E280E4E0119808F021FF0298F9
:20136C004778002F40F0DD80C1882184018961844089A084129808F05FFD002840F0D180F5
:20138C00676B002F00F0CD803B68208C618CA28C9847F8E0A88807F002FE13984946062259
:2013AC0004F08AF926846684A684A8796073129808F0F6FE119808F0F3FE4FF001094FF642
:2013CC00FF702779E0824FB9A879082814BF042005206070484608F01BFBA2E084F8018030
:2013EC009FE06F78E37A27BB291D0A681398026089888180062767706889E082E8892084F9
:20140C00288A6084688AA084E878012B207308D11F2006F033FD4FF47A714143129807F064
:20142C005DF8E8786A892D1D0423294605F032FF7AE0687831286ED1E670042023E06F78BC
:20144C00002F68D1A878A78A6178032812D0E078257927B9012814BF2671E67006E00543F4
:20146C0004D01498394607F039F861780729E4D1062008E0062908D0E778002F08BF84F895
:20148C00018051D0022060704EE00720FBE76B786F1C002B3FD1ED78A279ADB960780228E4
:2014AC0018D0072816D0062802D12079012811D1149808F0C1FC68B9012008F0A9FA09E057
:2014CC0094170020E4090020159BC0B2494606F075F938703F78F7B923E0C0461D9A000044
:2014EC006F78C7B9169A0220102107F0D7F8179A4046102107F0D2F8ED1C29681898AF8806
:20150C0001600125878029466279199B207C657006F054F940B10820B5E7A888052108F07C
:20152C0013FDB9F1010F2ED1276B002F2BD03F684FB36078B84726E06879132823D12889D3
:20154C00012810D1A07B02280DD1119808F028FE6078062818BF072815D1207CE18A13225D
:20156C0006F0AAFC0FE0052006F088FC0146119806F0B4FF07E00888C00B04D31A9A0420AB
:20158C00014607F08BF8029FDBF800004FB10821ADF81810ADF81A80CDF81CA0014606A85F
:2015AC008847608A2779E17842082ED320F0010057EA0105608228D0234802886FB9E17979
:2015CC00207A8DF80C101B9F8DF80D003B680DF10E052B60B988A98001E08DF80C80607A03
:2015EC008DF81400A17A8DF81510D0B203A908F0A5FC48B10820276B60702FB13D681DB1E4
:20160C003868014608208847608A810806D320F002006082304604F06FFB608AC108FFF426
:20162C0046AE20F00400A77B60827F1E03D07F1E3FF432AE3BE601200090618BA28BE38B19
:20164C00208B05F07DFA32E6F40900202DE9F84FC64DC74ED5F8EF1FCC4C7368D5F8F30F10
:20166C008843C5F8F30F002BC5F8FF1F00F011817788012B00F0D680DFF8FCB2BF4FDFF871
:20168C0000A3DFF80093DFF80083022B72D0032B40F06A810024B06855F8312C746000283D
:2016AC00A2F5C062B8BF404211460029B8BF494288422EDA111C54BF02206FF00100B2693B
:2016CC0000EB4100032190FBF1F18918B161F368706998420BD0B1F11002B8BF524230694D
:2016EC001038B8BF40428242B8BF88B209DB98B20090A04830214FF47F42082305F0ABFB67
:20170C00308A00909B4804214FF4F802122305F0A2FB5846046001688908FCD20460012612
:20172C0044600E203E6002F03BFC50460468EFF3118584F3118849460820B0FA80F00A1A85
:20174C00D07F431E0128D37704D14246106820F00800106085F31188EFF3118384F3118866
:20176C000420B0FA80F0091AC87F421E0128CA7754D14EE055F8310CB0F5C06F17D0032729
:20178C00776001F089FC45F8397C0027276020688008FCD27748394660220523009105F004
:2017AC005AFB0126266020688008FCD364E0002171605846016002689208FCD201600126AD
:2017CC0041600E203E6002F0EBFB50460468EFF3118584F3118849460820B0FA80F00A1A39
:2017EC00D07F431E0128D37704D14246106820F00800106085F31188EFF3118384F31188C6
:20180C000420B0FA80F0091AC87F421E0128CA7704D14246106820F00400106083F31188E2
:20182C00BDE8F88F55F8312C02214BF2F52071605043000A37B95649096821F07F414018BA
:20184C00400801E0002171806060000CA0600126E660032745F8397C00272760206880082E
:20186C00FCD24448394660220523009105F0F3FA266020688008FCD345F8216C45F8397C45
:20188C000820C5F8FF0FC5F8F30F45F8396CBDE8F88F40480068006801462020884741F697
:2018AC001D574FF002080F2045F82D0C00214FF4C072072345F8297C2E48CDF8008005F068
:2018CC00CAFA012744F8047C54F8040C8008FBD3308845F81D7C012821D0032045F8390C55
:2018EC004FF00009C4F8009020688008FCD22148494660220523009105F0ADFA276020688C
:20190C008008FCD345F8217C45F8399C0820C5F8FF0FC5F8F30F45F8397C474623E04FF005
:20192C000009C4F80C90032045F8390CC4F8009020688008FCD20F48CDF8008049466022BE
:20194C00052305F088FA276020688008FCD3202045F8210C45F8399C0824C5F8FF4FC5F8C6
:20196C00F34F45F8397C7760BDE8F88F39400C40DC22002000A00C4034600C4004800C40A5
:20198C003CAA00008F180020201E002038600C4010200940A00100102DE9F04F5FEA00097B
:2019AC00ADF11C0D00F05581AC480068EFF3118280F31188DFF8C8B29BF80400012818BFC9
:2019CC00012003D1022100208BF8041082F31188012800F03C8108F0B7FC0390A9480468AD
:2019EC0004EB0B0008F0B8FC4FF00008464637460BEB0401CDF810800191B0B90C460846FA
:201A0C0008F09EFC0546A868400808D3E8682969024601209047C0B2002840F010812846BF
:201A2C0008F08AFC0546AC42EDD1002F40F00B8108F07EFC0290059789480760012007F04A
:201A4C00D1FC012804D1404606F05AF94FF00108844F38688068014630468847864819309A
:201A6C000090D0F8FF0FB9F1000F00F08C80864C0A34E57905B10126A5790DB146F00206DA
:201A8C0065790DB146F00406DFF8DC9165782DB1B86A006B49460246C88D904725782DB154
:201AAC00B86A006B49460246488D90476F4901200860B86A8069014646F0200088476C4D99
:201ACC00DBF80010286840F001002860480813D2684808F0F6F98246BAF1040FF8D0D5F8E7
:201AEC00180220F00300C5F81802B86C4068024660480321904701E001200490059800F0FC
:201B0C0009FBB86A0099806BD1F8FF1F8047049858B9B86C40680246564851469047D5F8C7
:201B2C00180240F00300C5F8180238688068014601208847504801688909FCD3B8F1010F9B
:201B4C0002D1012006F0DCF8B86A4069014630468847B86A406B0146304688470128F8D119
:201B6C0066782EB1B86AC06A49460246C88D904726782EB1B86AC06A49460246488D904701
:201B8C003A49012008603A480168032221F00101016001988BF8042008F0DEFB00280598D3
:201BAC0018BF01200125C0B9019C204608F0C8FB0646B068C00806D3F06831690246042061
:201BCC009047C0B230B9304608F0B6FB0646B442EFD102E02948006880472148009F0560B7
:201BEC00D7F8FF0F08F0E8F9019808F0B5FB059FC8B9019C204608F0A3FB0646B0680009B7
:201C0C0006D3F0683169024608209047C0B230B9304608F091FB0646B442EFD103E017480D
:201C2C0000688047022702988BF8045008F07CFB04F06AFC039808F073FB38460AE00F4846
:201C4C0000688047022701208BF80400F2E7062000E0022007B0BDE8F08FC0463CAA0000B0
:201C6C000C40094090010010E0A40000282008600C200840004003401410094030AA0000B0
:201C8C00201E00202CAA00007C18002003462DE9F041A248A04DA3F2013C002714460E4642
:201CAC00BCF11A0F1CD8DFE81CF02A0125011E011B00FA00F400DD00CC00C500BE00B60020
:201CCC00AE00A6001B001B009D009000820078006B001B001B001B001B0052001B002600DD
:201CEC00272B06DA022E04D12188184606F0CAFDCDE002270DE1012E40F003812846C1788F
:201D0C00012900F0EE8002792178017182B9002900F0FF804078012800F0D480042800F095
:201D2C00D180062800F0CE80052800F0CB80F0E02178002940F0ED804178032900F0CD8021
:201D4C00072900F0CA80052940F0E380C5E0012E40F0D7802078012840F0D38005F1F000C7
:201D6C0008F06AF850B9384603F0C6FF071C40F0D0802846CC3008F013FACAE01627C8E01D
:201D8C00022E40F0BE8021880A29C0F2BA80B1F5486F00F3B6801E3015E0022E40F0B18077
:201DAC002188B1F5FA7F80F2AC801C300BE0022E40F0A78021880629C0F2A380B1F5486FE9
:201DCC0000F39F801A300180A3E0022E40F0998021880629C0F29580B1F5486F00F391801E
:201DEC001830F0E7012E40F08C802178022980F288800B300DE0012E40F0838021780429BF
:201E0C007FDA0A3005E0012E7BD12178082978DA093001707DE0062E73D121683E300160D0
:201E2C00A688868075E0012E6BD12178042968DA0830EEE7012E64D12178042961DCC01D49
:201E4C00E7E7202E5DDA05F1890839461F22404603F032FC21463246404602F00BFFAE71B5
:201E6C0039460FE0202E4CDA05F16A0839461F22404603F021FC21463246404602F0FAFE67
:201E8C006E710121287C3246434605F097FC07463FE0022E35D121882846143093E7012E62
:201EAC002FD12846017901291BD0C2782178C17062B900292DD04078012803D0042818BF1D
:201ECC00052826D1012007F0A3FD22E0217801BB4178022918BF05291BD1007C07F04CFF30
:201EEC0017E0122715E0042E0BD1216828462C3001600EE0102E04D128465A3005E0102ED3
:201F0C0001D0182705E028464A301146102202F0B1FE3846BDE8F081E4090020E409002000
:201F2C002DE9F0411C4615468C4208BF854282BF00230022E5E0002C08BF002D0AD10029C6
:201F4C000EBF00286FF000006FF0000100F0E1F8BDE8F0815FF000085FF0000E002C08BF3B
:201F6C008D429CBF2C1C0025070C47EA01470E0CB44208BFBD429EBF5FEA044444EA1544E7
:201F8C005FEA0545070A47EA01670E0AB44208BFBD429EBF5FEA042444EA15645FEA05253C
:201FAC00470847EAC1774E08B44208BFBD4200F29380870847EA81778E08B44208BFBD423C
:201FCC007CD8C70847EA4177CE08B44208BFBD4266D8070947EA01770E09B44208BFBD428D
:201FEC0050D8470947EAC1674E09B44208BFBD423AD8870947EA81678E09B44208BFBD42E3
:20200C0024D8C70947EA4167CE09B44208BFBD420DD8E60146EA5566EF01B14208BFB84221
:20202C0001D3C01BB14158EB08085EEB0E0EA60146EA95664FEA8517B14208BFB84201D30C
:20204C00C01BB14158EB08084EEB0E0E660146EAD5666F01B14208BFB84201D3C01BB14168
:20206C0058EB08084EEB0E0E260146EA15762F01B14208BFB84201D3C01BB14158EB0808F2
:20208C005EEB0E0EE60046EA5576EF00B14208BFB84201D3C01BB14158EB08084EEB0E0E02
:2020AC00A60046EA9576AF00B14208BFB84201D3C01BB14158EB08084EEB0E0E660046EAF1
:2020CC00D5766F00B14208BFB84201D3C01BB14158EB08085EEB0E0EA14208BFA84201D3C5
:2020EC00401BA14158EB08085EEB0E0EA34208BFAA423EBF2D0A45EA0465240A89D3734638
:20210C0042461E4617460B46024631463846BDE8F0817047F8B504460020C4F209000068D1
:20212C00800880F0BB8006F024FF42F22421C4F208010A68002112F0030F18BF0121D20895
:20214C0028BF41F00201002C18BF41F0040143F66836C2F2000696F90720821A052A04DA2F
:20216C00B2798A4208BFB2886FD041F29C340F28A0F10F02C5F2000424DB02EB021217125C
:20218C00072F88BF07273D46062D88BF062554F825C00423A64603EB85035EF80330CD0848
:2021AC00A3EB0C0303F0FF0C24BFC3F30725AC448D0824BFC3F30745AC444D0805D30CEB35
:2021CC00136C02E04FF0000C674654F82730CC0803F0FF0524BFC3F3072425448C0824BF88
:2021EC00C3F3074425444C0828BF05EB1365A2EB07221FFA8CF3534380330022082B88BF93
:20220C00012243F6B473C5F200031C681B684FF4D07C34275219241703F0FF0307FB14C40F
:20222C005C434FF6FF73B4FBF2F2934238BF1A1C802892B2B28005DA10F1800F03DA6FF0DE
:20224C007F0000E07F20F071B17142F20800C4F2090001681F2A4FF00000316008D340F267
:20226C00FF11914206D25208401C9142FBD301E01F22B2800F3A4FF600714FF0350E120950
:20228C00C8F2A401C4F2090E40EAC2000143CEF8FB1F4FF0000CCEF8FFCFF8BD43F66E3289
:2022AC004FF6FD50082141F2300EC2F20002C0F2A4001170C4F2090ECEF80000F8BD70475A
:2022CC002DE9F04F8346ADF15C0D06F0A7FA4FF00009012805D107F016FB022808BF4FF0B7
:2022EC00010954490868C0F38150012806D151F80C1C0120090E884040EA09094E494F485C
:20230C004F4D09780068C0F34600286006F086FA2C46012818BF206802D12068401C206004
:20232C0038B1FF2204F1400107467F1E01F8012BFBD1DBF80010002601F0FF02FF2A1BD067
:20234C008C46DE46324601270CF0FF01884204D907FA01F319EA030F01D0022067E00CF0F8
:20236C00FF015EF804CF61181E4381F84020521C0CF0FF01FF29E9D1092001F0CBFAC4F88E
:20238C0004B001A800212422082307F0C5FF4FF0010804F1240001AA8DF81C80414607F0DC
:2023AC00B7FF23682BB300276035BA4608FA07F019EA000F17D1064204BF07F0FF0141F40C
:2023CC00C04104D0E01990F840005BF820101D4802F096F8F8B24FF0FF3107F05DFA236801
:2023EC00C5F800A001E0042028607F1C2D1D9F42DCD30AA800213022082307F085FF002582
:20240C0004F1080010210AAB0F4A009507F078FF0E4A52F80D0C414620F4F85040F400504F
:20242C0042F80D0C0A4BC2F8FF1F2846196017B0BDE8F08FB43F0050703B00208012084056
:20244C0070380020007FC767597800000D300940080009402DE9F84F0D4681462868D9F87B
:20246C000440D9F808B0002800F0A98007F044FF616D21B107F03CFF032028749FE00121D6
:20248C002974656507F034FF94F8700030B194F859204C49A06E114306F0C4FADBF800102F
:2024AC00486840F002004860D9F804C0D9F80830D5F800E09CF8582019681FFA8EF0904047
:2024CC00B1F1804F1FFA80FA14BF3F4E3F4E4048AA6832B99CF858108F00C2590CF1720164
:2024EC0008E09CF858108F000AEB0201C21952F8082C491EB2607160196801F10808C6F881
:20250C000080B2684FEA0E1143F6F07E10390EEA01010A43B2601A68B2F1804F14BF2D4A36
:20252C002D4A6E68002E04BFC0599E1D04D0C01950F8100C5644761E90601660C2F804809A
:20254C00906801439160DCF86C00DF6841689A68096847EA020088621968486A40F003001C
:20256C004862DBF80010486940F0010048616E6807F0C2FE194D0746287801280AD016F04E
:20258C00704F02D1102006F0A5F8042006F0A2F801202870384607F0ABFE207828B961680D
:2025AC003834204607F0A0FE10B10120BDE8F88F484600F0F3FD2046002107F095FE0020FB
:2025CC00BDE8F88F000006800005002030040020C0A400001005002040040020763B0020F6
:2025EC002DE9FE4F82460E460CAF307A3C8899461546800928BF082080F09780084602A9D5
:20260C0006F0C0FD012808BF012000F08E80BDF80800DFF81CB142F6021100274FF0FF08D3
:20262C00401A6BD048F2FF21401A33D0401E18D0401E61D1002C5DD1B9F1020F58D128788E
:20264C00062825DAF06829880180F168584688425ED159460878497803F024FF4FF0020888
:20266C0059E0002C46D1B9F1060F41DA287810280EDCF06829464A4602F0FCFA04F0D6F934
:20268C00F16858460C30884242D14FF0010842E080273DE074BBB9F1100F29DCF06829462C
:2026AC004A4602F0E7FA5C46584600F10C0220781678012802D9401F12D029E06178557852
:2026CC0003F070F81EB9284607F0BEFB05E004F111012846324606F03FFD07F079FC17E037
:2026EC00D2F8010004F11101324602F0C3FA0FE00D270DE00B270BE00A2709E000940121D8
:20270C002A4650464B460191314604F079FB0746B8F1FF0F08D05846001D006820B100686D
:20272C0010B10146404688473846BDE8FE8FC046E8190020B0B5456884684D48297BADF184
:20274C00180D01291AD001462F7E227C637C494837F0010741EA020240EA03000190464888
:20276C00009218BF011CA27C1143029195F859200323FF2A13D0014610460DE0A17C627C05
:20278C00237C41F00041024343F00043029195F85900009339490192014304230391FF2121
:2027AC0005F15C004DF82310694602F0DFFBA866002808BF002058D0287B314951F82000FD
:2027CC00012828D02068B0F1804F14BF22220A22217CA86E06F07AFD2068B0F1804F14BFA6
:2027EC0021220922617CA86E06F070FD2068B0F1804F14BF24220C22A17CA86E06F066FD3E
:20280C0095F85910FF292FD02068B0F1804F14BF23220B2225E02068B0F1804F14BF21223F
:20282C000922217CA86E06F051FD2068B0F1804F14BF22220A22617CA86E06F047FD20687A
:20284C00B0F1804F14BF24220C22A17CA86E06F03DFD2068B0F1804F14BF23220B2295F888
:20286C005910A86E06F032FD012006B0B0BDC046000480A0004000800004C0A00020008076
:20288C00A8A400002DE9F04F04460D464D4E68782978ADF1140D01EB0021ADF80010718858
:2028AC00BDF80000884217D1706940F6FF7200EB0110024203D1000BC0B207F0E9FBBDF804
:2028CC000010B079AA1C1023090107F0EBFB7088401C81B2718007E007F09EF920464FF63B
:2028EC00FF7103F017FD7188B088884264D10DF1020007F081FABDF802004FF6FF71814284
:20290C0057D0BDF80200002853D0BDF80400814203D0BDF80400002843D1B288F088002765
:20292C00110101F47043C5B203975FFA92F2C91A82181FFA81FB5FFA82FAAA4528DBAAEB75
:20294C00050101F10108A8420CBF04240024AA45D8BFA34516DD284621460DF10602042306
:20296C0007F09BFB04270DF1060919F8011B039806F0BAFA7F1E0390F7D1241DA4B2B4F5DC
:20298C00805FE4DBF0886D1CB8F10108EDB2DAD10398002106F0A8FA002106F0A5FAADF8E1
:2029AC000400BDF80400BDF80210884201D101F029FC07F031F902E0204603F0ABFC05B01D
:2029CC00BDE8F08F3C1900204D4B2DE9F04F0C46343B998BADF13C0D86460991587B0E90C2
:2029EC00598B089158780D90198B0791988C0C90D97A588C0691D3F82CA00B90997A188C2E
:202A0C00059193F804900A90597A93F80C800491197AD88B0391D9795A7902919979DE8A20
:202A2C000191D9789F8A00919978AEF5407C0025BCF11D0F10D8DFE80CF05D5653504E4CE4
:202A4C004A4743403E3C3937350F3432302E2D272422200F1D1B1A18BEF1270FA8BF0225BE
:202A6C0049DA704605F00AFA14E0DDF83880C146CDF834900D98059016E00C980B900B9855
:202A8C000A900A98074622E04433186820609888A08030E009900998089008980790079830
:202AAC000690069E268026E0059804900498039001E03E33E9E7039802900298009008E063
:202ACC00019A03F1890111E003F16A010EE03846E0E700990EE03833D7E7C4F800A00AE058
:202AEC0003F15A0101E003F14A011022204602F0C1F800E0217028460FB0BDE8F08FC04650
:202B0C00180A00202DE9F04F8046D8F80450D8F808400F46ADF1540D07F0EEFB95F89810A7
:202B2C0004F10409012903D107F0E2FB002077E04FF0010B85F898B007F0DAFB1FB90DA8D5
:202B4C0007F032F90DAFF86828B9D8F80800067B90F80DA002E0067890F801A0FF2EE5D051
:202B6C00BAF1FF0FE2D0FF222F49304C139241EA0600119041EA0A011291201D11A902F090
:202B8C00F5F900282060D1D031460D2206F09EFB206851460E2206F099FB387828707868BC
:202BAC006860387A002130220823E86001A807F0ABFBCDF81880002400941D4AD9F8001006
:202BCC0005F1100001AB07F09BFB01A824220823214607F0A1FB05F12C008DF81CB0594684
:202BEC0001AA07F095FB287838B905F14800214601AA07F08DFB0F486860AC672C72EC6714
:202C0C0099F8040000F086FE404604F0BBFB05F18400094A00940421434606F035F94046B6
:202C2C0015B0BDE8F08FC04600200084503B002089360000D9A00000859E00002DE9F043A6
:202C4C0004466668A5680F46ADF1540D07F054FB96F8A4102D1D012903D107F049FB0020C4
:202C6C0076E04FF0010986F8A49007F041FB1FB90DA806F0F9FF0DAF4FF00008C6F85480B4
:202C8C003869306178697061387E3076387B307338783070786886F87080706078694146BC
:202CAC00092828BF494686F85810687800F032FE204603F0F5FFE87B86F859002046FFF798
:202CCC0039FD50B9687801F06BF907F015FB86F8A48007F00DFB444639E001A841463022A7
:202CEC00082307F011FB0694CDF800801A4A297806F11C0001AB07F003FB307878B901A880
:202D0C0041462422082307F007FB06F138008DF81C90414601AA07F0FBFA104800E0B868E0
:202D2C00B06003F08FF9317BF066012906D1B06E0B4907F047F9B06E00B1846006F1900016
:202D4C00084ACDF800800421234606F09DF8204615B0BDE8F083C046A9320000E1A0000012
:202D6C007984000025A000002DE9F0470C469046DFF8F890414D3F4F3D493F4AD9F8003085
:202D8C0008284FF00006ADF1180D69D8DFE800F05F5B4C4844403A1105C0072C59D1404632
:202DAC00828805F108018A8087798F710068086057E003940420ADF80A004FF0080AADF88D
:202DCC0008A002A89847D8B904980746C0B1696805F1170088420BD005214846ADF80210DD
:202DEC006A68ADF800A00068019201466846884738464146224601F03DFF6F602C7030E0DC
:202E0C0013262EE0142C24DC01F11505294601E0142C1EDC0D460BE0142C1ADC3D4606E0AC
:202E2C00142C16DC3D4603E0142C12DC1546153528463146152202F03FFC28464146224675
:202E4C0001F018FF0DE0142C03DC1546DEE7082C01D0182605E0404642686A394A60A5E701
:202E6C000226304606B0BDE8F087C046941700201D160020F3150020C9150020A4150020B3
:202E8C002DE9F0413E4F3878002876D03D4C208910F07F0F00F07F086DD005F0CEF93A4E7C
:202EAC0021783578A0700DB902293AD12279C30917D2400824D304F1140005F065F904F1D4
:202ECC001A0005F025F9E578E088002D08BF217816D00021E17021784FF47A7292FBF0F0DA
:202EEC0009E0521CD0B20228207109D1E0884FF47A72B2FBF0F002B2500000EBC200E06043
:202F0C000025022935700CD12089C00909D304F1200000F041FA052822D008B103F02AFD53
:202F2C002178E66816B901291BD124E0022904F1140509D0022020700026267100F056FDF1
:202F4C0010B1404601F094F82089000A02D3E068401EE060002012212A4602F00FFD0AE088
:202F6C00E560002020710126267000F03FFD10B1607800F061FC00203870BDE8F081C0469C
:202F8C00743B00200C200020733B00202DE9F0430646ADF11C0D07F0A3F905F055FE4FF0C6
:202FAC0000090546CDF8089007F03CF830F0010002D00298A84202D16FF0040068E070685C
:202FCC004C4658B1B0F1FF3F05D001A905F00CFE30B107465BE04FF0FF3000E0204601903F
:202FEC0007F07AF90199012701EB000802E013463DE001936868019907F076F900282FD0C2
:20300C0003A803F053FFE0B9BDF81000694605F003FE90B9B268BDF80000BDF81210134669
:20302C00059A984748B1BDF80000BDF81210B081059BF1814F46336112E0059902A805F0E6
:20304C006FFC0198641CB0F1FF3FD3D00028D1D007F042F9B8EB000302D001989842C8D2DE
:20306C00029E06F0E1FB05F1080146B1334653F80C2C002ABBD10A6843F80C2C0E6006F0E1
:20308C0057FD24B1686807F023F9641EFAD1384607B0BDE8F08370472DE9F843804606F0BA
:2030AC0085FF002100B901213A4D2D1F28680028FCD0DFF8DC90012609F10407FC6A2E60CA
:2030CC0009B106F079FF3448C4F3072100F10804616006F06BFF0146002001B93046014665
:2030EC0028680028FCD03F682E6009B106F064FFC7F38441A8F5C060A160B8F5C06F20605F
:20310C00B4BF6FF001030223626803EB4003032093FBF0F00918104602290FDB1E290BDB63
:20312C003F28B9BF521C401C3F22101CE2603029B4BF10391F210DE0E0600BE010F13F0F4F
:20314C00ACBF401E6FF03F00E06011F1100FACBF10310021216180B24FF47F42082330219A
:20316C000090484603F077FE0096484604214FF40032112303F06FFE208A04214FF4F8025F
:20318C0012230090484603F066FEBDE8F883C04600A00C4004800C40DC2200202DE9F0472C
:2031AC0007467C68BE6807F0A7F80834E16C002968D007F09DF83168486820F0020048609D
:2031CC003168486A20F003004862606EF5684168B268096845EA0200C1F80405316848693F
:2031EC0020F00100486130684FF00108C0F820803068B0F1804F14BF40F201104FF4807080
:20320C00224909688847384603F04AFDE06CD0F804A007F071F81E4D8146287850B11AF04A
:20322C00704F02D1102004F0CDFF042004F0CAFF00202870484607F05BF8E16C087C042892
:20324C0002D003200874E16C606E4368B268F0681B68454610438540DD623068B0F1804F4C
:20326C0014BF0C480C48026808689204A0EB9250401E0860206800230246E3643846904795
:20328C00BDE8F08707F034F8BDE8F08778000010763B002008050020380400202DE9F04798
:2032AC000646B1680A687468D06908341062400842D2606E40680268CD68D2F804052842BA
:2032CC0006D00B68586A20F002005862C2F80455D2F804258868024258D00A68506A20F06D
:2032EC0001005062606E406889680068C0F80415E06C00250574E76CD7F804A006F0FCFFCE
:20330C00DFF88C80814698F8000050B11AF0704F02D1102004F056FF042004F053FF404661
:20332C000570484606F0E4FF2068E5643946024630469047BDE8F0870A68506920F0010068
:20334C005061E76CFFB9506820F002005060506A20F003005062606E8B684468CF6821687F
:20336C00B2F1804F47EA0300C1F804050CBF4FF4807040F20110074909688847304603F09F
:20338C008FFCBDE8F0873046FFF708FFBDE8F087763B002078000010FEB53D4C05460621E4
:2033AC00601C017006F0A6FC18B906F011FE0020FEBD002601206821667002F0F3F9222005
:2033CC00694601228DF80000372005F0C5FE08B90520607006F0FCFD6078002818BF301CB3
:2033EC0054D101200C2102F0DDF902206946012206F0BFFB00283CD09DF80000400836D3C8
:20340C0003200DF10101072206F0B3FB68B39DF80700000927D29DF802709DF801009DF8C5
:20342C0004609DF803109DF806309DF8052040EA072041EA062142EA032200B2288009B2E6
:20344C00698012B2AA80B4F90830584300122880B4F90A00414308126880B4F90C004243D4
:20346C001012A88007E0032004E0042002E0022000E00120607011208DF800006946012287
:20348C000A2005F069FE06F0A3FD6078FEBDC0467021002038482DE9FC47006800680146CA
:2034AC0020208847354DDFF8D8A04FF002080F2000214FF4C072072345F82D0C41F61D50CE
:2034CC0045F8290C5046CDF8008003F0C4FC2D4C012644F8046C54F8040C8008FBD3DFF80B
:2034EC00A890B9F8000045F81D6C01281FD0032045F8390C0027276020688008FCD2394649
:20350C00504660220523009103F0A5FC266020688008FCD345F8216C45F8397C0820C5F834
:20352C00FF0FC5F8F30F45F8396C464620E00027E760032045F8390C276020688008FCD2CC
:20354C00CDF80080504639466022052303F083FC266020688008FCD3202045F8210C45F89D
:20356C00397C0824C5F8FF4FC5F8F34F45F8396CC9F80460BDE8FC87A001001039400C40AF
:20358C0000A00C4038600C40DC220020F8B506F00DFD314C256805F00C000C2855D0E80830
:2035AC002ED22E480068EFF3118780F311882C4EB068002106F088FE7169B269091A8A4288
:2035CC0038BF002187F3118826480068884217D22548264A264D036812682868B3FBF2F2D4
:2035EC002018891A06F06CFE2868201806F064FE0120FEF7D1F92868201806F059FE25E06A
:20360C00280922D21B48690939BF016821F00101016841F0010102460160D2F898004FF04A
:20362C00805440F00300C2F89800D4F8B8018069014620208847D4F8B8010F4C806B21680D
:20364C00804701202060206800E030BF06F0B4FC02F060FDF8BDC046201E00203CAA0000AB
:20366C007801002034AA000038AA000040AA000024AA00008C2108402C200940F8B50646AA
:20368C0035480068B46875684068014620688847226801210835C2F81C1868B12B78FF2B3D
:2036AC000AD0FF214009297051D20420C2F80408022006F03FFD4AE02878002847D0401E5A
:2036CC0013D0401E02D0FD3844D03DE0D2F80828A86E0270A86E401CA866EF6E7F1EEF6614
:2036EC0019D0012F88BF092127E06F6E7F1E6F6613D1EF6E7FB10220E96D28702268097C4E
:20370C00012F4FEA410141F00101C2F8001894BF03210B2113E004210DE0286E22680078AD
:20372C00C2F80808286E022F00F10100286604D2EF6E17B905210020287022680220C2F825
:20374C00041806F0F7FCF8BDFF202870F8BD304603F022FAF8BDC046AC010010F0B50C4643
:20376C000746ADF11C0D06F017FD10B1684604F049F8E179A0792F4D002600EB01206E806C
:20378C008010A880E079A17901EB00218A10201D694605F04DFE211D00283AD1A96838461F
:2037AC0006F0FAFA400831D338461B210822334605F02CFE059048B305F1180009212A4613
:2037CC0006F016F808224189ADF81220059CADF810109DF800002070BDF800100598091206
:2037EC0041709DF802108170BDF8022001AD1212C2702968031D32463846196004A905F0D7
:20380C009DFF18B104A81B2106F000F806F004FA0EE0084606F0A2F96861000BE88006F06E
:20382C00F3FA204604F0ACF93846314602F072FD07B0F0BD3C190020F8B5064606F05AFA1E
:20384C0000284FD00120682101F0ACFF00284BD02E4D09202C1D0122207021466B2005F005
:20386C007BFC00283ED007202871214601226C2005F072FC002835D001271D2021462F71BD
:20388C003A4605F069FC00282CD04020287121463A46382005F060FC20B3C02028712146E2
:2038AC003A46692005F058FCE0B12E711F2021463A4605F051FCA8B10620287121463A4613
:2038CC001E2005F049FC68B12920287121463A466B2005F041FC28B1E91C1C203A4605F036
:2038EC003BFC18B906F074FB0020F8BD3A2021463A4606F03EF906F06BFB00212970686925
:20390C00034905F08FF83846F8BDC04670210020070006802DE9F04105462E480068EFF30A
:20392C00118880F311882C4A505D411C0028515549D12A4CA900675C07F03F003F280C449F
:20394C0001D0FFF7E7FF607800F03F003F2801D0FFF7E0FF668837F07F0019D1F80911D238
:20396C004FF08054D4F8B801406901463046884704F5DC742068406B01463046884701283D
:20398C00F8D120E0164850F82610012088471AE04FF08054D4F8B801C0690146304688473F
:2039AC00D4F8B801406A014630468847D4F8B801C06A01463046884701210A4A0A481160CC
:2039CC0001688908FCD388F31188284605F0E2FCBDE8F0813CAA00007C180020E0A4000089
:2039EC00941800202820086028200840F8B5334D2F49686905F016F8FF20A87000242C703F
:203A0C0068216C70012001F0CDFE002808BF271C4CD02C4680200122211D20716B2005F086
:203A2C009BFB06F0D5FA234923480D68B0FBF5F006F096FC02F0CCFF261D071C36D0022070
:203A4C0003F05AFB06F056F960B303F0D1FF58B301200C2101F0A6FE30B30F2030703146E0
:203A6C0001220A2005F078FB42F21070B0FBF5F006F076FC04F10E011020032206F079F819
:203A8C0004F10E0140B108788030208148788030608188788030A08101220B2031462271DA
:203AAC0005F05AFB06F094FA04F0EAF83846F8BD0700008040AA0000A086010070210020DA
:203ACC002DE9FF4782460D460CAF287A3F8899461446800928BF082055D2084602A905F059
:203AEC0051FB012808BF01204DD0BDF80800DFF89C8042F60211FF26401A2ED048F263111A
:203B0C00401A012827D827BBB9F1010F1FD1BDF808104AF666200027884202D1217803296F
:203B2C0013DA2178EA681170BDF80810884205D0E968404688421AD13E461AE0E9684046D3
:203B4C00401C884213D1012613E080270FE00D270DE00B270BE00A2709E000970121224626
:203B6C0050464B460191294603F04AF90746FF2E08D04046001D006820B1006810B101463D
:203B8C003046884738460090BDE8FF87001F00202DE9FE4F82460D460CAF287A3C889846DF
:203BAC009146800928BF082056D2084602A905F0E9FA012808BF01204ED0BDF80800DFF8CE
:203BCC009CB042F602110026FF27401A2ED048F23F11401A34D0401E14D0801E24D10CBB1A
:203BEC00B8F1010F1CD199F800000A2808DBE9680870E9685C46601C884221D1022721E04F
:203C0C0080261DE074B9B8F1010F09D199F80000E9680870E9685C468C4211D1012711E01F
:203C2C000D260DE00B260BE00A2609E0009401214A46504643460191294603F0E1F80646A5
:203C4C00FF2F08D05846001D006820B1006810B10146384688473046BDE8FE8FD41B0020EA
:203C6C002DE9FE4F82460D460CAF287A3C8898469146800928BF082056D2084602A905F036
:203C8C0081FA012808BF01204ED0BDF80800DFF89CB042F602110026FF27401A2ED048F265
:203CAC001F11401A34D0401E14D0401E24D10CBBB8F1010F1CD199F800000A2808DBE96871
:203CCC000870E9685C46601C884221D1022721E080261DE074B9B8F1010F09D199F8000017
:203CEC00E9680870E9685C468C4211D1012711E00D260DE00B260BE00A2609E00094012128
:203D0C004A46504643460191294603F079F80646FF2F08D05846001D006820B1006810B114
:203D2C000146384688473046BDE8FE8F6C1C00202DE9FE4F82460D460CAF287A3C88984616
:203D4C009146800928BF082056D2084602A905F019FA012808BF01204ED0BDF80800DFF8FC
:203D6C009CB042F602110026FF27401A2ED048F2FF01401A34D0401E14D0401E24D10CBB08
:203D8C00B8F1010F1CD199F800001E2808DBE9680870E9685C46601C884221D1022721E099
:203DAC0080261DE074B9B8F1010F09D199F80000E9680870E9685C468C4211D1012711E07E
:203DCC000D260DE00B260BE00A2609E0009401214A46504643460191294603F011F80646D4
:203DEC00FF2F08D05846001D006820B1006810B10146384688473046BDE8FE8F001D00201B
:203E0C002DE9FE4F82460D460CAF287A3C8898469146800928BF082056D2084602A905F094
:203E2C00B1F9012808BF01204ED0BDF80800DFF89CB042F602110026FF27401A2ED048F294
:203E4C007F11401A34D0401E13D0401E24D10CBBB8F1010F1CD199F800000A2807DBE96871
:203E6C000870E9685C468C4222D1022722E080261EE07CB9B8F1020F0AD1E8684946098801
:203E8C000180E9685C46601C884211D1012711E00D260DE00B260BE00A2609E00094012156
:203EAC004A46504643460191294602F0A9FF0646FF2F08D05846001D006820B1006810B13D
:203ECC000146384688473046BDE8FE8F901A00202DE9FE4F82460D460CAF287A3C88984653
:203EEC009146800928BF082056D2084602A905F049F9012808BF01204ED0BDF80800DFF82C
:203F0C009CB042F602110026FF27401A2ED048F26F11401A34D0401E14D0401E24D10CBBE6
:203F2C00B8F1010F1CD199F800000A2808DBE9680870E9685C46601C884221D1022721E00B
:203F4C0080261DE074B9B8F1010F09D199F80000E9680870E9685C468C4211D1012711E0DC
:203F6C000D260DE00B260BE00A2609E0009401214A46504643460191294602F041FF0646FC
:203F8C00FF2F08D05846001D006820B1006810B10146384688473046BDE8FE8F941D0020E5
:203FAC002D492DE9F0410968EFF3118881F311882A4B195C4A1E01291A5449D1284980004A
:203FCC0045180E5C6F8836F07F0019D1F00911D24FF08054D4F8B801806901463846884797
:203FEC0004F5DC742068406B0146384688470228F8D120E01D4850F82710002088471AE0E5
:20400C004FF08054D4F8B801006A014638468847D4F8B801806A014638468847D4F8B80176
:20402C00006B01463846884701210E4A0E48116001688908FCD306F03F003F2801D0FFF708
:20404C00AFFF687800F03F003F2801D0FFF7A8FF88F31188BDE8F0813CAA00007C180020FE
:20406C00E0A40000282008602820084094180020BCB5074605F03EFE00285AD02E4C207851
:20408C0040BB3FB305F036FE10B30120682101F089FBF8B10920211D207101226B2005F0D8
:2040AC005BF8251DA0B13F202870294601226C2005F052F80021217050B1E11C1C200122AB
:2040CC0005F04AF820B13A202946012205F051FD05F07EFFF8B2277040B380F0FF002071F7
:2040EC006821012001F05EFB28B3211D6C20012205F032F805F06CFF247805F0FBFDC4F339
:20410C008014B0B103F074FCA8B101200C2101F049FB80B1002C0CBF002011206946012214
:20412C008DF800000A2005F017F802E003F0A8FDBCBD05F04DFFBCBD702100202DE9F04715
:20414C0082460E467068DAF80810DAF80450002401F1040810B9F06800284ED028780128FD
:20416C000FD106F0C9F8A96F39B1E96F8E61EE6706F0BEF80120BDE8F087AE67EE6706F0B5
:20418C00B7F806F0B9F81E4F81463878012804D0042004F09FFA01203870484606F0A8F83E
:2041AC0005F12C094FF0FF31484606F09DF8D8F8000006F079F85046314601F0D3FDD8F86B
:2041CC00000006F06DF8287898B905F148004FF0FF3106F089F806F08FF80646387818B121
:2041EC00042003F0EFFF3C70304606F081F8287A00B90124484606F06BF82046BDE8F08734
:20420C00713B0020F0B54FF4F0204FF48051ADF1140D02F00BFA2A4D4FF4F0201021AA1C43
:20422C0001F0E6FB4FF4F83004216A4603F009F80098B0F1FF3F2CD04FF0805606F5EC7489
:20424C0020681E4F006801210A46034638469847D6F8D801406801210246384690474FF48C
:20426C00F83005F098FA4FF4F8363046102101AA02F0E7FF38B101A83146102205F07CFA42
:20428C001036700CF1D02068406800210246384690474FF4F8300068B0F1FF3F0CD0E889A2
:2042AC0029898000890002468B18A3F5F833002BC8BFC91A034B984705B0F0BD00400340E2
:2042CC002423002001F001001CB52D4C401E02D0401E44D01CBD05F099FE400931D3208932
:2042EC00FF2831D00120694604F06CF8BDF8000010F07F0F18D0BDF800002081022001F0CE
:20430C00D5FE05F0F7FCA8B11E48006841F28831B1FBF0F006F024F803F018FFBDF8001056
:20432C0041EA0020208105E0BDF800002081002001F0BCFE04F108020120022101F01EFB32
:20434C0007E0FF20083420800120FF21022205F0B5F900201222014605F0B0F91CBD022033
:20436C000DF1020104F02EF89DF80200410001EBC001E18004F1280002F06AFE1CBDC046DA
:20438C000C20002040AA000070B52C4E2C4D012806D068BB31460020491C05F03FF927E071
:2043AC003146012005F03AF934462078022817D0621C0020012102F0A3FD28680A210022DF
:2043CC0004F038F828680F21002204F033F8606805F06EFF28681521002204F02BF807E09C
:2043EC0005F014FE621C60700121002002F088FD31460878012820D134462868617849085E
:20440C0034BF002201220A2104F014F828686178890834BF002201220F2104F00BF86178FB
:20442C006068C90807D205F043FF28681521002204F000F870BD05F03FFF70BDA421002081
:20444C002C05002038B52D4C054600206908A4F10104207009D300F05BFC002808BF2078E9
:20446C0003D0207840F001002070A90809D301F084FE002808BF207803D0207840F00200E0
:20448C002070290909D300F091FC002808BF207803D0207840F008002070E90809D303F07B
:2044AC0010F8002808BF207803D0207840F004002070690909D302F08BFA002808BF2078E6
:2044CC0003D0207840F010002070A90909D303F0B7FB002808BF207803D0207840F0200020
:2044EC002070E90909D305F02CFC002808BF207803D0207840F04000207038BDE13A002013
:20450C00F8B50D46EEB2290824BF27494D40274BB400DFF89CC0195900EA05020CEA020228
:20452C0000F4E02C85EA0107BCF5E02F00EA070721EA0001C7F3006742EA010201D1510EB3
:20454C0014D300F4E0210F4310D002F4E027B7F5A02707D0B7F5803704BF22F4003242F456
:20456C00A02203E022F4803242F4C0221A51114CC10D04D3C5F38052A4F180018A55000EB0
:20458C0011D305F0B9FE290E03D201220021B24002E00122B24011465034236893431943AE
:2045AC00216005F0A5FEF8BD006000A000100840007F077F802002402DE9FE4F82460D4664
:2045CC000CAF287A3C8898469146800928BF082049D2084602A904F0D5FD012808BF012076
:2045EC0041D0BDF80800DFF884B042F602110026FF27401A22D04AF2C031401A0BD0401E33
:20460C001AD1BCB9B8F1010F12D199F80000E968022708701EE06CB9B8F1080F08D14946C4
:20462C000A6858460E30496802600127416011E00D260DE00B260BE00A2609E00094012148
:20464C004A46504643460191294602F0D9FB0646FF2F07D05846006820B1006810B1014640
:20466C00384688473046BDE8FE8FC046381B002070B52B4C2278607882424BD00020012191
:20468C00224603F09DFA244D2878022802D1207805F012FA63782278204E980819D390086E
:2046AC0017D22878062810D1E56820693168401B4FF47A75414340F6B830B1FBF5F188425C
:2046CC0007DA41F27070884203DD02F041FB2278637803F0030003281CD102F0030003285F
:2046EC0018D030682569E16853409B083CBF6168A5684FF47A736D1A684341F27071B0FB2F
:20470C00F3F0814206DA15200A2102F04DFF04F0B5FF2278627070BD2005002040AA0000F9
:20472C00102300202B482DE9F8430D469C4608AF91466968BC883E884B78027809784FF0BB
:20474C00000842F6232701EB0321C91B674628D0491E052917D9891F0CD0263933D1072E89
:20476C002ED8C6F10701A14298BF8CB23618083631461FE0B24223DB921BA242D8BF94B28E
:20478C003C8040680BE0E86805F0AAFA80B2B04216DB801BA042D8BF84B23C80E868311821
:2047AC0009E0082E0CD8C6F10801A14298BF8CB231180F313C804846224600F05BFA06E04C
:2047CC004FF0070803E040464FF00A0838804046BDE8F883A415002041F21C3010B5C5F293
:2047EC0000000468B4F1FF3F08BF002405F05AFA40F2844346F25C01002242F2082E0120EF
:20480C0040F2801CC4F26023C4F20C011A60C4F2043E0860C4F2283CCEF80000DCF8000034
:20482C0038B140F20010C4F2203000682046FCF7C5F944F20402C4F203021068052142F2F3
:20484C004803C2F20001C4F2030320F003000143116019684FF0000EC0F2391E6FF35B41F3
:20486C004EEA01000421C4F2090118600868C0F30130012809D10A684FF6FF70CFF6FC4018
:20488C00104040F400320A60086010BD2DE9F04F09AFADF11C0D924606903C880493D7F84B
:2048AC000880059197F80490039430B1081C04D0181C18BFB8F1000F01D1022038E01E4806
:2048CC0001780026354630E0069C04EB8504B4F800B04FF6FF70584523D0A7780FB303996B
:2048EC000498059A04F084FF0290D0B178080AD3CDF80090CDF80480029B012158465246F7
:20490C0000F098FE0643A07880080AD3CDF80090CDF804802088029B5246022100F08AFE29
:20492C000643054801786D1CEDB2A942CCDC304607B0BDE8F08FC046E409002029482DE9B6
:20494C00F84FD0F80090EFF3118589F31188264CA068012105F0B8FC4FF0010A4FF0000849
:20496C00064621686769A4F81CA02068A4F81E80791A321A8A42A6EB07062DD385F3118812
:20498C004546EF195046394605F086FC761B0546B542F6D9EFF3118B89F31188E08B012823
:2049AC0004D14046394605F077FC0546B5F1FF3F06D0A169AD1BA94238BF0D1CE91901E0E4
:2049CC00A5697919284605F063FCA4F820A0A4F81C805D46276001E0A4F81C8085F3118881
:2049EC00BDE8F88F3CAA0000780100202DE9F84F0E46044605F0A8FC834625480068EFF3EC
:204A0C00118A80F31188D4F808904E4533D01E481E4D0768002E06D4AF69012000FA06F870
:204A2C0007EBC60702E04FF000087F19207D012817D1204605F028FC206C05F08DFC18B1EA
:204A4C00E1686868884368602869844212BF381C6F613868214605F013FC686848EA000045
:204A6C006860A660C4F80C802764002E44BF00206861012028818AF31188584605F050FCB0
:204A8C004846BDE8F88FC046E8050000000100203CAA0000F8B5264C2068EFF3118680F3C3
:204AAC00118824491D4D0B680420B0FA80F043F00403281A1F3002780B60521C027086F3C0
:204ACC0011882068EFF3118380F311880A680820B0FA80F042F008022D1AE87F0A60401CC3
:204AEC00E87783F311880E20FEF714FF0C480068C0F38150032814BF0020012009490A4AE1
:204B0C00088017683FB9094C402020600123D36100204860F8BD0120F8BDC0468F180020DD
:204B2C00B43F0050DC22002004800C402C500C403CAA0000201E0020F0B520480127F842BD
:204B4C0001D002F015FE204D204F214EBD4206D203CD0478A4003459401CA047F6E71D484F
:204B6C00002800D08047164D164FBD4202D210CDA047FAE7F0BD03251BE0416808300A1C53
:204B8C002A400BD11A1C2A40AB4305D0046804300C600431043BF9D1131C05D00478013065
:204BAC000C700131013BF9D1021C2A4001D0A84304300368002BE0D17047C046FFFFFFFFBD
:204BCC00000000000000000038B60000C0B60000B8B5000059C50110F0B50446234DA7685B
:204BEC002868ADF12C0D67BB0C2000F0A3FB071C1ED0684600212422082305F03DFB0023C5
:204C0C0006976A466168ADF810301948059305F02FFB386078B908210C22ADF82410A8696B
:204C2C00ADF82620014609A88847384604F0FAF96FF0030018E0E06878602069B860A7602F
:204C4C000AE080470646386805F032FB2069B86068680146304688473868616805F030FB03
:204C6C00386805F029FB00200BB0F0BD7C17002093A00000002A4AD05FEA000C8B071CD1E9
:204C8C00830722D1102A08D370B4103A78C978C0103AFBD270BC103238D0042A2CD3082AA3
:204CAC0005D30C2A24BF08C908C008C908C008C908C092072AD0920F22E00B780370491C9B
:204CCC00401C521E22D08B07F7D1C30714D18307D8D0121F12D308C903801B0C4380001D5E
:204CEC00121FF8D20AE008C903701B0A43701B0A83701B0AC370001D121FF4D2121D05D01F
:204D0C000B780370491C401C521EF9D16046704710B50020442100F045FD002808BF0024AA
:204D2C0040D0214C1F200222214604F022FF002835D021880806000C40EA2120782815D12A
:204D4C001020208021460220024604F005FA30B302202146024604F00CFF00B32188080696
:204D6C00000C40EA2120B0F5805F01D0208016E00020208021460220024604F0EDF970B139
:204D8C0002202146024604F0F4FE40B121880806000C50EA2120208008BF012400D00024A1
:204DAC0005F016F9204610BD603B00201CB50020772100F0F7FC002808BF00243FD0D02077
:204DCC006946012204F0D5FE002835D09DF80000582831D1F5206946012204F0CAFE00281F
:204DEC002AD09DF8000038BB55208DF8000069460122F42004F0B0F9F0B1F4206946012221
:204E0C0004F0B7FEC0B19DF80000552814D1B6208DF8000069460122E02004F09DF958B1B5
:204E2C00F4206946012204F0A4FE28B19DF80000002808BF012400D0002405F0C9F8204658
:204E4C001CBDF8B5064604F02DFA43F63C35C2F200056F68044604F08CF82A69E41B4FF488
:204E6C007A716143090C801A48BF404240F6B83289198A4216D3062814DAA968E8688142A8
:204E8C0010D82A6872B1401A44F24021C0F20F014143080C00EB9140824212D91046C8286D
:204EAC0011D312E043F6AC71C5F200014868400828BF4FF4FA600DD209687D2001F0FF01A8
:204ECC004843C82801D2C820F8BDB0F57A6F88BF4FF47A60F8BDFEE71CB5234C401E02D0DF
:204EEC00401E31D01CBD05F091F8C00824D32078FF2823D00120694603F0EEFE9DF800102B
:204F0C00207869B9A0B104F1080005F049F9002004F018F800200222014604F09DFD07E022
:204F2C0030B9012004F00EF804F1080005F036F99DF8000020701CBDFF2020700120FF2152
:204F4C00024604F089FD1CBD0220694603F0C4FE9DF80000410001EBC001618004F10800C3
:204F6C0002F076F81CBDC046942200202DE9F843204E0F4604464FF0FF3106F124052846B5
:204F8C0005F0B2F9A946002000E0401C6FB117F82010FF2909D032688A4204D906EB810104
:204FAC00096E0029F1D000241CE0002020604FF0010860600546A0600EE00878636808FA36
:204FCC0000F01843606006EB82030A6808491C66204603F099FE6D1C27B107EB85010A78B4
:204FEC00FF2AEAD1484605F073F92046BDE8F883007FC76770380020401E1CB502D0401E78
:20500C002ED01CBD05F002F81C4C00091DD32078FF281CD00120694603F0E6FB9DF8000079
:20502C0030B19DF80000012816D10121217007E0002006222070014604F0F6FC4FF0FF31D0
:20504C0004F11000FFF7D2FC06E0FF2020700120FF21024604F0E8FC002004F073F91CBD2C
:20506C000220694603F0C0FB9DF8002004495000091D00EBC20008801CBDC046700D00207C
:20508C00700D002038B5042004F0ACF91A4C022818BF03281FD103200090164800214FF0CA
:2050AC0040521C2301F0D7FE17480068EFF3118380F3118815480421B1FA81F1401AC17FCB
:2050CC004A1E0129C27703D1206820F00400206083F3118838BD094D0A48094A296803680E
:2050EC006018B2FBF3F105F0EBF82868201805F0E3F838BD00A00C40201E002028AA00001A
:20510C00A086010040AA00003CAA00008F18002010B51A481A490078086820F0030040F010
:20512C000100086002F06CFE01F08EFD0021154C154821600068C06801460220884713499E
:20514C00134A086820F0010008601068D4F8EC1FEFF3118480F311880E4B0F481A680421D4
:20516C00B1FA81F1401A42F00402C17F1A60491CC17784F311884FF0FF3010BD703B002007
:20518C000440034040100940A00100108C2108403CAA0000201E00208F1800202DE9F041EB
:2051AC001E4987684668086804F004FB38680024C0F810483968C1F80448D1F8200820F001
:2051CC001000C1F8200805F097F8154D8046287818B1042002F0F6FF2C70404605F088F81B
:2051EC00387AFEF7DDFE06F1100005F03DF806F12C0005F035F8307818B906F1480005F0FE
:20520C002FF806F1840004F063FB05F075F886F8984005F06DF8BDE8F081C046503B0020B5
:20522C00713B0020F8B50E46307A1D46144606AF400928BF082036D23888002818BF0B202F
:20524C0031D10846694603F09DFF012803D1002101202980F8BDBDF800004AF601410027B9
:20526C00401A15D0401E0BD0401E03D038460A27288017E002202880F0680088208011E0F0
:20528C0005202880F068016821600079207109E001F0CCFB04480C3002782A80F1682046DD
:2052AC00FFF7E8FC3846F8BDE8190020F8B505461E480068EFF3118780F311881C4C206878
:2052CC004FF0805640F080002060D6F88C014068014601208847D6F8B001006A01461420DF
:2052EC008847286906F5C675810C14BF010C04212868406A024601209047D6F88401006845
:20530C0023210246002090472868C069014601208847206820F4C02040F4803020602068A6
:20532C0040F00100206087F31188F8BD3CAA000000200940F8B5001D84B214F0030002D0C0
:20534C00241A241DA4B204F06FFA01461948102C47680160C8BF8768388800221646C30B99
:20536C00DD0319D126B984420ADD3A46012617E01388C3189BB29C42138011DC1746184651
:20538C009FB1001B80B20428B4BF3C88385344F400443C803F1D08E080F40040002680B2EE
:2053AC00C71938880028DAD10027084604F0C0FB3846F8BD84170020401E1CB502D0401EFD
:2053CC002BD01CBD04F022FE1A4C40081AD32078FF2819D00120694603F066FC9DF80000DC
:2053EC0038B900200422014604F042FB4FF0FF3100E0012104F11000FFF7F8FA9DF80000FF
:20540C00207006E0FF2020700120FF21024604F02FFB002002F054FC1CBD0220694603F0B5
:20542C0043FC9DF8002004495000091D00EBC20008801CBDE0120020E0120020401E1CB548
:20544C0002D0401E28D01CBD04F0E0FD194C80081AD32078FF2819D00120694603F094FB9A
:20546C009DF8000038B900200422014604F0E8FA4FF0FF3100E0012104F11000FFF7B6FA1B
:20548C009DF8000020701CBDFF2020700120FF21024604F0D5FA1CBD0220694603F074FBFB
:2054AC009DF8002004495000091D00EBC20008801CBDC04628100020281000202DE9FE434D
:2054CC0005460E46307890460AAF02281AD01949DFF8649070680C681022494604F05CF854
:2054EC000027494610B914B3012007E070681031102204F051F870B9CCB10220294642460B
:20550C00A04714E070684278007842F6021100EB0220814201D00A2709E039880120009121
:20552C00424601903146284601F06AFC07463846BDE8FE834C19002048A7000041F2A000D2
:20554C0010B5C5F20000D0F8781203680A0F03F0FF03802B28BF0023D0F878024BF69A1115
:20556C00C0F30F344FF0FF30A14213D02431A14207D04BF62031A1421DD1E2B90A3358B2A1
:20558C0010BD12B1921E02D010BD0A2010BD143358B210BD521E0DD0921E04D0121F04D035
:2055AC00521E04D010BD142010BD152010BD163358B210BD0A2010BD2DE9F043ADF13C0D84
:2055CC0004F0C2FE184D1A4C002680462D1F183C684600213C22082304F03EFE55F8041FBC
:2055EC006068A768069023680897002205910F480493694604F02CFE071C10D004F014F991
:20560C008146384601F0D0F848B1484604F090FA241D761CDCD0404604F082FE01E002F02F
:20562C00C7F90FB0BDE8F08378170020F59D00008CA300002DE9F0430E4691461D4607AFCA
:20564C0080461B214FF6FF72ADF11C0D03AB03F0DDFE059038B300210091BDF80C100191AE
:20566C00FF2402947C6802460DF1120340462946A047041C12D16889ADF81000700805D351
:20568C0040464A4604A904F059F805E03B7840464A4604A904F05EFC041C05D004A81B2170
:2056AC0004F0B4F800E01524204607B0BDE8F083002213460A46194671B510F0030F0BD0B3
:2056CC00002A82BF00F8011BB2F1010210F0030FF6D1002A08BF71BD11F0FF0141EA012153
:2056EC00042A18D341EA0141082A0FD30E46102A08D30C460D46B2F10F0312F00F0272C0FC
:20570C00103BFCD812F0080F18BF42C012F0040F18BF40F8041B12F0020F18BF20F8021B0A
:20572C0012F0010F18BF017071BDFEE7F8B5144686684268084602F10C05203827D0401E52
:20574C0021D0401E1CD123781549906E194300F045FE90B93068B0F1804F14BF23220B22E5
:20576C002178E86D03F0B2FDE86D95F84D1001F0F1FB207885F84D0010E04FF0FF30F8BDFC
:20578C006FF00100F8BD002085F86400F8BD29780020012908BF012085F864000020F8BDA9
:2057AC00002000802DE9F843804689461648194C144A016804F11400B2FBF1F104F094FDB0
:2057CC0000284946404608BF002018D0124A0F4D11702978814211D02870206804F044FCDF
:2057EC00261D304604F0E0FA28783146012804BF07482061002004F093F820600120BDE85E
:20580C00F883C046A025260040AA0000723B002062A80000B03A0020753B0020F8B50E4674
:20582C00307A1D46144606AF400928BF082030D23888002818BF0B202BD10846694603F010
:20584C00A1FC012803D1002101202980F8BDBDF800004AF681210027401A13D0401E0BD0CE
:20586C00401E03D038460A27288011E001202880F068007820700BE002202880F0680088E5
:20588C00208005E012222A80F1682046FFF7F2F93846F8BD1FB5194B0C460146104600227D
:2058AC0089B1491E06D0491E23D1012C0DD1007818701FE0082C08D1124903680E310B6083
:2058CC004068486016E0062C01D0182212E0046803F10C010C608088888008240094FF247B
:2058EC000194074C029498681C33FEF7CFFF024600E00222104600901FBDC046341B002089
:20590C00B1700000381B002070B50646F088F5680B28A5F108052CDAB0880B2829DA03F064
:20592C0083FF154CF28891000C3401EBC20161184968E1B104F0FCF830792870B079687098
:20594C00307AA870F188880000EBC1002018F1684068083002F0E4FFF188880000EBC100D9
:20596C0024186068406804F0B3FC002070BD04F0DFF86FF0020070BDEC1700207FB5194C6A
:20598C000B46002511461A4678B1401E06D0401E24D1012A0BD10878207020E0022A06D104
:2059AC0012480988401C018019E0122A01D0182515E004F10C0612223046FFF75BF90820B8
:2059CC000090FF230193084A0292A068314604F120032A46FEF75AFF054600E0022528467A
:2059EC0000907FBD901A002029580000901A00202DE9FC414FF0020816460F46054602E040
:205A0C0004F02AFAA619002F08BF012028D001F063FE20BB03F0D8F908BB05F0FF04C4F52F
:205A2C008074BC4288BF3C1C8DF800808DF80350280C8DF80100280A8DF8020004F014FA77
:205A4C006846042103F0A8F93F1B651928B93046214603F0A1F90028D2D004F0FDF90020DC
:205A6C00BDE8FC8170B5002124220823ADF1280D684604F051FC134C01256A4629468DF856
:205A8C00185004F1140004F043FC0F48006801464FF44070884702F009FC261D304604F0EA
:205AAC0083F900203146257303F03AFF074BFF221A700749206000220A7008B904F0C4FB26
:205ACC000AB070BDB03A002078000010753B0020723B0020F8B50E46307A1D46144606AF87
:205AEC00400928BF08202CD23888002818BF0B2027D10846694603F045FB012803D1002114
:205B0C0001202980F8BDBDF800004AF64121401A4FF000010DD0401E05D0801E03D008463A
:205B2C000A2128800CE001202880F0680078207006E006202880F068026822608088A08051
:205B4C000846F8BD10B54AF2000434214FF080521C23C4F20C04204601F0D0FF012826D081
:205B6C00204634210122002301F0C8FF002808BF00201DD08020C1F200000068804703F0EF
:205B8C0091FB43F63C3344F24022C2F20003C0F20F029C681968D860041BA1EB9101624314
:205BAC00120C8A4224BF1A60012001D21960012010BDFEE71FB5174B0C460146104600220B
:205BCC0069B1491E08D0491E1FD1012C09D1134B5B1C0078187019E0012C02D1F9E7062C22
:205BEC0001D0182212E0046803F10C010C608088888008240094FF240194074C0294986852
:205C0C001433FEF743FE024600E00222104600901FBDC046D41B0020E15A0000D41B00208E
:205C2C0038B50079184CA0B903F0FEFD2178002904BF6FF00704051C13D0491EC9B22170E1
:205C4C0029B903F075FF606802F07CFD18E0054613E003F0E9FD05462078FF2805D16FF06E
:205C6C000604284603F064FF0BE0401CC0B20128207002D1606802F080FD284603F058FF16
:205C8C000024204638BDC0464423002000B540F21630ADF1140D6946FCF796FE40F2133055
:205CAC000DF10201FCF790FE4FF4467001A9FCF78BFE9DF800109DF80220BDF800009DF891
:205CCC0004308DF80610BDF802108DF8082002128DF80A3009128DF80720BDF804008DF89D
:205CEC00091000120DF1060206218DF80B000020FFF7D0FD05B000BDFEB5194C0546208C4C
:205D0C00218B81420CDC618B814209DBA08B618C884205D1E08BA18C884208BF18271DD080
:205D2C00052002F0ABF8278B638BADF80270A28BADF80430E18BADF806200646ADF80810A0
:205D4C00E08AADF80000684604F01EF8071C05D104F1F0003146A57302F0C0FB3846FEBD1D
:205D6C00E409002098B54268806851660B68083213664B6853668B689366C968D166576EC9
:205D8C0077B9D16D0B7C0168580040F00100C1F80008D36E0220022B107012D30B2211E03C
:205DAC00D16D0368097C01274900C3F80018116E177004684B1C13660978C4F8081801684D
:205DCC0002200322C1F8042804F0B4F998BD2DE9F041054615F8017B90460E461CE0B8F1AB
:205DEC00000F05F101050BD0FF2C09D8022015F8011B401E41EA0424F9D101E0042C02D3F9
:205E0C0015F8011B00E0394630462246FFF754FCA61901E006F8010B15F8010B8742F9D174
:205E2C0015F8014B002CE9D115F8010B2C7800022418D4D1BDE8F08138B5054645210020A3
:205E4C00FFF7B0FC002808BF002029D001206946022203F08EFE041C1BD0BDF80000002435
:205E6C00C013C003B0F5004F08BF0124B0F5004F0FD100206946022203F07BFE041C08D075
:205E8C00BDF80000BDF80010000240EA2120288003E02846022103F05DFF04F099F82046B9
:205EAC0038BD70471FB5164B0C4601461046002269B1491E08D0491E1DD1012C09D1124BD2
:205ECC005B1C0078187017E0012C02D1F9E7042C01D0182210E0006803F108010860082444
:205EEC000094FF240194074C0294D8681033FEF7CDFC024600E00222104600901FBDC0460C
:205F0C006C1C0020ED6100006C1C0020F8B5044604F0E6F900F048FC054604F015FA07463E
:205F2C0004F0EAF90146A2881148BBB263F30F0689B261F31F466030002130F80C7F5FB96C
:205F4C0002804560A181A7688760686800252061304603F0EDFD09E0974208BF6FF002053E
:205F6C00F6D0491C0B29E8D301F022FD2846F8BD8C1700201FB5164B0C46014610460022BF
:205F8C0069B1491E08D0491E1DD1012C09D1124B5B1C0078187017E0012C02D1F9E7042C65
:205FAC0001D0182210E0006803F10801086008240094FF240194074C0294D8681033FEF734
:205FCC0065FC024600E00222104600901FBDC046001D002053620000001D00203EB50446D4
:205FEC001448042208230178ADF802201248ADF80030890000680191024668469047002801
:20600C000CBF029900210E4D281D0029016008BF13200ED04FF6FF7002F04EFC600838BF9C
:20602C00002006D3054B284605211022083001F081F93EBDE409002094170020ACA900007A
:20604C00A41E00202DE9F041154D6C686079ADF1380DFDF75FFC04F04FF92E68804630788A
:20606C00B8B901A800213022082304F04DF90695002700970B4A2179301D01AB04F040F9B4
:20608C00012030702168084ACF6221688A6021684860404604F02CF928460EB0BDE8F081A2
:2060AC00DCA90000CFA000000004002038B5174D041C09D100202870FDF7DAFF03F056F9AA
:2060CC0005F1280004F06CF8022C1ED12C4602230A2100224FF47A752370E08861700C4BE8
:2060EC00A270B5FBF0F0E27001B21A70480000EBC100E06002F098FE208900F0FF00FDF71B
:20610C00B7FF04F1280004F049F838BD0C200020733B002045F2280010B5C4F2090004680D
:20612C0054B343F6AC71C5F200018B6803EA5300C00E21D2486880081ED20022C4F209023F
:20614C001068096810F0050F4FEA114101F0F00101F5E0710BD1A1420ED2190F38BF40F094
:20616C000100D90E38BF40F00400106010BDA14284BF20F00500106010BD1CB500204321F6
:20618C00FFF710FBFE200222694603F0F2FC10B3BDF80000BDF8001045F249440006000C0D
:2061AC0040EA21208442ADF8000014D1FF206946022203F0DEFC70B1BDF80000BDF80010BE
:2061CC000006000C40EA2120B0F5805FADF8000008BF012400D0002403F0FAFE20461CBD03
:2061EC00F8B50E46307A1D46144606AF400928BF082027D23888002818BF0B2022D10846FA
:20620C00694602F0BFFF012804BF002101200CD0BDF800004AF62121471A4FF000000CD056
:20622C007F1E012F03D901460A202980F8BD01212980F16809782170F8BD04212980F168C8
:20624C0009682160F8BDF8B50E46307A1D46144606AF400928BF082027D23888002818BF5E
:20626C000B2022D10846694602F08CFF012804BF002101200CD0BDF800004AF60121471AF8
:20628C004FF000000CD07F1E012F03D901460A202980F8BD01212980F16809782170F8BD74
:2062AC0004212980F16809682160F8BDF8B50E46307A1D46144606AF400928BF082027D296
:2062CC003888002818BF0B2022D10846694602F059FF012804BF002101200CD0BDF80000CF
:2062EC004AF67121471A4FF000000CD07F1E012F03D901460A202980F8BD01212980F168A8
:20630C0009782170F8BD02212980F16809882180F8BD00007CB5174D0C46103DE9680646CD
:20632C0003F03AFD400823D330461B210222002303F06CF80190D8B12A4602F118000921DA
:20634C00521C03F055FA02214089ADF80210ADF80000019D2C7001982312002269464370AD
:20636C00304603F0EBF918B168461B2103F04EFA7CBDC0464C1900201FB5154B0C46014645
:20638C001046002269B1491E08D0491E1CD1012C09D1114B5B1C0078187016E0012C02D1FC
:2063AC00F9E7022C01D018220FE00088991C088008240094FF240194064C029498680C3365
:2063CC00FEF764FA024600E00222104600901FBD941D0020B9620000941D00202DE9F0414C
:2063EC00071C884605D0154D28685FFA88F6B04202D80220BDE8F08105F124044FF0FF3171
:20640C00204603F071FF05EB860560352B6863B979680120B0402F6042460843064978606D
:20642C00384602F071FC002500E00125204603F04FFF2846BDE8F081007FC76770380020A8
:20644C0014483EB5042208250178ADF802201248ADF80050890000680191024668469047AF
:20646C0000280CBF029900210D4C241FA16079B14FF6FF7002F020FA0020442100F012F85B
:20648C00064B204629461022243000F053FF3EBD13203EBDE40900209417002098A90000C0
:2064AC00EC190020DFF85CC0021CF8B51ED0521E13D0521E0CD0D21E21D164460427202663
:2064CC000225C02327734022A6730021E57313E0002203259F23114602E002256B23002209
:2064EC00644625736373A273E27306E06446022323730022A273E273637322746170644650
:20650C002070F8BDE819002038B541F23405C4F2090528680004040C26D002F02AFD43F600
:20652C006832C2F2000292F90710814205DD10F1800FB8BF6FF07F00D0719188A14212D8AC
:20654C001368D5F8D40FC01A801C1F2888BF1F20641A4008C4404FF6FF700919884238BF60
:20656C00011C918038BD948038BD00001CB502F0BDF9134CA06008B302F0B8F912490968E1
:20658C00E06088B1A1684FF6FF7002F095F9E1684FF6FF7002F090F90A4B04F11800092135
:2065AC00102200F0C7FE1CBD0820ADF800000522ADF80220A36801936846884713201CBD2C
:2065CC003C1900203CA70000941700207CB500F075F9124C04F1100003F042F900252581A1
:2065EC004FF47A76E680257025710D48057002F09DFD20B102F058FD0A4803F0FBFC0220FF
:20660C006421012203F05AF8009501950649E38804F12800324600F06FFB7CBD0C20002028
:20662C00743B002049960000ED99000098B504460919491E6FF30B04081B00F6FF702021C0
:20664C00000B8DF800101FD0074601F045F898B902F0BAFB80B9200C8DF801008DF8034079
:20666C00200A8DF8020003F0FFFB6846042102F093FB18B103F0F0FB002098BD03F0ECFB27
:20668C0004F580547F1EE0D1012098BD38B503F033FE154C0546A01D008840B9FEF7FAF97A
:2066AC000446102000F080FB012C0DD017E0FFF749FA60B10020E080FEF7ECF904461020CA
:2066CC0000F072FB012C0AD1FCF7E4FE07E030340521204603F0F4FD204603F0EDFD284608
:2066EC0003F006FE38BDC046201E0020F8B5054605F128020CCA0846002103F0D1F905F12E
:20670C00300292E8C00036184FEA164447EB01073804044302F0C6FD211AB1F1004F08D8A2
:20672C00011B091DC90F05D1001DA04288BF041C00E0041D04480068426A21460120904737
:20674C00383585E8C000F8BD8C01001012483EB5042208250178ADF802201048ADF8005014
:20676C0089000068019102466846904700280CBF029900210B4CA16059B14FF6FF7002F006
:20678C009BF8074B2046294610221C3000F0D2FD3EBD13203EBDC046E409002094170020EF
:2067AC000CA90000341B00202DE9F843814603F0CBFD054603F0A0FD114C0026A9B280B2EB
:2067CC0061F30F08082560F31F4854F80C7F5FB93046C4F800900146A6600A4603F030FDED
