:20E0000038B50D4604460DF013FA07482168016061684160A16881600DF0FCFB0DF0C3FA31
:0CE0200028460CF04EFE38BD5848002089
:20E02C00DFF85C1C0870704738B5DFF8584CDFF8585C20762878C0000DF0A6FBE061C8B115
:20E04C00002108E04FF6FF7220F8312000EBC10300225A60491C2A789142F3DB052000F044
:20E06C00AEF8207E02F0D9FDBDE83240DFF81C0C0BF03CBC31BD38B50C46200418D5DFF86A
:20E08C00040C007E05F02DF805000ED02878B02808D1284600F004F920B1297905F10800CC
:20E0AC000BF008F9284604F0BCFF84F4004032BD002032BD7CB504001D460CD0ADF800105C
:20E0CC008DF80220019400A802F03BFD060019D1C5B164890CB9022614E00C200DF054FB7A
:20E0EC0008B913260EE00021016084808560DFF8A01B0A6812B9086004E00A4611680029B4
:20E10C00FBD11060304676BD30B50D46DFF8801B0446086883B0002201E00246006890B183
:20E12C008388A342F9D10368002A0CBF0B6013600DF03BFB00A9204602F04FFD10B90DB1D4
:20E14C00019929603EBD01203EBD70B558BB012927D1DFF8300BC16900230C2601E05B1C36
:20E16C00DBB2DFF8244B2478A34216DA31F833404FF6FF75AC42F2D0002400E0641C457E03
:20E18C00E4B2AC42EBD201EBC3056D6806FB04552D88002DF2D0012070BDBDE87040107880
:20E1AC000DE0182070BD022070BD0022002803BFDFF8D00A407E08700222104670472DE978
:20E1CC00F843DFF8C07A0446002078760C25F869DFF8B46A406805FB04F868B10DF0E5FA6F
:20E1EC000020002204E0F96901EBC001401C4A60C0B231788842F6D3307808FB00F080B25D
:20E20C000DF0C2FA5FEA000927D0307808FB00F20021484604F020FF00200FE0516805FBC9
:20E22C000CF34FF0000E23F801E059180CF1010CC1F808E0A445F1DBC144401C3178C0B23D
:20E24C00884207D2F96901EBC0024FF0000CC2F80490EFE77C76002000E01320BDE8F28351
:20E26C0001460020C90705D5002310220121DFF8240D1FE7704701460020C90704D5DFF85E
:20E28C00140D408900213FE77047DFF8041A096821B18A888242FAD1886870470020704733
:20E2AC002DE9F04387B004460020ADF8100001208DF81200DFF8CC59286A38B90CF03AFB4B
:20E2CC000DF062FA0028286200F0E48018220021284604F0C1FE2079022800F1010804F1A5
:20E2EC0008074FF6FF7917D006282CD008282FD00A2832D00C2855D00E2800F08880102813
:20E30C0000F08A80122800F08C80162800F09080182800F09480BAE00CF00CFB288029468B
:20E32C0060880CF0B3F800283988288804D0814228BF014629809DE0814228BF01466088E5
:20E34C000AF026FFA3E004A9204600F0ADF87AE004A9204600F02FF975E000F0A0F80600FF
:20E36C0050D0608805AB4A460B210AF067FF03006B6023D02079BDF81620039000953146D9
:20E38C00BDF8140000F0A1F900F026FA060004D1608829460CF0C4F829E0162E686808BF40
:20E3AC0000262BE000F07BF806002BD0608805AB4A460D210AF042FF686020B93888ADF825
:20E3CC001000112643E02179BDF8162003910346BDF814100291798801910095314600F06A
:20E3EC00FBF9060006D1608829460CF0A7F8002840D129E0162E686808BF00260CF0C7FD4B
:20E40C000EB921E001263888ADF810001CE004A9204600F05EF916E004A9204600F0E3F961
:20E42C0011E00DF1120204A9204600F07EFA0AE00DF1120204A9204600F0BFFA03E004A90A
:20E44C00204600F028FB064696B1162E12D0607814280DD0207928702946BDF81000688040
:20E46C002E7160880CF009F810B14FF0010801E0162E0CD160882B465FFA88F216210AF0A4
:20E48C007DFE20B15FFA88F128460AF013FF20460AF0ABFD9DF8120007B0BDE8F08338889A
:20E4AC000DF1160102F068BC2DE9FA4786B0044604F1080500F034FA05906A1D0DF1120002
:20E4CC0000902B796988288802F028FC002780464FF0FF0AB8F1000F5BD009E0BDF810304F
:20E4EC000B54BDF81000716892B2000A5054571C0598BFB2401F87424BDA2079BDF81220D3
:20E50C0003904FF000090598CDF80490C01F80B20290414600F05CF9002802BF728B288918
:20E52C00904214D1316AE86804F0B1FD78B1706858B900F048F907210AF080FE706020B9FF
:20E54C00069928880880112032E0B8F80A90BDF81220698804AB404602F032FCB9F1000F65
:20E56C008046B7D0706807F80090781C726880B24FEA29218154411C4A1C7068B8F1000F90
:20E58C0089B2ABD101F800A092B2706802F800A0571CBFB247B1B8083080314660880BF0C3
:20E5AC0099FF28B1162003E00699288808800A2008B0BDE8F0872DE9F04F89B0044604F123
:20E5CC00080005908A4606886088DFF8B85608F09FFB07900027001FB84606904FF6FF79A7
:20E5EC0000E0761C0698B84257DB04A80090059803794188421DB0B202F090FB5FEA000B23
:20E60C004BD0BBF80A60BDF810209BF80810608802F007FB5FEA00083FD100F0DFF8594683
:20E62C000798001F00F050F805F11A0000902B6A00F0D2F85FEA00082FD17FB96088002355
:20E64C004A4609210AF0FAFD686018B9AAF80060112036E0688B801C688004E0698B6888E2
:20E66C00891C88421AD1698B0698C919884214DB6968BBF80A007854BBF80A106A6800F01E
:20E68C0049F968686A8B296ABFB2381804F0E6FC688BC7194E45BFB2A3D157B1688897FB68
:20E6AC00F0F02880294660880BF024FF48B1162007E0B8F1000F08BF4FF00A08AAF8006069
:20E6CC00404609B0BDE8F08F80B202900020019070472DE9F04F85B00D46044604F1080675
:20E6EC006088DFF8A07508F013FB4FF0000BA0F10108A0F1010A16E039887A8B0846121880
:20E70C009245BCBFA8EB010179837B687A8B396AC01804F0A3FC3888798B081838800BF17C
:20E72C0001001FFA80FBB0888345BCBF3888504537DA306810F81B2000EB4B0004A94078E1
:20E74C0002EB002080B202F017FB01000BD14FF0010900F02EF8786808B10CF018FC4846F7
:20E76C0005B0BDE8F08F00F039F81FFA88F0FFF7ACFF07F11A0000903B6A00F02DF85FEABC
:20E78C000009E6D178680028B6D100F01CF80F210AF054FD00287860AED100F00AF81120FD
:20E7AC00DEE7608839460BF0D7FE0028D8D01620D6E7306810F81B1000EB4B00407801EBE9
:20E7CC00002028807047608800234FF6FF72704706F11A000090336A608861E22079BDF87F
:20E7EC001020039070472DE9F04786B08846044604F1080900F094F8059009F1050204A834
:20E80C00009099F80430B9F80210B9F8000002F085FA0027BA4605460FE07268FF21B9544A
:20E82C0080B272688154471C7068728B316ABFB2381804F013FC708BC719BFB2BDB1BDF8E5
:20E84C001020297A608802F0ECF95FEA000A0BD1FFF7C4FF29460598801FFFF735FFFFF767
:20E86C00B7FF5FEA000A10D06889A8F80000002F43D0708897FBF0F03080314660880BF05C
:20E88C007AFE002843D0162041E07FB9FFF79BFF11210AF0D3FC706020B96889A8F8000065
:20E8AC00112034E0708B001D708009E0708B7188021D9142DDD10599891FC0198142D8DBED
:20E8CC007168688978546989726800F023F8BDF81020B9F802100DF11203284602F070FA3A
:20E8EC000546781C002DBFB297D07268BDF81210B954BDF81210090A92E7B9F80000A8F8B6
:20E90C000000BAF1000F08BF4FF00A0A504606B0BDE8F087781C80B2090A8154471C7047E7
:20E92C006088DFF8606308F0F3B92DE9F041044604F1080784B00D463888904602A902F056
:20E94C001BFA06002FD0307A80060BD5BDF8080000F0A0F903000BD06088122231469847EB
:20E96C00060021D1787A002814BF5220207901E00E2619E00190002000907B887A683988A6
:20E98C00608800F087FA060007D1787A70B960880BF002FE50B116200CE0162E04D10026D4
:20E9AC0088F8006002E0012638882880787A00B10026304604B0BDE8F0812DE9F8438946D1
:20E9CC0090460121044604F1080660880BF022F8002718B9142060700E205AE0308800A924
:20E9EC0002F0CAF905004FD0287A80060BD5BDF8000000F04FF9030015D0608812222946CA
:20EA0C009847070041D16588284600F006F9010006D14FF6FF7000F000F9010030D00D80A5
:20EA2C000022984D02E00E272FE0521C687ED2B2824225D248680C2303FB02000388002B75
:20EA4C00F3D10C22314604F009FB002088F800000C223146284604F001FBB2886088002361
:20EA6C0017210AF0EBFBA86060B1B288B16804F0F5FA608829460BF095FD48B1162008E028
:20EA8C00092702E0112700E001273088A9F800003846BDE8F2832DE9F04383B089460027B5
:20EAAC00044604F10805608800F0B7F85FEA00084AD02878012843D14146284600F050F802
:20EACC00A0B1D8F804501820019068880090AB88AA682988608800F0DDF90746162F02D163
:20EAEC000020A8602CE05FB3288827E000250EE0019070880090B388B268608800F0CAF9F1
:20EB0C000746162F17D10020B0606D1CEDB25D48407E854214DAD8F804100C2202FB0512D9
:20EB2C001646318861B16B1C83421DBF9089002816201820DCE7002FE7D03088A9F80000C9
:20EB4C00404600F07DF82FB960880BF038FD20B1162003E0162F08BF00273846BDE8FE83FD
:20EB6C002DE9F84F0C46002100250E464FF00C0B44480EE0994202BFBCF8027093B2BB426C
:20EB8C0024D1BCF804305D19ADB29A18761C92B2F6B2437E9E420EDA63680BFB063CBCF837
:20EBAC00003043B10029E5D1BCF80450BCF802201946AA18EAE7022E2CDB28004FF00009CF
:20EBCC0004D00CF0CBF95FEA000801D1002022E0CA4619E00BFB0A07B96859B1BA8809EBCF
:20EBEC00080004F03BFAB88848441FFA80F9B8680CF0CDF9BAF1000F04D00C22002138463D
:20EC0C0004F02AFA0AF1010AB2456068E2DBC0F8088085800120BDE8F28F1A4AD269002102
:20EC2C0000E0491C184B1B78C9B2994206D232F831308342F5D102EBC1007047002070470D
:20EC4C0070B5044600250BE0B06808B10CF09FF90C220021304604F0FFF9002030806D1CBA
:20EC6C000848407EEDB2854206D260680C2101FB050630880028E7D14FF6FF70208070BD27
:20EC8C004B470020F0470020884700204DEF0000A448002080B5FFF7F8FA00B1806802BDB3
:20ECAC002DE9FE4F0D468046287AC00693461E464FF0000A0CD55846FFF7ECFF030000F08B
:20ECCC00E4800A222946404698475FEA000A49D128780C9F0D9CDDF83890022816D100F0C5
:20ECEC0016F94FF42051401A012810D9801E3AD0401E14D0FD3876D0401E00F07D80401ECB
:20ED0C006AD0401E6FD0401E00F09180A7E0002C2AD1E868017839800278416883E0002CCF
:20ED2C0022D1012038800021E868007830706889401C80B202F020F8398860B10278921CEF
:20ED4C0051183980418971704189090AB17002784168F01C68E0081D388004220021701CB5
:20ED6C0004F07AF993E0002C62D1E8680488042038803470200A70700DF10201204601F090
:20ED8C00FBFF05001ED0EC68BDF802204FF6FF7800AB414602F014F840B92B786A688C4821
:20EDAC00022107F045FF08B9ADF80080207802280AD161680222301D04F050F93888801C93
:20EDCC00388001E0ADF80040BDF80000B070BDF80000000AF0705AE054BBE868016840462D
:20EDEC000CF005FC02E01CBBE8680088022139803070000A70704AE0E86804F07FFC82B2F6
:20EE0C00A242B8BF4FF0070A41DB944208BF002206D009EB04019142B2BF4A46121B92B24C
:20EE2C003A80E9686118304604F018F92FE014B14FF00B0A2BE0E868072139800178317049
:20EE4C00417871704188B1704188090AF17001793171C1887171C088000AB07117E0584696
:20EE6C00FFF713FA00281CBFD0F800C0BCF1000F0BD00F980290CDF8049000943B46324642
:20EE8C0029464046E047824601E04FF00E0A5046BDE8FE8F2DE9FE438046894617461E46D5
:20EEAC0002A9484601F068FF05002CD0BDF80800FFF7EBF900281CBFD0F804C0BCF1000FD2
:20EECC001FD00A980B9C0090019433463A4629464046E047060017D1FE2C15D028780228ED
:20EEEC0012D100F014F842F6021188420CD13878797800EB012292B24946404600F04CF8F9
:20EF0C0002E00E2600E001263046BDE8FE8368680178407801EB002080B27047704700205F
:20EF2C007047E0B58DF808200223120A8DF80920FE2201920022009202AAFFF7ABFF0EBD5F
:20EF4C007CB50129044605D0022922D101210AF061FDF0B92046FFF760FE08B1FFF770FE13
:20EF6C0001A800904FF6FF7502231A4A2946012001F0D4FE0BE0F068016820460CF03FFB6F
:20EF8C00BDF8042000232946304601F019FF0600F1D173BDE4460020F8B50F4F0446387834
:20EFAC00FF280D46164611D00A2004F025F868B1B12101704480002141700171C580068123
:20EFCC0001463878BDE8F44004F01DB9F1BD00007CAA010090AA01004B4700202DE9F84F6C
:20EFEC00DFF8104BDFF8105B207007210020A860DFF8080B01700D2141804FF404718180AE
:20F00C00DFF8FC0ADFF8FC1AE9608A7E0270FF2ACB7E437008BFFF2B0E7F86704F7FC770B9
:20F02C0091F81EC080F804C0C97F417116D1FF2E08BFFF2F12D1BCF1FF0F08BFFF290DD1B3
:20F04C00DFF8C41A0A7802704A7842708A788270CA78C2700A79027149794171DFF8AC1A18
:20F06C000278DFF8AC8ADFF8AC7ADFF8ACEA0A7042784A7082788A70C278CA7002790A7147
:20F08C004079DFF8D82B4871FF21DFF8900A017041708170C17001714171101D01714171CE
:20F0AC008171C17101724172002101708172A0218181032181730721C1730021017428215F
:20F0CC004182012101750021817502F15A0100224A7001220A7042750020DFF8441A088057
:20F0EC00D8F82C30DFF83C1A58780870197839709A782A709E683679761E8EF80060DB78FB
:20F10C00DFF85C6B6B704FF4967333801B261B2392FBF3F306FB132202B10122D2185043F0
:20F12C006880881C1821484380B20CF02DFBDFF85C6BB060002855D03878002855D04FF4E2
:20F14C009071484380B20CF01FFBDFF8449BC9F8040008B9B06843E03878382148430CF0C8
:20F16C0013FB686020B900F08AF8D9F8040037E03878DFF864AB00010CF006FBCAF8000020
:20F18C0028B900F07CF800F07DF8686828E03878DFF848BB00010CF0F7FACBF8000048B9A5
:20F1AC0000F06DF800F06EF868680CF0FEFADAF8000015E03878302148430CF0E5FADFF8CF
:20F1CC00201B086088B900F05AF800F05BF868680CF0EBFADAF800000CF0E7FADBF8000087
:20F1EC000CF0E3FA4FF4804144E0DFF8F80A00688047074605F08BFF0CF03EFDDFF8E80A2E
:20F20C000069006880470CF033FD0CF02DFDDFF8DC0A002101600160C160C16005F0C4FD60
:20F22C000CF006FADFF8C81A40F2FF7008600CF017FD06460CF014FD864208BF0CF00CFD07
:20F24C00D8F80C00697800880843DFF8A81A08803846DFF8A41A096888470C21DFF89C0AF4
:20F26C000CF0F6FC207800210BF070FF00F092F84FF400512078BDE8F44F04F007B8B06818
:20F28C000CF093BAD9F804000CF08FBA30B50C46E00785B013D50CF0D7FC38B1002181600A
:20F2AC00DFF85C0A0068010018BF8047DFF84408007800210BF04AFF84F001005EE0A007A4
:20F2CC0007D500F05DF83C200CF0BAFC84F0020054E06107DFF8200824D5DFF8B41940689D
:20F2EC008A7849684FF4907303FB0211382303FB02008D1D11F82C2F04924A891209039276
:20F30C00AA8B02920122C9884908019100F12C01009190F82830297800200CF091FC84F074
:20F32C0004002BE0210607D500F02AF83B200CF087FC84F0800021E0A10508D5DFF8C409A7
:20F34C00016841F00041016084F4007016E0610504D50CF0B9FA84F480600FE0610405D513
:20F36C0081200CF069FC84F4804007E0A10443BF4FF0FF31816084F40050002005B030BDDF
:20F38C000020049003900290019000900146002301227047F8B505F0E1FDDFF84809DFF8A4
:20F3AC00F0680068DFF86C7780470446002005F057FF40F201400CF03BFCDFF82C09006930
:20F3CC00C06880470CF054FCDFF84407DFF83819C06A806840790870002502F0F8FBDFF878
:20F3EC002C090CF021FC0CF01BFC0CF015FCDFF8200900210170017141718171C171017246
:20F40C0041720022DFF8540800F10E010A70A0224A8007224A7103220A7100220A738A72B3
:20F42C0000F8592F0122CA720021427081700BE070684FF4907101FB05004179012908BF6A
:20F44C0002F0B4F96D1CEDB238788542F0DB0CF0DFFB0BF031FB02F035F9DFF8B8180020B3
:20F46C000870DFF8B41808700120DFF8B01808700020DFF8AC1808700120DFF8A818087052
:20F48C000020DFF8A4180870DFF8A0180870DFF8A0180880DFF89C18087005F09AFDDFF8B1
:20F4AC0058180968204688470020F2BD2DE9F0411446DFF8605608B12A780270DFF8D08732
:20F4CC0011B198F801000870002C3ED0002600271CE0C9B2DBB2085502F12800017919556A
:20F4EC00591C427900F034F8827900F031F8C27900F02EF8027A00F02BF8427A00F028F8F4
:20F50C000078C9B24E1C08557F1CFFB2287887421BDA38460CF078FB0028F5D1D8F80400CC
:20F52C004FF49071F6B201FB0700DFF8CC154968375538220068007802FB0712711C4B1C97
:20F54C0080280CBF00200120C3E70020BDE8F081C9B20A55491C704738B50C00054601D1FF
:20F56C00122032BD0CF050FBC0B900F019F901FB050001680978402901D00C2032BD00213B
:20F58C000A5D431A491C102983F8E220F8DB012180F8E410052102F099F9002032BD10B5A1
:20F5AC0004460CF031FBB0B900F035F801680978402901D00C2010BD00F1F0010A78012A9B
:20F5CC0003D106220A77022102E006224A700D2102F07CF9002010BD10B504460CF014FB1F
:20F5EC0060B900F018F890F8F810022907D1817900F1F902002009F03DFA002010BD0168C7
:20F60C000978802903D108210CF0FAFAF5E74029F3D1112010BDDFF8780640684FF490717F
:20F62C0001FB0400704710B5040001D1122010BDDFF85C06407808B10C2010BD02F042F89E
:20F64C002078DFF8F41600F01F0020704A7810404870002010BD38B50D00044606D0DFF8DE
:20F66C00B004C06A80680079844201D3122032BD05F084FD032803D0204602F0EDFA02E0EF
:20F68C00DFF88406047001202870002032BDDFF88014C96A89680979884201D31220704729
:20F6AC00DFF8741408700020704710B5140019D011B1012908D015E002F0E7FA10F1800FB2
:20F6CC0020700DD1302010BDDFF84404C06A80680168007900EB4000401810F8030C207056
:20F6EC00002010BD122010BD2DE9F0410C0082B0074690461D4628D0DFF8FC6330784045AC
:20F70C0028D338460CF080FA002847D100F048F801FB070708F082FD1B2298FBF2F21B230B
:20F72C0003FB128303B10123718810181818814204DA01200CF060FA07202FE030781C28C7
:20F74C0014DA002D18BF012D01D0122026E0B8F11C0F04DB8A200CF06FFA30201EE02B46F3
:20F76C004246214638460CF043FA13E042462146384602F015F988B920460BF008FCB879A0
:20F78C00ADF800000DF102020120ADF8020000A909F0ACF9384602F0C2F90020BDE8F68140
:20F7AC00DFF8EC0440684FF49071704770B50646282E01DB122070BDDFF87845207808B1EC
:20F7CC00212070BD05F0CAFBDFF81C55286980688047700000F6621189B200200CF004FA3F
:20F7EC00DFF8580540F6070101804060002141808160017B01F060010173417B01F0F001C7
:20F80C0041F00201417302218173DFF83415016100214161C17B01F0F00141F00101C17313
:20F82C000C212170296989698847002070BD2DE9F04104460D46282CB8BF262D16460FDA17
:20F84C00002E18BF012E0DD0022E18BF032E09D0042E18BF052E05D0062E18BF072E01D058
:20F86C0012205BE0DFF8CC8498F8000008B1212054E005F073FBDFF8CC74DFF8CC1441F6C2
:20F88C000A0038800022002078807F60B860387B00F060003873787B00F0F00040F00200B6
:20F8AC00787360006630B8738020F873DFF89C04386179610280857040F6C4124260C670E0
:20F8CC00027A02F0FE02027200224272C260C27A02F0F00242F00102C272002008800021F0
:20F8EC00DFF86C048180C180047080214570867001728948DFF8F043007802F0ADF909202C
:20F90C0088F8000000222369DFF848045B680021984721698969384688470020BDE8F081C8
:20F92C0070B50446282C01DB122070BDDFF80454287808B1212070BD05F010FBDFF8046488
:20F94C00DFF81414766041F609003080716100207080B0600022307B00F060003073707B39
:20F96C0000F0F00040F00200707360006630B0738020F073DFF8E403306102600F22027115
:20F98C0001224271DFF8B8238260552202734273827300220261C27B02F0F00242F0010280
:20F9AC00C2730020088048808880002280208871002088600021DFF898034170FF21817076
:20F9CC00047000218180C1808021C74C01720A20287000212369DFF87C035B68984721692C
:20F9EC00896930468847002070BD70B5D14C2078092818BF0A2801D0212070BD40F20240B0
:20FA0C000CF016F92078D249092809D1CE4800888880BD48007802F01FF90021002015E0AE
:20FA2C000A2815D1CC4A538810889688CB801D1875198D809279802A18BF812A0FBF7F223A
:20FA4C00C74B93F90030D21A0A7201210CF0C8F80CF00EF90020207005F0BBFA002070BDDC
:20FA6C0038B5B44C207808B1212032BD05F076FAB44DB54A297B6D6001F0E00141F08501AD
:20FA8C00297341F60A00697B288001F0F00141F00201697300206621A97368808021E97357
:20FAAC0040F6C410A949A86029616A6148600123087A0B8000F0FE0008722523C87A8B701B
:20FACC0000F0F000002340F00100CB704B72CB60C87213800D2020700022834CA1482369D3
:20FAEC005B68114698472169896928468847002032BD0000844C00203C4800208C4C0020AD
:20FB0C006C4C0020B63F0050E81200507C4C002050C40100BC4C0020854C0020744C00207C
:20FB2C00984C00208B4C0020F8B5824C2178092918BF0A2963D00B291CBF0C290D295ED093
:20FB4C00464DA97C002918BF012904D003291CBF0229042903D12A79002A18BF012A7BD195
:20FB6C00032918BF022902D12B8AA02B74DB002843D0012870D1A87B012840D000291CBFA4
:20FB8C00012904290ED10CF027F8FD21084236D17548007800285FD03D494978814201D131
:20FBAC000920F2BD01200AF0A0FF286000260120A87305F0D3F90CF00BF86C48182101FB14
:20FBCC000607387B40F080003873A87C012807D026B90CF045F800F5C87000E00020B8607D
:20FBEC00761C032EE9DB207828B9A97C6048085C20700BF0E9FF0020F2BDA87B08B9212061
:20FC0C00F2BD38480068804706460BF0D9FF012804D00CF019F82968884207D105F09EF992
:20FC2C0040F202400CF004F8012700E000270020A873286805F014FB28460BF0BDFF207891
:20FC4C0010B905F0C6F902E00FB10BF0BDFF2A49096830468847CEE71220F2BDEC490020AE
:20FC6C00964C0020017841F08F010170C17841F02001C170817841F03001817000207047EC
:20FC8C0010B103494978017000207047F44E0020B04C002070B504460D4616460BF0B4FFF8
:20FCAC0030B9FFF7B8FC00F58E7005704680002070BD304B10B1012802D00AE019807047B9
:20FCCC00188810701888000A507000209070D07070471220704700000C4F00201C4F002088
:20FCEC00104F00205C4800202C4F00201010044000000460944C002060480020E84E002034
:20FD0C00C44C002004000940B94C00208C4A00209C4C0020864C0020BA4C0020874C00202C
:20FD2C00884C0020BB4C0020894C00208A4C0020BE4C0020B84C0020D04E0020404E002077
:20FD4C0029417671284E0020204F0020A84E0020DC4E002002000080C44E0020844E00201B
:20FD6C00C04C002001000080BC4C0020244C0020C0D90010984C00207FB506462325002479
:20FD8C00E8B210216A4607F0AEFA68B96846FF21102203F06FF938B9684631460BF010FAA6
:20FDAC00002808BF201C04D0641CAD1D0A2CE7DB0A2000907FBD1FB50A280C460FDA74B19A
:20FDCC00410001EB80016A462031C8B20E2107F08AFA20B920466946062203F03FF9009073
:20FDEC001FBD70B5BC4D0646002428463146062203F04DF9002818BF201C04D1641C0E3564
:20FE0C000A2CF2DB0A2070BD70B5B34C06460025A41F20463146062203F039F9002818BFFB
:20FE2C00281C04D16D1C0E340A2DF2DB0A2070BD70B5012814460E4615D9801E08D0401EB9
:20FE4C001ED10846FFF798FF05460A2D06DB18E00846FFF7C6FF05460A2D12DA8CB1214656
:20FE6C00FFF7A9FF0DE00846FFF7CEFF05460A2D07DA34B120463146062203F0EFF800E0D3
:20FE8C000A25284670BD011F4FF6FF73042031F8042F5A400A808A78401E82F0FF028A7044
:20FEAC00F5D17047091F042231F8043F984208BF081C02D0521EF7D100207047B0B50546A9
:20FECC000F4614466800ADF1200D0E2100EB85006A462030C0B207F006FA00282ED1684657
:20FEEC00FF21062203F0C6F840BB7035E8B210210DF10E02054607F0F6F9002832D10DF12A
:20FF0C000E00FFF7C0FF67B90DF10E000021102203F0B0F830BB0DF10E00102203F09CF848
:20FF2C0016E038460DF10E01FFF7BCFF48B92CB100200DF10E01FFF7B5FF08B9002012E0FB
:20FF4C00078081788C420DD084700CB9002101800DF10E00FFF797FF284610210DF10E02CA
:20FF6C0007F030FB012008B0B0BD70B50E464FF6FF71154681420FD009F01EFDA8B14279BA
:20FF8C00811D10460022FFF753FF0A280DDA31462A46FFF793FF70BD002431462A462046D1
:20FFAC00FFF78CFF641C0A2CF7DB70BD70B5C04CE069216A8588ADF1180D61B904F110000B
:20FFCC00B54A00904FF6FF710223012000F0A6FE0146216221B304A800900026019602233B
:14FFEC000293FF220392228A28460DF11203FEF757FE58B92E
:020000040001F9
:200000009DF813009DF81220216A12EB002204D049892846FFF7AFFF216A228A0846334611
:200020004FF6FF7100F0D2FE01462162002001B9012006B070BD10B5A04C0C34206920B158
:20004000206902F0F4FF002020610A20207010BD38B59A4C00253E342046FF21062203F0FF
:200060000FF8002818BF281C04D16D1C0E340A2DF2DB0A2038BD38B50BF0A0FD8F4C0A25E4
:200080003E342046FF21062202F0FAFF18B9002021460BF08FFD6D1E04F10E04F1D138BD2D
:2000A00070B5864D0A2600243E352846FF21062202F0E6FF08B9641CE4B20E35761EF4D181
:2000C000204670BD08B5FFF7EBFF0228B4BF0A20022001216A468DF80000052008F0F8FD9E
:2000E00008BDC04630440020F0B5744CE5690F460646ADF1140D55B9F6B1EFB1FFF78AFEBB
:200100000A28207304DBFFF7A3FF207300E0207B0A2811DA002D4DD0AA68002A3ED12A6950
:20012000002A2FD16A690ABBEA683AB9A07A08B1FFF7A1FFFFF7C6FF01205CE0410001EB0A
:2001400080012431C8B2102107F042FAE769217BFA68480000EB8100103225300421C0B2BB
:2001600007F036FAE1690020C86043E0410001EB80012331C8B2102107F02AFAE169002071
:20018000486137E0410001EB80012231C8B21C2107F01EFAE169002008612BE0410001EBCD
:2001A00080012131C8B21C2107F012FAE169002088601FE0410001EB800132462031C8B270
:2001C0000E2107F005FA6846FF21102202F04AFF207B10216A467030C0B207F0F9F9217BAC
:2001E0000E220801A0EB4100201831463E3002F03BFFE761002005B0F0BDB0B50F461546D2
:200200000446ADF1200D00212022684602F02AFFADF80040294C8C4AE01C0178069B8DF8D2
:200220000410417880791A408DF81C00207A8DF8051000F003030101134301F480721A4337
:20024000804B00F0040001F4C0611340194308430690207930B10DF1060004F12E01102265
:2002600002F002FF607920B11FB1069941F002010691002100B10121A7789DF81600002FBA
:2002800041EA00018DF816100CBF002004209DF8161008438DF816002946684602F0EBFAE3
:2002A00008B0B0BD90AA0100F0B5C24C0546207BADF13C0DA8420DD102E0C046EC4300205F
:2002C0002078012103F035F82078022103F031F8FFF7B1FE6C0004EB85040E210BAA04F10B
:2002E000200004F12007C6B2F8B207F002F800284BD10BA8FF21062202F0C2FE002844D181
:200300000BA80E2202F0AEFE04AFFF211C22384602F0A8FE6846FF21102202F0A3FE30462C
:200320000E210BAA07F054F906461C2104F121003A46C0B207F04CF91C2106433A4604F1CD
:200340002200C0B207F044F9102106433A4604F12300C0B207F03CF9102106433A4604F136
:200360002400C0B207F034F92534042106433A46E0B207F02DF9703510216A4640EA060413
:20038000E8B207F025F9204300E000200FB0F0BD10B50024204628B92046FFF785FF641C4F
:2003A0000A2CF8DB10BD2DE9F041DFF8088200270A25202608F13E0430460E21224606F0E5
:2003C00098FF50B12046FF21062202F04BFEA01DFF21062202F046FEA7816D1E04F10E04A7
:2003E00006F10606E8D198F80A0008B1FFF743FEFFF768FEBDE8F08170B509F012FCF8B968
:200400006C4CE07A01280ED0002523342E4614F8010F012803D13046FFF746FF2570761CE2
:200420000A2EF4DB08E0FFF7B3FF002104F124000A22E17202F016FE07F022F9FFF7B3FFAC
:2004400070BDC046FBF9FFFFFCFEFFFFF0B50446584DA178A869ADF1140D891F00F0AC803E
:20046000C91E00F09480491E52D0491E3DD0C91E33D0481E40F0A280A879E97948BB68788C
:2004800030B3A08809F09EFA071C00F09780A07A40080CD3787950B1E168890A07D2B91DD8
:2004A0006A46FFF7CBFC002808BF032111D0A088797904F10802FFF7A0FEA86900287DD0A8
:2004C0004368002B7AD000210A46A088984775E00521A08802F01CFA70E000286ED0436878
:2004E000002B6BD062780221EFE708B1076847B96869618902F034FA00285FD0608901215E
:20050000E8E76189227B637BE01C3C46A04755E06678002776BBA17949082BD3EE694EBB0E
:20052000684639460E2202F09DFD606938B9A08809F048FA002841D0801D014601E06169ED
:2005400010316846062202F08FFDA079BDF80C10C0F380000843ADF80C0021466846FFF7E2
:20056000C3FD28B92878022102F096FE384626E0A869152710B3436803B3A0886278012178
:200580009847DFB1A869436803213A469DE7E078211D0022FFF752FC0A280FDA410001EBC4
:2005A000800004F10C0225300421C0B207F010F804E0C046EC430020FFF71EFF012005B0AB
:2005C000F0BD0246107920B95088D1881289FFF7D2BC7047014601F10800097908F070BED4
:2005E00010B501780124B0390AD0491E05D01F3908D1FFF72BFF044604E0FFF7E2FF01E062
:20060000FFF7E8FF204610BDB0B5B54D28780C46E10BC90336D1A00824D2600806D2E008EC
:2006200028BF84F0040439D20020B0BDFFF7C4FC002808BF84F001041BD0A86968B14368E1
:200640005BB1E8698088012100229847A869EF694368B888032100229847FFF7ECFC84F047
:2006600001041BE000200146FFF73EFD18B184F00204012102E0022184F00204287802F06C
:200680000BFE0BE002F033FD071C05D0FFF7A8FF10B1384602F0CBFC84F40044A0B2B0BD3C
:2006A000410000B501EB8000ADF1140D20300E216A46C0B206F01DFE002814BF00209DF8B7
:2006C0000C0005B000BDF0B505469D48007816460024ADF11C0D022808BF0124082B04D1EA
:2006E000480000EB8100223003E0480000EB81002130C7B200211C22684602F0B3FC1C21A8
:200700006A46384606F0F5FD60B99DF81A00072808DB102806DC284606F001016A46234650
:2007200002F044F907B0F0BD854B5B1E5A79002102B101219A780AB141F004010AF0E8BA75
:200740002DE9F0430C46164605461F46ADF12C0D0021062209A80AF07EFD2846214609AA24
:20076000FFF76CFB04460A2C42DAFFF799FF81463B46214630464A46FFF7A5FF0DF110088D
:2007800000211422404602F06DFC650005EB840505F1240010214246C0B206F0AAFD88B920
:2007A0004046FF21102202F06BFC58B9253508AA0421E8B206F09DFD304609F001014246A3
:2007C00002F035F8703410216A46E0B206F091FD70B96846FFF75DFB0425ADF1040434F83F
:2007E000041F19B1A2783046FEF7A1FB6D1EF6D1042F06D152480078022802D13046FFF714
:2008000093FF0BB00020BDE8F08338B50546104659B94C4AB0FBF2F15143401A294602F040
:200820009FF8041C05D0012100E00024284602F06FF8204638BD10B5294C2178A0612620CA
:2008400007F070FD2078FDF7F1FB10BD80B507460623203F012097FBF3F25A43BF1A10D0F7
:200860007F1E012F0AD9BF1E012F04D9BF1E0BD1042908D080BD102905D080BD1C2902D081
:2008800080BD0E2900D1002080BD15492DE9F04F8646ADF1140D887ACA7803908A4C009239
:2008A0004B7891F8098091F807A091F80690087A4F6902908A784879CE89019008790025F7
:2008C000AEF5806CBCF10E0F0CD8DFE80CF033312F2D2C2623211F0B1C1B1A1815C0C04654
:2008E000EC430020BEF1270FA8BF022523DA704607F026FD20801EE0FFF7D2FB13E0DDF840
:200900000C80C246D146CDF8089001E0276012E0029801900198024608E02E31204610228A
:2009200002F0A2FB07E00090009B03E01046FAE73046DFE72370284605B0BDE8F08FC046E0
:20094000ED43002040420F00FEB516465F4C624F624B5F4A84460025ACF5806CBCF1100FAD
:200960000AD8DFE80CF0A39C948C857C756F655A524A4135090912C0272827DA022925D168
:20098000318807F0CFFC054698E0072940F09580711C6846062202F0DAFB307869462A46B3
:2009A000FFF74CFA06460A2E10DA09F03AF938B93046FFF779FC06F063FEFFF7F4FC7DE0F5
:2009C0002046012700F11B04A75577E0022575E0012972D1424A3178907A002891726DD195
:2009E000307801286AD1E8E7012966D13178072963DB102961DC20460DE001295DD13178DA
:200A00000A295ADA1046401C05E0012955D13178022952DA104607462FE000294DD109F096
:200A200000F910B9FFF7B4FCC5E7012120460DE0042942D13168274888423ED320460B3069
:200A400001603BE0012938D131781046801C24E0012932D1317802292FDA384615E0102992
:200A60002BD1204631461022253002F0FDFA25E0012922D1317802291FDA38460DE00129A9
:200A80001BD13178042918DC1846401C05E0012913D13178022910DA184601700EE002294D
:200AA0000BD131882046401D018007E0012904D131780229D8BF0B48ADDD18252846FEBDC9
:200AC00007490870FFF76FBC53470020F5430020F24300203F420F00F0430020EE43002092
:200AE000EC430020ED43002070B5DFF8C8592878062460430AF04EFEDFF8BC19086008B9B2
:200B0000132070BD0020FF2206E03380401C0023F270B2703371C0B22B78984209DA0B68AF
:200B200004FB003600280CBF4FF6FE734FF6FF73EBE70FF2A14008F04FFA0FF6A90009F084
:200B40009FFC0FF6E90008F0D7FE002070BD70B50446208868B160680378426800F073F979
:200B600048B9606803784268DFF8500900F06DF908B9022070BDA078C01F0A2801D31820BC
:200B800070BDDFF83C59288820B12188C0F58030884201DA012070BD0C200AF0FBFD060016
:200BA00001D1132070BD002007E06268298802EB0012401C5181491C298080B221888842A1
:200BC000F3D30020306008222146301D02F04CFA686810B96E6004E0084601680029FBD192
:200BE0000660002070BD38B502460846DFF8D0184C68002301E02346246894B1A5686D890B
:200C00009542F8D12268002B0CBF4A601A6018B10822211D02F028FA20460AF0CCFD002002
:200C200032BD012032BDDFF89C180870704710B5044610461422114203D000F00FF901221F
:200C400004E04A0608D500F009F9002201462046BDE8104008F025BFC80701D4022010BD5E
:200C6000002010BD70B504460D46A8061E4609D5104600F0F3F801462046BDE8704001227F
:200C800008F00FBF882005420FD0104600F0E6F8014605F00802204608F003FF48B1717A12
:200CA00041B1317A012904D070BDA80701D4032070BD002070BD7CB50446002000900D46CD
:200CC0000223DFF804284FF6FF71012000F02CF8060026D0002304221D21204608F0B4FA73
:200CE0000190E0B170890199ADF800002B460420ADF8020000220120087000200199487031
:200D0000FF20019988700199C87000A9204600F007F9040006D001980AF03FF902E0152491
:200D200000E00124204676BD2DE9F0478146DFF8900744688A4690461E4600E02468F4B1CC
:200D4000002700E07F1CA088BFB28742F6D2A06800EB07156889484528BF8245F2D33EB1D8
:200D6000297868683346424605F068FF0028E9D0089810B1A16849890180284600E0002099
:200D8000BDE8F087F0B5DFF83827536800E01B68D3B19D686E89B042F9DB9F88BA1990422C
:200DA000F5DA4FF0000C01E004F1010C1FFA8CF4BC42ECD205EB0412B2F80AE08645F3D1B8
:200DC00001B10E801046F0BD0020F0BD2DE9FC4104460027ADF804704FF6FF7860894045FC
:200DE00015461E4608D001AA0092401C2378626880B2FFF799FF07462378626800F023F8E1
:200E000030B923786268DFF8B40600F01EF808B160890CE023786268DFF8B00600F015F870
:200E200058B11FB1BDF80400A84203D0284600F0C7F803E07889404400E0608906B13080AE
:200E40003846BDE8F681DFF88806022105F0F6BE80B500F08AFA00B1008802BD80B500F001
:200E600084FA08B1807802BD102002BD70B5012982B00446154616D0032918D0052925D052
:200E8000072927D0092929D00B292BD00D292DD00F292FD0112931D0132933D0172934D0A9
:200EA000192936D039E0294609F0EDFA33E009F047FDADF8000000A9204609F0EDFA060098
:200EC0002CD12988204608F069F927E0294609F0EFFA20E0294609F003FB1CE0294609F082
:200EE0000FFB18E0294609F021FB14E0294609F02BFB10E0294609F035FB0CE0294609F00E
:200F000040FB08E009F04EFB05E0294609F050FB01E009F05AFB064600E00226304676BDA8
:200F20002DE9FC410D46044616461F4601A900F029FA5FEA00081DD156B100F037F8BDF829
:200F40000000FFF78BFF00F036F85FEA000811D12946204609F04AFB5FEA00080AD1019CE4
:200F6000FF2F07D0A31C1E2221460FF2954008F0F7F8E7704046BDE8F6817CB50D46044682
:200F8000164601A900F0FEF917280ED04EB1002000F00CF8BDF80000FFF760FF00F00BF837
:200FA00018B92946204609F016FB76BDADF8000000A92888E6E601460122204608F071BD8E
:200FC00010B50446FFF744FF08B1611E0C18A0B210BD00002DE9F0470D468046A8780024A4
:200FE0001E2888B0914614D1404600F0DFF904001EBFA078FE28FF2822D00020009000225F
:20100000AB78E078414608F080F8204600F0E2F916E0122804BF6878012813D0404600F0D8
:20102000C5F904001CBF2279002A0BD0100607D4A978404608F0C5F8207940F0800020714C
:2010400000206BE0DFF87C743878FF2817D0A978881E172813D20FF27C4A48080AEBC000E9
:20106000A0F10806306800281CBF7068002806D0287810B96A78012A03D1122901D00620E4
:201080004CE002A90091AB88AA6869783668B047060042D1AA7852080AEBC20202A952F8EA
:2010A000042C4046904706001CD1AB78042B34D002A8009000223878414608F026F80600AB
:2010C0002BD1A97802A808F095F810B1002089F80000A878122804BF697801291DD0E4B1B8
:2010E00020711AE06878C0B9A8788DF800008DF8046000A9A878042818BF0628BDF80800C7
:20110000ADF80200404609F0BEF928B100AB01221621404608F038F80026304608B0BDE86D
:20112000F087002070472DE9FE430D46804628886988814200D308B901206AE00021ADF8C8
:20114000041002914FF6FF7900E0401C002100910A466988002380B2FFF7E6FD070034D0C3
:20116000BDF80400002835D100AB4A460521404608F06AF8040001D111204AE002943878D0
:20118000022806D101208DF80600BDF80000860824E002208DF806001221BDF8000090FB3B
:2011A000F1F6788904F8010B102200F034F81034BDF80400401CADF80400B6B2BDF80400CE
:2011C000B04202D278894845BFD1BDF8040080B90A201EE09DF806000128E2D138780228C0
:2011E000F3D1788904F8010B022200F014F8A41CDEE701A9404609F05BF948B101AB052234
:201200001621404607F0C0FF10B1029809F0C5FE0020BDE8FE837889000A04F8010B204685
:20122000796801F021BF10B582B04C880888844200D308B9012016BD00F015F808B90A206B
:2012400016BD002016BD10B582B04C880888844200D308B9012016BD00F005F808B90A2047
:2012600016BD002016BD002200924A1D0B7921465AE510B5044682B0084600A90088FFF7AD
:2012800081FD08B9012016BD017ABDF800202046FFF7CDFC16BD70B582B006460D460024B9
:2012A00001E0641CA4B2A888844229DA286810F8142000EB440000A9407802EB002080B2E3
:2012C000FFF760FD50B9286810F814100170286800EB440149784170012076BD017ABDF8CF
:2012E00000203046FFF7A3FC0028DAD0296811F814200A70296801EB440252784A7076BD2F
:20130000002076BD10B50C4682B020886188814200D308B9012016BD23796D48621DFFF78F
:2013200094FD08B9102016BD00200090237961882088621DFFF7F8FC08B90A2016BD002034
:2013400016BD38B504460D4600A92888FFF71AFD08B9012032BD017ABDF800202B462046D2
:20136000FFF780FC32BD002070475549496800E0096829B18A6852898242F9D1081D704784
:201380000020704710B50C4600F010F860B104B120608078FE2801D1172010BDFF2801D134
:2013A000002010BD162010BD022010BD10B5424A1268002100E0491C3E4B1B78C9B29942AB
:2013C00006D206234B439C5A8442F4D1981810BD002010BD10B50446A01C07F0C9FEFF20EB
:2013E000E07010BD10B50C46FFF7E0FF30B101794A1C944204BF01F08001017110BD0000D9
:2014000010B582B004001EBFA078FF28FE280BD0002000901E232188E078172207F075FE1F
:20142000FE20A070FF20E07013BD000070B504464FF6FE70844282B036D04FF6FF7651B95B
:201440002046FFF7B3FF78BB3046FFF7AFFF05002AD0048073BD012906D12046FFF7A6FF7C
:20146000050021D02E800BE002291DD10121204608F0D6FAC0B92046FFF798FF050013D020
:20148000A878FF280ED0FE2807D0002000901E23E8781422214607F038FE2846FFF79AFF12
:2014A000FF20A8700020287173BD70470448008870470000B4480020A04800207CAA01007F
:2014C0002847002049470020B4AA010084AA010078AA01002D680100231101005F68010089
:2014E00027110100DD680100271201006969010047120100C969010073120100396A0100A9
:2015000073120100776A0100971201006969010005130100E9690100431301000000000023
:2015200000000000D36A010043130100536B0100671301002DE9F843099D002600274FF653
:20154000FF7835F8174044451CBF761CF6B27F1C062FF6DB00270DE00CF1010C5FFA8CFC52
:20156000E646B64505DA35F8179035F81EE0F145F2D1E7B2B74208DA35F81740444504D018
:20158000A14202D37C1CA446E8E7B7420DD176B1884202D04BB1994207D3089811460AF006
:2015A00005FB47F6FF71884201DB012000E00020BDE8F2832DE9F843DFF86C08DFF86C9826
:2015C000017899F80000884200F07F8000204FF4907301E0401CC0B2884276DAD9F8042024
:2015E00003FB002808F104063278002AF2D1DFF840180968B070382202FB0011012232703E
:2016000008F161070022727001207871F872B280F280307388F8392008F18E0072613276CF
:20162000728302702031FA770A75FF258022FA7408F1E80400227A75BA760D706276A2763B
:20164000E2762277E283228488F80B21027108F1E3000270427022606260A27222732272EE
:2016600008F587706273028042808280C2800A720A734A738A73CA730A744A740421FF22A7
:2016800008F1770009F0E4FD3D707D70BD70FD701F2038710020DFF89C17421800EB0803EA
:2016A000527883F8F920401C0828F6DB0020207499F80000401C89F80000C0B2012804BFEF
:2016C000B07889F80200404600E00020BDE8F28310B5DFF860470821601C09F0B8FD607851
:2016E00040F00100607010BD70B5044609200AF059FA58B300F089FB0A30C0B2E880002183
:2017000005F10806296029716971032030700822092006F8010F04F1F901701C01F0A4FC98
:2017200094F8920028B133460922032120460AF035FA03F029FDDFF800371B69DB6C024621
:20174000A06E294698470020E083012070BDF8B505460E46DFF8E446DFF8DC7608E0007A84
:2017600003281CBF481C20703969A86E496D88473969A86E096E8847217810B10279032A32
:20178000EDD0DFF8BC0600781C2814DA99B1DFF8B4060078814205D2012E0CD1DFF8A806CB
:2017A000007840B1A879ADF80000ADF8021000F069F800202070F1BD2DE9F8430446DFF822
:2017C0008C06DFF878660068DFF86C7680478046002003F04BFDA06E00B306E0007A00F0A8
:2017E00057F83969A06E496D88473969A06E096E88470028F2D13969A06E496E8847054603
:2018000006E0287A00F044F8284609F0C6FB2D68002DF6D13969A06E096D8847206FA0B18E
:201820003969096E88470546A946D9F8080020B109F0B3FB0020C9F80800D9F80090A945FD
:20184000F3D13969206F096D8847DFF8F40500781C2808DA307840B1A179ADF80010ADF8D3
:20186000020000F00FF80020307020460AF092F920460AF0A7F9DFF8D8150968404688473A
:20188000BDE8F1830DF1020200A9012007F034B9032802D03078401C3070704770B50446B8
:2018A000DFF8A8050068804704F17601FF234A79521E4A71D2B20AB94B7008E000221519BF
:2018C0007735521C6E782E70032AF8DB0B7100220A70BDE8704011E038B50446DFF86C058D
:2018E00000680D468047002204F176010A704D704A790AB901224A71BDE83440DFF85015E8
:20190000096808472DE9F04100260027DFF81C45DFF8148508E031684968806889680AF0C6
:2019200035F900B92E467F1C98F80000FFB287420CD260684FF4907101FB07052868697943
:2019400040680029EFD0002EE5D1EBE7B079BDE8F081F0B54FF6FF710C460023DFF8CC246C
:2019600003E0A64298BF34465B1CDFF8BC542D78DBB2AB4216D255684FF4907606FB035507
:201980006E79002EF0D005F180068C42377804D1002F0CBF6C8E3489E6E7002F14BF368965
:2019A0006E8EDEE7A04288BF2046F0BD2DE9F84304468846164600270FE02A46414601F067
:2019C00053FB3846471CC3B203B101232A46494620460AF013F9A844761BB6B276B11C2ECA
:2019E000ACBF1B25F5B228460AF0CCF85FEA0009E3D181200AF026F9072000E00020BDE8DD
:201A0000F2832DE9F04DDFF82474DFF84864DFF848A40C46154679684FF4907282B002FB47
:201A20000018307801289B4602D0022830D068E0B068BBF1020F04D100F070F80020B06066
:201A400029E07388B188EA18914205DA00F066F80020B0608B2052E02A462146181801F042
:201A600003FB70882818708080B2B288904248D198F87400802817BF81287F209AF800107D
:201A8000401A00F043F80020B0807080022033E0BBF1020F35D1042DB8BF8C202FDB217892
:201AA0006078091D41EA0020DFF89413B08080B20978814238BF8A2021D3A84238BF8B2098
:201AC0001DD30AF05BF8B060C0B12A46214601F0CBFAB28895420BD198F87400802817BF4C
:201AE00081287F209AF80010401A00F00FF808E07088281870800120307002E081200AF05D
:201B0000A1F82046BDE8F64D09F047BA40B200905B46B168B878D2B209F06ABA0021B18085
:201B200071800221317009F038BA2DE9F84304462068007840284ED1E08B00284BD0C74826
:201B40000078012847D103F00FFAC0480068804705460AF08BF8618E40F6C418891C08FB28
:201B60000109B24A2068A1799278476891422CD1B86849460AF00AF848B30AF06BF80646E5
:201B800040F202400AF05AF8304603F06FFB3169484609F0EFFF618E08FB01F2B0FBF2F031
:201BA000228980B28218628148432268126908FB0020B86004F1380041780170204600F053
:201BC000BAF8304609F008F801E00069B8602846BDE8F44392E6BDE8F18330B587B040F655
:201BE0000200ADF800000020ADF8020001900290ADF80C0001208DF80D000020ADF80E001D
:201C0000974C984D2088984A1278ADF8100002EB4202E86A816809685118B1F80110ADF88E
:201C20001210854940680969059000A8C9698847012807BFBDF80200B0F5806F892000F089
:201C4000EBF8E868894A418812781143218000788149800643BF86480068400A0020087054
:201C600007B030BD10B582B004461020ADF8000004EB44017B48C06A8068006808186E4962
:201C8000B0F801000969ADF8020000A8896988477548047013BD73487349C06A806809780E
:201CA000006801EB41010856704730B50A7902F01F020A71002280F83A200023545C24FA9E
:201CC00003F5EC070BD590F83A502D1803EBC20485F83C4090F83A40641C80F83A405B1C4A
:201CE000082BEBDB521C052AE7DB30BD10B500F138025378D47801FB0431252391FBF3F3AD
:201D0000252404FB131111700023117800E05B1C9478DBB2A34206D21C1894F83C40A1425E
:201D2000F5D1084610BD91FBF4F204FB1211081890F83C0010BD70B5044604F1380004F1EC
:201D40008E06017841706089218909F02FFF05463078012801BF70882189491C884206D187
:201D600004F161012046FFF7A0FF0020307029462046FFF7BBFF21680978402904BF3D4910
:201D8000887370BD80B580F8F12009F0EFFE38B939480078BDE804404FF4804101F07CBA79
:201DA00001BD70B50446022009F0FCFE60B300F02CF8C01CC0B2E880002105F10803296059
:201DC0002971697103201870022003F8010F94F80C01587094F8920020B1022203212046B9
:201DE00009F0DCFE03F0D0F9134B1B69DB6C04F16806024630682946984704F10E00002176
:201E000001820088F082012070BDA0F1090594F8920000B10420704780B509F013FF17490E
:201E20000020087001BD0000BC4C0020B04C002040480020D04E00202C4F0020BA4C002061
:201E40003C480020874C0020884C00205C4800206048002010470020C04C0020BB4C0020A1
:201E6000944C002050C40100B94C00203D48002080130050E04D0020844C0020B84C00203F
:201E800010B5817921B3891E1AD0491E12D0891E0AD0491E18BF01201DD1037A817AC26865
:201EA0001846FCF758F910BD027AC1681046FCF782F910BD0289C1681046FCF72BF910BD8F
:201EC00084688189827B03692046FCF7F9F810BD8068FCF7CBF910BD0246907970B1401F4F
:201EE00008D0401E18BF01200BD1107A917AD26806F0EEBE107AD16806F02ABF906806F0D7
:201F000045BF704738B50D46014688790024103818D0C01E11D0401E0BD0401E18BF0124D8
:201F200014D108898B7ACA681946FEF79FFF04460CE0886807F05FF807E00889897A07F01C
:201F400054F802E0087A07F04DF82C70204638BD2DE930418846817915460024091F3AD09E
:201F60000C3934D0491E2CD0491E27D0491E1ED0491E13D0491E0ED0891E18BF01242FD1D0
:201F8000037AC16802691846FDF758FF884945460870012023E0FEF72FFA1FE0047AC168CB
:201FA000028A837C2046FEF7CBFB044618E00389817AC2681846FEF728FCF6E707F05AFDE0
:201FC000E4E70289817A104607F02AFDDEE7007A07F0B6FD02E08068FEF72DFC204628706D
:201FE0002046BDE83081012070472DE9F84308AF3E788146984615460C4606F10C0080B208
:2020000001F000F8071C16D08020387087F8018040F27F637B806649BC803246BD7107F1EE
:202020000C00FE7107F10C03BB6001F01DF84846394601F0EEF8BDE8F8832DE9FE43044658
:2020400000250120A688A7798DF8055094F802808DF80400311C1BD0491E12D0491E0BD0B8
:20206000491E05D0491E15D12046FFF709FF11E02046FFF731FF0DE0204601A9FFF742FFC2
:2020800008E020460DF1050101AAFFF761FF01E0FFF7A9FF8146204600F0C9FF9DF80400F0
:2020A00040B19DF8050031463A464B4600904046FFF79BFF2846BDE8FE8308B503460022AB
:2020C000801E012812D9801E0DD0202B10DB602B04DB802B0CDB902B0ADA0AE01846FEF7C5
:2020E000B5FB024605E0042902D102E0102900D00222104608BD60B19222AC498271AC4B35
:20210000016014224281198881800323038100207047022070477CB5401E15460C4616D047
:20212000401E08D0401E40D0401E3AD0401E2BD0401E19D016E0207A617A0546FFF7BDFF8B
:20214000002832D1E268284605F042FA7CBD207A617A0546FFF7B1FF38BBE268284605F02C
:20216000C8F87CBD01207CBD4FF6FF70ADF80000FFF79CF90222ADF8000069460C482A70C2
:2021800000F072FF00207CBD09F068FA04239E492B70020A0A72C871060C4E72040E8C72DE
:2021A000F0E7A068FFF7A7FF7CBD02207CBDC0465347002030B511280B461546ADF1140DC7
:2021C00003D9303807280BD952E0DFE800F0A55151A051519B9490518A85807B756E69656B
:2021E000DFE800F03B205551184E480418890446FEF74BFB0146A4F2014040B1001F04D04D
:20220000C01E14BF0120042002E0102000E0022028708BE0187A03F025FD039030B304226E
:2022200003A914E04FF6FF741889ADF80840FF2807DA262805D0272803DA06F081F8ADF84D
:202240000800BDF80800844210D0022202A96F482A7000F009FF002168E01889262805D0CE
:20226000272803DA598906F05DF85EE002215DE001215BE01889997ADA68FEF765FB54E08B
:2022800003F0FAFC51E0986803F0ACFC4DE09868D96808F09BFF48E0986800F090FA44E0C3
:2022A0001889997A00F034FB3FE01889997ADA681B7C00F07BFB38E01889997ADA6800F03B
:2022C000B6FA32E01889997A08F022FD2DE0D868198900F02CFB28E09868D96800F0CBFA6D
:2022E00023E0187A59891A7B00F02CFA1DE0187A03F052FC19E0187A597A9A7ADB6803F044
:2023000014FC12E0187AD96803F0C0FB0DE0187AD96806F051F808E01869009058690190F0
:20232000597A187ADB6809F057FA014605B0084630BD80B50B46074618891B3F09D0BF1EF0
:2023400018BF012009D1D9681A7C5B7CFEF7E8FD80BDD9681A7CFEF710FE80BD0246CB6854
:202360000889511E13D00A390ED0891E09D0891F05D0891F18BF01200CD108F026B908F010
:2023800011B9194608F0E0B8194608F0CFB8194608F079B87047122805D10889CB680A7C0D
:2023A000194608F08ABA01207047C0460001020090C4010010B50446C4F3C21048B1401E5D
:2023C0001DD0401E16D0401E0FD0401E08D0401E01D0012010BD04F07F00FFF79CFE10BD6C
:2023E00004F07F00FFF7E6FE10BD04F07F00FFF7A0FF10BD04F07F00FFF7B0FF10BD04F015
:202400007F00FFF7C8FF10BD4C4700205347002042F20702824236DB824200F0E58041F2E8
:20242000020282421BDB824200F0EC80A0F21D40002800F0F780A0F2E470002800F0EF80D3
:20244000801E00F0EA802A3800F0E380363800F0DD80A0F29E30002800F0D6804DE0521CAB
:20246000801A00F0CD80801F00F0C880B0F57F7000F0C180A0F6FC30002800F0B980801E38
:2024800000F0B48039E01032824216DB824200F09580083A801A00F0A580401E00F0A080E0
:2024A000401E00F09980401E00F09280C01E00F08C80401E00F086801FE0521D801A7BD0D4
:2024C000401E76D0401E6ED0401E6AD04DF6E232801A1F2811D8DFE800F0615E10105A57BC
:2024E00054504E4B4946434110103E103B3733102F291026221F1C1018120120704788687C
:20250000CB680A69194607F092B8087A897A09F029BB087A07F026B9088907F03AB9087ABE
:20252000498909F01BBB087A09F014BB08898B7A8A89194607F03FB9087A498909F006BBAB
:202540000889C96809F0FEBA0889897A09F0F6BA088909F0EFBA087A09F0E8BA09F0E2BAE6
:20256000088909F0DBBA886809F0D4BA09F0CEBA087A09F0C7BA09F0C1BA087A897A09F056
:20258000B9BA087A09F0B2BA886809F0ABBA8868C96809F0A3BA087A09F09CBA087A09F0D0
:2025A00095BA09F08FBA087A4B7A8A7A194607F0ABB8087A07F0B1B809F080BA8868C96850
:2025C00009F078BA088907F08AB8088909F06EBA087AC96809F066BA087AC96809F0EABA38
:2025E00009F0ECBA09F05ABA09F054BA09F04EBA886807F0E2B8088909F044BA09F03EBA2D
:2026000009F038BA07F009B807F0F2B8886807F08DB80889897A09F029BA06F0EDBF886848
:2026200009F020BA088909F019BA70472DE9FE430446012000253F218DF80400A679A778A5
:20264000A0888DF805508046B1EBA82F02D1C8F3C21119B92146FFF7DBFE05E021460DF18C
:20266000050201ABFFF7A6FE8146204600F0DFFC9DF8040040B19DF80500414632464B4661
:2026800000903846FFF7B1FC2846BDE8FE83F8B50C46E00BC00308BF002027D02848007882
:2026A00000F025FD071C1ED0234D2968012649B1B1F1FF3F06D02148007800F0AAFD4FF068
:2026C000FF3028603878813805D0401E07D13846FFF7B3FC02E03846FFF7A8FF064616B19C
:2026E000384600F0A4FC84F40044A0B2F8BD10B50C4601462046491E07D0491E02D008F0D6
:2027000033FC10BD04F03CF810BD1946029B14460246204606F098FD10BD10B5044608460F
:20272000012C114602D106F0CBFD10BD08F035FC10BD0349087070474448002084480020AE
:202740004C4700202DE9F04104468846122740464FF6FE7188421646DFF88C5808D1A86929
:2027600050B30268100027D041462046904720E04FF6FF71884212D1A86938B1026810004B
:2027800004D0414620469047070005D03146204600F07CFA07000FD12C706E700CE007F03E
:2027A00011F948B10078A04205D13146404609F051F9074600E003273846BDE8F08110B5F6
:2027C00004462389E288A188608884B006F0F6FE08B9022029E02088012107F021F908B9E2
:2027E000142022E0208807F02CF9042812D1DFF8F80781894FF6FF72914218BF112014D17A
:202800002188818161888180A188C180E18801812189418100200290019020890090E3887B
:20282000A2886188208806F095FF04B010BD70B50C46DFF8B8170978022918BF01291546AD
:2028400001D1122070BD0DB9022070BD07F0BAF8060001D1142070BD1CB1307940F00200A8
:2028600030711022294606F1140000F0FDFB28697062002070BDF8B506000C4601D102207A
:20288000F2BD308807F09EF8050001D11420F2BDDFF858070078022818BF012803D0287B3C
:2028A000082802D10CB11220F2BDDFF83C77786908B11120F2BD2C2008F06CFF786108B92A
:2028C0001320F2BD2C2200F096FA7869318841801C22311D001D00F0C7FB79690220087016
:2028E000287B7969328808280CBF012000200B1DDFF8FC16097800F04FFF06461CB121460D
:20290000284601F00BF90EB100F035FA3046F2BD38B504460D4607F055F808B9142032BD9F
:202920008DF8005000A9204601F032F832BD38B5002298B101230624251815F8015C303DEF
:202940000A2D0BD203FB05220A25641E6B43E4B2002CF1D11046BDE8344001E0022032BDFA
:2029600030B505460C4685B0204607F02BF808B9122019E0DFF87C06854228BF022013D226
:202980001022002100A800F06DFB280A8DF801008DF80050280C8DF802002146280E8DF87A
:2029A000030000A800F03BFF05B030BD2DE9F0418046DFF838060078022814BF01281220AE
:2029C00082B00C4615461E462BD00DB9022028E0404606F0F7FF070008BF142021D0B86A42
:2029E00008B108F0E8FE1C21284600F08FFE0100B96208BF132014D0387B082809D146B16A
:202A0000887E009001F112030A8A404601F0B0F800E00020397941F004010CB141F002018D
:202A20003971BDE8F6812DE9F0410D4606F0CAFF04001ED0656200F0E1F9C5B205B9257822
:202A4000666A94F80580102000F0DCFA070010D0D0203870062200207870A11D0920B870E1
:202A600087F80380381D00F0FFFAFE60394628461EE0BDE8F0812DE9F04104460D469046FD
:202A80001F460E2000F0BEFA06000FD0D020307006220020707041460C20B070B580B01D89
:202AA00000F0E2FA37733146204601E0BDE8F081BDE8F04100F0ADBBF0B5040087B051D09D
:202AC000A079DFF82455002828690CBF0826042608B9DFF824050778DFF82005006820B13C
:202AE000416808001CBF00208847E07904F1080105F036FD217DE07105910246618A04918F
:202B000004F10803218A0391E18902910196A18800913946E07800F056F8E07870B917205B
:202B200003900122E0890290019604F108000090E379A188384606F0EEFEE070286908B141
:202B400000F031F9287868B1697800F09FF848B1E378312B04D0A2882978184600F061F844
:202B60000020287007B0F0BD70B505460026A88806F028FF18B10678A88806F0F9FEDFF81B
:202B80006844207838B1864205D1617800F07EF840B1002020702EB1AB79AA88A8783146BE
:202BA00000F03FF8606908B100F0E5F8A88806F048FF042802BFA888A189884204BF4FF619
:202BC000FF70A08170BD2DE9F0410646884617461C46162000F016FA050020D0D020287065
:202BE0006E700520A870EF702CB106222146281D00F03AFA04E006220021281D00F032FAF8
:202C0000069868812946079828730898E881099828820A9868820B982875404648E7BDE80A
:202C2000F081F8B504460D4616461F46082000F0E9F948B1D02101704470062181708680F1
:202C4000877101462846DCE0F1BD2DE9F04180460D4616461F460C2000F0D4F9040013D06C
:202C6000284606F0AFFE08B9DFF88C030078D021217084F801800721A170A580E6802781B9
:202C800006996181214613E7BDE8F08110B50C4606F0ACFE28B12146BDE81040408808F090
:202CA000D9BE122010BD2DE9F84F0746894692461C46484606F086FE5FEA000B1EBFCA4D7B
:202CC0006969002955D00A6A182002B134208A6A02B1143004B11C30496A01B1163080B258
:202CE00000F090F9060044D0182200F084F800F085F85FEA000808BF9BF80080D020307073
:202D000077700A20B070A6F8049086F806A006F118076969086A38B1B7603846096A00F1F0
:202D20001C071C2200F0A0F96969886A38B1F7603846896A00F11407142200F095F93CB187
:202D40003761384600F11C071C22214600F08CF96869416A29B177611622416A384600F0B0
:202D600083F931465FFA88F000F053FABDE8F14F01E0BDE8F18F10B59B4C606990B1006A47
:202D800008B108F018FD6069406A08B108F013FD6069806A08B108F00EFD606908F00BFD01
:202DA0000020606110BD10B58F4C206918B108F002FD0020206110BDF8B504460D46284656
:202DC00006F000FE060015D000F018F8070008BF3778062000F016F906000BD0062200F079
:202DE0000AF8D020307074700E20B070B5803146F8B206E0F1BD002100F034B9262005F0EC
:202E00009FBABDE8F44000F004BA2DE9F84305460E4617469846304606F0D4FD5FEA000918
:202E200021D0102000F0EEF804001CD01022FFF7E2FFFFF7E3FF08B999F80000D0212170F6
:202E400065700F21A170A680277284F80980C0B20899A1720999E1720A99E1602146BDE88D
:202E6000F44300F0D6B9BDE8F1832DE9F0410746884606F0A7FD040022D00E2000F0C2F8B9
:202E800005001DD0FFF7BAFF060008BF2678D0202870062200206870A11D0B20A870E81C79
:202EA00000F0E2F818F0010118BF012129736F8118F0020118BF01216973F0B22946F7E5EC
:202EC000BDE8F0812DE9F14F90460D469946404606F078FD07000A9EDDF82CA0DDF830B088
:202EE0000D9C3ED09DF8000000283AD1387940F010005FEA49714CBF40F0020000F0FD0035
:202F0000002E08BFBAF1000F08D1BBF1000F08BF002C03D100F0FB00387122E040F00400DD
:202F200038713CB1206978621022214607F1140000F09AF83EB135B9B86A08B108F03BFC8A
:202F40001C2130460AE0BAF1000F0AD0012D08D1B86A08B108F02FFC1C21504600F0D6FBA7
:202F6000B862214D6869002839D06EB1006A20B91C2008F00FFC696908626869006A18B1E6
:202F80001C22314600F070F8BBF1000F0ED06869406A20B9162008F0FDFB696948626869C4
:202FA000406A18B11622594600F05EF874B16869806A20B9142008F0EDFB69698862686927
:202FC000806A18B11422214600F04EF89DF8000053464A46414601B0BDE8F04F63E6BDE8A3
:202FE000F18F074908607047AC4600204D4600200447002040420F004C4600200847002000
:203000009848002010B5041C05D004F10C0080B208F0C0FB08B9002010BD0021016004815B
:20302000FF2383720C3010BDB8480078704708B5002808BF052009D010F8021CFF2918BF72
:20304000042003D10C3808F0B6FB002008BD10B580F08004022C01DB00F09FF9AB48001D4B
:20306000005D10BD08F0F7B8034610461A4628B111F8013B401E02F8013BF9D110467047F7
:2030800028B142B1401E10F8013F994201D000207047521EF7D10120704710B5401E491EA1
:2030A0004AB111F8013F10F8014FA34218BF002002D1521EF5D1012010BD70B5BD4D044628
:2030C00028680E468047BC4A1168A14219BF54F80C1C46F80C1C54F80C1C1160FF2604F82B
:2030E000026C002144F80C1C6968884770BD2DE9F041B04E0546306880478046AE480068FD
:2031000000273C46844212D010F8021C8D4208D134B160B128464FF4004100F0BDF80BE018
:20312000044604B9074650F80C0C0028ECD128464FF4004100F0FDF81CB120463946FFF777
:20314000BCFF7168404688472046BDE8F0810346104641181A46491E28B111F80139401ED1
:2031600002F8013BF9D11046704738B5C24C0546241D2068804700218F4A45F80C1C116894
:2031800011B9156006E0114651F80C2C002AFAD141F80C5C6168884738BD38B5B64C0546D5
:2031A00060688047594A916845F80C1CA1689560884738BD70B5164605460C1C08BF0525D8
:2031C00025D035F07F0001D000F0E7F80A2DA8BF032507DA54F80C0C18B914F8020CFF2899
:2031E00004D005252046FFF722FF10E0012E04F8025C03D02046FFF7B8FF02E02046FFF7B7
:20320000CCFF28464FF4004100F046F80025284670BD70B502460D4632F07F0004D1104677
:203220000022FFF7C7FF70BDFFF7FEFE37494C78AE1EFF2802D0896A4018847AFF2C02D141
:2032400000F0ABF80DE01046FFF701FF01462A46FF203070204600F008F820B12846FFF7A1
:20326000E6FE012070BD002070BD00B5ADF1140DADF804000823ADF80030ADF806100020D7
:203280008DF8080006237C4803920168ADF802306846884705B000BDF8B506460C4636F07F
:2032A0007F0014D10A2E10DA734D68688047B949096831F81620144321F81640A9688847B9
:2032C000B548006800F04AF831E00320F8BD0420FFF798FE071C08BF042029D04FF6FF7003
:2032E00038807C80FFF7A0FE08494C78BD1EFF2802D0896A4018847AFF2C09D13846FFF7DB
:2033000096FE00F04AF80120F8BDC0465C4600203046FFF79CFE01463A46FF20287020465F
:20332000FFF7A3FF18B13846FFF781FEEBE70020F8BD70B506460D460A2E0DDA974C606804
:20334000804794490A6832F81610A94322F81610A1688847002070BD032070BD0EB508217A
:2033600001908E48ADF800100B21ADF802100168684688470EBD70B5884C0546241D206890
:203380008047854906464869A84202D10868FFF7E5FF61683046884770BD08B50820ADF8CF
:2033A00000000C20ADF802007C4801686846884708BDC0465C48002064460020C34A08B56D
:2033C000002112F8013FFF2B04D1107041F08001C8B208BD9842F9D0491C0229F1D3FFF725
:2033E000DCFFFF2008BD10B504466088002818BF6FF0010008D1E088FFF7E0FF2072FF28E9
:203400000CBF6FF00300002010BD10B5142008F0C1F9C54CA062A06AFF211422FFF722FE5E
:20342000FF210222201DFFF71DFE10BDBF4A12681154121891727047BC4A12688018817256
:2034400070470EB50820ADF800001220ADF80200C94801686846884701980EBD0EB5082006
:20346000ADF800001420ADF80200C34801686846884701980EBDC046584800200EB50820C6
:20348000ADF800001520ADF80200BB4801686846884701980EBD10B5A44C0020283CA06025
:2034A00006F064FE07F088FEFFF7AFFF07F0CBFBFFF7C7FF6061FFF7D1FFA061FFF7DEFFBF
:2034C000801EE06110BD10B5984C0821ADF1180DADF80010283C04901B21ADF80210206A81
:2034E000029001210191A549A34803910168684688470299216206B010BD7FB506460820EA
:20350000ADF800000720ADF802009D480D460168144668468847BDF804103180BDF806107B
:2035200029800299216000907FBD804909680022491E11F8013F984208BFD0B203D0521C8A
:203540000A2AF6D3FF2070470EB5082101908C48ADF800101C21ADF80210016868468847B8
:203560000EBD10B5ADF1180D019084486E4C0390206A0491082202908148ADF800201322B0
:203580000168ADF80220684688470298206206B010BDC046B04800206C460020584800202F
:2035A0002DE9FE4306F0E6FDFFF74BFF5E4DAE696C69B6F57A7F13D04FF47A78001B00230A
:2035C0004246A6FB000106F061FE07460023424608F069F93246002306F058FE001900E03A
:2035E000071B6861384607F0ABFF00241CE0BDF80600FFF79AFF0646FF2E13D0009810F85B
:20360000080CFFF7DBFE009911F8062C012A03D0022A08BF887000E0087000993046FFF7AD
:20362000F8FD01E0FFF7B9FE01A80DF106016A46FFF763FF0028DAD052480168804631F88D
:203640001470514E27B9641CE4B20A2CF7DB1FE00A2C1DDA30688047D8F800106700002255
:2036600031F80790CA5371688847484850F824202C704946204690470446FF2028703068A8
:203680008047D8F800107A5A14437C527168884706F070FD0746B7F1FF3F14D007B93C4F1D
:2036A000E869B84238BF071C306880470446286AFFF74AFF696A3846491C6962FFF751FF64
:2036C000716820468847BDE8FE83C0465F4600200EB50820ADF800000A20ADF802004FF04B
:2036E000FF30019026480168684688470EBD294808B50068FFF7E7FE08B1FFF74EFEFFF789
:203700004FFFFFF7E5FFFAE708F0F2B870B50D460646A8B208F03EF8041C03D031462A46D8
:20372000FFF7A2FC204670BD5C46002084460020022908BF01780CD0032908BF017805D02E
:2037400004290AD1C278017801EB0261827801EB0241407801EB002070470078704700F894
:20376000011B0A0A00F8012B0A0C00F8012B090E00F8011B7047C046584800207733010068
:2037800058480020B04800205C480020FCC301008EC2F528804600202DE9F843DFF80C57EF
:2037A00004462868894690461E46002708B1112033E05EB1212004F0C3FD317E814205D3B4
:2037C000222004F0BDFD317E884201D2022024E0782007F0DFFF286008B913201DE0782207
:2037E0000021FFF73FFC29684F7028680470286880F802902868011DA1F800804E60CF61E4
:2038000080F8247014B100F0C0F907462968012048700FB100F0E0FA3846BDE8F28338B568
:20382000DFF888562B68002433B193F82420022A1CBF032A042A01D0122032BD9A888A4227
:2038400001D0022032BD0146102203F10C00FFF70BFC28681021353001F068F8286800F118
:20386000250200F135010C3000F00DF92868417802781AB103290DD1022107E0042902D126
:203880000221417006E0032904D10521417000F092F90446204632BDDFF8101688607047E0
:2038A000DFF8081648607047DFF80026126832B19288824203D1012908BF00F08DBA7047C9
:2038C0001720AEE270B586B0044600208DF80000A0680578691E0A2939D8DFE801F00606C3
:2038E0000D1115191D2125292D0001A904F0E5F9122824D106202BE001A904F051FA1EE000
:2039000001A904F069FA1AE001A904F07CFA16E001A904F090FA12E001A904F0A9FA0EE059
:2039200001A904F0CFFA0AE001A904F0D6FA06E001A904F0E9FA02E001A904F0FEFAD8B958
:20394000608806F03FF8072628B9082612E007208DF8000013E0027BDFF85015082A0CBFCF
:203960008968496831B10B68190003D001AA2946984706468DF800609DF8000020B16088EC
:2039800000A900F005F801E000F0ECFE06B070BD38B50C46DFF818352246022104F0DBFA3C
:2039A0000546207800F03DFA284632BD70B5DFF8FC440546206800280E463DD08188A94214
:2039C0003AD1417806292FD1017809B381684969026ACB0704D5137BDB0748BF072113D487
:2039E000C1F34003002B1FBFD368C3F34003002B092109D1C1F3800100291EBFD168C1F33C
:203A00008001002902D00B21417007E0A06800E0606818B14068010018BF80472068407866
:203A2000122816D1002004E0112905D106B13226304600F0F6F90CE03EB9284605F0C2FFE6
:203A400018B1017941F01001017129463046FFF7B3F9012070BD10B5DFF85044206888B1A9
:203A6000007800280CBF6068A06818B14068010018BF804720684078122803D1BDE81040B8
:203A80000020CEE110BD2DE9F34FDFF8206430688DB0904608B912203DE0808805F092FF8E
:203AA000050008BF142036D009A800F0E2F93068017871B1D0F8209004F0A7FD04460020D7
:203AC00004F0A6FD95F805A009AE074605F1060B0BE0066A04F099FD8246002004F098FDBC
:203AE0006C790DF124098346AF1D07A9484604F08DF805A9304604F085F8CDF81080CDF8BB
:203B00000CB0CDF808A0019700940E990D9805AB07AA00F084FE0FB0BDE8F08F70B5DFF852
:203B20008C530446686886B000281CBF006800280E461BD030788DF8040070788DF80500E1
:203B400002A8B17800F015FFF0786B688DF80C0001AA7068049001211B682046984728B1E8
:203B60008DF8000000A96088FFF712FF06B070BD38B5CE4CA46834B1A5682C0003D0049CA1
:203B80000094A84732BD022032BD1FB500F031F870B100A800F06DF9216888880978002953
:203BA00014BFC44BC44B00AA072104F0D4F900E0012004B010BD1FB500F01BF800F1250111
:203BC000102200A8FFF750FA2068BC4B0AE01FB500F00FF800F13501102200A8FFF744FA52
:203BE0002068B74B808800AA112104F0B4F904B010BDAE4C20687047F8B5AC4F044638686A
:203C0000006A0025002840F0AD80102007F0C2FD39680028086200F0A3808E6810222146D5
:203C2000FFF722FA38680178002973D1026A12F80CCF06F114010CF0010C0B6803F0010718
:203C4000674518BF00275B0847EA43030B605F08D2F800C04FEA5C0C00F087F818BF002776
:203C600023F0020343EA47030B609F08D2F800C04FEA9C0C00F079F818BF002723F00403BF
:203C800043EA87030B60DF08D2F800C04FEADC0C00F06BF818BF002723F0080343EAC7030A
:203CA0000B601F0AD2F800C04FEA1C2C00F05DF818BF002723F4807343EA07230B605F0AED
:203CC000D2F800C04FEA5C2C00F04FF818BF002723F4007343EA47230B609F0AD2F800C0A5
:203CE0004FEA9C2C00F041F818BF002723F4806343EA87230B60DF0A1268D20A07F0010722
:203D000002F00102974218BF002723F4006242EAC7220A60617800291EBF717800290521C8
:203D200019D16168C1F3800121B9B17C490758BF012110D50178002919BF317822783278BF
:203D400021780529B8BF052A08DA0FF28C1302EB8202D218895C2030017104E0182502E06F
:203D6000132500E011252846F2BD07F001070CF0010C674570470A46524B15E010B586B090
:203D80000446ADF800101046014608220DF10200FFF76AF94C4B00AA0B21204604F0DBF86A
:203DA00006B010BD0A46494B112104F0D4B81CB58DF8001004461046014606220DF1010076
:203DC000FFF752F9424B00AA0821204604F0C3F813BD0A463F4BE7E710B5FFF70AFFE0B160
:203DE000006A08B107F0E7FC2068806E08B107F0E2FC2068C06E08B107F0DDFC2068006F8C
:203E000008B107F0D8FC2068406F08B107F0D3FC206807F0D0FC00202060BDE8104000F098
:203E2000AFBC224900B5096885B081B14A6F03920A6F0292CA6E01928A6E00920B7F8A88D3
:203E40000978FFF73FF805B05DF804EBC4E705B000BD16490968102000291CBF0A6A002AFC
:203E600006D0896821B1087E117A814238BF0846704738B504460D48006800281CBF8568F5
:203E8000002D0CD02878207068786070201DA97C00F06FFD287E20726869E06031BD2046DE
:203EA000BDE8384010220021FFF7DCB84C480020EF7D0100057C01000D7C01008F7D0100CE
:203EC000B77D0100257E01004D7E0100957E0100A77E0100F77E0100010102010201010282
:203EE0000102030304010301010101010303020103000000DFF8C0068178FF2900D170475A
:203F00002DE9F84F40684FF4907202FB010400F030FA02FB0100009004F20B1001780129F9
:203F200008BF417800F08B8004F1740504F58C76287B022804BF00202873F18811B130796E
:203F4000FFF7AAF960892081DFF87006817A90F807C090F80C90C37A427B01EB0C0ECE4471
:203F60009E4402EB0E0704F5877E1FFA87F8BEF804707F1CAEF80470BEF800704744AEF891
:203F80000070BEF80270CF19AEF802703768DFF830666FB196F80EA037F81AB0D84427F8ED
:203FA0001A8007EB4A08B8F84A70CF19A8F84A70BCF1000F08BF002B04D1B9F1000F08BF74
:203FC000002A22D02189E2895118A18100212174217F012904BF618CE183417859B10121AC
:203FE0002177A978002904BF297B002903D1A97E09B9618CE183009924310A7C42B3022AAC
:2040000004BFC27A002A1FD121E0E28339B100212174217F012907D1618CE18304E0BEF8F4
:204020000610491CAEF806102189A2898A42D4D1207C08B1052901D0082100E03E212046E1
:20404000BDE8F44F07F002BD427A0AB102220A74C37BDFF87025DB0707D50169183101612C
:204060002368D9600021516106E052690A602268B168D1600021E183DFF84C1549690978DA
:2040800089074CBF807B81202870204600F076F901280BD001212046FDF759FB00F008F8C8
:2040A00001281CBFBDE8F14F07F094BDBDE8F18F2DE9F843DFF80005416880784FF4907297
:2040C00002FB001400F055F904F1680502FB01082868006804F18E0708B100200CE0A87BBF
:2040E000002804BF287E002807D13878002804BF207F012801D1608CE0832089E18B081876
:20410000401C6081204607F09DFC01281EBFDFF8BC040078012801D100F025F9287E01287F
:204120000CD16A8B6189208907F088FC30B121896289481C82421AD06A8B0FE0387801285A
:2041400015D17A886189208907F078FC00281FBF2189481C6289824209D07A88824206D041
:20416000501E608180B207F021FD401EE08308F1240898F8100008B100F0F5F804F12E0763
:20418000287E012801BF688B2189491C884237D1608104F18401204607F04CFC688CE1895E
:2041A000608400202077E08360890818A0812189688B07F0FBFCB988EA8BB5F820C001FB0D
:2041C0000026A88C8C4504BF3989884202BF698CFA88914206D003096A8CA0794FEA5C01D3
:2041E00004F007FC287F3870288CB880688CF880A88C3881204607F019FC0220287600E022
:20420000BE88E08B2268D2F80CC0401C00FB06F3DFF8BC6340F6C41000FB03F18C44C2F804
:204220000CC03668DFF8ACC33678BCF800E0DFF88C23B609032E12D1D67BF60748BF4FF09F
:20424000000E0CD40EF101061FFA86FEBEF1010F12BF668AB8F80E6006F2DC5600E0668A35
:204260005E434FF4C879B6FBF9F6761C6661ACF800E0A361E38BD4F800C084F82030D04BB7
:204280009E68DCF80CE0CCF810606669AEEB06069E60CCF80860DFF82CC31E7B06F0F0063B
:2042A00046F002061E7300265E80DCF814E066690EEB4606CCF814602D7E022D04D13D78B3
:2042C00000FB0565CCF81450D57BED071DD59D68A5F5A8659D60691A2668B5603161DCF8E6
:2042E000141001F5F661CCF81410C8F80010B988B94D00FB0150CCF81C00B8480078012881
:204300001EBFB148806A40780FE0BD88DCF814104543A1F5E661A5F51675A942E7D30821A1
:20432000204607F093FB01201BE08CF80B00AC49206843600020107050709070D0701071A6
:2043400050719071D071107250729072D07210735073D0731061072008702046FDF7EBFCF8
:204360000020BDE8F2830020E0832089401C608170479C48A1790068382270472DE9F0471F
:2043800082460AF106069748317800688B4C382282B002FB01080AF1E3090AF1E8070AF129
:2043A000660507E0504607F03DFB012835D15046FDF774FA687D80B3687C02281BD0042882
:2043C0002ED0052842D0062871D00728EAD0092800F0BF800B2800F08F800C2800F0C6804C
:2043E0000D2800F09E80FC2817D0FD2800F0DD80FE28DFD111E0287C012808D1E078002810
:204400005AD01621504607F021FB012006E05046FDF7C7FC2874E88A28830020BDE8F68743
:20442000287C01280ED1A078002845D0FC215046FDF752FA30780AF1B4020AF1AC0107F090
:20444000EDFAB7E7504607F0E5FAE3E7287C01280FD1A07828B101208AF892000020386016
:204460007860B87A01286BD106215046FDF734FAA0E799F80000012809D1504607F0C6FA86
:204480000128CAD10020B87201202874C5E799F801000028C1D00AF1C3020AF19C010AF107
:2044A000D30007F0AFFA012089F8000082E7287C01281DD1A078002842D0B08B30835046ED
:2044C000FDF7ECF900F09CF80120A871397A3078012903D1002107F091FA03E00122002122
:2044E00007F088FA002038723873F872B87261E7504607F07BFA8DE7287C012805D1F87A67
:20450000012808BFFC21B0D01AE0504607F06AFA0128BBD10020F8728AF892000120287413
:2045200048E7287C012810D1A07830B100208AF8920000F065F80120A871E078002810D189
:2045400000F058F8A2D122215CE7504607F00EFB60E7287C012805D1A0780028F0D0B08B67
:20456000308324E75046FDF7BFF853E7287C012815D1787E012808D1B87E012804D100F033
:2045800033F8002007F02AFA11E700F033F87FF444AF00F029F8222007F020FAD3E70120FD
:2045A000F876504607F016FA34E798F820105046FDF792F9B2E70000B04C0020704E00206D
:2045C000E04D0020384D002050C40100894C002048480020B6480020F0DDFFFF864C002054
:2045E000B84C002040480020388C0090FB8B3A7F31787047288B401E288380B2002870472F
:2046000001202870504607F0E1B9704738B5614D0446286808B1102032BD07F0D3F958B9E2
:20462000122007F0B7F8286020B1002101704470002032BD132032BD012032BD38B50400D1
:204640000D4618BF002D01D1022032BD032100A800F06CF900A82A4600F027F8040004D1FF
:20466000032200A9E81CFEF7FFFC204632BD30B504000D4618BF002D83B001D102203EBDC1
:204680000322E91C00A8FEF7EFFC00A801AA00F00CF848B90322294601A8FEF7FEFC0128CB
:2046A00001D100203EBD01203EBD817801F03F0141F040018170204600A980E030B50C46BE
:2046C000002818BF002C8DB0154600D00DB9022011E00146102200F06FF81022214604A859
:2046E000FEF735FD00F099F80446102208A92846FEF72DFD20460DB030BD70B5254C054667
:20470000206870B3A5B9027862B90822801CFEF7ABFC07F057F918B92168012008701FE060
:20472000012503E008220A30FEF79EFC2068B8B11220FEF767FC06000DD0C12030707570B9
:2047400010222068811CB01CFEF78EFC206840783146FEF75EFD206807F02DF8002020606C
:20476000012070BD80B5202003F0EAFD38B1024609480078BDE80840012105F0ACBC01BD78
:2047800005480078012105F0BEBC0248006800B101207047A8480020BB48002070B58CB0F4
:2047A00000F020F800F006F8280A8DF81E008DF81F50ABE01022214600A8FEF7C8BC70B5D0
:2047C0008CB000F00FF8FFF7F5FF032229460DF11D00FEF7BCFC00F020F8044603220DF1EB
:2047E0002D0198E004460D4616463022002100A8FEF738BC70B58CB0FFF7F4FFFFF7DAFFFD
:2048000000F08FF800F009F89DF82F109DF82E2001EB022131800CB070BD00A8C2E0F0B5E1
:2048200095B005460C4616461F463022002108A8FEF718FC1022294608A8FEF788FC1022AD
:20484000002100A8FEF70EFC07223146FFF7B4FF072239460DF10700FEF779FC1C9901B1C9
:2048600001218DF80E101A9901B101218DF80F101022002104A8FEF7F5FB1B99062205A8DB
:20488000FEF765FC1D9906220DF11A00FEF75FFC102221460CA8FEF75AFC00A90CA800F097
:2048A0001AF808A800F07EF80446102210A90CA8FEF7DAFB04A90CA800F00DF808A800F027
:2048C00071F805461E98102210A9FEF740FC45EA040015B0F0BD10B51022037811F8014BE6
:2048E0006340521E00F8013BF7D110BD70B50C468CB0154601461E461022FFF75DFF082275
:20490000214604A8FEF723FC00F00BF8FFF785FF0446102208A93046FEF719FC20460CB034
